{"abi":[{"type":"function","name":"calculatePurchaseReturn","inputs":[{"name":"_supply","type":"uint256","internalType":"uint256"},{"name":"_connectorBalance","type":"uint256","internalType":"uint256"},{"name":"_connectorWeight","type":"uint32","internalType":"uint32"},{"name":"_depositAmount","type":"uint256","internalType":"uint256"}],"outputs":[{"name":"","type":"uint256","internalType":"uint256"}],"stateMutability":"view"},{"type":"function","name":"calculateSaleReturn","inputs":[{"name":"_supply","type":"uint256","internalType":"uint256"},{"name":"_connectorBalance","type":"uint256","internalType":"uint256"},{"name":"_connectorWeight","type":"uint32","internalType":"uint32"},{"name":"_sellAmount","type":"uint256","internalType":"uint256"}],"outputs":[{"name":"","type":"uint256","internalType":"uint256"}],"stateMutability":"view"},{"type":"function","name":"version","inputs":[],"outputs":[{"name":"","type":"string","internalType":"string"}],"stateMutability":"view"}],"bytecode":{"object":"0x60c06040526003608090815262302e3360e81b60a0525f9061002190826107f4565b5034801561002d575f5ffd5b506001641c35fedd1560601b036021556001646c3390ecc9605e1b036022556001640cf801476160611b0360235560016431bdb23e1d605f1b0360245560016502fb1d8fe083605b1b0360255560016505b771955b37605a1b036026556001650af67a93bb5160591b0360275560016515060c256cb360581b036028556001651428a2f98d7360581b036029556001654d515663970960561b03602a55600165944620b0e70f60551b03602b55600166011c592761c66760541b03602c5560016602214d10d014eb60531b03602d55600166020ade36b7dbef60531b03602e5560016603eab73b3bbfe360521b03602f556001660782ee3593f6d760511b036030556001661ccf4b44bb4821604f1b0360315560016606e7f88ad8a77760511b0360325560016669f3d1c921891d604d1b03603355600166cb2ff529eb71e5604c1b03603455600166c2d415c3db974b604c1b0360355560016702eb40f9f620fda7604a1b0360365560016705990681d961a1eb60491b03603755600167055e12902701414760491b0360385560016714962dee9dc9764160471b0360395560016704ef57b9b560fab560491b03603a5560016712ed7b32a58f552b60471b03603b556001679131271922eaa60760441b03603c556001678b380f3558668c4760441b03603d556001680215f77c045fbe885760421b03603e556001600160831b03603f556001670f577eded5773a1160471b036040556001680eb5ec597592befbf5603f1b036041556001681c35fedd14b861eb05603e1b036042556001683619c87664579bc94b603d1b0360435560016867c00a3b07ffc01fd7603c1b03604455600168c6f6c8f8739773a7a5603b1b03604555600168bec763f8209b7a72b1603b1b0360465560016902dbb8caad9b7097b91b60391b03604755600169057b3d49dda84556d6f760381b03604855600169054183095b2c8ececf3160381b036049556001690a14517cc6b9457111ef60371b03604a5560016913545598e5c23276ccf160361b03604b556001692511882c39c3adea96ff60351b03604c55600169471649d87199aa99075760341b03604d557004429a21a029d4c1457cfbffffffffffff604e55700415bc6d6fb7dd71af2cb3ffffffffffff604f557003eab73b3bbfe282243ce1ffffffffffff6050557003c1771ac9fb6b4c18e229ffffffffffff605155700399e96897690418f785257fffffffffff605255700373fc456c53bb779bf0ea9fffffffffff60535570034f9e8e490c48e67e6ab8bfffffffffff60545570032cbfd4a7adc790560b3337ffffffffff60555570030b50570f6e5d2acca94613ffffffffff6056557002eb40f9f620fda6b56c2861ffffffffff6057557002cc8340ecb0d0f520a6af58ffffffffff6058557002af09481380a0a35cf1ba02ffffffffff605955700292c5bdd3b92ec810287b1b3fffffffff605a55700277abdcdab07d5a77ac6d6b9fffffffff605b5570025daf6654b1eaa55fd64df5efffffffff605c55700244c49c648baa98192dce88b7ffffffff605d5570022ce03cd5619a311b2471268bffffffff605e55700215f77c045fbe885654a44a0fffffffff605f556001600160811b036060557001eaefdbdaaee7421fc4d3ede5ffffffff6061557001d6bd8b2eb257df7e8ca57b09bfffffff6062557001c35fedd14b861eb0443f7f133fffffff6063557001b0ce43b322bcde4a56e8ada5afffffff60645570019f0028ec1fff007f5a195a39dfffffff60655570018ded91f0e72ee74f49b15ba527ffffff60665570017d8ec7f04136f4e5615fd41a63ffffff60675570016ddc6556cdb84bdc8d12d22e6fffffff60685570015ecf52776a1155b5bd8395814f7fffff60695570015060c256cb23b3b3cc3754cf40ffffff606a557001428a2f98d728ae223ddab715be3fffff606b5570013545598e5c23276ccf0ede68034fffff606c557001288c4161ce1d6f54b7f61081194fffff606d5570011c592761c666aa641d5a01a40f17ffff606e55700110a688680a7530515f3e6e6cfdcdffff606f557001056f1b5bedf75c6bcb2ce8aed428ffff6070556ffaadceceeff8a0890f3875f008277fff6071556ff05dc6b27edad306388a600f6ba0bfff6072556fe67a5a25da41063de1495d5b18cdbfff6073556fdcff115b14eedde6fc3aa5353f2e4fff6074556fd3e7a3924312399f9aae2e0f868f8fff6075556fcb2ff529eb71e41582cccd5a1ee26fff6076556fc2d415c3db974ab32a51840c0b67edff6077556fbad03e7d883f69ad5b0a186184e06bff6078556fb320d03b2c343d4829abd6075f0cc5ff6079556fabc25204e02828d73c6e80bcdb1a95bf607a556fa4b16f74ee4bb2040a1ec6c15fbbf2df607b556f9deaf736ac1f569deb1b5ae3f36c130f607c556f976bd9952c7aa957f5937d790ef65037607d556f9131271922eaa6064b73a22d0bd4f2bf607e556f8b380f3558668c46c91c49a2f8e967b9607f556f857ddf0117efa215952912839f6473e66080556108ae565b634e487b7160e01b5f52604160045260245ffd5b600181811c9082168061078457607f821691505b6020821081036107a257634e487b7160e01b5f52602260045260245ffd5b50919050565b601f8211156107ef57805f5260205f20601f840160051c810160208510156107cd5750805b601f840160051c820191505b818110156107ec575f81556001016107d9565b50505b505050565b81516001600160401b0381111561080d5761080d61075c565b6108218161081b8454610770565b846107a8565b6020601f821160018114610853575f831561083c5750848201515b5f19600385901b1c1916600184901b1784556107ec565b5f84815260208120601f198516915b828110156108825787850151825560209485019460019092019101610862565b508482101561089f57868401515f19600387901b60f8161c191681555b50505050600190811b01905550565b611aeb806108bb5f395ff3fe608060405234801561000f575f5ffd5b506004361061003f575f3560e01c806329a00e7c1461004357806349f9b0f71461006957806354fd4d501461007c575b5f5ffd5b6100566100513660046118e3565b610091565b6040519081526020015b60405180910390f35b6100566100773660046118e3565b61014e565b610084610229565b6040516100609190611927565b5f5f851180156100a057505f84115b80156100b157505f8363ffffffff16115b80156100c65750620f424063ffffffff841611155b6100ce575f5ffd5b815f036100dc57505f610146565b620f423f1963ffffffff8416016100ff576100f88583866102b4565b9050610146565b5f808061010c8786611970565b905061011d818888620f424061036b565b90935091505f60ff8316610131858b611983565b901c905061013f898261199a565b9450505050505b949350505050565b5f5f8511801561015d57505f84115b801561016e57505f8363ffffffff16115b80156101835750620f424063ffffffff841611155b801561018f5750848211155b610197575f5ffd5b815f036101a557505f610146565b8482036101b3575082610146565b620f423f1963ffffffff8416016101cf576100f88483876102b4565b5f80806101dc858961199a565b90506101ed8882620f42408961036b565b90935091505f6101fd8489611983565b905060ff831688901b84610211828461199a565b61021b91906119c1565b9a9950505050505050505050565b5f8054610235906119d4565b80601f0160208091040260200160405190810160405280929190818152602001828054610261906119d4565b80156102ac5780601f10610283576101008083540402835291602001916102ac565b820191905f5260205f20905b81548152906001019060200180831161028f57829003601f168201915b505050505081565b5f838302815f1985870982811083820303915050805f036102e8578382816102de576102de6119ad565b0492505050610364565b8084116102ff576102ff60038515026011186104ab565b5f848688095f868103871696879004966002600389028118808a02820302808a02820302808a02820302808a02820302808a02820302808a02909103029181900381900460010186841190950394909402919094039290920491909117919091029150505b9392505050565b5f5f600160811b861061038057610380611a0c565b848610156103d45760405162461bcd60e51b815260206004820152601c60248201527f4261736573203c203120617265206e6f7420737570706f727465642e00000000604482015260640160405180910390fd5b5f80866103e56001607f1b8a611983565b6103ef91906119c1565b905070015bf0a8b1457695355fb8ac404e7a79e381101561041a57610413816104bc565b9150610426565b61042381610a34565b91505b5f8563ffffffff168763ffffffff16846104409190611983565b61044a91906119c1565b9050600160831b81101561046f5761046181610b21565b607f945094505050506104a2565b5f6104798261114b565b905061049561048982607f611a20565b60ff1683901c8261120d565b955093506104a292505050565b94509492505050565b634e487b715f52806020526024601cfd5b5f808080806fd3094c70f034de4b96ff7d5b6f99fcd88610610514576104e66001607e1b85611970565b93506fd3094c70f034de4b96ff7d5b6f99fcd86105076001607f1b88611983565b61051191906119c1565b95505b6fa45af1e1f40c333b3de1db4dd55f29a78610610567576105396001607d1b85611970565b93506fa45af1e1f40c333b3de1db4dd55f29a761055a6001607f1b88611983565b61056491906119c1565b95505b6f910b022db7ae67ce76b441c27035c6a186106105ba5761058c6001607c1b85611970565b93506f910b022db7ae67ce76b441c27035c6a16105ad6001607f1b88611983565b6105b791906119c1565b95505b6f88415abbe9a76bead8d00cf112e4d4a8861061060d576105df6001607b1b85611970565b93506f88415abbe9a76bead8d00cf112e4d4a86106006001607f1b88611983565b61060a91906119c1565b95505b6f84102b00893f64c705e841d5d4064bd38610610660576106326001607a1b85611970565b93506f84102b00893f64c705e841d5d4064bd36106536001607f1b88611983565b61065d91906119c1565b95505b6f8204055aaef1c8bd5c3259f4822735a286106106b357610685600160791b85611970565b93506f8204055aaef1c8bd5c3259f4822735a26106a66001607f1b88611983565b6106b091906119c1565b95505b6f810100ab00222d861931c15e39b44e998610610706576106d8600160781b85611970565b93506f810100ab00222d861931c15e39b44e996106f96001607f1b88611983565b61070391906119c1565b95505b6f808040155aabbbe9451521693554f73386106107595761072b600160771b85611970565b93506f808040155aabbbe9451521693554f73361074c6001607f1b88611983565b61075691906119c1565b95505b6107676001607f1b8761199a565b92508291506001607f1b61077b8380611983565b61078591906119c1565b9050600160801b610796848261199a565b6107a09084611983565b6107aa91906119c1565b6107b49085611970565b93506001607f1b6107c58284611983565b6107cf91906119c1565b9150600160811b6107f0846faaaaaaaaaaaaaaaaaaaaaaaaaaaaaaaa61199a565b6107fa9084611983565b61080491906119c1565b61080e9085611970565b93506001607f1b61081f8284611983565b61082991906119c1565b9150600360801b61084a846f9999999999999999999999999999999961199a565b6108549084611983565b61085e91906119c1565b6108689085611970565b93506001607f1b6108798284611983565b61088391906119c1565b9150600160821b6108a4846f9249249249249249249249249249249261199a565b6108ae9084611983565b6108b891906119c1565b6108c29085611970565b93506001607f1b6108d38284611983565b6108dd91906119c1565b9150600560801b6108fe846f8e38e38e38e38e38e38e38e38e38e38e61199a565b6109089084611983565b61091291906119c1565b61091c9085611970565b93506001607f1b61092d8284611983565b61093791906119c1565b9150600360811b610958846f8ba2e8ba2e8ba2e8ba2e8ba2e8ba2e8b61199a565b6109629084611983565b61096c91906119c1565b6109769085611970565b93506001607f1b6109878284611983565b61099191906119c1565b9150600760801b6109b2846f89d89d89d89d89d89d89d89d89d89d8961199a565b6109bc9084611983565b6109c691906119c1565b6109d09085611970565b93506001607f1b6109e18284611983565b6109eb91906119c1565b9150600160831b610a0c846f8888888888888888888888888888888861199a565b610a169084611983565b610a2091906119c1565b610a2a9085611970565b9695505050505050565b5f8082600160801b8110610a77575f610a59610a546001607f1b846119c1565b611875565b60ff811692831c92909150610a73906001607f1b90611983565b9250505b6001607f1b811115610aec57607f5b60ff811615610aea576001607f1b610a9e8380611983565b610aa891906119c1565b9150600160801b8210610ada57600191821c91610ac59082611a20565b60ff166001901b83610ad79190611970565b92505b610ae381611a39565b9050610a86565b505b6f05b9de1d10bf4103d647b0955897ba80610b176f03f80fe03f80fe03f80fe03f80fe03f884611983565b61014691906119c1565b5f808080610b336001607c1b86611a54565b91508190506001607f1b610b478280611983565b610b5191906119c1565b9050610b65816710e1b3be415a0000611983565b610b6f9084611970565b92506001607f1b610b808383611983565b610b8a91906119c1565b9050610b9e816705a0913f6b1e0000611983565b610ba89084611970565b92506001607f1b610bb98383611983565b610bc391906119c1565b9050610bd781670168244fdac78000611983565b610be19084611970565b92506001607f1b610bf28383611983565b610bfc91906119c1565b9050610c0f81664807432bc18000611983565b610c199084611970565b92506001607f1b610c2a8383611983565b610c3491906119c1565b9050610c4781660c0135dca04000611983565b610c519084611970565b92506001607f1b610c628383611983565b610c6c91906119c1565b9050610c7f816601b707b1cdc000611983565b610c899084611970565b92506001607f1b610c9a8383611983565b610ca491906119c1565b9050610cb6816536e0f639b800611983565b610cc09084611970565b92506001607f1b610cd18383611983565b610cdb91906119c1565b9050610ced81650618fee9f800611983565b610cf79084611970565b92506001607f1b610d088383611983565b610d1291906119c1565b9050610d2381649c197dcc00611983565b610d2d9084611970565b92506001607f1b610d3e8383611983565b610d4891906119c1565b9050610d5981640e30dce400611983565b610d639084611970565b92506001607f1b610d748383611983565b610d7e91906119c1565b9050610d8f8164012ebd1300611983565b610d999084611970565b92506001607f1b610daa8383611983565b610db491906119c1565b9050610dc4816317499f00611983565b610dce9084611970565b92506001607f1b610ddf8383611983565b610de991906119c1565b9050610df9816301a9d480611983565b610e039084611970565b92506001607f1b610e148383611983565b610e1e91906119c1565b9050610e2d81621c6380611983565b610e379084611970565b92506001607f1b610e488383611983565b610e5291906119c1565b9050610e61816201c638611983565b610e6b9084611970565b92506001607f1b610e7c8383611983565b610e8691906119c1565b9050610e9481611ab8611983565b610e9e9084611970565b92506001607f1b610eaf8383611983565b610eb991906119c1565b9050610ec78161017c611983565b610ed19084611970565b92506001607f1b610ee28383611983565b610eec91906119c1565b9050610ef9816014611983565b610f039084611970565b92506001607f1b610f148383611983565b610f1e91906119c1565b9050610f2b816001611983565b610f359084611970565b92506001607f1b82610f4f6721c3677c82b40000866119c1565b610f599190611970565b610f639190611970565b92506001607c1b851615610fab5770018ebef9eac820ae8682b9793ac6d1e776610f9e847001c3d6a24ed82218787d624d3e5eba95f9611983565b610fa891906119c1565b92505b6001607d1b851615610ff1577001368b2fc6f9609fe7aceb46aa619baed4610fe48470018ebef9eac820ae8682b9793ac6d1e778611983565b610fee91906119c1565b92505b6001607e1b851615611036576fbc5ab1b16779be3575bd8f0520a9f21f611029847001368b2fc6f9609fe7aceb46aa619baed5611983565b61103391906119c1565b92505b6001607f1b85161561107a576f454aaa8efe072e7f6ddbab84b40a55c961106d846fbc5ab1b16779be3575bd8f0520a9f21e611983565b61107791906119c1565b92505b600160801b8516156110be576f0960aadc109e7a3bf4578099615711ea6110b1846f454aaa8efe072e7f6ddbab84b40a55c5611983565b6110bb91906119c1565b92505b600160811b851615611101576e2bf84208204f5977f9a8cf01fdce3d6110f4846f0960aadc109e7a3bf4578099615711d7611983565b6110fe91906119c1565b92505b600160821b851615611142576d03c6ab775dd0b95b4cbee7e65d11611135846e2bf84208204f5977f9a8cf01fdc307611983565b61113f91906119c1565b92505b50909392505050565b5f6020607f5b60ff8116611160836001611a67565b60ff1610156111b2575f60026111768385611a67565b6111809190611a80565b90508460018260ff166080811061119957611199611aa1565b0154106111a8578092506111ac565b8091505b50611151565b8360018260ff16608081106111c9576111c9611aa1565b0154106111d7579392505050565b8360018360ff16608081106111ee576111ee611aa1565b0154106111fc575092915050565b611204611a0c565b505f9392505050565b5f828160ff841661121e8380611983565b901c915061123c826f03442c4e6074a82f1797f72ac0000000611983565b6112469082611970565b905060ff84166112568684611983565b901c9150611274826f0116b96f757c380fb287fd0e40000000611983565b61127e9082611970565b905060ff841661128e8684611983565b901c91506112ab826e45ae5bdd5f0e03eca1ff4390000000611983565b6112b59082611970565b905060ff84166112c58684611983565b901c91506112e2826e0defabf91302cd95b9ffda50000000611983565b6112ec9082611970565b905060ff84166112fc8684611983565b901c9150611319826e02529ca9832b22439efff9b8000000611983565b6113239082611970565b905060ff84166113338684611983565b901c915061134f826d54f1cf12bd04e516b6da88000000611983565b6113599082611970565b905060ff84166113698684611983565b901c9150611385826d0a9e39e257a09ca2d6db51000000611983565b61138f9082611970565b905060ff841661139f8684611983565b901c91506113bb826d012e066e7b839fa050c309000000611983565b6113c59082611970565b905060ff84166113d58684611983565b901c91506113f0826c1e33d7d926c329a1ad1a800000611983565b6113fa9082611970565b905060ff841661140a8684611983565b901c9150611425826c02bee513bdb4a6b19b5f800000611983565b61142f9082611970565b905060ff841661143f8684611983565b901c9150611459826b3a9316fa79b88eccf2a00000611983565b6114639082611970565b905060ff84166114738684611983565b901c915061148d826b048177ebe1fa812375200000611983565b6114979082611970565b905060ff84166114a78684611983565b901c91506114c0826a5263fe90242dcbacf00000611983565b6114ca9082611970565b905060ff84166114da8684611983565b901c91506114f3826a057e22099c030d94100000611983565b6114fd9082611970565b905060ff841661150d8684611983565b901c9150611525826957e22099c030d9410000611983565b61152f9082611970565b905060ff841661153f8684611983565b901c91506115578269052b6b54569976310000611983565b6115619082611970565b905060ff84166115718684611983565b901c915061158882684985f67696bf748000611983565b6115929082611970565b905060ff84166115a28684611983565b901c91506115b9826803dea12ea99e498000611983565b6115c39082611970565b905060ff84166115d38684611983565b901c91506115e9826731880f2214b6e000611983565b6115f39082611970565b905060ff84166116038684611983565b901c91506116198267025bcff56eb36000611983565b6116239082611970565b905060ff84166116338684611983565b901c915061164882661b722e10ab1000611983565b6116529082611970565b905060ff84166116628684611983565b901c9150611677826601317c70077000611983565b6116819082611970565b905060ff84166116918684611983565b901c91506116a582650cba84aafa00611983565b6116af9082611970565b905060ff84166116bf8684611983565b901c91506116d2826482573a0a00611983565b6116dc9082611970565b905060ff84166116ec8684611983565b901c91506116ff826405035ad900611983565b6117099082611970565b905060ff84166117198684611983565b901c915061172b82632f881b00611983565b6117359082611970565b905060ff84166117458684611983565b901c9150611757826301b29340611983565b6117619082611970565b905060ff84166117718684611983565b901c915061178282620efc40611983565b61178c9082611970565b905060ff841661179c8684611983565b901c91506117ac82617fe0611983565b6117b69082611970565b905060ff84166117c68684611983565b901c91506117d682610420611983565b6117e09082611970565b905060ff84166117f08684611983565b901c91506117ff826021611983565b6118099082611970565b905060ff84166118198684611983565b901c9150611828826001611983565b6118329082611970565b9050600160ff85161b856118566f0688589cc0e9505e2f2fee5580000000846119c1565b6118609190611970565b61186a9190611970565b925050505b92915050565b5f80826101008110156118a8575b60018111156118a357600190811c9061189c9083611a67565b9150611883565b6118dc565b60805b60ff8116156118da57600160ff82161b82106118cf579182179160ff81169190911c905b60011c607f166118ab565b505b5092915050565b5f5f5f5f608085870312156118f6575f5ffd5b8435935060208501359250604085013563ffffffff81168114611917575f5ffd5b9396929550929360600135925050565b602081525f82518060208401528060208501604085015e5f604082850101526040601f19601f83011684010191505092915050565b634e487b7160e01b5f52601160045260245ffd5b8082018082111561186f5761186f61195c565b808202811582820484141761186f5761186f61195c565b8181038181111561186f5761186f61195c565b634e487b7160e01b5f52601260045260245ffd5b5f826119cf576119cf6119ad565b500490565b600181811c908216806119e857607f821691505b602082108103611a0657634e487b7160e01b5f52602260045260245ffd5b50919050565b634e487b7160e01b5f52600160045260245ffd5b60ff828116828216039081111561186f5761186f61195c565b5f60ff821680611a4b57611a4b61195c565b5f190192915050565b5f82611a6257611a626119ad565b500690565b60ff818116838216019081111561186f5761186f61195c565b5f60ff831680611a9257611a926119ad565b8060ff84160491505092915050565b634e487b7160e01b5f52603260045260245ffdfea264697066735822122035943802b349839446170c9ccba960e83b6245aa208420e96f89a16a5791a9b864736f6c634300081b0033","linkReferences":{}},"methodIdentifiers":{"calculatePurchaseReturn(uint256,uint256,uint32,uint256)":"29a00e7c","calculateSaleReturn(uint256,uint256,uint32,uint256)":"49f9b0f7","version()":"54fd4d50"},"id":45}