{"abi":[{"type":"function","name":"calculateInitialPurchaseReturn","inputs":[{"name":"_connectorWeight","type":"uint32","internalType":"uint32"},{"name":"_depositAmount","type":"uint256","internalType":"uint256"},{"name":"slope","type":"uint256","internalType":"uint256"}],"outputs":[{"name":"","type":"uint256","internalType":"uint256"}],"stateMutability":"view"},{"type":"function","name":"calculatePurchaseReturn","inputs":[{"name":"_supply","type":"uint256","internalType":"uint256"},{"name":"_connectorBalance","type":"uint256","internalType":"uint256"},{"name":"_connectorWeight","type":"uint32","internalType":"uint32"},{"name":"_depositAmount","type":"uint256","internalType":"uint256"}],"outputs":[{"name":"","type":"uint256","internalType":"uint256"}],"stateMutability":"view"},{"type":"function","name":"calculateSaleReturn","inputs":[{"name":"_supply","type":"uint256","internalType":"uint256"},{"name":"_connectorBalance","type":"uint256","internalType":"uint256"},{"name":"_connectorWeight","type":"uint32","internalType":"uint32"},{"name":"_sellAmount","type":"uint256","internalType":"uint256"}],"outputs":[{"name":"","type":"uint256","internalType":"uint256"}],"stateMutability":"view"},{"type":"function","name":"version","inputs":[],"outputs":[{"name":"","type":"string","internalType":"string"}],"stateMutability":"view"},{"type":"error","name":"PRBMath_MulDiv18_Overflow","inputs":[{"name":"x","type":"uint256","internalType":"uint256"},{"name":"y","type":"uint256","internalType":"uint256"}]},{"type":"error","name":"PRBMath_MulDiv_Overflow","inputs":[{"name":"x","type":"uint256","internalType":"uint256"},{"name":"y","type":"uint256","internalType":"uint256"},{"name":"denominator","type":"uint256","internalType":"uint256"}]},{"type":"error","name":"PRBMath_UD60x18_Exp2_InputTooBig","inputs":[{"name":"x","type":"uint256","internalType":"UD60x18"}]},{"type":"error","name":"PRBMath_UD60x18_Log_InputTooSmall","inputs":[{"name":"x","type":"uint256","internalType":"UD60x18"}]}],"bytecode":{"object":"0x60c06040526003608090815262302e3360e81b60a0525f9061002190826107f4565b5034801561002d575f5ffd5b506001641c35fedd1560601b036021556001646c3390ecc9605e1b036022556001640cf801476160611b0360235560016431bdb23e1d605f1b0360245560016502fb1d8fe083605b1b0360255560016505b771955b37605a1b036026556001650af67a93bb5160591b0360275560016515060c256cb360581b036028556001651428a2f98d7360581b036029556001654d515663970960561b03602a55600165944620b0e70f60551b03602b55600166011c592761c66760541b03602c5560016602214d10d014eb60531b03602d55600166020ade36b7dbef60531b03602e5560016603eab73b3bbfe360521b03602f556001660782ee3593f6d760511b036030556001661ccf4b44bb4821604f1b0360315560016606e7f88ad8a77760511b0360325560016669f3d1c921891d604d1b03603355600166cb2ff529eb71e5604c1b03603455600166c2d415c3db974b604c1b0360355560016702eb40f9f620fda7604a1b0360365560016705990681d961a1eb60491b03603755600167055e12902701414760491b0360385560016714962dee9dc9764160471b0360395560016704ef57b9b560fab560491b03603a5560016712ed7b32a58f552b60471b03603b556001679131271922eaa60760441b03603c556001678b380f3558668c4760441b03603d556001680215f77c045fbe885760421b03603e556001600160831b03603f556001670f577eded5773a1160471b036040556001680eb5ec597592befbf5603f1b036041556001681c35fedd14b861eb05603e1b036042556001683619c87664579bc94b603d1b0360435560016867c00a3b07ffc01fd7603c1b03604455600168c6f6c8f8739773a7a5603b1b03604555600168bec763f8209b7a72b1603b1b0360465560016902dbb8caad9b7097b91b60391b03604755600169057b3d49dda84556d6f760381b03604855600169054183095b2c8ececf3160381b036049556001690a14517cc6b9457111ef60371b03604a5560016913545598e5c23276ccf160361b03604b556001692511882c39c3adea96ff60351b03604c55600169471649d87199aa99075760341b03604d557004429a21a029d4c1457cfbffffffffffff604e55700415bc6d6fb7dd71af2cb3ffffffffffff604f557003eab73b3bbfe282243ce1ffffffffffff6050557003c1771ac9fb6b4c18e229ffffffffffff605155700399e96897690418f785257fffffffffff605255700373fc456c53bb779bf0ea9fffffffffff60535570034f9e8e490c48e67e6ab8bfffffffffff60545570032cbfd4a7adc790560b3337ffffffffff60555570030b50570f6e5d2acca94613ffffffffff6056557002eb40f9f620fda6b56c2861ffffffffff6057557002cc8340ecb0d0f520a6af58ffffffffff6058557002af09481380a0a35cf1ba02ffffffffff605955700292c5bdd3b92ec810287b1b3fffffffff605a55700277abdcdab07d5a77ac6d6b9fffffffff605b5570025daf6654b1eaa55fd64df5efffffffff605c55700244c49c648baa98192dce88b7ffffffff605d5570022ce03cd5619a311b2471268bffffffff605e55700215f77c045fbe885654a44a0fffffffff605f556001600160811b036060557001eaefdbdaaee7421fc4d3ede5ffffffff6061557001d6bd8b2eb257df7e8ca57b09bfffffff6062557001c35fedd14b861eb0443f7f133fffffff6063557001b0ce43b322bcde4a56e8ada5afffffff60645570019f0028ec1fff007f5a195a39dfffffff60655570018ded91f0e72ee74f49b15ba527ffffff60665570017d8ec7f04136f4e5615fd41a63ffffff60675570016ddc6556cdb84bdc8d12d22e6fffffff60685570015ecf52776a1155b5bd8395814f7fffff60695570015060c256cb23b3b3cc3754cf40ffffff606a557001428a2f98d728ae223ddab715be3fffff606b5570013545598e5c23276ccf0ede68034fffff606c557001288c4161ce1d6f54b7f61081194fffff606d5570011c592761c666aa641d5a01a40f17ffff606e55700110a688680a7530515f3e6e6cfdcdffff606f557001056f1b5bedf75c6bcb2ce8aed428ffff6070556ffaadceceeff8a0890f3875f008277fff6071556ff05dc6b27edad306388a600f6ba0bfff6072556fe67a5a25da41063de1495d5b18cdbfff6073556fdcff115b14eedde6fc3aa5353f2e4fff6074556fd3e7a3924312399f9aae2e0f868f8fff6075556fcb2ff529eb71e41582cccd5a1ee26fff6076556fc2d415c3db974ab32a51840c0b67edff6077556fbad03e7d883f69ad5b0a186184e06bff6078556fb320d03b2c343d4829abd6075f0cc5ff6079556fabc25204e02828d73c6e80bcdb1a95bf607a556fa4b16f74ee4bb2040a1ec6c15fbbf2df607b556f9deaf736ac1f569deb1b5ae3f36c130f607c556f976bd9952c7aa957f5937d790ef65037607d556f9131271922eaa6064b73a22d0bd4f2bf607e556f8b380f3558668c46c91c49a2f8e967b9607f556f857ddf0117efa215952912839f6473e66080556108ae565b634e487b7160e01b5f52604160045260245ffd5b600181811c9082168061078457607f821691505b6020821081036107a257634e487b7160e01b5f52602260045260245ffd5b50919050565b601f8211156107ef57805f5260205f20601f840160051c810160208510156107cd5750805b601f840160051c820191505b818110156107ec575f81556001016107d9565b50505b505050565b81516001600160401b0381111561080d5761080d61075c565b6108218161081b8454610770565b846107a8565b6020601f821160018114610853575f831561083c5750848201515b5f19600385901b1c1916600184901b1784556107ec565b5f84815260208120601f198516915b828110156108825787850151825560209485019460019092019101610862565b508482101561089f57868401515f19600387901b60f8161c191681555b50505050600190811b01905550565b612783806108bb5f395ff3fe608060405234801561000f575f5ffd5b506004361061004a575f3560e01c806329a00e7c1461004e57806337525b1e1461007457806349f9b0f71461008757806354fd4d501461009a575b5f5ffd5b61006161005c366004612555565b6100af565b6040519081526020015b60405180910390f35b61006161008236600461258f565b61016c565b610061610095366004612555565b6101ea565b6100a26102c5565b60405161006b91906125bf565b5f5f851180156100be57505f84115b80156100cf57505f8363ffffffff16115b80156100e45750620f424063ffffffff841611155b6100ec575f5ffd5b815f036100fa57505f610164565b620f423f1963ffffffff84160161011d57610116858386610350565b9050610164565b5f808061012a8786612608565b905061013b818888620f4240610406565b90935091505f60ff831661014f858b61261b565b901c905061015d8982612632565b9450505050505b949350505050565b5f828161018a846ec097ce7bc90715b34b9f10000000005b9061057a565b90505f6101a0620f424063ffffffff8916610184565b90505f6101b663ffffffff8916620f4240610184565b90505f6101cd826101c78787610594565b90610594565b90505f6101da82856105a2565b96505050505050505b9392505050565b5f5f851180156101f957505f84115b801561020a57505f8363ffffffff16115b801561021f5750620f424063ffffffff841611155b801561022b5750848211155b610233575f5ffd5b815f0361024157505f610164565b84820361024f575082610164565b620f423f1963ffffffff84160161026b57610116848387610350565b5f80806102788589612632565b90506102898882620f424089610406565b90935091505f610299848961261b565b905060ff831688901b846102ad8284612632565b6102b79190612659565b9a9950505050505050505050565b5f80546102d19061266c565b80601f01602080910402602001604051908101604052809291908181526020018280546102fd9061266c565b80156103485780601f1061031f57610100808354040283529160200191610348565b820191905f5260205f20905b81548152906001019060200180831161032b57829003601f168201915b505050505081565b5f838302815f1985870982811083820303915050805f036103845783828161037a5761037a612645565b04925050506101e3565b80841161039b5761039b60038515026011186106b0565b5f848688095f868103871696879004966002600389028118808a02820302808a02820302808a02820302808a02820302808a02820302808a02909103029181900381900460010186841190950394909402919094039290920491909117919091029150509392505050565b5f5f600160811b86106104535760405162461bcd60e51b815260206004820152601060248201526f13585e081b9d5b48195e18d95959195960821b60448201526064015b60405180910390fd5b848610156104a35760405162461bcd60e51b815260206004820152601c60248201527f4261736573203c203120617265206e6f7420737570706f727465642e00000000604482015260640161044a565b5f80866104b46001607f1b8a61261b565b6104be9190612659565b905070015bf0a8b1457695355fb8ac404e7a79e38110156104e9576104e2816106c1565b91506104f5565b6104f281610c39565b91505b5f8563ffffffff168763ffffffff168461050f919061261b565b6105199190612659565b9050600160831b81101561053e5761053081610d26565b607f94509450505050610571565b5f61054882611350565b905061056461055882607f6126a4565b60ff1683901c82611412565b9550935061057192505050565b94509492505050565b5f6101e361059184670de0b6b3a764000085611a78565b90565b5f6101e36105918484611b3d565b5f82828183036105cb5780156105b8575f6105c2565b670de0b6b3a76400005b925050506106aa565b670de0b6b3a764000082036105ec57670de0b6b3a7640000925050506106aa565b805f0361060557670de0b6b3a7640000925050506106aa565b670de0b6b3a7640000810361061e5784925050506106aa565b670de0b6b3a764000082111561064f5761064861064361063d87611bef565b86610594565b611d1d565b92506106a7565b5f61066c610591846ec097ce7bc90715b34b9f1000000000612659565b90505f61068461064361067e84611bef565b88610594565b90506106a2610591826ec097ce7bc90715b34b9f1000000000612659565b945050505b50505b92915050565b634e487b715f52806020526024601cfd5b5f808080806fd3094c70f034de4b96ff7d5b6f99fcd88610610719576106eb6001607e1b85612608565b93506fd3094c70f034de4b96ff7d5b6f99fcd861070c6001607f1b8861261b565b6107169190612659565b95505b6fa45af1e1f40c333b3de1db4dd55f29a7861061076c5761073e6001607d1b85612608565b93506fa45af1e1f40c333b3de1db4dd55f29a761075f6001607f1b8861261b565b6107699190612659565b95505b6f910b022db7ae67ce76b441c27035c6a186106107bf576107916001607c1b85612608565b93506f910b022db7ae67ce76b441c27035c6a16107b26001607f1b8861261b565b6107bc9190612659565b95505b6f88415abbe9a76bead8d00cf112e4d4a88610610812576107e46001607b1b85612608565b93506f88415abbe9a76bead8d00cf112e4d4a86108056001607f1b8861261b565b61080f9190612659565b95505b6f84102b00893f64c705e841d5d4064bd38610610865576108376001607a1b85612608565b93506f84102b00893f64c705e841d5d4064bd36108586001607f1b8861261b565b6108629190612659565b95505b6f8204055aaef1c8bd5c3259f4822735a286106108b85761088a600160791b85612608565b93506f8204055aaef1c8bd5c3259f4822735a26108ab6001607f1b8861261b565b6108b59190612659565b95505b6f810100ab00222d861931c15e39b44e99861061090b576108dd600160781b85612608565b93506f810100ab00222d861931c15e39b44e996108fe6001607f1b8861261b565b6109089190612659565b95505b6f808040155aabbbe9451521693554f733861061095e57610930600160771b85612608565b93506f808040155aabbbe9451521693554f7336109516001607f1b8861261b565b61095b9190612659565b95505b61096c6001607f1b87612632565b92508291506001607f1b610980838061261b565b61098a9190612659565b9050600160801b61099b8482612632565b6109a5908461261b565b6109af9190612659565b6109b99085612608565b93506001607f1b6109ca828461261b565b6109d49190612659565b9150600160811b6109f5846faaaaaaaaaaaaaaaaaaaaaaaaaaaaaaaa612632565b6109ff908461261b565b610a099190612659565b610a139085612608565b93506001607f1b610a24828461261b565b610a2e9190612659565b9150600360801b610a4f846f99999999999999999999999999999999612632565b610a59908461261b565b610a639190612659565b610a6d9085612608565b93506001607f1b610a7e828461261b565b610a889190612659565b9150600160821b610aa9846f92492492492492492492492492492492612632565b610ab3908461261b565b610abd9190612659565b610ac79085612608565b93506001607f1b610ad8828461261b565b610ae29190612659565b9150600560801b610b03846f8e38e38e38e38e38e38e38e38e38e38e612632565b610b0d908461261b565b610b179190612659565b610b219085612608565b93506001607f1b610b32828461261b565b610b3c9190612659565b9150600360811b610b5d846f8ba2e8ba2e8ba2e8ba2e8ba2e8ba2e8b612632565b610b67908461261b565b610b719190612659565b610b7b9085612608565b93506001607f1b610b8c828461261b565b610b969190612659565b9150600760801b610bb7846f89d89d89d89d89d89d89d89d89d89d89612632565b610bc1908461261b565b610bcb9190612659565b610bd59085612608565b93506001607f1b610be6828461261b565b610bf09190612659565b9150600160831b610c11846f88888888888888888888888888888888612632565b610c1b908461261b565b610c259190612659565b610c2f9085612608565b9695505050505050565b5f8082600160801b8110610c7c575f610c5e610c596001607f1b84612659565b611d71565b60ff811692831c92909150610c78906001607f1b9061261b565b9250505b6001607f1b811115610cf157607f5b60ff811615610cef576001607f1b610ca3838061261b565b610cad9190612659565b9150600160801b8210610cdf57600191821c91610cca90826126a4565b60ff166001901b83610cdc9190612608565b92505b610ce8816126bd565b9050610c8b565b505b6f05b9de1d10bf4103d647b0955897ba80610d1c6f03f80fe03f80fe03f80fe03f80fe03f88461261b565b6101649190612659565b5f808080610d386001607c1b866126d8565b91508190506001607f1b610d4c828061261b565b610d569190612659565b9050610d6a816710e1b3be415a000061261b565b610d749084612608565b92506001607f1b610d85838361261b565b610d8f9190612659565b9050610da3816705a0913f6b1e000061261b565b610dad9084612608565b92506001607f1b610dbe838361261b565b610dc89190612659565b9050610ddc81670168244fdac7800061261b565b610de69084612608565b92506001607f1b610df7838361261b565b610e019190612659565b9050610e1481664807432bc1800061261b565b610e1e9084612608565b92506001607f1b610e2f838361261b565b610e399190612659565b9050610e4c81660c0135dca0400061261b565b610e569084612608565b92506001607f1b610e67838361261b565b610e719190612659565b9050610e84816601b707b1cdc00061261b565b610e8e9084612608565b92506001607f1b610e9f838361261b565b610ea99190612659565b9050610ebb816536e0f639b80061261b565b610ec59084612608565b92506001607f1b610ed6838361261b565b610ee09190612659565b9050610ef281650618fee9f80061261b565b610efc9084612608565b92506001607f1b610f0d838361261b565b610f179190612659565b9050610f2881649c197dcc0061261b565b610f329084612608565b92506001607f1b610f43838361261b565b610f4d9190612659565b9050610f5e81640e30dce40061261b565b610f689084612608565b92506001607f1b610f79838361261b565b610f839190612659565b9050610f948164012ebd130061261b565b610f9e9084612608565b92506001607f1b610faf838361261b565b610fb99190612659565b9050610fc9816317499f0061261b565b610fd39084612608565b92506001607f1b610fe4838361261b565b610fee9190612659565b9050610ffe816301a9d48061261b565b6110089084612608565b92506001607f1b611019838361261b565b6110239190612659565b905061103281621c638061261b565b61103c9084612608565b92506001607f1b61104d838361261b565b6110579190612659565b9050611066816201c63861261b565b6110709084612608565b92506001607f1b611081838361261b565b61108b9190612659565b905061109981611ab861261b565b6110a39084612608565b92506001607f1b6110b4838361261b565b6110be9190612659565b90506110cc8161017c61261b565b6110d69084612608565b92506001607f1b6110e7838361261b565b6110f19190612659565b90506110fe81601461261b565b6111089084612608565b92506001607f1b611119838361261b565b6111239190612659565b905061113081600161261b565b61113a9084612608565b92506001607f1b826111546721c3677c82b4000086612659565b61115e9190612608565b6111689190612608565b92506001607c1b8516156111b05770018ebef9eac820ae8682b9793ac6d1e7766111a3847001c3d6a24ed82218787d624d3e5eba95f961261b565b6111ad9190612659565b92505b6001607d1b8516156111f6577001368b2fc6f9609fe7aceb46aa619baed46111e98470018ebef9eac820ae8682b9793ac6d1e77861261b565b6111f39190612659565b92505b6001607e1b85161561123b576fbc5ab1b16779be3575bd8f0520a9f21f61122e847001368b2fc6f9609fe7aceb46aa619baed561261b565b6112389190612659565b92505b6001607f1b85161561127f576f454aaa8efe072e7f6ddbab84b40a55c9611272846fbc5ab1b16779be3575bd8f0520a9f21e61261b565b61127c9190612659565b92505b600160801b8516156112c3576f0960aadc109e7a3bf4578099615711ea6112b6846f454aaa8efe072e7f6ddbab84b40a55c561261b565b6112c09190612659565b92505b600160811b851615611306576e2bf84208204f5977f9a8cf01fdce3d6112f9846f0960aadc109e7a3bf4578099615711d761261b565b6113039190612659565b92505b600160821b851615611347576d03c6ab775dd0b95b4cbee7e65d1161133a846e2bf84208204f5977f9a8cf01fdc30761261b565b6113449190612659565b92505b50909392505050565b5f6020607f5b60ff81166113658360016126eb565b60ff1610156113b7575f600261137b83856126eb565b6113859190612704565b90508460018260ff166080811061139e5761139e612725565b0154106113ad578092506113b1565b8091505b50611356565b8360018260ff16608081106113ce576113ce612725565b0154106113dc579392505050565b8360018360ff16608081106113f3576113f3612725565b015410611401575092915050565b611409612739565b505f9392505050565b5f828160ff8416611423838061261b565b901c9150611441826f03442c4e6074a82f1797f72ac000000061261b565b61144b9082612608565b905060ff841661145b868461261b565b901c9150611479826f0116b96f757c380fb287fd0e4000000061261b565b6114839082612608565b905060ff8416611493868461261b565b901c91506114b0826e45ae5bdd5f0e03eca1ff439000000061261b565b6114ba9082612608565b905060ff84166114ca868461261b565b901c91506114e7826e0defabf91302cd95b9ffda5000000061261b565b6114f19082612608565b905060ff8416611501868461261b565b901c915061151e826e02529ca9832b22439efff9b800000061261b565b6115289082612608565b905060ff8416611538868461261b565b901c9150611554826d54f1cf12bd04e516b6da8800000061261b565b61155e9082612608565b905060ff841661156e868461261b565b901c915061158a826d0a9e39e257a09ca2d6db5100000061261b565b6115949082612608565b905060ff84166115a4868461261b565b901c91506115c0826d012e066e7b839fa050c30900000061261b565b6115ca9082612608565b905060ff84166115da868461261b565b901c91506115f5826c1e33d7d926c329a1ad1a80000061261b565b6115ff9082612608565b905060ff841661160f868461261b565b901c915061162a826c02bee513bdb4a6b19b5f80000061261b565b6116349082612608565b905060ff8416611644868461261b565b901c915061165e826b3a9316fa79b88eccf2a0000061261b565b6116689082612608565b905060ff8416611678868461261b565b901c9150611692826b048177ebe1fa81237520000061261b565b61169c9082612608565b905060ff84166116ac868461261b565b901c91506116c5826a5263fe90242dcbacf0000061261b565b6116cf9082612608565b905060ff84166116df868461261b565b901c91506116f8826a057e22099c030d9410000061261b565b6117029082612608565b905060ff8416611712868461261b565b901c915061172a826957e22099c030d941000061261b565b6117349082612608565b905060ff8416611744868461261b565b901c915061175c8269052b6b5456997631000061261b565b6117669082612608565b905060ff8416611776868461261b565b901c915061178d82684985f67696bf74800061261b565b6117979082612608565b905060ff84166117a7868461261b565b901c91506117be826803dea12ea99e49800061261b565b6117c89082612608565b905060ff84166117d8868461261b565b901c91506117ee826731880f2214b6e00061261b565b6117f89082612608565b905060ff8416611808868461261b565b901c915061181e8267025bcff56eb3600061261b565b6118289082612608565b905060ff8416611838868461261b565b901c915061184d82661b722e10ab100061261b565b6118579082612608565b905060ff8416611867868461261b565b901c915061187c826601317c7007700061261b565b6118869082612608565b905060ff8416611896868461261b565b901c91506118aa82650cba84aafa0061261b565b6118b49082612608565b905060ff84166118c4868461261b565b901c91506118d7826482573a0a0061261b565b6118e19082612608565b905060ff84166118f1868461261b565b901c9150611904826405035ad90061261b565b61190e9082612608565b905060ff841661191e868461261b565b901c915061193082632f881b0061261b565b61193a9082612608565b905060ff841661194a868461261b565b901c915061195c826301b2934061261b565b6119669082612608565b905060ff8416611976868461261b565b901c915061198782620efc4061261b565b6119919082612608565b905060ff84166119a1868461261b565b901c91506119b182617fe061261b565b6119bb9082612608565b905060ff84166119cb868461261b565b901c91506119db8261042061261b565b6119e59082612608565b905060ff84166119f5868461261b565b901c9150611a0482602161261b565b611a0e9082612608565b905060ff8416611a1e868461261b565b901c9150611a2d82600161261b565b611a379082612608565b9050600160ff85161b85611a5b6f0688589cc0e9505e2f2fee558000000084612659565b611a659190612608565b611a6f9190612608565b95945050505050565b5f80805f19858709858702925082811083820303915050805f03611aa55783828161037a5761037a612645565b838110611ad657604051630c740aef60e31b815260048101879052602481018690526044810185905260640161044a565b5f8486880960026001871981018816978890046003810283188082028403028082028403028082028403028082028403028082028403029081029092039091025f889003889004909101858311909403939093029303949094049190911702949350505050565b5f80805f19848609848602925082811083820303915050805f03611b6e5750670de0b6b3a7640000900490506106aa565b670de0b6b3a76400008110611ba057604051635173648d60e01b8152600481018690526024810185905260440161044a565b5f670de0b6b3a764000085870962040000818503049310909103600160ee1b02919091177faccb18165bd6fe31ae1cf318dc5b51eee0e1ba569b88cd74c1773b91fac106690291505092915050565b5f81670de0b6b3a7640000811015611c1d5760405163036d32ef60e41b81526004810184905260240161044a565b5f611ca8670de0b6b3a7640000830460016fffffffffffffffffffffffffffffffff821160071b91821c67ffffffffffffffff811160061b90811c63ffffffff811160051b90811c61ffff811160041b90811c60ff8111600390811b91821c600f811160021b90811c918211871b91821c969096119490961792909217171791909117919091171790565b9050670de0b6b3a7640000810282821c670de0b6b3a763ffff198101611cce5781610c2f565b671bc16d674ec800006706f05b59d3b200005b8015611d1157670de0b6b3a7640000838002049250818310611d09579283019260019290921c915b60011c611ce1565b50919695505050505050565b5f81680a688906bd8affffff811115611d4c5760405163b3b6ba1f60e01b81526004810184905260240161044a565b5f611d63670de0b6b3a7640000604084901b612659565b905061016461059182611ddd565b5f8082610100811015611da4575b6001811115611d9f57600190811c90611d9890836126eb565b9150611d7f565b611dd6565b60805b60ff8116156106a757600160ff82161b8210611dcb579182179160ff81169190911c905b60011c607f16611da7565b5092915050565b600160bf1b67ff00000000000000821615611eea57678000000000000000821615611e115768016a09e667f3bcc9090260401c5b674000000000000000821615611e30576801306fe0a31b7152df0260401c5b672000000000000000821615611e4f576801172b83c7d517adce0260401c5b671000000000000000821615611e6e5768010b5586cf9890f62a0260401c5b670800000000000000821615611e8d576801059b0d31585743ae0260401c5b670400000000000000821615611eac57680102c9a3e778060ee70260401c5b670200000000000000821615611ecb5768010163da9fb33356d80260401c5b670100000000000000821615611eea57680100b1afa5abcbed610260401c5b66ff000000000000821615611fe9576680000000000000821615611f175768010058c86da1c09ea20260401c5b6640000000000000821615611f35576801002c605e2e8cec500260401c5b6620000000000000821615611f5357680100162f3904051fa10260401c5b6610000000000000821615611f71576801000b175effdc76ba0260401c5b6608000000000000821615611f8f57680100058ba01fb9f96d0260401c5b6604000000000000821615611fad5768010002c5cc37da94920260401c5b6602000000000000821615611fcb576801000162e525ee05470260401c5b6601000000000000821615611fe95768010000b17255775c040260401c5b65ff00000000008216156120df5765800000000000821615612014576801000058b91b5bc9ae0260401c5b6540000000000082161561203157680100002c5c89d5ec6d0260401c5b6520000000000082161561204e5768010000162e43f4f8310260401c5b6510000000000082161561206b57680100000b1721bcfc9a0260401c5b650800000000008216156120885768010000058b90cf1e6e0260401c5b650400000000008216156120a5576801000002c5c863b73f0260401c5b650200000000008216156120c257680100000162e430e5a20260401c5b650100000000008216156120df576801000000b1721835510260401c5b64ff000000008216156121cc5764800000000082161561210857680100000058b90c0b490260401c5b6440000000008216156121245768010000002c5c8601cc0260401c5b642000000000821615612140576801000000162e42fff00260401c5b64100000000082161561215c5768010000000b17217fbb0260401c5b640800000000821615612178576801000000058b90bfce0260401c5b64040000000082161561219457680100000002c5c85fe30260401c5b6402000000008216156121b05768010000000162e42ff10260401c5b6401000000008216156121cc57680100000000b17217f80260401c5b63ff0000008216156122b05763800000008216156121f35768010000000058b90bfc0260401c5b634000000082161561220e576801000000002c5c85fe0260401c5b632000000082161561222957680100000000162e42ff0260401c5b6310000000821615612244576801000000000b17217f0260401c5b630800000082161561225f57680100000000058b90c00260401c5b630400000082161561227a5768010000000002c5c8600260401c5b6302000000821615612295576801000000000162e4300260401c5b63010000008216156122b05768010000000000b172180260401c5b62ff000082161561238b57628000008216156122d5576801000000000058b90c0260401c5b624000008216156122ef57680100000000002c5c860260401c5b622000008216156123095768010000000000162e430260401c5b6210000082161561232357680100000000000b17210260401c5b6208000082161561233d5768010000000000058b910260401c5b62040000821615612357576801000000000002c5c80260401c5b6202000082161561237157680100000000000162e40260401c5b6201000082161561238b576801000000000000b1720260401c5b61ff0082161561245d576180008216156123ae57680100000000000058b90260401c5b6140008216156123c75768010000000000002c5d0260401c5b6120008216156123e0576801000000000000162e0260401c5b6110008216156123f95768010000000000000b170260401c5b610800821615612412576801000000000000058c0260401c5b61040082161561242b57680100000000000002c60260401c5b61020082161561244457680100000000000001630260401c5b61010082161561245d57680100000000000000b10260401c5b60ff82161561252657608082161561247e57680100000000000000590260401c5b6040821615612496576801000000000000002c0260401c5b60208216156124ae57680100000000000000160260401c5b60108216156124c6576801000000000000000b0260401c5b60088216156124de57680100000000000000060260401c5b60048216156124f657680100000000000000030260401c5b600282161561250e57680100000000000000010260401c5b600182161561252657680100000000000000010260401c5b670de0b6b3a76400000260409190911c60bf031c90565b803563ffffffff81168114612550575f5ffd5b919050565b5f5f5f5f60808587031215612568575f5ffd5b843593506020850135925061257f6040860161253d565b9396929550929360600135925050565b5f5f5f606084860312156125a1575f5ffd5b6125aa8461253d565b95602085013595506040909401359392505050565b602081525f82518060208401528060208501604085015e5f604082850101526040601f19601f83011684010191505092915050565b634e487b7160e01b5f52601160045260245ffd5b808201808211156106aa576106aa6125f4565b80820281158282048414176106aa576106aa6125f4565b818103818111156106aa576106aa6125f4565b634e487b7160e01b5f52601260045260245ffd5b5f8261266757612667612645565b500490565b600181811c9082168061268057607f821691505b60208210810361269e57634e487b7160e01b5f52602260045260245ffd5b50919050565b60ff82811682821603908111156106aa576106aa6125f4565b5f60ff8216806126cf576126cf6125f4565b5f190192915050565b5f826126e6576126e6612645565b500690565b60ff81811683821601908111156106aa576106aa6125f4565b5f60ff83168061271657612716612645565b8060ff84160491505092915050565b634e487b7160e01b5f52603260045260245ffd5b634e487b7160e01b5f52600160045260245ffdfea2646970667358221220a678db118ac19a5af293be5e955ef771d5683c8f0e2a5e5fbb2120e3a550994964736f6c634300081b0033","linkReferences":{}},"methodIdentifiers":{"calculateInitialPurchaseReturn(uint32,uint256,uint256)":"37525b1e","calculatePurchaseReturn(uint256,uint256,uint32,uint256)":"29a00e7c","calculateSaleReturn(uint256,uint256,uint32,uint256)":"49f9b0f7","version()":"54fd4d50"},"id":68}