{"abi":[{"type":"function","name":"calculatePurchaseReturn","inputs":[{"name":"_supply","type":"uint256","internalType":"uint256"},{"name":"_connectorBalance","type":"uint256","internalType":"uint256"},{"name":"_connectorWeight","type":"uint32","internalType":"uint32"},{"name":"_depositAmount","type":"uint256","internalType":"uint256"}],"outputs":[{"name":"","type":"uint256","internalType":"uint256"}],"stateMutability":"view"},{"type":"function","name":"calculateSaleReturn","inputs":[{"name":"_supply","type":"uint256","internalType":"uint256"},{"name":"_connectorBalance","type":"uint256","internalType":"uint256"},{"name":"_connectorWeight","type":"uint32","internalType":"uint32"},{"name":"_sellAmount","type":"uint256","internalType":"uint256"}],"outputs":[{"name":"","type":"uint256","internalType":"uint256"}],"stateMutability":"view"},{"type":"function","name":"version","inputs":[],"outputs":[{"name":"","type":"string","internalType":"string"}],"stateMutability":"view"}],"bytecode":{"object":"0x60c06040526003608090815262302e3360e81b60a05260009062000024908262000807565b503480156200003257600080fd5b506001641c35fedd1560601b036021556001646c3390ecc9605e1b036022556001640cf801476160611b0360235560016431bdb23e1d605f1b0360245560016502fb1d8fe083605b1b0360255560016505b771955b37605a1b036026556001650af67a93bb5160591b0360275560016515060c256cb360581b036028556001651428a2f98d7360581b036029556001654d515663970960561b03602a55600165944620b0e70f60551b03602b55600166011c592761c66760541b03602c5560016602214d10d014eb60531b03602d55600166020ade36b7dbef60531b03602e5560016603eab73b3bbfe360521b03602f556001660782ee3593f6d760511b036030556001661ccf4b44bb4821604f1b0360315560016606e7f88ad8a77760511b0360325560016669f3d1c921891d604d1b03603355600166cb2ff529eb71e5604c1b03603455600166c2d415c3db974b604c1b0360355560016702eb40f9f620fda7604a1b0360365560016705990681d961a1eb60491b03603755600167055e12902701414760491b0360385560016714962dee9dc9764160471b0360395560016704ef57b9b560fab560491b03603a5560016712ed7b32a58f552b60471b03603b556001679131271922eaa60760441b03603c556001678b380f3558668c4760441b03603d556001680215f77c045fbe885760421b03603e556001600160831b03603f556001670f577eded5773a1160471b036040556001680eb5ec597592befbf5603f1b036041556001681c35fedd14b861eb05603e1b036042556001683619c87664579bc94b603d1b0360435560016867c00a3b07ffc01fd7603c1b03604455600168c6f6c8f8739773a7a5603b1b03604555600168bec763f8209b7a72b1603b1b0360465560016902dbb8caad9b7097b91b60391b03604755600169057b3d49dda84556d6f760381b03604855600169054183095b2c8ececf3160381b036049556001690a14517cc6b9457111ef60371b03604a5560016913545598e5c23276ccf160361b03604b556001692511882c39c3adea96ff60351b03604c55600169471649d87199aa99075760341b03604d557004429a21a029d4c1457cfbffffffffffff604e55700415bc6d6fb7dd71af2cb3ffffffffffff604f557003eab73b3bbfe282243ce1ffffffffffff6050557003c1771ac9fb6b4c18e229ffffffffffff605155700399e96897690418f785257fffffffffff605255700373fc456c53bb779bf0ea9fffffffffff60535570034f9e8e490c48e67e6ab8bfffffffffff60545570032cbfd4a7adc790560b3337ffffffffff60555570030b50570f6e5d2acca94613ffffffffff6056557002eb40f9f620fda6b56c2861ffffffffff6057557002cc8340ecb0d0f520a6af58ffffffffff6058557002af09481380a0a35cf1ba02ffffffffff605955700292c5bdd3b92ec810287b1b3fffffffff605a55700277abdcdab07d5a77ac6d6b9fffffffff605b5570025daf6654b1eaa55fd64df5efffffffff605c55700244c49c648baa98192dce88b7ffffffff605d5570022ce03cd5619a311b2471268bffffffff605e55700215f77c045fbe885654a44a0fffffffff605f556001600160811b036060557001eaefdbdaaee7421fc4d3ede5ffffffff6061557001d6bd8b2eb257df7e8ca57b09bfffffff6062557001c35fedd14b861eb0443f7f133fffffff6063557001b0ce43b322bcde4a56e8ada5afffffff60645570019f0028ec1fff007f5a195a39dfffffff60655570018ded91f0e72ee74f49b15ba527ffffff60665570017d8ec7f04136f4e5615fd41a63ffffff60675570016ddc6556cdb84bdc8d12d22e6fffffff60685570015ecf52776a1155b5bd8395814f7fffff60695570015060c256cb23b3b3cc3754cf40ffffff606a557001428a2f98d728ae223ddab715be3fffff606b5570013545598e5c23276ccf0ede68034fffff606c557001288c4161ce1d6f54b7f61081194fffff606d5570011c592761c666aa641d5a01a40f17ffff606e55700110a688680a7530515f3e6e6cfdcdffff606f557001056f1b5bedf75c6bcb2ce8aed428ffff6070556ffaadceceeff8a0890f3875f008277fff6071556ff05dc6b27edad306388a600f6ba0bfff6072556fe67a5a25da41063de1495d5b18cdbfff6073556fdcff115b14eedde6fc3aa5353f2e4fff6074556fd3e7a3924312399f9aae2e0f868f8fff6075556fcb2ff529eb71e41582cccd5a1ee26fff6076556fc2d415c3db974ab32a51840c0b67edff6077556fbad03e7d883f69ad5b0a186184e06bff6078556fb320d03b2c343d4829abd6075f0cc5ff6079556fabc25204e02828d73c6e80bcdb1a95bf607a556fa4b16f74ee4bb2040a1ec6c15fbbf2df607b556f9deaf736ac1f569deb1b5ae3f36c130f607c556f976bd9952c7aa957f5937d790ef65037607d556f9131271922eaa6064b73a22d0bd4f2bf607e556f8b380f3558668c46c91c49a2f8e967b9607f556f857ddf0117efa215952912839f6473e6608055620008d3565b634e487b7160e01b600052604160045260246000fd5b600181811c908216806200078d57607f821691505b602082108103620007ae57634e487b7160e01b600052602260045260246000fd5b50919050565b601f8211156200080257600081815260208120601f850160051c81016020861015620007dd5750805b601f850160051c820191505b81811015620007fe57828155600101620007e9565b5050505b505050565b81516001600160401b0381111562000823576200082362000762565b6200083b8162000834845462000778565b84620007b4565b602080601f8311600181146200087357600084156200085a5750858301515b600019600386901b1c1916600185901b178555620007fe565b600085815260208120601f198616915b82811015620008a45788860151825594840194600190910190840162000883565b5085821015620008c35787850151600019600388901b60f8161c191681555b5050505050600190811b01905550565b611b4080620008e36000396000f3fe608060405234801561001057600080fd5b50600436106100415760003560e01c806329a00e7c1461004657806349f9b0f71461006c57806354fd4d501461007f575b600080fd5b61005961005436600461190c565b610094565b6040519081526020015b60405180910390f35b61005961007a36600461190c565b610159565b61008761023c565b6040516100639190611954565b600080851180156100a55750600084115b80156100b7575060008363ffffffff16115b80156100cc5750620f424063ffffffff841611155b6100d557600080fd5b816000036100e557506000610151565b620f423f1963ffffffff841601610108576101018583866102ca565b9050610151565b6000808061011687866119b8565b9050610127818888620f4240610386565b9093509150600060ff831661013c858b6119cb565b901c905061014a89826119e2565b9450505050505b949350505050565b6000808511801561016a5750600084115b801561017c575060008363ffffffff16115b80156101915750620f424063ffffffff841611155b801561019d5750848211155b6101a657600080fd5b816000036101b657506000610151565b8482036101c4575082610151565b620f423f1963ffffffff8416016101e0576101018483876102ca565b600080806101ee85896119e2565b90506101ff8882620f424089610386565b9093509150600061021084896119cb565b905060ff831688901b8461022482846119e2565b61022e9190611a0b565b9a9950505050505050505050565b6000805461024990611a1f565b80601f016020809104026020016040519081016040528092919081815260200182805461027590611a1f565b80156102c25780601f10610297576101008083540402835291602001916102c2565b820191906000526020600020905b8154815290600101906020018083116102a557829003601f168201915b505050505081565b6000838302816000198587098281108382030391505080600003610301578382816102f7576102f76119f5565b049250505061037f565b8084116103185761031860038515026011186104ca565b6000848688096000868103871696879004966002600389028118808a02820302808a02820302808a02820302808a02820302808a02820302808a02909103029181900381900460010186841190950394909402919094039290920491909117919091029150505b9392505050565b600080600160811b861061039c5761039c611a59565b848610156103f05760405162461bcd60e51b815260206004820152601c60248201527f4261736573203c203120617265206e6f7420737570706f727465642e00000000604482015260640160405180910390fd5b600080866104026001607f1b8a6119cb565b61040c9190611a0b565b905070015bf0a8b1457695355fb8ac404e7a79e381101561043757610430816104dc565b9150610443565b61044081610a55565b91505b60008563ffffffff168763ffffffff168461045e91906119cb565b6104689190611a0b565b9050600160831b81101561048d5761047f81610b44565b607f945094505050506104c1565b60006104988261116f565b90506104b46104a882607f611a6f565b60ff1683901c82611234565b955093506104c192505050565b94509492505050565b634e487b71600052806020526024601cfd5b6000808080806fd3094c70f034de4b96ff7d5b6f99fcd88610610535576105076001607e1b856119b8565b93506fd3094c70f034de4b96ff7d5b6f99fcd86105286001607f1b886119cb565b6105329190611a0b565b95505b6fa45af1e1f40c333b3de1db4dd55f29a786106105885761055a6001607d1b856119b8565b93506fa45af1e1f40c333b3de1db4dd55f29a761057b6001607f1b886119cb565b6105859190611a0b565b95505b6f910b022db7ae67ce76b441c27035c6a186106105db576105ad6001607c1b856119b8565b93506f910b022db7ae67ce76b441c27035c6a16105ce6001607f1b886119cb565b6105d89190611a0b565b95505b6f88415abbe9a76bead8d00cf112e4d4a8861061062e576106006001607b1b856119b8565b93506f88415abbe9a76bead8d00cf112e4d4a86106216001607f1b886119cb565b61062b9190611a0b565b95505b6f84102b00893f64c705e841d5d4064bd38610610681576106536001607a1b856119b8565b93506f84102b00893f64c705e841d5d4064bd36106746001607f1b886119cb565b61067e9190611a0b565b95505b6f8204055aaef1c8bd5c3259f4822735a286106106d4576106a6600160791b856119b8565b93506f8204055aaef1c8bd5c3259f4822735a26106c76001607f1b886119cb565b6106d19190611a0b565b95505b6f810100ab00222d861931c15e39b44e998610610727576106f9600160781b856119b8565b93506f810100ab00222d861931c15e39b44e9961071a6001607f1b886119cb565b6107249190611a0b565b95505b6f808040155aabbbe9451521693554f733861061077a5761074c600160771b856119b8565b93506f808040155aabbbe9451521693554f73361076d6001607f1b886119cb565b6107779190611a0b565b95505b6107886001607f1b876119e2565b92508291506001607f1b61079c83806119cb565b6107a69190611a0b565b9050600160801b6107b784826119e2565b6107c190846119cb565b6107cb9190611a0b565b6107d590856119b8565b93506001607f1b6107e682846119cb565b6107f09190611a0b565b9150600160811b610811846faaaaaaaaaaaaaaaaaaaaaaaaaaaaaaaa6119e2565b61081b90846119cb565b6108259190611a0b565b61082f90856119b8565b93506001607f1b61084082846119cb565b61084a9190611a0b565b9150600360801b61086b846f999999999999999999999999999999996119e2565b61087590846119cb565b61087f9190611a0b565b61088990856119b8565b93506001607f1b61089a82846119cb565b6108a49190611a0b565b9150600160821b6108c5846f924924924924924924924924924924926119e2565b6108cf90846119cb565b6108d99190611a0b565b6108e390856119b8565b93506001607f1b6108f482846119cb565b6108fe9190611a0b565b9150600560801b61091f846f8e38e38e38e38e38e38e38e38e38e38e6119e2565b61092990846119cb565b6109339190611a0b565b61093d90856119b8565b93506001607f1b61094e82846119cb565b6109589190611a0b565b9150600360811b610979846f8ba2e8ba2e8ba2e8ba2e8ba2e8ba2e8b6119e2565b61098390846119cb565b61098d9190611a0b565b61099790856119b8565b93506001607f1b6109a882846119cb565b6109b29190611a0b565b9150600760801b6109d3846f89d89d89d89d89d89d89d89d89d89d896119e2565b6109dd90846119cb565b6109e79190611a0b565b6109f190856119b8565b93506001607f1b610a0282846119cb565b610a0c9190611a0b565b9150600160831b610a2d846f888888888888888888888888888888886119e2565b610a3790846119cb565b610a419190611a0b565b610a4b90856119b8565b9695505050505050565b60008082600160801b8110610a9a576000610a7c610a776001607f1b84611a0b565b61189d565b60ff811692831c92909150610a96906001607f1b906119cb565b9250505b6001607f1b811115610b0f57607f5b60ff811615610b0d576001607f1b610ac183806119cb565b610acb9190611a0b565b9150600160801b8210610afd57600191821c91610ae89082611a6f565b60ff166001901b83610afa91906119b8565b92505b610b0681611a88565b9050610aa9565b505b6f05b9de1d10bf4103d647b0955897ba80610b3a6f03f80fe03f80fe03f80fe03f80fe03f8846119cb565b6101519190611a0b565b6000808080610b576001607c1b86611aa5565b91508190506001607f1b610b6b82806119cb565b610b759190611a0b565b9050610b89816710e1b3be415a00006119cb565b610b9390846119b8565b92506001607f1b610ba483836119cb565b610bae9190611a0b565b9050610bc2816705a0913f6b1e00006119cb565b610bcc90846119b8565b92506001607f1b610bdd83836119cb565b610be79190611a0b565b9050610bfb81670168244fdac780006119cb565b610c0590846119b8565b92506001607f1b610c1683836119cb565b610c209190611a0b565b9050610c3381664807432bc180006119cb565b610c3d90846119b8565b92506001607f1b610c4e83836119cb565b610c589190611a0b565b9050610c6b81660c0135dca040006119cb565b610c7590846119b8565b92506001607f1b610c8683836119cb565b610c909190611a0b565b9050610ca3816601b707b1cdc0006119cb565b610cad90846119b8565b92506001607f1b610cbe83836119cb565b610cc89190611a0b565b9050610cda816536e0f639b8006119cb565b610ce490846119b8565b92506001607f1b610cf583836119cb565b610cff9190611a0b565b9050610d1181650618fee9f8006119cb565b610d1b90846119b8565b92506001607f1b610d2c83836119cb565b610d369190611a0b565b9050610d4781649c197dcc006119cb565b610d5190846119b8565b92506001607f1b610d6283836119cb565b610d6c9190611a0b565b9050610d7d81640e30dce4006119cb565b610d8790846119b8565b92506001607f1b610d9883836119cb565b610da29190611a0b565b9050610db38164012ebd13006119cb565b610dbd90846119b8565b92506001607f1b610dce83836119cb565b610dd89190611a0b565b9050610de8816317499f006119cb565b610df290846119b8565b92506001607f1b610e0383836119cb565b610e0d9190611a0b565b9050610e1d816301a9d4806119cb565b610e2790846119b8565b92506001607f1b610e3883836119cb565b610e429190611a0b565b9050610e5181621c63806119cb565b610e5b90846119b8565b92506001607f1b610e6c83836119cb565b610e769190611a0b565b9050610e85816201c6386119cb565b610e8f90846119b8565b92506001607f1b610ea083836119cb565b610eaa9190611a0b565b9050610eb881611ab86119cb565b610ec290846119b8565b92506001607f1b610ed383836119cb565b610edd9190611a0b565b9050610eeb8161017c6119cb565b610ef590846119b8565b92506001607f1b610f0683836119cb565b610f109190611a0b565b9050610f1d8160146119cb565b610f2790846119b8565b92506001607f1b610f3883836119cb565b610f429190611a0b565b9050610f4f8160016119cb565b610f5990846119b8565b92506001607f1b82610f736721c3677c82b4000086611a0b565b610f7d91906119b8565b610f8791906119b8565b92506001607c1b851615610fcf5770018ebef9eac820ae8682b9793ac6d1e776610fc2847001c3d6a24ed82218787d624d3e5eba95f96119cb565b610fcc9190611a0b565b92505b6001607d1b851615611015577001368b2fc6f9609fe7aceb46aa619baed46110088470018ebef9eac820ae8682b9793ac6d1e7786119cb565b6110129190611a0b565b92505b6001607e1b85161561105a576fbc5ab1b16779be3575bd8f0520a9f21f61104d847001368b2fc6f9609fe7aceb46aa619baed56119cb565b6110579190611a0b565b92505b6001607f1b85161561109e576f454aaa8efe072e7f6ddbab84b40a55c9611091846fbc5ab1b16779be3575bd8f0520a9f21e6119cb565b61109b9190611a0b565b92505b600160801b8516156110e2576f0960aadc109e7a3bf4578099615711ea6110d5846f454aaa8efe072e7f6ddbab84b40a55c56119cb565b6110df9190611a0b565b92505b600160811b851615611125576e2bf84208204f5977f9a8cf01fdce3d611118846f0960aadc109e7a3bf4578099615711d76119cb565b6111229190611a0b565b92505b600160821b851615611166576d03c6ab775dd0b95b4cbee7e65d11611159846e2bf84208204f5977f9a8cf01fdc3076119cb565b6111639190611a0b565b92505b50909392505050565b60006020607f5b60ff8116611185836001611ab9565b60ff1610156111d8576000600261119c8385611ab9565b6111a69190611ad2565b90508460018260ff16608081106111bf576111bf611af4565b0154106111ce578092506111d2565b8091505b50611176565b8360018260ff16608081106111ef576111ef611af4565b0154106111fd579392505050565b8360018360ff166080811061121457611214611af4565b015410611222575092915050565b61122a611a59565b5060009392505050565b6000828160ff841661124683806119cb565b901c9150611264826f03442c4e6074a82f1797f72ac00000006119cb565b61126e90826119b8565b905060ff841661127e86846119cb565b901c915061129c826f0116b96f757c380fb287fd0e400000006119cb565b6112a690826119b8565b905060ff84166112b686846119cb565b901c91506112d3826e45ae5bdd5f0e03eca1ff43900000006119cb565b6112dd90826119b8565b905060ff84166112ed86846119cb565b901c915061130a826e0defabf91302cd95b9ffda500000006119cb565b61131490826119b8565b905060ff841661132486846119cb565b901c9150611341826e02529ca9832b22439efff9b80000006119cb565b61134b90826119b8565b905060ff841661135b86846119cb565b901c9150611377826d54f1cf12bd04e516b6da880000006119cb565b61138190826119b8565b905060ff841661139186846119cb565b901c91506113ad826d0a9e39e257a09ca2d6db510000006119cb565b6113b790826119b8565b905060ff84166113c786846119cb565b901c91506113e3826d012e066e7b839fa050c3090000006119cb565b6113ed90826119b8565b905060ff84166113fd86846119cb565b901c9150611418826c1e33d7d926c329a1ad1a8000006119cb565b61142290826119b8565b905060ff841661143286846119cb565b901c915061144d826c02bee513bdb4a6b19b5f8000006119cb565b61145790826119b8565b905060ff841661146786846119cb565b901c9150611481826b3a9316fa79b88eccf2a000006119cb565b61148b90826119b8565b905060ff841661149b86846119cb565b901c91506114b5826b048177ebe1fa8123752000006119cb565b6114bf90826119b8565b905060ff84166114cf86846119cb565b901c91506114e8826a5263fe90242dcbacf000006119cb565b6114f290826119b8565b905060ff841661150286846119cb565b901c915061151b826a057e22099c030d941000006119cb565b61152590826119b8565b905060ff841661153586846119cb565b901c915061154d826957e22099c030d94100006119cb565b61155790826119b8565b905060ff841661156786846119cb565b901c915061157f8269052b6b545699763100006119cb565b61158990826119b8565b905060ff841661159986846119cb565b901c91506115b082684985f67696bf7480006119cb565b6115ba90826119b8565b905060ff84166115ca86846119cb565b901c91506115e1826803dea12ea99e4980006119cb565b6115eb90826119b8565b905060ff84166115fb86846119cb565b901c9150611611826731880f2214b6e0006119cb565b61161b90826119b8565b905060ff841661162b86846119cb565b901c91506116418267025bcff56eb360006119cb565b61164b90826119b8565b905060ff841661165b86846119cb565b901c915061167082661b722e10ab10006119cb565b61167a90826119b8565b905060ff841661168a86846119cb565b901c915061169f826601317c700770006119cb565b6116a990826119b8565b905060ff84166116b986846119cb565b901c91506116cd82650cba84aafa006119cb565b6116d790826119b8565b905060ff84166116e786846119cb565b901c91506116fa826482573a0a006119cb565b61170490826119b8565b905060ff841661171486846119cb565b901c9150611727826405035ad9006119cb565b61173190826119b8565b905060ff841661174186846119cb565b901c915061175382632f881b006119cb565b61175d90826119b8565b905060ff841661176d86846119cb565b901c915061177f826301b293406119cb565b61178990826119b8565b905060ff841661179986846119cb565b901c91506117aa82620efc406119cb565b6117b490826119b8565b905060ff84166117c486846119cb565b901c91506117d482617fe06119cb565b6117de90826119b8565b905060ff84166117ee86846119cb565b901c91506117fe826104206119cb565b61180890826119b8565b905060ff841661181886846119cb565b901c91506118278260216119cb565b61183190826119b8565b905060ff841661184186846119cb565b901c91506118508260016119cb565b61185a90826119b8565b9050600160ff85161b8561187e6f0688589cc0e9505e2f2fee558000000084611a0b565b61188891906119b8565b61189291906119b8565b925050505b92915050565b600080826101008110156118d1575b60018111156118cc57600190811c906118c59083611ab9565b91506118ac565b611905565b60805b60ff81161561190357600160ff82161b82106118f8579182179160ff81169190911c905b60011c607f166118d4565b505b5092915050565b6000806000806080858703121561192257600080fd5b8435935060208501359250604085013563ffffffff8116811461194457600080fd5b9396929550929360600135925050565b600060208083528351808285015260005b8181101561198157858101830151858201604001528201611965565b506000604082860101526040601f19601f8301168501019250505092915050565b634e487b7160e01b600052601160045260246000fd5b80820180821115611897576118976119a2565b8082028115828204841417611897576118976119a2565b81810381811115611897576118976119a2565b634e487b7160e01b600052601260045260246000fd5b600082611a1a57611a1a6119f5565b500490565b600181811c90821680611a3357607f821691505b602082108103611a5357634e487b7160e01b600052602260045260246000fd5b50919050565b634e487b7160e01b600052600160045260246000fd5b60ff8281168282160390811115611897576118976119a2565b600060ff821680611a9b57611a9b6119a2565b6000190192915050565b600082611ab457611ab46119f5565b500690565b60ff8181168382160190811115611897576118976119a2565b600060ff831680611ae557611ae56119f5565b8060ff84160491505092915050565b634e487b7160e01b600052603260045260246000fdfea26469706673582212203762b4b4f7e1f3fad97195bdd3e0e92530d05dd09c439c3b686e2c40693e528a64736f6c63430008140033","linkReferences":{}},"methodIdentifiers":{"calculatePurchaseReturn(uint256,uint256,uint32,uint256)":"29a00e7c","calculateSaleReturn(uint256,uint256,uint32,uint256)":"49f9b0f7","version()":"54fd4d50"},"id":11}