{"abi":[{"type":"function","name":"UPGRADE_INTERFACE_VERSION","inputs":[],"outputs":[{"name":"","type":"string","internalType":"string"}],"stateMutability":"view"},{"type":"function","name":"allowance","inputs":[{"name":"owner","type":"address","internalType":"address"},{"name":"spender","type":"address","internalType":"address"}],"outputs":[{"name":"","type":"uint256","internalType":"uint256"}],"stateMutability":"view"},{"type":"function","name":"approve","inputs":[{"name":"spender","type":"address","internalType":"address"},{"name":"value","type":"uint256","internalType":"uint256"}],"outputs":[{"name":"","type":"bool","internalType":"bool"}],"stateMutability":"nonpayable"},{"type":"function","name":"balanceOf","inputs":[{"name":"account","type":"address","internalType":"address"}],"outputs":[{"name":"","type":"uint256","internalType":"uint256"}],"stateMutability":"view"},{"type":"function","name":"buy","inputs":[{"name":"minAmountOut","type":"uint256","internalType":"uint256"},{"name":"recipient","type":"address","internalType":"address"}],"outputs":[],"stateMutability":"payable"},{"type":"function","name":"calculatePurchaseReturn","inputs":[{"name":"_supply","type":"uint256","internalType":"uint256"},{"name":"_connectorBalance","type":"uint256","internalType":"uint256"},{"name":"_connectorWeight","type":"uint32","internalType":"uint32"},{"name":"_depositAmount","type":"uint256","internalType":"uint256"}],"outputs":[{"name":"","type":"uint256","internalType":"uint256"}],"stateMutability":"view"},{"type":"function","name":"calculateSaleReturn","inputs":[{"name":"_supply","type":"uint256","internalType":"uint256"},{"name":"_connectorBalance","type":"uint256","internalType":"uint256"},{"name":"_connectorWeight","type":"uint32","internalType":"uint32"},{"name":"_sellAmount","type":"uint256","internalType":"uint256"}],"outputs":[{"name":"","type":"uint256","internalType":"uint256"}],"stateMutability":"view"},{"type":"function","name":"collectFee","inputs":[],"outputs":[],"stateMutability":"nonpayable"},{"type":"function","name":"decimals","inputs":[],"outputs":[{"name":"","type":"uint8","internalType":"uint8"}],"stateMutability":"view"},{"type":"function","name":"initialize","inputs":[{"name":"name_","type":"string","internalType":"string"},{"name":"symbol_","type":"string","internalType":"string"},{"name":"owner_","type":"address","internalType":"address"},{"name":"uniswapV2Router_","type":"address","internalType":"address"},{"name":"reserveRatio_","type":"uint32","internalType":"uint32"}],"outputs":[],"stateMutability":"nonpayable"},{"type":"function","name":"list","inputs":[],"outputs":[],"stateMutability":"payable"},{"type":"function","name":"name","inputs":[],"outputs":[{"name":"","type":"string","internalType":"string"}],"stateMutability":"view"},{"type":"function","name":"owner","inputs":[],"outputs":[{"name":"","type":"address","internalType":"address"}],"stateMutability":"view"},{"type":"function","name":"poolBalance","inputs":[],"outputs":[{"name":"","type":"uint256","internalType":"uint256"}],"stateMutability":"view"},{"type":"function","name":"proxiableUUID","inputs":[],"outputs":[{"name":"","type":"bytes32","internalType":"bytes32"}],"stateMutability":"view"},{"type":"function","name":"pump","inputs":[{"name":"amount","type":"uint256","internalType":"uint256"}],"outputs":[],"stateMutability":"nonpayable"},{"type":"function","name":"pumped","inputs":[{"name":"","type":"address","internalType":"address"}],"outputs":[{"name":"","type":"uint256","internalType":"uint256"}],"stateMutability":"view"},{"type":"function","name":"renounceOwnership","inputs":[],"outputs":[],"stateMutability":"nonpayable"},{"type":"function","name":"reserveRatio","inputs":[],"outputs":[{"name":"","type":"uint32","internalType":"uint32"}],"stateMutability":"view"},{"type":"function","name":"sell","inputs":[{"name":"sellAmount","type":"uint256","internalType":"uint256"},{"name":"minAmountOut","type":"uint256","internalType":"uint256"},{"name":"recipient","type":"address","internalType":"address"}],"outputs":[],"stateMutability":"nonpayable"},{"type":"function","name":"symbol","inputs":[],"outputs":[{"name":"","type":"string","internalType":"string"}],"stateMutability":"view"},{"type":"function","name":"totalPumped","inputs":[],"outputs":[{"name":"","type":"uint256","internalType":"uint256"}],"stateMutability":"view"},{"type":"function","name":"totalRaised","inputs":[],"outputs":[{"name":"","type":"uint256","internalType":"uint256"}],"stateMutability":"view"},{"type":"function","name":"totalReserve","inputs":[],"outputs":[{"name":"","type":"uint256","internalType":"uint256"}],"stateMutability":"view"},{"type":"function","name":"totalSupply","inputs":[],"outputs":[{"name":"","type":"uint256","internalType":"uint256"}],"stateMutability":"view"},{"type":"function","name":"transfer","inputs":[{"name":"to","type":"address","internalType":"address"},{"name":"value","type":"uint256","internalType":"uint256"}],"outputs":[{"name":"","type":"bool","internalType":"bool"}],"stateMutability":"nonpayable"},{"type":"function","name":"transferFrom","inputs":[{"name":"from","type":"address","internalType":"address"},{"name":"to","type":"address","internalType":"address"},{"name":"value","type":"uint256","internalType":"uint256"}],"outputs":[{"name":"","type":"bool","internalType":"bool"}],"stateMutability":"nonpayable"},{"type":"function","name":"transferOwnership","inputs":[{"name":"newOwner","type":"address","internalType":"address"}],"outputs":[],"stateMutability":"nonpayable"},{"type":"function","name":"uniswapPair","inputs":[],"outputs":[{"name":"","type":"address","internalType":"contract IUniswapV2Pair"}],"stateMutability":"view"},{"type":"function","name":"uniswapV2Router","inputs":[],"outputs":[{"name":"","type":"address","internalType":"contract IUniswapV2Router02"}],"stateMutability":"view"},{"type":"function","name":"upgradeToAndCall","inputs":[{"name":"newImplementation","type":"address","internalType":"address"},{"name":"data","type":"bytes","internalType":"bytes"}],"outputs":[],"stateMutability":"payable"},{"type":"function","name":"version","inputs":[],"outputs":[{"name":"","type":"string","internalType":"string"}],"stateMutability":"view"},{"type":"event","name":"Approval","inputs":[{"name":"owner","type":"address","indexed":true,"internalType":"address"},{"name":"spender","type":"address","indexed":true,"internalType":"address"},{"name":"value","type":"uint256","indexed":false,"internalType":"uint256"}],"anonymous":false},{"type":"event","name":"BCMinted","inputs":[{"name":"amountMinted","type":"uint256","indexed":false,"internalType":"uint256"},{"name":"totalCost","type":"uint256","indexed":false,"internalType":"uint256"}],"anonymous":false},{"type":"event","name":"BCWithdrawn","inputs":[{"name":"amountWithdrawn","type":"uint256","indexed":false,"internalType":"uint256"},{"name":"reward","type":"uint256","indexed":false,"internalType":"uint256"}],"anonymous":false},{"type":"event","name":"Buy","inputs":[{"name":"recipient","type":"address","indexed":true,"internalType":"address"},{"name":"buyAmount","type":"uint256","indexed":false,"internalType":"uint256"},{"name":"tokensToMint","type":"uint256","indexed":false,"internalType":"uint256"}],"anonymous":false},{"type":"event","name":"Initialized","inputs":[{"name":"version","type":"uint64","indexed":false,"internalType":"uint64"}],"anonymous":false},{"type":"event","name":"List","inputs":[{"name":"tokensToList","type":"uint256","indexed":false,"internalType":"uint256"}],"anonymous":false},{"type":"event","name":"OwnershipTransferred","inputs":[{"name":"previousOwner","type":"address","indexed":true,"internalType":"address"},{"name":"newOwner","type":"address","indexed":true,"internalType":"address"}],"anonymous":false},{"type":"event","name":"Pump","inputs":[{"name":"reserved","type":"uint256","indexed":false,"internalType":"uint256"}],"anonymous":false},{"type":"event","name":"Sell","inputs":[{"name":"recipient","type":"address","indexed":true,"internalType":"address"},{"name":"sellAmount","type":"uint256","indexed":false,"internalType":"uint256"},{"name":"amountOut","type":"uint256","indexed":false,"internalType":"uint256"}],"anonymous":false},{"type":"event","name":"Transfer","inputs":[{"name":"from","type":"address","indexed":true,"internalType":"address"},{"name":"to","type":"address","indexed":true,"internalType":"address"},{"name":"value","type":"uint256","indexed":false,"internalType":"uint256"}],"anonymous":false},{"type":"event","name":"Upgraded","inputs":[{"name":"implementation","type":"address","indexed":true,"internalType":"address"}],"anonymous":false},{"type":"event","name":"UserPump","inputs":[{"name":"pumper","type":"address","indexed":true,"internalType":"address"},{"name":"amount","type":"uint256","indexed":false,"internalType":"uint256"}],"anonymous":false},{"type":"error","name":"AddressEmptyCode","inputs":[{"name":"target","type":"address","internalType":"address"}]},{"type":"error","name":"ERC1967InvalidImplementation","inputs":[{"name":"implementation","type":"address","internalType":"address"}]},{"type":"error","name":"ERC1967NonPayable","inputs":[]},{"type":"error","name":"ERC20InsufficientAllowance","inputs":[{"name":"spender","type":"address","internalType":"address"},{"name":"allowance","type":"uint256","internalType":"uint256"},{"name":"needed","type":"uint256","internalType":"uint256"}]},{"type":"error","name":"ERC20InsufficientBalance","inputs":[{"name":"sender","type":"address","internalType":"address"},{"name":"balance","type":"uint256","internalType":"uint256"},{"name":"needed","type":"uint256","internalType":"uint256"}]},{"type":"error","name":"ERC20InvalidApprover","inputs":[{"name":"approver","type":"address","internalType":"address"}]},{"type":"error","name":"ERC20InvalidReceiver","inputs":[{"name":"receiver","type":"address","internalType":"address"}]},{"type":"error","name":"ERC20InvalidSender","inputs":[{"name":"sender","type":"address","internalType":"address"}]},{"type":"error","name":"ERC20InvalidSpender","inputs":[{"name":"spender","type":"address","internalType":"address"}]},{"type":"error","name":"FailedCall","inputs":[]},{"type":"error","name":"InvalidInitialization","inputs":[]},{"type":"error","name":"NotInitializing","inputs":[]},{"type":"error","name":"OwnableInvalidOwner","inputs":[{"name":"owner","type":"address","internalType":"address"}]},{"type":"error","name":"OwnableUnauthorizedAccount","inputs":[{"name":"account","type":"address","internalType":"address"}]},{"type":"error","name":"UUPSUnauthorizedCallContext","inputs":[]},{"type":"error","name":"UUPSUnsupportedProxiableUUID","inputs":[{"name":"slot","type":"bytes32","internalType":"bytes32"}]}],"bytecode":{"object":"0x60e0604052600360a090815262302e3360e81b60c0525f9061002190826107f8565b5030608052348015610031575f5ffd5b506001641c35fedd1560601b036021556001646c3390ecc9605e1b036022556001640cf801476160611b0360235560016431bdb23e1d605f1b0360245560016502fb1d8fe083605b1b0360255560016505b771955b37605a1b036026556001650af67a93bb5160591b0360275560016515060c256cb360581b036028556001651428a2f98d7360581b036029556001654d515663970960561b03602a55600165944620b0e70f60551b03602b55600166011c592761c66760541b03602c5560016602214d10d014eb60531b03602d55600166020ade36b7dbef60531b03602e5560016603eab73b3bbfe360521b03602f556001660782ee3593f6d760511b036030556001661ccf4b44bb4821604f1b0360315560016606e7f88ad8a77760511b0360325560016669f3d1c921891d604d1b03603355600166cb2ff529eb71e5604c1b03603455600166c2d415c3db974b604c1b0360355560016702eb40f9f620fda7604a1b0360365560016705990681d961a1eb60491b03603755600167055e12902701414760491b0360385560016714962dee9dc9764160471b0360395560016704ef57b9b560fab560491b03603a5560016712ed7b32a58f552b60471b03603b556001679131271922eaa60760441b03603c556001678b380f3558668c4760441b03603d556001680215f77c045fbe885760421b03603e556001600160831b03603f556001670f577eded5773a1160471b036040556001680eb5ec597592befbf5603f1b036041556001681c35fedd14b861eb05603e1b036042556001683619c87664579bc94b603d1b0360435560016867c00a3b07ffc01fd7603c1b03604455600168c6f6c8f8739773a7a5603b1b03604555600168bec763f8209b7a72b1603b1b0360465560016902dbb8caad9b7097b91b60391b03604755600169057b3d49dda84556d6f760381b03604855600169054183095b2c8ececf3160381b036049556001690a14517cc6b9457111ef60371b03604a5560016913545598e5c23276ccf160361b03604b556001692511882c39c3adea96ff60351b03604c55600169471649d87199aa99075760341b03604d557004429a21a029d4c1457cfbffffffffffff604e55700415bc6d6fb7dd71af2cb3ffffffffffff604f557003eab73b3bbfe282243ce1ffffffffffff6050557003c1771ac9fb6b4c18e229ffffffffffff605155700399e96897690418f785257fffffffffff605255700373fc456c53bb779bf0ea9fffffffffff60535570034f9e8e490c48e67e6ab8bfffffffffff60545570032cbfd4a7adc790560b3337ffffffffff60555570030b50570f6e5d2acca94613ffffffffff6056557002eb40f9f620fda6b56c2861ffffffffff6057557002cc8340ecb0d0f520a6af58ffffffffff6058557002af09481380a0a35cf1ba02ffffffffff605955700292c5bdd3b92ec810287b1b3fffffffff605a55700277abdcdab07d5a77ac6d6b9fffffffff605b5570025daf6654b1eaa55fd64df5efffffffff605c55700244c49c648baa98192dce88b7ffffffff605d5570022ce03cd5619a311b2471268bffffffff605e55700215f77c045fbe885654a44a0fffffffff605f556001600160811b036060557001eaefdbdaaee7421fc4d3ede5ffffffff6061557001d6bd8b2eb257df7e8ca57b09bfffffff6062557001c35fedd14b861eb0443f7f133fffffff6063557001b0ce43b322bcde4a56e8ada5afffffff60645570019f0028ec1fff007f5a195a39dfffffff60655570018ded91f0e72ee74f49b15ba527ffffff60665570017d8ec7f04136f4e5615fd41a63ffffff60675570016ddc6556cdb84bdc8d12d22e6fffffff60685570015ecf52776a1155b5bd8395814f7fffff60695570015060c256cb23b3b3cc3754cf40ffffff606a557001428a2f98d728ae223ddab715be3fffff606b5570013545598e5c23276ccf0ede68034fffff606c557001288c4161ce1d6f54b7f61081194fffff606d5570011c592761c666aa641d5a01a40f17ffff606e55700110a688680a7530515f3e6e6cfdcdffff606f557001056f1b5bedf75c6bcb2ce8aed428ffff6070556ffaadceceeff8a0890f3875f008277fff6071556ff05dc6b27edad306388a600f6ba0bfff6072556fe67a5a25da41063de1495d5b18cdbfff6073556fdcff115b14eedde6fc3aa5353f2e4fff6074556fd3e7a3924312399f9aae2e0f868f8fff6075556fcb2ff529eb71e41582cccd5a1ee26fff6076556fc2d415c3db974ab32a51840c0b67edff6077556fbad03e7d883f69ad5b0a186184e06bff6078556fb320d03b2c343d4829abd6075f0cc5ff6079556fabc25204e02828d73c6e80bcdb1a95bf607a556fa4b16f74ee4bb2040a1ec6c15fbbf2df607b556f9deaf736ac1f569deb1b5ae3f36c130f607c556f976bd9952c7aa957f5937d790ef65037607d556f9131271922eaa6064b73a22d0bd4f2bf607e556f8b380f3558668c46c91c49a2f8e967b9607f556f857ddf0117efa215952912839f6473e66080556108b2565b634e487b7160e01b5f52604160045260245ffd5b600181811c9082168061078857607f821691505b6020821081036107a657634e487b7160e01b5f52602260045260245ffd5b50919050565b601f8211156107f357805f5260205f20601f840160051c810160208510156107d15750805b601f840160051c820191505b818110156107f0575f81556001016107dd565b50505b505050565b81516001600160401b0381111561081157610811610760565b6108258161081f8454610774565b846107ac565b6020601f821160018114610857575f83156108405750848201515b5f19600385901b1c1916600184901b1784556107f0565b5f84815260208120601f198516915b828110156108865787850151825560209485019460019092019101610866565b50848210156108a357868401515f19600387901b60f8161c191681555b50505050600190811b01905550565b608051613b8f6108d85f395f81816117310152818161175a01526118990152613b8f5ff3fe6080604052600436106101db575f3560e01c806370a08231116100fd578063a9059cbb11610092578063d04c698311610062578063d04c69831461054c578063d4d5d32a1461056b578063dd62ed3e1461057f578063f2fde38b1461059e575f5ffd5b8063a9059cbb146104c9578063ad3cb1cc146104e8578063c5c4744c14610518578063c816841b1461052d575f5ffd5b80638d662ee3116100cd5780638d662ee3146104395780638da5cb5b1461046457806395d89b41146104a057806396365d44146104b4575f5ffd5b806370a08231146103d4578063715018a6146103f3578063745dae42146104075780637deb602514610426575f5ffd5b806329a00e7c116101735780634c68df67116101435780634c68df67146103845780634f1ef2861461039957806352d1902d146103ac57806354fd4d50146103c0575f5ffd5b806329a00e7c1461030c578063313ce5671461032b57806338df61fd1461034657806349f9b0f714610365575f5ffd5b80630f560cd7116101ae5780630f560cd71461028c5780631694505e1461029657806318160ddd146102cd57806323b872dd146102ed575f5ffd5b806306fdde03146101df578063095ea7b31461020957806309c773b1146102385780630c7d5cd81461025b575b5f5ffd5b3480156101ea575f5ffd5b506101f36105bd565b604051610200919061348b565b60405180910390f35b348015610214575f5ffd5b506102286102233660046134d4565b61067d565b6040519015158152602001610200565b348015610243575f5ffd5b5061024d60855481565b604051908152602001610200565b348015610266575f5ffd5b506082546102779063ffffffff1681565b60405163ffffffff9091168152602001610200565b610294610696565b005b3480156102a1575f5ffd5b506086546102b5906001600160a01b031681565b6040516001600160a01b039091168152602001610200565b3480156102d8575f5ffd5b505f516020613b1a5f395f51905f525461024d565b3480156102f8575f5ffd5b506102286103073660046134fe565b610ad2565b348015610317575f5ffd5b5061024d610326366004613554565b610af7565b348015610336575f5ffd5b5060405160128152602001610200565b348015610351575f5ffd5b50610294610360366004613637565b610bb4565b348015610370575f5ffd5b5061024d61037f366004613554565b610d1d565b34801561038f575f5ffd5b5061024d60845481565b6102946103a73660046136d0565b610df8565b3480156103b7575f5ffd5b5061024d610e17565b3480156103cb575f5ffd5b506101f3610e32565b3480156103df575f5ffd5b5061024d6103ee366004613730565b610ebd565b3480156103fe575f5ffd5b50610294610ee3565b348015610412575f5ffd5b5061029461042136600461374b565b610ef6565b610294610434366004613762565b61103e565b348015610444575f5ffd5b5061024d610453366004613730565b60886020525f908152604090205481565b34801561046f575f5ffd5b507f9016d09d72d40fdae2fd8ceac6b6234c7706214fd39c1cd1e609a0528c199300546001600160a01b03166102b5565b3480156104ab575f5ffd5b506101f36110bb565b3480156104bf575f5ffd5b5061024d60815481565b3480156104d4575f5ffd5b506102286104e33660046134d4565b6110f9565b3480156104f3575f5ffd5b506101f3604051806040016040528060058152602001640352e302e360dc1b81525081565b348015610523575f5ffd5b5061024d60835481565b348015610538575f5ffd5b506087546102b5906001600160a01b031681565b348015610557575f5ffd5b50610294610566366004613790565b611106565b348015610576575f5ffd5b506102946112cd565b34801561058a575f5ffd5b5061024d6105993660046137c6565b611385565b3480156105a9575f5ffd5b506102946105b8366004613730565b6113ce565b7f52c63247e1f47db19d5ce0460030c497f067ca4cebf71ba98eeadabe20bace0380546060915f516020613afa5f395f51905f52916105fb906137f2565b80601f0160208091040260200160405190810160405280929190818152602001828054610627906137f2565b80156106725780601f1061064957610100808354040283529160200191610672565b820191905f5260205f20905b81548152906001019060200180831161065557829003601f168201915b505050505091505090565b5f3361068a818585611408565b60019150505b92915050565b608754600160a01b900460ff166106c85760405162461bcd60e51b81526004016106bf9061382a565b60405180910390fd5b67016345785d8a000034146107165760405162461bcd60e51b81526020600482015260146024820152734d75737420706179206c697374696e672066656560601b60448201526064016106bf565b67d02ab486cedc000060835410156107855760405162461bcd60e51b815260206004820152602c60248201527f546f74616c20726169736564206d757374207061737320746865206c6973746960448201526b1b99c81d1a1c995cda1bdb1960a21b60648201526084016106bf565b6086546040805163c45a015560e01b815290515f926001600160a01b03169163c45a01559160048083019260209291908290030181865afa1580156107cc573d5f5f3e3d5ffd5b505050506040513d601f19601f820116820180604052508101906107f09190613872565b90505f60865f9054906101000a90046001600160a01b03166001600160a01b031663ad5c46486040518163ffffffff1660e01b8152600401602060405180830381865afa158015610843573d5f5f3e3d5ffd5b505050506040513d601f19601f820116820180604052508101906108679190613872565b6040516364e329cb60e11b81523060048201526001600160a01b0380831660248301529192509083169063c9c65396906044016020604051808303815f875af11580156108b6573d5f5f3e3d5ffd5b505050506040513d601f19601f820116820180604052508101906108da9190613872565b608780546001600160a01b0319166001600160a01b03929092169190911790555f6109266109135f516020613b1a5f395f51905f525490565b608354676124fee993bc00009190611415565b60875490915061093f906001600160a01b0316826114cb565b816001600160a01b031663d0e30db0676124fee993bc00006040518263ffffffff1660e01b81526004015f604051808303818588803b158015610980575f5ffd5b505af1158015610992573d5f5f3e3d5ffd5b505060875460405163a9059cbb60e01b81526001600160a01b039182166004820152676124fee993bc00006024820152908616935063a9059cbb925060440190506020604051808303815f875af11580156109ef573d5f5f3e3d5ffd5b505050506040513d601f19601f82011682018060405250810190610a13919061388d565b610a1f57610a1f6138ac565b6087546040516335313c2160e11b81526001600160a01b03858116600483015290911690636a627842906024016020604051808303815f875af1158015610a68573d5f5f3e3d5ffd5b505050506040513d601f19601f82011682018060405250810190610a8c91906138c0565b506087805460ff60a01b191690556040518181527fdd11eaf2db1c16b640194c05b02faa4b8bc4abf29c61428e990e72c6c15cff779060200160405180910390a1505050565b5f33610adf8582856114ff565b610aea858585611562565b60019150505b9392505050565b5f5f85118015610b0657505f84115b8015610b1757505f8363ffffffff16115b8015610b2c5750620f424063ffffffff841611155b610b34575f5ffd5b815f03610b4257505f610bac565b620f423f1963ffffffff841601610b6557610b5e858386611415565b9050610bac565b5f8080610b7287866138eb565b9050610b83818888620f42406115bf565b90935091505f60ff8316610b97858b6138fe565b901c9050610ba58982613915565b9450505050505b949350505050565b7ff0c57e16840df040f15088dc2f81fe391c3923bec73e23a9662efc9c229c6a008054600160401b810460ff16159067ffffffffffffffff165f81158015610bf95750825b90505f8267ffffffffffffffff166001148015610c155750303b155b905081158015610c23575080155b15610c415760405163f92ee8a960e01b815260040160405180910390fd5b845467ffffffffffffffff191660011785558315610c6b57845460ff60401b1916600160401b1785555b610c758a8a6116fb565b610c7e8861170d565b610c8661171e565b6082805463ffffffff191663ffffffff881617905560878054600160a01b60ff60a01b19909116179055608680546001600160a01b0319166001600160a01b0389161790558315610d1157845460ff60401b19168555604051600181527fc7f505b2f371ae2175ee4913f4499e1f2633a7b5936321eed1cdaeb6115181d29060200160405180910390a15b50505050505050505050565b5f5f85118015610d2c57505f84115b8015610d3d57505f8363ffffffff16115b8015610d525750620f424063ffffffff841611155b8015610d5e5750848211155b610d66575f5ffd5b815f03610d7457505f610bac565b848203610d82575082610bac565b620f423f1963ffffffff841601610d9e57610b5e848387611415565b5f8080610dab8589613915565b9050610dbc8882620f4240896115bf565b90935091505f610dcc84896138fe565b905060ff831688901b84610de08284613915565b610dea919061393c565b9a9950505050505050505050565b610e00611726565b610e09826117ca565b610e1382826117d2565b5050565b5f610e2061188e565b505f516020613b3a5f395f51905f5290565b5f8054610e3e906137f2565b80601f0160208091040260200160405190810160405280929190818152602001828054610e6a906137f2565b8015610eb55780601f10610e8c57610100808354040283529160200191610eb5565b820191905f5260205f20905b815481529060010190602001808311610e9857829003601f168201915b505050505081565b6001600160a01b03165f9081525f516020613afa5f395f51905f52602052604090205490565b610eeb6118d7565b610ef45f611932565b565b608754600160a01b900460ff16610f1f5760405162461bcd60e51b81526004016106bf9061382a565b335f8181526088602052604081205491610f4f9084908490610f4090610ebd565b610f4a9190613915565b6119a2565b9050610f5b81836138eb565b335f90815260886020526040902055608554610f789082906138eb565b60855560405181815233907f38ed2b0a6fac1bede304be559828c18972af2743a8d0bc246990852c1247efdf9060200160405180910390a2608554610fe76113ec620186a0610fe0610fd55f516020613b1a5f395f51905f525490565b633b9aca00906119b1565b9190611415565b1161103957610ff8608454306119d0565b507fd30f7a63ab898434aa3f87d8119ad5761a566c84836ab12f6c2c4dd7a7b0127560845460405161102c91815260200190565b60405180910390a15f6084555b505050565b608754600160a01b900460ff166110675760405162461bcd60e51b81526004016106bf9061382a565b5f61107234836119d0565b9050828110156110395760405162461bcd60e51b8152602060048201526014602482015273105b5bdd5b9d081bdd5d081d1bdbc81cdb585b1b60621b60448201526064016106bf565b7f52c63247e1f47db19d5ce0460030c497f067ca4cebf71ba98eeadabe20bace0480546060915f516020613afa5f395f51905f52916105fb906137f2565b5f3361068a818585611562565b608754600160a01b900460ff1661112f5760405162461bcd60e51b81526004016106bf9061382a565b335f908152608860205260408120549061114985836119a2565b90506111558183613915565b335f90815260886020526040902055608554611172908290613915565b6085555f6111803387611a8e565b90505f61118c82611afd565b92505050858110156111d75760405162461bcd60e51b8152602060048201526014602482015273105b5bdd5b9d081bdd5d081d1bdbc81cdb585b1b60621b60448201526064016106bf565b806083546111e59190613915565b6083556040515f906001600160a01b0387169083908381818185875af1925050503d805f8114611230576040519150601f19603f3d011682016040523d82523d5f602084013e611235565b606091505b505090508061127f5760405162461bcd60e51b81526020600482015260166024820152754661696c656420746f2072656465656d2066756e647360501b60448201526064016106bf565b60408051898152602081018490526001600160a01b038816917fed7a144fad14804d5c249145e3e0e2b63a9eb455b76aee5bc92d711e9bba3e4a910160405180910390a25050505050505050565b6112d56118d7565b6083546084545f9133916112e99047613915565b6112f39190613915565b6040515f81818185875af1925050503d805f811461132c576040519150601f19603f3d011682016040523d82523d5f602084013e611331565b606091505b50509050806113825760405162461bcd60e51b815260206004820152601f60248201527f4661696c656420746f2073656e642066656520746f20746865206f776e65720060448201526064016106bf565b50565b6001600160a01b039182165f9081527f52c63247e1f47db19d5ce0460030c497f067ca4cebf71ba98eeadabe20bace016020908152604080832093909416825291909152205490565b6113d66118d7565b6001600160a01b0381166113ff57604051631e4fbdf760e01b81525f60048201526024016106bf565b61138281611932565b6110398383836001611b52565b5f838302815f1985870982811083820303915050805f036114495783828161143f5761143f613928565b0492505050610af0565b808411611460576114606003851502601118611c36565b5f848688095f868103871696879004966002600389028118808a02820302808a02820302808a02820302808a02820302808a02820302808a02909103029181900381900460010186841190950394909402919094039290920491909117919091029150509392505050565b6001600160a01b0382166114f45760405163ec442f0560e01b81525f60048201526024016106bf565b610e135f8383611c47565b5f61150a8484611385565b90505f19811461155c578181101561154e57604051637dc7a0d960e11b81526001600160a01b038416600482015260248101829052604481018390526064016106bf565b61155c84848484035f611b52565b50505050565b6001600160a01b03831661158b57604051634b637e8f60e11b81525f60048201526024016106bf565b6001600160a01b0382166115b45760405163ec442f0560e01b81525f60048201526024016106bf565b611039838383611c47565b5f5f600160811b86106115d4576115d46138ac565b848610156116245760405162461bcd60e51b815260206004820152601c60248201527f4261736573203c203120617265206e6f7420737570706f727465642e0000000060448201526064016106bf565b5f80866116356001607f1b8a6138fe565b61163f919061393c565b905070015bf0a8b1457695355fb8ac404e7a79e381101561166a5761166381611d80565b9150611676565b611673816122f8565b91505b5f8563ffffffff168763ffffffff168461169091906138fe565b61169a919061393c565b9050600160831b8110156116bf576116b1816123e5565b607f945094505050506116f2565b5f6116c982612a0f565b90506116e56116d982607f61394f565b60ff1683901c82612ad1565b955093506116f292505050565b94509492505050565b611703613137565b610e138282613180565b611715613137565b611382816131d0565b610ef4613137565b306001600160a01b037f00000000000000000000000000000000000000000000000000000000000000001614806117ac57507f00000000000000000000000000000000000000000000000000000000000000006001600160a01b03166117a05f516020613b3a5f395f51905f52546001600160a01b031690565b6001600160a01b031614155b15610ef45760405163703e46dd60e11b815260040160405180910390fd5b6113826118d7565b816001600160a01b03166352d1902d6040518163ffffffff1660e01b8152600401602060405180830381865afa92505050801561182c575060408051601f3d908101601f19168201909252611829918101906138c0565b60015b61185457604051634c9c8ce360e01b81526001600160a01b03831660048201526024016106bf565b5f516020613b3a5f395f51905f52811461188457604051632a87526960e21b8152600481018290526024016106bf565b61103983836131d8565b306001600160a01b037f00000000000000000000000000000000000000000000000000000000000000001614610ef45760405163703e46dd60e11b815260040160405180910390fd5b336119097f9016d09d72d40fdae2fd8ceac6b6234c7706214fd39c1cd1e609a0528c199300546001600160a01b031690565b6001600160a01b031614610ef45760405163118cdaa760e01b81523360048201526024016106bf565b7f9016d09d72d40fdae2fd8ceac6b6234c7706214fd39c1cd1e609a0528c19930080546001600160a01b031981166001600160a01b03848116918217845560405192169182907f8be0079c531659141344cd1fd0a4f28419497f9722a3daafe3b4186f6b6457e0905f90a3505050565b5f828218828410028218610af0565b5f8183106119c8576119c38284613915565b610af0565b505f92915050565b5f5f8311611a165760405162461bcd60e51b8152602060048201526013602482015272105b5bdd5b9d081a5b881d1bdbc81cdb585b1b606a1b60448201526064016106bf565b5f611a2084611afd565b925050505f611a2f828561322d565b905081608354611a3f91906138eb565b60835560408051838152602081018390526001600160a01b038616917f1cbc5ab135991bd2b6a4b034a04aa2aa086dac1371cb9b16b8b5e2ed6b036bed910160405180910390a2949350505050565b5f5f82118015611aa6575081611aa384610ebd565b10155b611aae575f5ffd5b5f611ad9611ac75f516020613b1a5f395f51905f525490565b60815460825463ffffffff1686610d1d565b9050611ae5848461327e565b80608154611af39190613915565b6081559392505050565b5f8080611b10846101f4620186a0611415565b9250611b21846064620186a0611415565b915081611b2e8486613915565b611b389190613915565b905082608454611b4891906138eb565b6084559193909250565b5f516020613afa5f395f51905f526001600160a01b038516611b895760405163e602df0560e01b81525f60048201526024016106bf565b6001600160a01b038416611bb257604051634a1406b160e11b81525f60048201526024016106bf565b6001600160a01b038086165f90815260018301602090815260408083209388168352929052208390558115611c2f57836001600160a01b0316856001600160a01b03167f8c5be1e5ebec7d5bd14f71427d1e84f3dd0314c0f7b2291e5b200ac8c7c3b92585604051611c2691815260200190565b60405180910390a35b5050505050565b634e487b715f52806020526024601cfd5b5f516020613afa5f395f51905f526001600160a01b038416611c815781816002015f828254611c7691906138eb565b90915550611cf19050565b6001600160a01b0384165f9081526020829052604090205482811015611cd35760405163391434e360e21b81526001600160a01b038616600482015260248101829052604481018490526064016106bf565b6001600160a01b0385165f9081526020839052604090209083900390555b6001600160a01b038316611d0f576002810180548390039055611d2d565b6001600160a01b0383165f9081526020829052604090208054830190555b826001600160a01b0316846001600160a01b03167fddf252ad1be2c89b69c2b068fc378daa952ba7f163c4a11628f55a4df523b3ef84604051611d7291815260200190565b60405180910390a350505050565b5f808080806fd3094c70f034de4b96ff7d5b6f99fcd88610611dd857611daa6001607e1b856138eb565b93506fd3094c70f034de4b96ff7d5b6f99fcd8611dcb6001607f1b886138fe565b611dd5919061393c565b95505b6fa45af1e1f40c333b3de1db4dd55f29a78610611e2b57611dfd6001607d1b856138eb565b93506fa45af1e1f40c333b3de1db4dd55f29a7611e1e6001607f1b886138fe565b611e28919061393c565b95505b6f910b022db7ae67ce76b441c27035c6a18610611e7e57611e506001607c1b856138eb565b93506f910b022db7ae67ce76b441c27035c6a1611e716001607f1b886138fe565b611e7b919061393c565b95505b6f88415abbe9a76bead8d00cf112e4d4a88610611ed157611ea36001607b1b856138eb565b93506f88415abbe9a76bead8d00cf112e4d4a8611ec46001607f1b886138fe565b611ece919061393c565b95505b6f84102b00893f64c705e841d5d4064bd38610611f2457611ef66001607a1b856138eb565b93506f84102b00893f64c705e841d5d4064bd3611f176001607f1b886138fe565b611f21919061393c565b95505b6f8204055aaef1c8bd5c3259f4822735a28610611f7757611f49600160791b856138eb565b93506f8204055aaef1c8bd5c3259f4822735a2611f6a6001607f1b886138fe565b611f74919061393c565b95505b6f810100ab00222d861931c15e39b44e998610611fca57611f9c600160781b856138eb565b93506f810100ab00222d861931c15e39b44e99611fbd6001607f1b886138fe565b611fc7919061393c565b95505b6f808040155aabbbe9451521693554f733861061201d57611fef600160771b856138eb565b93506f808040155aabbbe9451521693554f7336120106001607f1b886138fe565b61201a919061393c565b95505b61202b6001607f1b87613915565b92508291506001607f1b61203f83806138fe565b612049919061393c565b9050600160801b61205a8482613915565b61206490846138fe565b61206e919061393c565b61207890856138eb565b93506001607f1b61208982846138fe565b612093919061393c565b9150600160811b6120b4846faaaaaaaaaaaaaaaaaaaaaaaaaaaaaaaa613915565b6120be90846138fe565b6120c8919061393c565b6120d290856138eb565b93506001607f1b6120e382846138fe565b6120ed919061393c565b9150600360801b61210e846f99999999999999999999999999999999613915565b61211890846138fe565b612122919061393c565b61212c90856138eb565b93506001607f1b61213d82846138fe565b612147919061393c565b9150600160821b612168846f92492492492492492492492492492492613915565b61217290846138fe565b61217c919061393c565b61218690856138eb565b93506001607f1b61219782846138fe565b6121a1919061393c565b9150600560801b6121c2846f8e38e38e38e38e38e38e38e38e38e38e613915565b6121cc90846138fe565b6121d6919061393c565b6121e090856138eb565b93506001607f1b6121f182846138fe565b6121fb919061393c565b9150600360811b61221c846f8ba2e8ba2e8ba2e8ba2e8ba2e8ba2e8b613915565b61222690846138fe565b612230919061393c565b61223a90856138eb565b93506001607f1b61224b82846138fe565b612255919061393c565b9150600760801b612276846f89d89d89d89d89d89d89d89d89d89d89613915565b61228090846138fe565b61228a919061393c565b61229490856138eb565b93506001607f1b6122a582846138fe565b6122af919061393c565b9150600160831b6122d0846f88888888888888888888888888888888613915565b6122da90846138fe565b6122e4919061393c565b6122ee90856138eb565b9695505050505050565b5f8082600160801b811061233b575f61231d6123186001607f1b8461393c565b6132b2565b60ff811692831c92909150612337906001607f1b906138fe565b9250505b6001607f1b8111156123b057607f5b60ff8116156123ae576001607f1b61236283806138fe565b61236c919061393c565b9150600160801b821061239e57600191821c91612389908261394f565b60ff166001901b8361239b91906138eb565b92505b6123a781613968565b905061234a565b505b6f05b9de1d10bf4103d647b0955897ba806123db6f03f80fe03f80fe03f80fe03f80fe03f8846138fe565b610bac919061393c565b5f8080806123f76001607c1b86613983565b91508190506001607f1b61240b82806138fe565b612415919061393c565b9050612429816710e1b3be415a00006138fe565b61243390846138eb565b92506001607f1b61244483836138fe565b61244e919061393c565b9050612462816705a0913f6b1e00006138fe565b61246c90846138eb565b92506001607f1b61247d83836138fe565b612487919061393c565b905061249b81670168244fdac780006138fe565b6124a590846138eb565b92506001607f1b6124b683836138fe565b6124c0919061393c565b90506124d381664807432bc180006138fe565b6124dd90846138eb565b92506001607f1b6124ee83836138fe565b6124f8919061393c565b905061250b81660c0135dca040006138fe565b61251590846138eb565b92506001607f1b61252683836138fe565b612530919061393c565b9050612543816601b707b1cdc0006138fe565b61254d90846138eb565b92506001607f1b61255e83836138fe565b612568919061393c565b905061257a816536e0f639b8006138fe565b61258490846138eb565b92506001607f1b61259583836138fe565b61259f919061393c565b90506125b181650618fee9f8006138fe565b6125bb90846138eb565b92506001607f1b6125cc83836138fe565b6125d6919061393c565b90506125e781649c197dcc006138fe565b6125f190846138eb565b92506001607f1b61260283836138fe565b61260c919061393c565b905061261d81640e30dce4006138fe565b61262790846138eb565b92506001607f1b61263883836138fe565b612642919061393c565b90506126538164012ebd13006138fe565b61265d90846138eb565b92506001607f1b61266e83836138fe565b612678919061393c565b9050612688816317499f006138fe565b61269290846138eb565b92506001607f1b6126a383836138fe565b6126ad919061393c565b90506126bd816301a9d4806138fe565b6126c790846138eb565b92506001607f1b6126d883836138fe565b6126e2919061393c565b90506126f181621c63806138fe565b6126fb90846138eb565b92506001607f1b61270c83836138fe565b612716919061393c565b9050612725816201c6386138fe565b61272f90846138eb565b92506001607f1b61274083836138fe565b61274a919061393c565b905061275881611ab86138fe565b61276290846138eb565b92506001607f1b61277383836138fe565b61277d919061393c565b905061278b8161017c6138fe565b61279590846138eb565b92506001607f1b6127a683836138fe565b6127b0919061393c565b90506127bd8160146138fe565b6127c790846138eb565b92506001607f1b6127d883836138fe565b6127e2919061393c565b90506127ef8160016138fe565b6127f990846138eb565b92506001607f1b826128136721c3677c82b400008661393c565b61281d91906138eb565b61282791906138eb565b92506001607c1b85161561286f5770018ebef9eac820ae8682b9793ac6d1e776612862847001c3d6a24ed82218787d624d3e5eba95f96138fe565b61286c919061393c565b92505b6001607d1b8516156128b5577001368b2fc6f9609fe7aceb46aa619baed46128a88470018ebef9eac820ae8682b9793ac6d1e7786138fe565b6128b2919061393c565b92505b6001607e1b8516156128fa576fbc5ab1b16779be3575bd8f0520a9f21f6128ed847001368b2fc6f9609fe7aceb46aa619baed56138fe565b6128f7919061393c565b92505b6001607f1b85161561293e576f454aaa8efe072e7f6ddbab84b40a55c9612931846fbc5ab1b16779be3575bd8f0520a9f21e6138fe565b61293b919061393c565b92505b600160801b851615612982576f0960aadc109e7a3bf4578099615711ea612975846f454aaa8efe072e7f6ddbab84b40a55c56138fe565b61297f919061393c565b92505b600160811b8516156129c5576e2bf84208204f5977f9a8cf01fdce3d6129b8846f0960aadc109e7a3bf4578099615711d76138fe565b6129c2919061393c565b92505b600160821b851615612a06576d03c6ab775dd0b95b4cbee7e65d116129f9846e2bf84208204f5977f9a8cf01fdc3076138fe565b612a03919061393c565b92505b50909392505050565b5f6020607f5b60ff8116612a24836001613996565b60ff161015612a76575f6002612a3a8385613996565b612a4491906139af565b90508460018260ff1660808110612a5d57612a5d6139d0565b015410612a6c57809250612a70565b8091505b50612a15565b8360018260ff1660808110612a8d57612a8d6139d0565b015410612a9b579392505050565b8360018360ff1660808110612ab257612ab26139d0565b015410612ac0575092915050565b612ac86138ac565b505f9392505050565b5f828160ff8416612ae283806138fe565b901c9150612b00826f03442c4e6074a82f1797f72ac00000006138fe565b612b0a90826138eb565b905060ff8416612b1a86846138fe565b901c9150612b38826f0116b96f757c380fb287fd0e400000006138fe565b612b4290826138eb565b905060ff8416612b5286846138fe565b901c9150612b6f826e45ae5bdd5f0e03eca1ff43900000006138fe565b612b7990826138eb565b905060ff8416612b8986846138fe565b901c9150612ba6826e0defabf91302cd95b9ffda500000006138fe565b612bb090826138eb565b905060ff8416612bc086846138fe565b901c9150612bdd826e02529ca9832b22439efff9b80000006138fe565b612be790826138eb565b905060ff8416612bf786846138fe565b901c9150612c13826d54f1cf12bd04e516b6da880000006138fe565b612c1d90826138eb565b905060ff8416612c2d86846138fe565b901c9150612c49826d0a9e39e257a09ca2d6db510000006138fe565b612c5390826138eb565b905060ff8416612c6386846138fe565b901c9150612c7f826d012e066e7b839fa050c3090000006138fe565b612c8990826138eb565b905060ff8416612c9986846138fe565b901c9150612cb4826c1e33d7d926c329a1ad1a8000006138fe565b612cbe90826138eb565b905060ff8416612cce86846138fe565b901c9150612ce9826c02bee513bdb4a6b19b5f8000006138fe565b612cf390826138eb565b905060ff8416612d0386846138fe565b901c9150612d1d826b3a9316fa79b88eccf2a000006138fe565b612d2790826138eb565b905060ff8416612d3786846138fe565b901c9150612d51826b048177ebe1fa8123752000006138fe565b612d5b90826138eb565b905060ff8416612d6b86846138fe565b901c9150612d84826a5263fe90242dcbacf000006138fe565b612d8e90826138eb565b905060ff8416612d9e86846138fe565b901c9150612db7826a057e22099c030d941000006138fe565b612dc190826138eb565b905060ff8416612dd186846138fe565b901c9150612de9826957e22099c030d94100006138fe565b612df390826138eb565b905060ff8416612e0386846138fe565b901c9150612e1b8269052b6b545699763100006138fe565b612e2590826138eb565b905060ff8416612e3586846138fe565b901c9150612e4c82684985f67696bf7480006138fe565b612e5690826138eb565b905060ff8416612e6686846138fe565b901c9150612e7d826803dea12ea99e4980006138fe565b612e8790826138eb565b905060ff8416612e9786846138fe565b901c9150612ead826731880f2214b6e0006138fe565b612eb790826138eb565b905060ff8416612ec786846138fe565b901c9150612edd8267025bcff56eb360006138fe565b612ee790826138eb565b905060ff8416612ef786846138fe565b901c9150612f0c82661b722e10ab10006138fe565b612f1690826138eb565b905060ff8416612f2686846138fe565b901c9150612f3b826601317c700770006138fe565b612f4590826138eb565b905060ff8416612f5586846138fe565b901c9150612f6982650cba84aafa006138fe565b612f7390826138eb565b905060ff8416612f8386846138fe565b901c9150612f96826482573a0a006138fe565b612fa090826138eb565b905060ff8416612fb086846138fe565b901c9150612fc3826405035ad9006138fe565b612fcd90826138eb565b905060ff8416612fdd86846138fe565b901c9150612fef82632f881b006138fe565b612ff990826138eb565b905060ff841661300986846138fe565b901c915061301b826301b293406138fe565b61302590826138eb565b905060ff841661303586846138fe565b901c915061304682620efc406138fe565b61305090826138eb565b905060ff841661306086846138fe565b901c915061307082617fe06138fe565b61307a90826138eb565b905060ff841661308a86846138fe565b901c915061309a826104206138fe565b6130a490826138eb565b905060ff84166130b486846138fe565b901c91506130c38260216138fe565b6130cd90826138eb565b905060ff84166130dd86846138fe565b901c91506130ec8260016138fe565b6130f690826138eb565b9050600160ff85161b8561311a6f0688589cc0e9505e2f2fee55800000008461393c565b61312491906138eb565b61312e91906138eb565b95945050505050565b7ff0c57e16840df040f15088dc2f81fe391c3923bec73e23a9662efc9c229c6a0054600160401b900460ff16610ef457604051631afcd79f60e31b815260040160405180910390fd5b613188613137565b5f516020613afa5f395f51905f527f52c63247e1f47db19d5ce0460030c497f067ca4cebf71ba98eeadabe20bace036131c18482613a28565b506004810161155c8382613a28565b6113d6613137565b6131e182613320565b6040516001600160a01b038316907fbc7cd75a20ee27fd9adebab32041f755214dbc6bffa90cc0225b39da2e5c2d3b905f90a2805115613225576110398282613383565b610e136133ec565b5f5f8311613239575f5ffd5b5f6132646132525f516020613b1a5f395f51905f525490565b60815460825463ffffffff1687610af7565b905061327083826114cb565b83608154611af391906138eb565b6001600160a01b0382166132a757604051634b637e8f60e11b81525f60048201526024016106bf565b610e13825f83611c47565b5f80826101008110156132e5575b60018111156132e057600190811c906132d99083613996565b91506132c0565b613319565b60805b60ff81161561331757600160ff82161b821061330c579182179160ff81169190911c905b60011c607f166132e8565b505b5092915050565b806001600160a01b03163b5f0361335557604051634c9c8ce360e01b81526001600160a01b03821660048201526024016106bf565b5f516020613b3a5f395f51905f5280546001600160a01b0319166001600160a01b0392909216919091179055565b60605f5f846001600160a01b03168460405161339f9190613ae3565b5f60405180830381855af49150503d805f81146133d7576040519150601f19603f3d011682016040523d82523d5f602084013e6133dc565b606091505b509150915061312e85838361340b565b3415610ef45760405163b398979f60e01b815260040160405180910390fd5b60608261341b576119c382613462565b815115801561343257506001600160a01b0384163b155b1561345b57604051639996b31560e01b81526001600160a01b03851660048201526024016106bf565b5080610af0565b8051156134725780518082602001fd5b60405163d6bda27560e01b815260040160405180910390fd5b602081525f82518060208401528060208501604085015e5f604082850101526040601f19601f83011684010191505092915050565b6001600160a01b0381168114611382575f5ffd5b5f5f604083850312156134e5575f5ffd5b82356134f0816134c0565b946020939093013593505050565b5f5f5f60608486031215613510575f5ffd5b833561351b816134c0565b9250602084013561352b816134c0565b929592945050506040919091013590565b803563ffffffff8116811461354f575f5ffd5b919050565b5f5f5f5f60808587031215613567575f5ffd5b843593506020850135925061357e6040860161353c565b9396929550929360600135925050565b634e487b7160e01b5f52604160045260245ffd5b5f5f67ffffffffffffffff8411156135bc576135bc61358e565b50604051601f19601f85018116603f0116810181811067ffffffffffffffff821117156135eb576135eb61358e565b604052838152905080828401851015613602575f5ffd5b838360208301375f60208583010152509392505050565b5f82601f830112613628575f5ffd5b610af0838335602085016135a2565b5f5f5f5f5f60a0868803121561364b575f5ffd5b853567ffffffffffffffff811115613661575f5ffd5b61366d88828901613619565b955050602086013567ffffffffffffffff811115613689575f5ffd5b61369588828901613619565b94505060408601356136a6816134c0565b925060608601356136b6816134c0565b91506136c46080870161353c565b90509295509295909350565b5f5f604083850312156136e1575f5ffd5b82356136ec816134c0565b9150602083013567ffffffffffffffff811115613707575f5ffd5b8301601f81018513613717575f5ffd5b613726858235602084016135a2565b9150509250929050565b5f60208284031215613740575f5ffd5b8135610af0816134c0565b5f6020828403121561375b575f5ffd5b5035919050565b5f5f60408385031215613773575f5ffd5b823591506020830135613785816134c0565b809150509250929050565b5f5f5f606084860312156137a2575f5ffd5b833592506020840135915060408401356137bb816134c0565b809150509250925092565b5f5f604083850312156137d7575f5ffd5b82356137e2816134c0565b91506020830135613785816134c0565b600181811c9082168061380657607f821691505b60208210810361382457634e487b7160e01b5f52602260045260245ffd5b50919050565b60208082526028908201527f5468697320616374696f6e206973206f6e20616c6c6f776564207768656e206c60408201526761756e6368696e6760c01b606082015260800190565b5f60208284031215613882575f5ffd5b8151610af0816134c0565b5f6020828403121561389d575f5ffd5b81518015158114610af0575f5ffd5b634e487b7160e01b5f52600160045260245ffd5b5f602082840312156138d0575f5ffd5b5051919050565b634e487b7160e01b5f52601160045260245ffd5b80820180821115610690576106906138d7565b8082028115828204841417610690576106906138d7565b81810381811115610690576106906138d7565b634e487b7160e01b5f52601260045260245ffd5b5f8261394a5761394a613928565b500490565b60ff8281168282160390811115610690576106906138d7565b5f60ff82168061397a5761397a6138d7565b5f190192915050565b5f8261399157613991613928565b500690565b60ff8181168382160190811115610690576106906138d7565b5f60ff8316806139c1576139c1613928565b8060ff84160491505092915050565b634e487b7160e01b5f52603260045260245ffd5b601f82111561103957805f5260205f20601f840160051c81016020851015613a095750805b601f840160051c820191505b81811015611c2f575f8155600101613a15565b815167ffffffffffffffff811115613a4257613a4261358e565b613a5681613a5084546137f2565b846139e4565b6020601f821160018114613a88575f8315613a715750848201515b5f19600385901b1c1916600184901b178455611c2f565b5f84815260208120601f198516915b82811015613ab75787850151825560209485019460019092019101613a97565b5084821015613ad457868401515f19600387901b60f8161c191681555b50505050600190811b01905550565b5f82518060208501845e5f92019182525091905056fe52c63247e1f47db19d5ce0460030c497f067ca4cebf71ba98eeadabe20bace0052c63247e1f47db19d5ce0460030c497f067ca4cebf71ba98eeadabe20bace02360894a13ba1a3210667c828492db98dca3e2076cc3735a920a3ca505d382bbca264697066735822122070b08ead787ead8e81582dc2666f2bc20dfb4dd332f7d3ea924fb1cf8c69bf5564736f6c634300081b0033","linkReferences":{}},"methodIdentifiers":{"UPGRADE_INTERFACE_VERSION()":"ad3cb1cc","allowance(address,address)":"dd62ed3e","approve(address,uint256)":"095ea7b3","balanceOf(address)":"70a08231","buy(uint256,address)":"7deb6025","calculatePurchaseReturn(uint256,uint256,uint32,uint256)":"29a00e7c","calculateSaleReturn(uint256,uint256,uint32,uint256)":"49f9b0f7","collectFee()":"d4d5d32a","decimals()":"313ce567","initialize(string,string,address,address,uint32)":"38df61fd","list()":"0f560cd7","name()":"06fdde03","owner()":"8da5cb5b","poolBalance()":"96365d44","proxiableUUID()":"52d1902d","pump(uint256)":"745dae42","pumped(address)":"8d662ee3","renounceOwnership()":"715018a6","reserveRatio()":"0c7d5cd8","sell(uint256,uint256,address)":"d04c6983","symbol()":"95d89b41","totalPumped()":"09c773b1","totalRaised()":"c5c4744c","totalReserve()":"4c68df67","totalSupply()":"18160ddd","transfer(address,uint256)":"a9059cbb","transferFrom(address,address,uint256)":"23b872dd","transferOwnership(address)":"f2fde38b","uniswapPair()":"c816841b","uniswapV2Router()":"1694505e","upgradeToAndCall(address,bytes)":"4f1ef286","version()":"54fd4d50"},"id":22}