{"abi":[{"type":"function","name":"UPGRADE_INTERFACE_VERSION","inputs":[],"outputs":[{"name":"","type":"string","internalType":"string"}],"stateMutability":"view"},{"type":"function","name":"allowance","inputs":[{"name":"owner","type":"address","internalType":"address"},{"name":"spender","type":"address","internalType":"address"}],"outputs":[{"name":"","type":"uint256","internalType":"uint256"}],"stateMutability":"view"},{"type":"function","name":"approve","inputs":[{"name":"spender","type":"address","internalType":"address"},{"name":"value","type":"uint256","internalType":"uint256"}],"outputs":[{"name":"","type":"bool","internalType":"bool"}],"stateMutability":"nonpayable"},{"type":"function","name":"balanceOf","inputs":[{"name":"account","type":"address","internalType":"address"}],"outputs":[{"name":"","type":"uint256","internalType":"uint256"}],"stateMutability":"view"},{"type":"function","name":"buy","inputs":[{"name":"minAmountOut","type":"uint256","internalType":"uint256"},{"name":"recipient","type":"address","internalType":"address"}],"outputs":[],"stateMutability":"payable"},{"type":"function","name":"calculateInitialPurchaseReturn","inputs":[{"name":"_connectorWeight","type":"uint32","internalType":"uint32"},{"name":"_depositAmount","type":"uint256","internalType":"uint256"},{"name":"slope","type":"uint256","internalType":"uint256"}],"outputs":[{"name":"","type":"uint256","internalType":"uint256"}],"stateMutability":"view"},{"type":"function","name":"calculatePurchaseReturn","inputs":[{"name":"_supply","type":"uint256","internalType":"uint256"},{"name":"_connectorBalance","type":"uint256","internalType":"uint256"},{"name":"_connectorWeight","type":"uint32","internalType":"uint32"},{"name":"_depositAmount","type":"uint256","internalType":"uint256"}],"outputs":[{"name":"","type":"uint256","internalType":"uint256"}],"stateMutability":"view"},{"type":"function","name":"calculateSaleReturn","inputs":[{"name":"_supply","type":"uint256","internalType":"uint256"},{"name":"_connectorBalance","type":"uint256","internalType":"uint256"},{"name":"_connectorWeight","type":"uint32","internalType":"uint32"},{"name":"_sellAmount","type":"uint256","internalType":"uint256"}],"outputs":[{"name":"","type":"uint256","internalType":"uint256"}],"stateMutability":"view"},{"type":"function","name":"collectFee","inputs":[],"outputs":[],"stateMutability":"nonpayable"},{"type":"function","name":"decimals","inputs":[],"outputs":[{"name":"","type":"uint8","internalType":"uint8"}],"stateMutability":"view"},{"type":"function","name":"initialize","inputs":[{"name":"name_","type":"string","internalType":"string"},{"name":"symbol_","type":"string","internalType":"string"},{"name":"owner_","type":"address","internalType":"address"},{"name":"creator_","type":"address","internalType":"address"},{"name":"uniswapV2Router_","type":"address","internalType":"address"}],"outputs":[],"stateMutability":"payable"},{"type":"function","name":"list","inputs":[],"outputs":[],"stateMutability":"nonpayable"},{"type":"function","name":"name","inputs":[],"outputs":[{"name":"","type":"string","internalType":"string"}],"stateMutability":"view"},{"type":"function","name":"owner","inputs":[],"outputs":[{"name":"","type":"address","internalType":"address"}],"stateMutability":"view"},{"type":"function","name":"poolBalance","inputs":[],"outputs":[{"name":"","type":"uint256","internalType":"uint256"}],"stateMutability":"view"},{"type":"function","name":"proxiableUUID","inputs":[],"outputs":[{"name":"","type":"bytes32","internalType":"bytes32"}],"stateMutability":"view"},{"type":"function","name":"pump","inputs":[{"name":"amount","type":"uint256","internalType":"uint256"}],"outputs":[],"stateMutability":"nonpayable"},{"type":"function","name":"pumped","inputs":[{"name":"","type":"address","internalType":"address"}],"outputs":[{"name":"","type":"uint256","internalType":"uint256"}],"stateMutability":"view"},{"type":"function","name":"renounceOwnership","inputs":[],"outputs":[],"stateMutability":"nonpayable"},{"type":"function","name":"reserveRatio","inputs":[],"outputs":[{"name":"","type":"uint32","internalType":"uint32"}],"stateMutability":"view"},{"type":"function","name":"selfBought","inputs":[],"outputs":[{"name":"","type":"uint256","internalType":"uint256"}],"stateMutability":"view"},{"type":"function","name":"sell","inputs":[{"name":"sellAmount","type":"uint256","internalType":"uint256"},{"name":"minAmountOut","type":"uint256","internalType":"uint256"},{"name":"recipient","type":"address","internalType":"address"}],"outputs":[],"stateMutability":"nonpayable"},{"type":"function","name":"symbol","inputs":[],"outputs":[{"name":"","type":"string","internalType":"string"}],"stateMutability":"view"},{"type":"function","name":"totalPumped","inputs":[],"outputs":[{"name":"","type":"uint256","internalType":"uint256"}],"stateMutability":"view"},{"type":"function","name":"totalRaised","inputs":[],"outputs":[{"name":"","type":"uint256","internalType":"uint256"}],"stateMutability":"view"},{"type":"function","name":"totalReserve","inputs":[],"outputs":[{"name":"","type":"uint256","internalType":"uint256"}],"stateMutability":"view"},{"type":"function","name":"totalSupply","inputs":[],"outputs":[{"name":"","type":"uint256","internalType":"uint256"}],"stateMutability":"view"},{"type":"function","name":"transfer","inputs":[{"name":"to","type":"address","internalType":"address"},{"name":"value","type":"uint256","internalType":"uint256"}],"outputs":[{"name":"","type":"bool","internalType":"bool"}],"stateMutability":"nonpayable"},{"type":"function","name":"transferFrom","inputs":[{"name":"from","type":"address","internalType":"address"},{"name":"to","type":"address","internalType":"address"},{"name":"value","type":"uint256","internalType":"uint256"}],"outputs":[{"name":"","type":"bool","internalType":"bool"}],"stateMutability":"nonpayable"},{"type":"function","name":"transferOwnership","inputs":[{"name":"newOwner","type":"address","internalType":"address"}],"outputs":[],"stateMutability":"nonpayable"},{"type":"function","name":"uniswapPair","inputs":[],"outputs":[{"name":"","type":"address","internalType":"contract IUniswapV2Pair"}],"stateMutability":"view"},{"type":"function","name":"uniswapV2Router","inputs":[],"outputs":[{"name":"","type":"address","internalType":"contract IUniswapV2Router02"}],"stateMutability":"view"},{"type":"function","name":"upgradeToAndCall","inputs":[{"name":"newImplementation","type":"address","internalType":"address"},{"name":"data","type":"bytes","internalType":"bytes"}],"outputs":[],"stateMutability":"payable"},{"type":"function","name":"version","inputs":[],"outputs":[{"name":"","type":"string","internalType":"string"}],"stateMutability":"view"},{"type":"event","name":"Approval","inputs":[{"name":"owner","type":"address","indexed":true,"internalType":"address"},{"name":"spender","type":"address","indexed":true,"internalType":"address"},{"name":"value","type":"uint256","indexed":false,"internalType":"uint256"}],"anonymous":false},{"type":"event","name":"BCMinted","inputs":[{"name":"amountMinted","type":"uint256","indexed":false,"internalType":"uint256"},{"name":"totalCost","type":"uint256","indexed":false,"internalType":"uint256"}],"anonymous":false},{"type":"event","name":"BCWithdrawn","inputs":[{"name":"amountWithdrawn","type":"uint256","indexed":false,"internalType":"uint256"},{"name":"reward","type":"uint256","indexed":false,"internalType":"uint256"}],"anonymous":false},{"type":"event","name":"Buy","inputs":[{"name":"recipient","type":"address","indexed":true,"internalType":"address"},{"name":"buyAmount","type":"uint256","indexed":false,"internalType":"uint256"},{"name":"tokensToMint","type":"uint256","indexed":false,"internalType":"uint256"}],"anonymous":false},{"type":"event","name":"Initialized","inputs":[{"name":"version","type":"uint64","indexed":false,"internalType":"uint64"}],"anonymous":false},{"type":"event","name":"List","inputs":[{"name":"tokensToList","type":"uint256","indexed":false,"internalType":"uint256"}],"anonymous":false},{"type":"event","name":"OwnershipTransferred","inputs":[{"name":"previousOwner","type":"address","indexed":true,"internalType":"address"},{"name":"newOwner","type":"address","indexed":true,"internalType":"address"}],"anonymous":false},{"type":"event","name":"Pump","inputs":[{"name":"reserved","type":"uint256","indexed":false,"internalType":"uint256"}],"anonymous":false},{"type":"event","name":"Sell","inputs":[{"name":"recipient","type":"address","indexed":true,"internalType":"address"},{"name":"sellAmount","type":"uint256","indexed":false,"internalType":"uint256"},{"name":"amountOut","type":"uint256","indexed":false,"internalType":"uint256"}],"anonymous":false},{"type":"event","name":"Transfer","inputs":[{"name":"from","type":"address","indexed":true,"internalType":"address"},{"name":"to","type":"address","indexed":true,"internalType":"address"},{"name":"value","type":"uint256","indexed":false,"internalType":"uint256"}],"anonymous":false},{"type":"event","name":"Upgraded","inputs":[{"name":"implementation","type":"address","indexed":true,"internalType":"address"}],"anonymous":false},{"type":"event","name":"UserPump","inputs":[{"name":"pumper","type":"address","indexed":true,"internalType":"address"},{"name":"amount","type":"uint256","indexed":false,"internalType":"uint256"}],"anonymous":false},{"type":"error","name":"AddressEmptyCode","inputs":[{"name":"target","type":"address","internalType":"address"}]},{"type":"error","name":"ERC1967InvalidImplementation","inputs":[{"name":"implementation","type":"address","internalType":"address"}]},{"type":"error","name":"ERC1967NonPayable","inputs":[]},{"type":"error","name":"ERC20InsufficientAllowance","inputs":[{"name":"spender","type":"address","internalType":"address"},{"name":"allowance","type":"uint256","internalType":"uint256"},{"name":"needed","type":"uint256","internalType":"uint256"}]},{"type":"error","name":"ERC20InsufficientBalance","inputs":[{"name":"sender","type":"address","internalType":"address"},{"name":"balance","type":"uint256","internalType":"uint256"},{"name":"needed","type":"uint256","internalType":"uint256"}]},{"type":"error","name":"ERC20InvalidApprover","inputs":[{"name":"approver","type":"address","internalType":"address"}]},{"type":"error","name":"ERC20InvalidReceiver","inputs":[{"name":"receiver","type":"address","internalType":"address"}]},{"type":"error","name":"ERC20InvalidSender","inputs":[{"name":"sender","type":"address","internalType":"address"}]},{"type":"error","name":"ERC20InvalidSpender","inputs":[{"name":"spender","type":"address","internalType":"address"}]},{"type":"error","name":"FailedCall","inputs":[]},{"type":"error","name":"InvalidInitialization","inputs":[]},{"type":"error","name":"NotInitializing","inputs":[]},{"type":"error","name":"OwnableInvalidOwner","inputs":[{"name":"owner","type":"address","internalType":"address"}]},{"type":"error","name":"OwnableUnauthorizedAccount","inputs":[{"name":"account","type":"address","internalType":"address"}]},{"type":"error","name":"PRBMath_MulDiv18_Overflow","inputs":[{"name":"x","type":"uint256","internalType":"uint256"},{"name":"y","type":"uint256","internalType":"uint256"}]},{"type":"error","name":"PRBMath_MulDiv_Overflow","inputs":[{"name":"x","type":"uint256","internalType":"uint256"},{"name":"y","type":"uint256","internalType":"uint256"},{"name":"denominator","type":"uint256","internalType":"uint256"}]},{"type":"error","name":"PRBMath_UD60x18_Exp2_InputTooBig","inputs":[{"name":"x","type":"uint256","internalType":"UD60x18"}]},{"type":"error","name":"PRBMath_UD60x18_Log_InputTooSmall","inputs":[{"name":"x","type":"uint256","internalType":"UD60x18"}]},{"type":"error","name":"UUPSUnauthorizedCallContext","inputs":[]},{"type":"error","name":"UUPSUnsupportedProxiableUUID","inputs":[{"name":"slot","type":"bytes32","internalType":"bytes32"}]}],"bytecode":{"object":"0x60e0604052600360a090815262302e3360e81b60c0525f9061002190826107f8565b5030608052348015610031575f5ffd5b506001641c35fedd1560601b036021556001646c3390ecc9605e1b036022556001640cf801476160611b0360235560016431bdb23e1d605f1b0360245560016502fb1d8fe083605b1b0360255560016505b771955b37605a1b036026556001650af67a93bb5160591b0360275560016515060c256cb360581b036028556001651428a2f98d7360581b036029556001654d515663970960561b03602a55600165944620b0e70f60551b03602b55600166011c592761c66760541b03602c5560016602214d10d014eb60531b03602d55600166020ade36b7dbef60531b03602e5560016603eab73b3bbfe360521b03602f556001660782ee3593f6d760511b036030556001661ccf4b44bb4821604f1b0360315560016606e7f88ad8a77760511b0360325560016669f3d1c921891d604d1b03603355600166cb2ff529eb71e5604c1b03603455600166c2d415c3db974b604c1b0360355560016702eb40f9f620fda7604a1b0360365560016705990681d961a1eb60491b03603755600167055e12902701414760491b0360385560016714962dee9dc9764160471b0360395560016704ef57b9b560fab560491b03603a5560016712ed7b32a58f552b60471b03603b556001679131271922eaa60760441b03603c556001678b380f3558668c4760441b03603d556001680215f77c045fbe885760421b03603e556001600160831b03603f556001670f577eded5773a1160471b036040556001680eb5ec597592befbf5603f1b036041556001681c35fedd14b861eb05603e1b036042556001683619c87664579bc94b603d1b0360435560016867c00a3b07ffc01fd7603c1b03604455600168c6f6c8f8739773a7a5603b1b03604555600168bec763f8209b7a72b1603b1b0360465560016902dbb8caad9b7097b91b60391b03604755600169057b3d49dda84556d6f760381b03604855600169054183095b2c8ececf3160381b036049556001690a14517cc6b9457111ef60371b03604a5560016913545598e5c23276ccf160361b03604b556001692511882c39c3adea96ff60351b03604c55600169471649d87199aa99075760341b03604d557004429a21a029d4c1457cfbffffffffffff604e55700415bc6d6fb7dd71af2cb3ffffffffffff604f557003eab73b3bbfe282243ce1ffffffffffff6050557003c1771ac9fb6b4c18e229ffffffffffff605155700399e96897690418f785257fffffffffff605255700373fc456c53bb779bf0ea9fffffffffff60535570034f9e8e490c48e67e6ab8bfffffffffff60545570032cbfd4a7adc790560b3337ffffffffff60555570030b50570f6e5d2acca94613ffffffffff6056557002eb40f9f620fda6b56c2861ffffffffff6057557002cc8340ecb0d0f520a6af58ffffffffff6058557002af09481380a0a35cf1ba02ffffffffff605955700292c5bdd3b92ec810287b1b3fffffffff605a55700277abdcdab07d5a77ac6d6b9fffffffff605b5570025daf6654b1eaa55fd64df5efffffffff605c55700244c49c648baa98192dce88b7ffffffff605d5570022ce03cd5619a311b2471268bffffffff605e55700215f77c045fbe885654a44a0fffffffff605f556001600160811b036060557001eaefdbdaaee7421fc4d3ede5ffffffff6061557001d6bd8b2eb257df7e8ca57b09bfffffff6062557001c35fedd14b861eb0443f7f133fffffff6063557001b0ce43b322bcde4a56e8ada5afffffff60645570019f0028ec1fff007f5a195a39dfffffff60655570018ded91f0e72ee74f49b15ba527ffffff60665570017d8ec7f04136f4e5615fd41a63ffffff60675570016ddc6556cdb84bdc8d12d22e6fffffff60685570015ecf52776a1155b5bd8395814f7fffff60695570015060c256cb23b3b3cc3754cf40ffffff606a557001428a2f98d728ae223ddab715be3fffff606b5570013545598e5c23276ccf0ede68034fffff606c557001288c4161ce1d6f54b7f61081194fffff606d5570011c592761c666aa641d5a01a40f17ffff606e55700110a688680a7530515f3e6e6cfdcdffff606f557001056f1b5bedf75c6bcb2ce8aed428ffff6070556ffaadceceeff8a0890f3875f008277fff6071556ff05dc6b27edad306388a600f6ba0bfff6072556fe67a5a25da41063de1495d5b18cdbfff6073556fdcff115b14eedde6fc3aa5353f2e4fff6074556fd3e7a3924312399f9aae2e0f868f8fff6075556fcb2ff529eb71e41582cccd5a1ee26fff6076556fc2d415c3db974ab32a51840c0b67edff6077556fbad03e7d883f69ad5b0a186184e06bff6078556fb320d03b2c343d4829abd6075f0cc5ff6079556fabc25204e02828d73c6e80bcdb1a95bf607a556fa4b16f74ee4bb2040a1ec6c15fbbf2df607b556f9deaf736ac1f569deb1b5ae3f36c130f607c556f976bd9952c7aa957f5937d790ef65037607d556f9131271922eaa6064b73a22d0bd4f2bf607e556f8b380f3558668c46c91c49a2f8e967b9607f556f857ddf0117efa215952912839f6473e66080556108b2565b634e487b7160e01b5f52604160045260245ffd5b600181811c9082168061078857607f821691505b6020821081036107a657634e487b7160e01b5f52602260045260245ffd5b50919050565b601f8211156107f357805f5260205f20601f840160051c810160208510156107d15750805b601f840160051c820191505b818110156107f0575f81556001016107dd565b50505b505050565b81516001600160401b0381111561081157610811610760565b6108258161081f8454610774565b846107ac565b6020601f821160018114610857575f83156108405750848201515b5f19600385901b1c1916600184901b1784556107f0565b5f84815260208120601f198516915b828110156108865787850151825560209485019460019092019101610866565b50848210156108a357868401515f19600387901b60f8161c191681555b50505050600190811b01905550565b608051614c386108d85f395f8181611abf01528181611ae80152611c270152614c385ff3fe6080604052600436106101f1575f3560e01c8063715018a611610108578063a9059cbb1161009d578063d04c69831161006d578063d04c698314610583578063d4d5d32a146105a2578063db0ed6a0146105b6578063dd62ed3e146105c9578063f2fde38b146105e8575f5ffd5b8063a9059cbb14610500578063ad3cb1cc1461051f578063c5c4744c1461054f578063c816841b14610564575f5ffd5b80638da5cb5b116100d85780638da5cb5b1461048657806395d89b41146104c257806396365d44146104d65780639fc97b6e146104eb575f5ffd5b8063715018a614610415578063745dae42146104295780637deb6025146104485780638d662ee31461045b575f5ffd5b806329a00e7c116101895780634c68df67116101595780634c68df67146103a65780634f1ef286146103bb57806352d1902d146103ce57806354fd4d50146103e257806370a08231146103f6575f5ffd5b806329a00e7c1461032e578063313ce5671461034d57806337525b1e1461036857806349f9b0f714610387575f5ffd5b80630f560cd7116101c45780630f560cd7146102a25780631694505e146102b857806318160ddd146102ef57806323b872dd1461030f575f5ffd5b806306fdde03146101f5578063095ea7b31461021f57806309c773b11461024e5780630c7d5cd814610271575b5f5ffd5b348015610200575f5ffd5b50610209610607565b60405161021691906144e8565b60405180910390f35b34801561022a575f5ffd5b5061023e61023936600461450e565b6106c7565b6040519015158152602001610216565b348015610259575f5ffd5b5061026360855481565b604051908152602001610216565b34801561027c575f5ffd5b5060825461028d9063ffffffff1681565b60405163ffffffff9091168152602001610216565b3480156102ad575f5ffd5b506102b66106e0565b005b3480156102c3575f5ffd5b506087546102d7906001600160a01b031681565b6040516001600160a01b039091168152602001610216565b3480156102fa575f5ffd5b505f516020614bc35f395f51905f5254610263565b34801561031a575f5ffd5b5061023e610329366004614538565b610aef565b348015610339575f5ffd5b5061026361034836600461458e565b610b14565b348015610358575f5ffd5b5060405160128152602001610216565b348015610373575f5ffd5b506102636103823660046145c8565b610bd1565b348015610392575f5ffd5b506102636103a136600461458e565b610c51565b3480156103b1575f5ffd5b5061026360845481565b6102b66103c9366004614683565b610d1e565b3480156103d9575f5ffd5b50610263610d3d565b3480156103ed575f5ffd5b50610209610d58565b348015610401575f5ffd5b506102636104103660046146e3565b610de3565b348015610420575f5ffd5b506102b6610e09565b348015610434575f5ffd5b506102b66104433660046146fe565b610e1c565b6102b6610456366004614715565b610fab565b348015610466575f5ffd5b506102636104753660046146e3565b60896020525f908152604090205481565b348015610491575f5ffd5b507f9016d09d72d40fdae2fd8ceac6b6234c7706214fd39c1cd1e609a0528c199300546001600160a01b03166102d7565b3480156104cd575f5ffd5b5061020961105c565b3480156104e1575f5ffd5b5061026360815481565b3480156104f6575f5ffd5b5061026360865481565b34801561050b575f5ffd5b5061023e61051a36600461450e565b61109a565b34801561052a575f5ffd5b50610209604051806040016040528060058152602001640352e302e360dc1b81525081565b34801561055a575f5ffd5b5061026360835481565b34801561056f575f5ffd5b506088546102d7906001600160a01b031681565b34801561058e575f5ffd5b506102b661059d366004614743565b6110a7565b3480156105ad575f5ffd5b506102b6611276565b6102b66105c4366004614797565b61132e565b3480156105d4575f5ffd5b506102636105e3366004614834565b6115d6565b3480156105f3575f5ffd5b506102b66106023660046146e3565b61161f565b7f52c63247e1f47db19d5ce0460030c497f067ca4cebf71ba98eeadabe20bace0380546060915f516020614ba35f395f51905f529161064590614860565b80601f016020809104026020016040519081016040528092919081815260200182805461067190614860565b80156106bc5780601f10610693576101008083540402835291602001916106bc565b820191905f5260205f20905b81548152906001019060200180831161069f57829003601f168201915b505050505091505090565b5f336106d4818585611659565b60019150505b92915050565b608854600160a01b900460ff166107125760405162461bcd60e51b815260040161070990614898565b60405180910390fd5b6813e091864c907b000060835410156107825760405162461bcd60e51b815260206004820152602c60248201527f546f74616c20726169736564206d757374207061737320746865206c6973746960448201526b1b99c81d1a1c995cda1bdb1960a21b6064820152608401610709565b6087546040805163c45a015560e01b815290515f926001600160a01b03169163c45a01559160048083019260209291908290030181865afa1580156107c9573d5f5f3e3d5ffd5b505050506040513d601f19601f820116820180604052508101906107ed91906148e0565b90505f60875f9054906101000a90046001600160a01b03166001600160a01b031663ad5c46486040518163ffffffff1660e01b8152600401602060405180830381865afa158015610840573d5f5f3e3d5ffd5b505050506040513d601f19601f8201168201806040525081019061086491906148e0565b6040516364e329cb60e11b81523060048201526001600160a01b0380831660248301529192509083169063c9c65396906044016020604051808303815f875af11580156108b3573d5f5f3e3d5ffd5b505050506040513d601f19601f820116820180604052508101906108d791906148e0565b608880546001600160a01b0319166001600160a01b03929092169190911790555f61090d5f516020614bc35f395f51905f525490565b610923906b033b2e3c9fd0803ce800000061490f565b905061092f3082611666565b5f8160865461093e9190614922565b6088549091506109599030906001600160a01b03168361169a565b826001600160a01b031663d0e30db068086ed423cecbc400006040518263ffffffff1660e01b81526004015f604051808303818588803b15801561099b575f5ffd5b505af11580156109ad573d5f5f3e3d5ffd5b505060885460405163a9059cbb60e01b81526001600160a01b03918216600482015268086ed423cecbc400006024820152908716935063a9059cbb925060440190506020604051808303815f875af1158015610a0b573d5f5f3e3d5ffd5b505050506040513d601f19601f82011682018060405250810190610a2f9190614935565b610a3b57610a3b614954565b6088546040516335313c2160e11b81526001600160a01b03868116600483015290911690636a627842906024016020604051808303815f875af1158015610a84573d5f5f3e3d5ffd5b505050506040513d601f19601f82011682018060405250810190610aa89190614968565b506088805460ff60a01b191690556040518181527fdd11eaf2db1c16b640194c05b02faa4b8bc4abf29c61428e990e72c6c15cff779060200160405180910390a150505050565b5f33610afc8582856116f7565b610b0785858561169a565b60019150505b9392505050565b5f5f85118015610b2357505f84115b8015610b3457505f8363ffffffff16115b8015610b495750620f424063ffffffff841611155b610b51575f5ffd5b815f03610b5f57505f610bc9565b620f423f1963ffffffff841601610b8257610b7b85838661175a565b9050610bc9565b5f8080610b8f8786614922565b9050610ba0818888620f4240611810565b90935091505f60ff8316610bb4858b61497f565b901c9050610bc2898261490f565b9450505050505b949350505050565b5f8281610bef846ec097ce7bc90715b34b9f10000000005b9061197f565b90505f610c05620f424063ffffffff8916610be9565b90505f610c1b63ffffffff8916620f4240610be9565b90505f610c3282610c2c8787611999565b90611999565b90505f610c3f82856119a7565b9050805b9a9950505050505050505050565b5f5f85118015610c6057505f84115b8015610c7157505f8363ffffffff16115b8015610c865750620f424063ffffffff841611155b8015610c925750848211155b610c9a575f5ffd5b815f03610ca857505f610bc9565b848203610cb6575082610bc9565b620f423f1963ffffffff841601610cd257610b7b84838761175a565b5f8080610cdf858961490f565b9050610cf08882620f424089611810565b90935091505f610d00848961497f565b905060ff831688901b84610d14828461490f565b610c4391906149aa565b610d26611ab4565b610d2f82611b58565b610d398282611b60565b5050565b5f610d46611c1c565b505f516020614be35f395f51905f5290565b5f8054610d6490614860565b80601f0160208091040260200160405190810160405280929190818152602001828054610d9090614860565b8015610ddb5780601f10610db257610100808354040283529160200191610ddb565b820191905f5260205f20905b815481529060010190602001808311610dbe57829003601f168201915b505050505081565b6001600160a01b03165f9081525f516020614ba35f395f51905f52602052604090205490565b610e11611c65565b610e1a5f611cc0565b565b608854600160a01b900460ff16610e455760405162461bcd60e51b815260040161070990614898565b335f8181526089602052604081205491610e759084908490610e6690610de3565b610e70919061490f565b611d30565b9050610e818183614922565b335f90815260896020526040902055608554610e9e908290614922565b60855560405181815233907f38ed2b0a6fac1bede304be559828c18972af2743a8d0bc246990852c1247efdf9060200160405180910390a2608554610f146113ec612710610f0d610efa5f516020614bc35f395f51905f525490565b6b033b2e3c9fd0803ce800000090611d3f565b919061175a565b11610fa6575f610f2660845430611d5e565b905080608654610f369190614922565b608655608454608354610f499190614922565b60838190556813e091864c907b000011610f6557610f656106e0565b7fd30f7a63ab898434aa3f87d8119ad5761a566c84836ab12f6c2c4dd7a7b01275608454604051610f9891815260200190565b60405180910390a1505f6084555b505050565b608854600160a01b900460ff16610fd45760405162461bcd60e51b815260040161070990614898565b5f610fdf3483611dae565b9050611015604051806040016040528060128152602001711d1bdad95b9cc81d1bc81b5a5b9d0e88095960721b81525082611eab565b82811015610fa65760405162461bcd60e51b8152602060048201526014602482015273105b5bdd5b9d081bdd5d081d1bdbc81cdb585b1b60621b6044820152606401610709565b7f52c63247e1f47db19d5ce0460030c497f067ca4cebf71ba98eeadabe20bace0480546060915f516020614ba35f395f51905f529161064590614860565b5f336106d481858561169a565b608854600160a01b900460ff166110d05760405162461bcd60e51b815260040161070990614898565b335f90815260896020526040812054906110ea8583611d30565b90506110f6818361490f565b335f9081526089602052604090205560855461111390829061490f565b6085555f6111213387611ef0565b905080608354611131919061490f565b6083819055505f61114482608354611f8e565b5092505050858110156111905760405162461bcd60e51b8152602060048201526014602482015273105b5bdd5b9d081bdd5d081d1bdbc81cdb585b1b60621b6044820152606401610709565b5f856001600160a01b0316826040515f6040518083038185875af1925050503d805f81146111d9576040519150601f19603f3d011682016040523d82523d5f602084013e6111de565b606091505b50509050806112285760405162461bcd60e51b81526020600482015260166024820152754661696c656420746f2072656465656d2066756e647360501b6044820152606401610709565b60408051898152602081018490526001600160a01b038816917fed7a144fad14804d5c249145e3e0e2b63a9eb455b76aee5bc92d711e9bba3e4a910160405180910390a25050505050505050565b61127e611c65565b6083546084545f913391611292904761490f565b61129c919061490f565b6040515f81818185875af1925050503d805f81146112d5576040519150601f19603f3d011682016040523d82523d5f602084013e6112da565b606091505b505090508061132b5760405162461bcd60e51b815260206004820152601f60248201527f4661696c656420746f2073656e642066656520746f20746865206f776e6572006044820152606401610709565b50565b7ff0c57e16840df040f15088dc2f81fe391c3923bec73e23a9662efc9c229c6a008054600160401b810460ff16159067ffffffffffffffff165f811580156113735750825b90505f8267ffffffffffffffff16600114801561138f5750303b155b90508115801561139d575080155b156113bb5760405163f92ee8a960e01b815260040160405180910390fd5b845467ffffffffffffffff1916600117855583156113e557845460ff60401b1916600160401b1785555b6113ff670de0b6b3a76400006706f05b59d3b20000614922565b34101561146b5760405162461bcd60e51b815260206004820152603460248201527f4e6f7420656e6f756768206d6f6e657920746f2070617920746f6b656e206372604482015273656174696f6e2026206c697374696e672066656560601b6064820152608401610709565b6114758a8a612016565b61147e88612028565b611486612039565b6082805463ffffffff19166206c81c1790555f670de0b6b3a76400006114b46706f05b59d3b200003461490f565b6114be919061490f565b90505f5f6114d5836813e091864c907b0000611f8e565b9350935050505f6114ef83676a5ee16f2b5818408d612041565b9050826083546114ff9190614922565b60835560408051848152602081018390526001600160a01b038d16917f1cbc5ab135991bd2b6a4b034a04aa2aa086dac1371cb9b16b8b5e2ed6b036bed910160405180910390a26088805460ff60a01b1916600160a01b179055608780546001600160a01b038c166001600160a01b0319909116179055611580828c6120bd565b5050505083156115ca57845460ff60401b19168555604051600181527fc7f505b2f371ae2175ee4913f4499e1f2633a7b5936321eed1cdaeb6115181d29060200160405180910390a15b50505050505050505050565b6001600160a01b039182165f9081527f52c63247e1f47db19d5ce0460030c497f067ca4cebf71ba98eeadabe20bace016020908152604080832093909416825291909152205490565b611627611c65565b6001600160a01b03811661165057604051631e4fbdf760e01b81525f6004820152602401610709565b61132b81611cc0565b610fa6838383600161215b565b6001600160a01b03821661168f5760405163ec442f0560e01b81525f6004820152602401610709565b610d395f838361223f565b6001600160a01b0383166116c357604051634b637e8f60e11b81525f6004820152602401610709565b6001600160a01b0382166116ec5760405163ec442f0560e01b81525f6004820152602401610709565b610fa683838361223f565b5f61170284846115d6565b90505f198114611754578181101561174657604051637dc7a0d960e11b81526001600160a01b03841660048201526024810182905260448101839052606401610709565b61175484848484035f61215b565b50505050565b5f838302815f1985870982811083820303915050805f0361178e5783828161178457611784614996565b0492505050610b0d565b8084116117a5576117a56003851502601118612378565b5f848688095f868103871696879004966002600389028118808a02820302808a02820302808a02820302808a02820302808a02820302808a02909103029181900381900460010186841190950394909402919094039290920491909117919091029150509392505050565b5f5f600160811b86106118585760405162461bcd60e51b815260206004820152601060248201526f13585e081b9d5b48195e18d95959195960821b6044820152606401610709565b848610156118a85760405162461bcd60e51b815260206004820152601c60248201527f4261736573203c203120617265206e6f7420737570706f727465642e000000006044820152606401610709565b5f80866118b96001607f1b8a61497f565b6118c391906149aa565b905070015bf0a8b1457695355fb8ac404e7a79e38110156118ee576118e781612389565b91506118fa565b6118f781612901565b91505b5f8563ffffffff168763ffffffff1684611914919061497f565b61191e91906149aa565b9050600160831b81101561194357611935816129ee565b607f94509450505050611976565b5f61194d82613018565b905061196961195d82607f6149bd565b60ff1683901c826130da565b9550935061197692505050565b94509492505050565b5f610b0d61199684670de0b6b3a764000085613737565b90565b5f610b0d61199684846137fc565b5f82828183036119d05780156119bd575f6119c7565b670de0b6b3a76400005b925050506106da565b670de0b6b3a764000082036119f157670de0b6b3a7640000925050506106da565b805f03611a0a57670de0b6b3a7640000925050506106da565b670de0b6b3a76400008103611a235784925050506106da565b670de0b6b3a7640000821115611a5457611a4d611a48611a42876138ae565b86611999565b6139dc565b9250611aac565b5f611a71611996846ec097ce7bc90715b34b9f10000000006149aa565b90505f611a89611a48611a83846138ae565b88611999565b9050611aa7611996826ec097ce7bc90715b34b9f10000000006149aa565b945050505b505092915050565b306001600160a01b037f0000000000000000000000000000000000000000000000000000000000000000161480611b3a57507f00000000000000000000000000000000000000000000000000000000000000006001600160a01b0316611b2e5f516020614be35f395f51905f52546001600160a01b031690565b6001600160a01b031614155b15610e1a5760405163703e46dd60e11b815260040160405180910390fd5b61132b611c65565b816001600160a01b03166352d1902d6040518163ffffffff1660e01b8152600401602060405180830381865afa925050508015611bba575060408051601f3d908101601f19168201909252611bb791810190614968565b60015b611be257604051634c9c8ce360e01b81526001600160a01b0383166004820152602401610709565b5f516020614be35f395f51905f528114611c1257604051632a87526960e21b815260048101829052602401610709565b610fa68383613a30565b306001600160a01b037f00000000000000000000000000000000000000000000000000000000000000001614610e1a5760405163703e46dd60e11b815260040160405180910390fd5b33611c977f9016d09d72d40fdae2fd8ceac6b6234c7706214fd39c1cd1e609a0528c199300546001600160a01b031690565b6001600160a01b031614610e1a5760405163118cdaa760e01b8152336004820152602401610709565b7f9016d09d72d40fdae2fd8ceac6b6234c7706214fd39c1cd1e609a0528c19930080546001600160a01b031981166001600160a01b03848116918217845560405192169182907f8be0079c531659141344cd1fd0a4f28419497f9722a3daafe3b4186f6b6457e0905f90a3505050565b5f828218828410028218610b0d565b5f818310611d5657611d51828461490f565b610b0d565b505f92915050565b5f5f611d8a611d785f516020614bc35f395f51905f525490565b60815460825463ffffffff1687610b14565b9050611d968382611666565b83608154611da49190614922565b6081559392505050565b5f5f8311611df45760405162461bcd60e51b8152602060048201526013602482015272105b5bdd5b9d081a5b881d1bdbc81cdb585b1b606a1b6044820152606401610709565b5f5f611e16856083546813e091864c907b0000611e11919061490f565b611f8e565b9350935050505f611e278386611d5e565b905082608354611e379190614922565b608355611e4482336120bd565b60408051848152602081018390526001600160a01b038716917f1cbc5ab135991bd2b6a4b034a04aa2aa086dac1371cb9b16b8b5e2ed6b036bed910160405180910390a26813e091864c907b000060835410611ea257611ea26106e0565b95945050505050565b610d398282604051602401611ec19291906149d6565b60408051601f198184030181529190526020810180516001600160e01b03166309710a9d60e41b179052613a85565b5f81611efb84610de3565b1015611f495760405162461bcd60e51b815260206004820152601a60248201527f496e73756666696369656e7420746f6b656e20746f2073656c6c0000000000006044820152606401610709565b5f611f74611f625f516020614bc35f395f51905f525490565b60815460825463ffffffff1686610c51565b9050611f808484613a8e565b80608154611da4919061490f565b5f808080806064611fa36101f46127106149f7565b611fad91906149f7565b61ffff1690505f611fc1888361271061175a565b9050611fcd8782611d30565b9350611fdc846101f48461175a565b9550611fea8460648461175a565b9450611ff6848261490f565b9250856084546120069190614922565b6084555093969295509093509150565b61201e613ac2565b610d398282613b0b565b612030613ac2565b61132b81613b5b565b610e1a613ac2565b6082545f9081906120599063ffffffff168686610bd1565b905061209a6040518060400160405280601a81526020017f696e697469616c20746f6b656e7320746f206d696e743a20256400000000000081525082611eab565b6120a48382611666565b846081546120b29190614922565b608155949350505050565b8115610d39575f816001600160a01b0316836040515f6040518083038185875af1925050503d805f811461210c576040519150601f19603f3d011682016040523d82523d5f602084013e612111565b606091505b5050905080610fa65760405162461bcd60e51b81526020600482015260166024820152754661696c656420746f20726566756e6420737061726560501b6044820152606401610709565b5f516020614ba35f395f51905f526001600160a01b0385166121925760405163e602df0560e01b81525f6004820152602401610709565b6001600160a01b0384166121bb57604051634a1406b160e11b81525f6004820152602401610709565b6001600160a01b038086165f9081526001830160209081526040808320938816835292905220839055811561223857836001600160a01b0316856001600160a01b03167f8c5be1e5ebec7d5bd14f71427d1e84f3dd0314c0f7b2291e5b200ac8c7c3b9258560405161222f91815260200190565b60405180910390a35b5050505050565b5f516020614ba35f395f51905f526001600160a01b0384166122795781816002015f82825461226e9190614922565b909155506122e99050565b6001600160a01b0384165f90815260208290526040902054828110156122cb5760405163391434e360e21b81526001600160a01b03861660048201526024810182905260448101849052606401610709565b6001600160a01b0385165f9081526020839052604090209083900390555b6001600160a01b038316612307576002810180548390039055612325565b6001600160a01b0383165f9081526020829052604090208054830190555b826001600160a01b0316846001600160a01b03167fddf252ad1be2c89b69c2b068fc378daa952ba7f163c4a11628f55a4df523b3ef8460405161236a91815260200190565b60405180910390a350505050565b634e487b715f52806020526024601cfd5b5f808080806fd3094c70f034de4b96ff7d5b6f99fcd886106123e1576123b36001607e1b85614922565b93506fd3094c70f034de4b96ff7d5b6f99fcd86123d46001607f1b8861497f565b6123de91906149aa565b95505b6fa45af1e1f40c333b3de1db4dd55f29a78610612434576124066001607d1b85614922565b93506fa45af1e1f40c333b3de1db4dd55f29a76124276001607f1b8861497f565b61243191906149aa565b95505b6f910b022db7ae67ce76b441c27035c6a18610612487576124596001607c1b85614922565b93506f910b022db7ae67ce76b441c27035c6a161247a6001607f1b8861497f565b61248491906149aa565b95505b6f88415abbe9a76bead8d00cf112e4d4a886106124da576124ac6001607b1b85614922565b93506f88415abbe9a76bead8d00cf112e4d4a86124cd6001607f1b8861497f565b6124d791906149aa565b95505b6f84102b00893f64c705e841d5d4064bd3861061252d576124ff6001607a1b85614922565b93506f84102b00893f64c705e841d5d4064bd36125206001607f1b8861497f565b61252a91906149aa565b95505b6f8204055aaef1c8bd5c3259f4822735a2861061258057612552600160791b85614922565b93506f8204055aaef1c8bd5c3259f4822735a26125736001607f1b8861497f565b61257d91906149aa565b95505b6f810100ab00222d861931c15e39b44e9986106125d3576125a5600160781b85614922565b93506f810100ab00222d861931c15e39b44e996125c66001607f1b8861497f565b6125d091906149aa565b95505b6f808040155aabbbe9451521693554f7338610612626576125f8600160771b85614922565b93506f808040155aabbbe9451521693554f7336126196001607f1b8861497f565b61262391906149aa565b95505b6126346001607f1b8761490f565b92508291506001607f1b612648838061497f565b61265291906149aa565b9050600160801b612663848261490f565b61266d908461497f565b61267791906149aa565b6126819085614922565b93506001607f1b612692828461497f565b61269c91906149aa565b9150600160811b6126bd846faaaaaaaaaaaaaaaaaaaaaaaaaaaaaaaa61490f565b6126c7908461497f565b6126d191906149aa565b6126db9085614922565b93506001607f1b6126ec828461497f565b6126f691906149aa565b9150600360801b612717846f9999999999999999999999999999999961490f565b612721908461497f565b61272b91906149aa565b6127359085614922565b93506001607f1b612746828461497f565b61275091906149aa565b9150600160821b612771846f9249249249249249249249249249249261490f565b61277b908461497f565b61278591906149aa565b61278f9085614922565b93506001607f1b6127a0828461497f565b6127aa91906149aa565b9150600560801b6127cb846f8e38e38e38e38e38e38e38e38e38e38e61490f565b6127d5908461497f565b6127df91906149aa565b6127e99085614922565b93506001607f1b6127fa828461497f565b61280491906149aa565b9150600360811b612825846f8ba2e8ba2e8ba2e8ba2e8ba2e8ba2e8b61490f565b61282f908461497f565b61283991906149aa565b6128439085614922565b93506001607f1b612854828461497f565b61285e91906149aa565b9150600760801b61287f846f89d89d89d89d89d89d89d89d89d89d8961490f565b612889908461497f565b61289391906149aa565b61289d9085614922565b93506001607f1b6128ae828461497f565b6128b891906149aa565b9150600160831b6128d9846f8888888888888888888888888888888861490f565b6128e3908461497f565b6128ed91906149aa565b6128f79085614922565b9695505050505050565b5f8082600160801b8110612944575f6129266129216001607f1b846149aa565b613b63565b60ff811692831c92909150612940906001607f1b9061497f565b9250505b6001607f1b8111156129b957607f5b60ff8116156129b7576001607f1b61296b838061497f565b61297591906149aa565b9150600160801b82106129a757600191821c9161299290826149bd565b60ff166001901b836129a49190614922565b92505b6129b081614a11565b9050612953565b505b6f05b9de1d10bf4103d647b0955897ba806129e46f03f80fe03f80fe03f80fe03f80fe03f88461497f565b610bc991906149aa565b5f808080612a006001607c1b86614a2c565b91508190506001607f1b612a14828061497f565b612a1e91906149aa565b9050612a32816710e1b3be415a000061497f565b612a3c9084614922565b92506001607f1b612a4d838361497f565b612a5791906149aa565b9050612a6b816705a0913f6b1e000061497f565b612a759084614922565b92506001607f1b612a86838361497f565b612a9091906149aa565b9050612aa481670168244fdac7800061497f565b612aae9084614922565b92506001607f1b612abf838361497f565b612ac991906149aa565b9050612adc81664807432bc1800061497f565b612ae69084614922565b92506001607f1b612af7838361497f565b612b0191906149aa565b9050612b1481660c0135dca0400061497f565b612b1e9084614922565b92506001607f1b612b2f838361497f565b612b3991906149aa565b9050612b4c816601b707b1cdc00061497f565b612b569084614922565b92506001607f1b612b67838361497f565b612b7191906149aa565b9050612b83816536e0f639b80061497f565b612b8d9084614922565b92506001607f1b612b9e838361497f565b612ba891906149aa565b9050612bba81650618fee9f80061497f565b612bc49084614922565b92506001607f1b612bd5838361497f565b612bdf91906149aa565b9050612bf081649c197dcc0061497f565b612bfa9084614922565b92506001607f1b612c0b838361497f565b612c1591906149aa565b9050612c2681640e30dce40061497f565b612c309084614922565b92506001607f1b612c41838361497f565b612c4b91906149aa565b9050612c5c8164012ebd130061497f565b612c669084614922565b92506001607f1b612c77838361497f565b612c8191906149aa565b9050612c91816317499f0061497f565b612c9b9084614922565b92506001607f1b612cac838361497f565b612cb691906149aa565b9050612cc6816301a9d48061497f565b612cd09084614922565b92506001607f1b612ce1838361497f565b612ceb91906149aa565b9050612cfa81621c638061497f565b612d049084614922565b92506001607f1b612d15838361497f565b612d1f91906149aa565b9050612d2e816201c63861497f565b612d389084614922565b92506001607f1b612d49838361497f565b612d5391906149aa565b9050612d6181611ab861497f565b612d6b9084614922565b92506001607f1b612d7c838361497f565b612d8691906149aa565b9050612d948161017c61497f565b612d9e9084614922565b92506001607f1b612daf838361497f565b612db991906149aa565b9050612dc681601461497f565b612dd09084614922565b92506001607f1b612de1838361497f565b612deb91906149aa565b9050612df881600161497f565b612e029084614922565b92506001607f1b82612e1c6721c3677c82b40000866149aa565b612e269190614922565b612e309190614922565b92506001607c1b851615612e785770018ebef9eac820ae8682b9793ac6d1e776612e6b847001c3d6a24ed82218787d624d3e5eba95f961497f565b612e7591906149aa565b92505b6001607d1b851615612ebe577001368b2fc6f9609fe7aceb46aa619baed4612eb18470018ebef9eac820ae8682b9793ac6d1e77861497f565b612ebb91906149aa565b92505b6001607e1b851615612f03576fbc5ab1b16779be3575bd8f0520a9f21f612ef6847001368b2fc6f9609fe7aceb46aa619baed561497f565b612f0091906149aa565b92505b6001607f1b851615612f47576f454aaa8efe072e7f6ddbab84b40a55c9612f3a846fbc5ab1b16779be3575bd8f0520a9f21e61497f565b612f4491906149aa565b92505b600160801b851615612f8b576f0960aadc109e7a3bf4578099615711ea612f7e846f454aaa8efe072e7f6ddbab84b40a55c561497f565b612f8891906149aa565b92505b600160811b851615612fce576e2bf84208204f5977f9a8cf01fdce3d612fc1846f0960aadc109e7a3bf4578099615711d761497f565b612fcb91906149aa565b92505b600160821b85161561300f576d03c6ab775dd0b95b4cbee7e65d11613002846e2bf84208204f5977f9a8cf01fdc30761497f565b61300c91906149aa565b92505b50909392505050565b5f6020607f5b60ff811661302d836001614a3f565b60ff16101561307f575f60026130438385614a3f565b61304d9190614a58565b90508460018260ff166080811061306657613066614a79565b01541061307557809250613079565b8091505b5061301e565b8360018260ff166080811061309657613096614a79565b0154106130a4579392505050565b8360018360ff16608081106130bb576130bb614a79565b0154106130c9575092915050565b6130d1614954565b505f9392505050565b5f828160ff84166130eb838061497f565b901c9150613109826f03442c4e6074a82f1797f72ac000000061497f565b6131139082614922565b905060ff8416613123868461497f565b901c9150613141826f0116b96f757c380fb287fd0e4000000061497f565b61314b9082614922565b905060ff841661315b868461497f565b901c9150613178826e45ae5bdd5f0e03eca1ff439000000061497f565b6131829082614922565b905060ff8416613192868461497f565b901c91506131af826e0defabf91302cd95b9ffda5000000061497f565b6131b99082614922565b905060ff84166131c9868461497f565b901c91506131e6826e02529ca9832b22439efff9b800000061497f565b6131f09082614922565b905060ff8416613200868461497f565b901c915061321c826d54f1cf12bd04e516b6da8800000061497f565b6132269082614922565b905060ff8416613236868461497f565b901c9150613252826d0a9e39e257a09ca2d6db5100000061497f565b61325c9082614922565b905060ff841661326c868461497f565b901c9150613288826d012e066e7b839fa050c30900000061497f565b6132929082614922565b905060ff84166132a2868461497f565b901c91506132bd826c1e33d7d926c329a1ad1a80000061497f565b6132c79082614922565b905060ff84166132d7868461497f565b901c91506132f2826c02bee513bdb4a6b19b5f80000061497f565b6132fc9082614922565b905060ff841661330c868461497f565b901c9150613326826b3a9316fa79b88eccf2a0000061497f565b6133309082614922565b905060ff8416613340868461497f565b901c915061335a826b048177ebe1fa81237520000061497f565b6133649082614922565b905060ff8416613374868461497f565b901c915061338d826a5263fe90242dcbacf0000061497f565b6133979082614922565b905060ff84166133a7868461497f565b901c91506133c0826a057e22099c030d9410000061497f565b6133ca9082614922565b905060ff84166133da868461497f565b901c91506133f2826957e22099c030d941000061497f565b6133fc9082614922565b905060ff841661340c868461497f565b901c91506134248269052b6b5456997631000061497f565b61342e9082614922565b905060ff841661343e868461497f565b901c915061345582684985f67696bf74800061497f565b61345f9082614922565b905060ff841661346f868461497f565b901c9150613486826803dea12ea99e49800061497f565b6134909082614922565b905060ff84166134a0868461497f565b901c91506134b6826731880f2214b6e00061497f565b6134c09082614922565b905060ff84166134d0868461497f565b901c91506134e68267025bcff56eb3600061497f565b6134f09082614922565b905060ff8416613500868461497f565b901c915061351582661b722e10ab100061497f565b61351f9082614922565b905060ff841661352f868461497f565b901c9150613544826601317c7007700061497f565b61354e9082614922565b905060ff841661355e868461497f565b901c915061357282650cba84aafa0061497f565b61357c9082614922565b905060ff841661358c868461497f565b901c915061359f826482573a0a0061497f565b6135a99082614922565b905060ff84166135b9868461497f565b901c91506135cc826405035ad90061497f565b6135d69082614922565b905060ff84166135e6868461497f565b901c91506135f882632f881b0061497f565b6136029082614922565b905060ff8416613612868461497f565b901c9150613624826301b2934061497f565b61362e9082614922565b905060ff841661363e868461497f565b901c915061364f82620efc4061497f565b6136599082614922565b905060ff8416613669868461497f565b901c915061367982617fe061497f565b6136839082614922565b905060ff8416613693868461497f565b901c91506136a38261042061497f565b6136ad9082614922565b905060ff84166136bd868461497f565b901c91506136cc82602161497f565b6136d69082614922565b905060ff84166136e6868461497f565b901c91506136f582600161497f565b6136ff9082614922565b9050600160ff85161b856137236f0688589cc0e9505e2f2fee5580000000846149aa565b61372d9190614922565b611ea29190614922565b5f80805f19858709858702925082811083820303915050805f036137645783828161178457611784614996565b83811061379557604051630c740aef60e31b8152600481018790526024810186905260448101859052606401610709565b5f8486880960026001871981018816978890046003810283188082028403028082028403028082028403028082028403028082028403029081029092039091025f889003889004909101858311909403939093029303949094049190911702949350505050565b5f80805f19848609848602925082811083820303915050805f0361382d5750670de0b6b3a7640000900490506106da565b670de0b6b3a7640000811061385f57604051635173648d60e01b81526004810186905260248101859052604401610709565b5f670de0b6b3a764000085870962040000818503049310909103600160ee1b02919091177faccb18165bd6fe31ae1cf318dc5b51eee0e1ba569b88cd74c1773b91fac106690291505092915050565b5f81670de0b6b3a76400008110156138dc5760405163036d32ef60e41b815260048101849052602401610709565b5f613967670de0b6b3a7640000830460016fffffffffffffffffffffffffffffffff821160071b91821c67ffffffffffffffff811160061b90811c63ffffffff811160051b90811c61ffff811160041b90811c60ff8111600390811b91821c600f811160021b90811c918211871b91821c969096119490961792909217171791909117919091171790565b9050670de0b6b3a7640000810282821c670de0b6b3a763ffff19810161398d57816128f7565b671bc16d674ec800006706f05b59d3b200005b80156139d057670de0b6b3a76400008380020492508183106139c8579283019260019290921c915b60011c6139a0565b50919695505050505050565b5f81680a688906bd8affffff811115613a0b5760405163b3b6ba1f60e01b815260048101849052602401610709565b5f613a22670de0b6b3a7640000604084901b6149aa565b9050610bc961199682613bcf565b613a398261432f565b6040516001600160a01b038316907fbc7cd75a20ee27fd9adebab32041f755214dbc6bffa90cc0225b39da2e5c2d3b905f90a2805115613a7d57610fa68282614392565b610d396143fb565b61132b8161441a565b6001600160a01b038216613ab757604051634b637e8f60e11b81525f6004820152602401610709565b610d39825f8361223f565b7ff0c57e16840df040f15088dc2f81fe391c3923bec73e23a9662efc9c229c6a0054600160401b900460ff16610e1a57604051631afcd79f60e31b815260040160405180910390fd5b613b13613ac2565b5f516020614ba35f395f51905f527f52c63247e1f47db19d5ce0460030c497f067ca4cebf71ba98eeadabe20bace03613b4c8482614ad1565b50600481016117548382614ad1565b611627613ac2565b5f8082610100811015613b96575b6001811115613b9157600190811c90613b8a9083614a3f565b9150613b71565b613bc8565b60805b60ff811615611aac57600160ff82161b8210613bbd579182179160ff81169190911c905b60011c607f16613b99565b5092915050565b600160bf1b67ff00000000000000821615613cdc57678000000000000000821615613c035768016a09e667f3bcc9090260401c5b674000000000000000821615613c22576801306fe0a31b7152df0260401c5b672000000000000000821615613c41576801172b83c7d517adce0260401c5b671000000000000000821615613c605768010b5586cf9890f62a0260401c5b670800000000000000821615613c7f576801059b0d31585743ae0260401c5b670400000000000000821615613c9e57680102c9a3e778060ee70260401c5b670200000000000000821615613cbd5768010163da9fb33356d80260401c5b670100000000000000821615613cdc57680100b1afa5abcbed610260401c5b66ff000000000000821615613ddb576680000000000000821615613d095768010058c86da1c09ea20260401c5b6640000000000000821615613d27576801002c605e2e8cec500260401c5b6620000000000000821615613d4557680100162f3904051fa10260401c5b6610000000000000821615613d63576801000b175effdc76ba0260401c5b6608000000000000821615613d8157680100058ba01fb9f96d0260401c5b6604000000000000821615613d9f5768010002c5cc37da94920260401c5b6602000000000000821615613dbd576801000162e525ee05470260401c5b6601000000000000821615613ddb5768010000b17255775c040260401c5b65ff0000000000821615613ed15765800000000000821615613e06576801000058b91b5bc9ae0260401c5b65400000000000821615613e2357680100002c5c89d5ec6d0260401c5b65200000000000821615613e405768010000162e43f4f8310260401c5b65100000000000821615613e5d57680100000b1721bcfc9a0260401c5b65080000000000821615613e7a5768010000058b90cf1e6e0260401c5b65040000000000821615613e97576801000002c5c863b73f0260401c5b65020000000000821615613eb457680100000162e430e5a20260401c5b65010000000000821615613ed1576801000000b1721835510260401c5b64ff00000000821615613fbe57648000000000821615613efa57680100000058b90c0b490260401c5b644000000000821615613f165768010000002c5c8601cc0260401c5b642000000000821615613f32576801000000162e42fff00260401c5b641000000000821615613f4e5768010000000b17217fbb0260401c5b640800000000821615613f6a576801000000058b90bfce0260401c5b640400000000821615613f8657680100000002c5c85fe30260401c5b640200000000821615613fa25768010000000162e42ff10260401c5b640100000000821615613fbe57680100000000b17217f80260401c5b63ff0000008216156140a2576380000000821615613fe55768010000000058b90bfc0260401c5b6340000000821615614000576801000000002c5c85fe0260401c5b632000000082161561401b57680100000000162e42ff0260401c5b6310000000821615614036576801000000000b17217f0260401c5b630800000082161561405157680100000000058b90c00260401c5b630400000082161561406c5768010000000002c5c8600260401c5b6302000000821615614087576801000000000162e4300260401c5b63010000008216156140a25768010000000000b172180260401c5b62ff000082161561417d57628000008216156140c7576801000000000058b90c0260401c5b624000008216156140e157680100000000002c5c860260401c5b622000008216156140fb5768010000000000162e430260401c5b6210000082161561411557680100000000000b17210260401c5b6208000082161561412f5768010000000000058b910260401c5b62040000821615614149576801000000000002c5c80260401c5b6202000082161561416357680100000000000162e40260401c5b6201000082161561417d576801000000000000b1720260401c5b61ff0082161561424f576180008216156141a057680100000000000058b90260401c5b6140008216156141b95768010000000000002c5d0260401c5b6120008216156141d2576801000000000000162e0260401c5b6110008216156141eb5768010000000000000b170260401c5b610800821615614204576801000000000000058c0260401c5b61040082161561421d57680100000000000002c60260401c5b61020082161561423657680100000000000001630260401c5b61010082161561424f57680100000000000000b10260401c5b60ff82161561431857608082161561427057680100000000000000590260401c5b6040821615614288576801000000000000002c0260401c5b60208216156142a057680100000000000000160260401c5b60108216156142b8576801000000000000000b0260401c5b60088216156142d057680100000000000000060260401c5b60048216156142e857680100000000000000030260401c5b600282161561430057680100000000000000010260401c5b600182161561431857680100000000000000010260401c5b670de0b6b3a76400000260409190911c60bf031c90565b806001600160a01b03163b5f0361436457604051634c9c8ce360e01b81526001600160a01b0382166004820152602401610709565b5f516020614be35f395f51905f5280546001600160a01b0319166001600160a01b0392909216919091179055565b60605f5f846001600160a01b0316846040516143ae9190614b8c565b5f60405180830381855af49150503d805f81146143e6576040519150601f19603f3d011682016040523d82523d5f602084013e6143eb565b606091505b5091509150611ea285838361443a565b3415610e1a5760405163b398979f60e01b815260040160405180910390fd5b80516a636f6e736f6c652e6c6f67602083015f808483855afa5050505050565b60608261444a57611d5182614491565b815115801561446157506001600160a01b0384163b155b1561448a57604051639996b31560e01b81526001600160a01b0385166004820152602401610709565b5080610b0d565b8051156144a15780518082602001fd5b60405163d6bda27560e01b815260040160405180910390fd5b5f81518084528060208401602086015e5f602082860101526020601f19601f83011685010191505092915050565b602081525f610b0d60208301846144ba565b6001600160a01b038116811461132b575f5ffd5b5f5f6040838503121561451f575f5ffd5b823561452a816144fa565b946020939093013593505050565b5f5f5f6060848603121561454a575f5ffd5b8335614555816144fa565b92506020840135614565816144fa565b929592945050506040919091013590565b803563ffffffff81168114614589575f5ffd5b919050565b5f5f5f5f608085870312156145a1575f5ffd5b84359350602085013592506145b860408601614576565b9396929550929360600135925050565b5f5f5f606084860312156145da575f5ffd5b6145e384614576565b95602085013595506040909401359392505050565b634e487b7160e01b5f52604160045260245ffd5b5f5f67ffffffffffffffff841115614626576146266145f8565b50604051601f19601f85018116603f0116810181811067ffffffffffffffff82111715614655576146556145f8565b60405283815290508082840185101561466c575f5ffd5b838360208301375f60208583010152509392505050565b5f5f60408385031215614694575f5ffd5b823561469f816144fa565b9150602083013567ffffffffffffffff8111156146ba575f5ffd5b8301601f810185136146ca575f5ffd5b6146d98582356020840161460c565b9150509250929050565b5f602082840312156146f3575f5ffd5b8135610b0d816144fa565b5f6020828403121561470e575f5ffd5b5035919050565b5f5f60408385031215614726575f5ffd5b823591506020830135614738816144fa565b809150509250929050565b5f5f5f60608486031215614755575f5ffd5b8335925060208401359150604084013561476e816144fa565b809150509250925092565b5f82601f830112614788575f5ffd5b610b0d8383356020850161460c565b5f5f5f5f5f60a086880312156147ab575f5ffd5b853567ffffffffffffffff8111156147c1575f5ffd5b6147cd88828901614779565b955050602086013567ffffffffffffffff8111156147e9575f5ffd5b6147f588828901614779565b9450506040860135614806816144fa565b92506060860135614816816144fa565b91506080860135614826816144fa565b809150509295509295909350565b5f5f60408385031215614845575f5ffd5b8235614850816144fa565b91506020830135614738816144fa565b600181811c9082168061487457607f821691505b60208210810361489257634e487b7160e01b5f52602260045260245ffd5b50919050565b60208082526028908201527f5468697320616374696f6e206973206f6e20616c6c6f776564207768656e206c60408201526761756e6368696e6760c01b606082015260800190565b5f602082840312156148f0575f5ffd5b8151610b0d816144fa565b634e487b7160e01b5f52601160045260245ffd5b818103818111156106da576106da6148fb565b808201808211156106da576106da6148fb565b5f60208284031215614945575f5ffd5b81518015158114610b0d575f5ffd5b634e487b7160e01b5f52600160045260245ffd5b5f60208284031215614978575f5ffd5b5051919050565b80820281158282048414176106da576106da6148fb565b634e487b7160e01b5f52601260045260245ffd5b5f826149b8576149b8614996565b500490565b60ff82811682821603908111156106da576106da6148fb565b604081525f6149e860408301856144ba565b90508260208301529392505050565b61ffff82811682821603908111156106da576106da6148fb565b5f60ff821680614a2357614a236148fb565b5f190192915050565b5f82614a3a57614a3a614996565b500690565b60ff81811683821601908111156106da576106da6148fb565b5f60ff831680614a6a57614a6a614996565b8060ff84160491505092915050565b634e487b7160e01b5f52603260045260245ffd5b601f821115610fa657805f5260205f20601f840160051c81016020851015614ab25750805b601f840160051c820191505b81811015612238575f8155600101614abe565b815167ffffffffffffffff811115614aeb57614aeb6145f8565b614aff81614af98454614860565b84614a8d565b6020601f821160018114614b31575f8315614b1a5750848201515b5f19600385901b1c1916600184901b178455612238565b5f84815260208120601f198516915b82811015614b605787850151825560209485019460019092019101614b40565b5084821015614b7d57868401515f19600387901b60f8161c191681555b50505050600190811b01905550565b5f82518060208501845e5f92019182525091905056fe52c63247e1f47db19d5ce0460030c497f067ca4cebf71ba98eeadabe20bace0052c63247e1f47db19d5ce0460030c497f067ca4cebf71ba98eeadabe20bace02360894a13ba1a3210667c828492db98dca3e2076cc3735a920a3ca505d382bbca264697066735822122022060e571c6f02ada3b852d65aaf91c46004428abc38c4b87d90f91d5ff54ed664736f6c634300081b0033","linkReferences":{}},"methodIdentifiers":{"UPGRADE_INTERFACE_VERSION()":"ad3cb1cc","allowance(address,address)":"dd62ed3e","approve(address,uint256)":"095ea7b3","balanceOf(address)":"70a08231","buy(uint256,address)":"7deb6025","calculateInitialPurchaseReturn(uint32,uint256,uint256)":"37525b1e","calculatePurchaseReturn(uint256,uint256,uint32,uint256)":"29a00e7c","calculateSaleReturn(uint256,uint256,uint32,uint256)":"49f9b0f7","collectFee()":"d4d5d32a","decimals()":"313ce567","initialize(string,string,address,address,address)":"db0ed6a0","list()":"0f560cd7","name()":"06fdde03","owner()":"8da5cb5b","poolBalance()":"96365d44","proxiableUUID()":"52d1902d","pump(uint256)":"745dae42","pumped(address)":"8d662ee3","renounceOwnership()":"715018a6","reserveRatio()":"0c7d5cd8","selfBought()":"9fc97b6e","sell(uint256,uint256,address)":"d04c6983","symbol()":"95d89b41","totalPumped()":"09c773b1","totalRaised()":"c5c4744c","totalReserve()":"4c68df67","totalSupply()":"18160ddd","transfer(address,uint256)":"a9059cbb","transferFrom(address,address,uint256)":"23b872dd","transferOwnership(address)":"f2fde38b","uniswapPair()":"c816841b","uniswapV2Router()":"1694505e","upgradeToAndCall(address,bytes)":"4f1ef286","version()":"54fd4d50"},"id":73}