{"abi":[{"type":"function","name":"UPGRADE_INTERFACE_VERSION","inputs":[],"outputs":[{"name":"","type":"string","internalType":"string"}],"stateMutability":"view"},{"type":"function","name":"allowance","inputs":[{"name":"owner","type":"address","internalType":"address"},{"name":"spender","type":"address","internalType":"address"}],"outputs":[{"name":"","type":"uint256","internalType":"uint256"}],"stateMutability":"view"},{"type":"function","name":"approve","inputs":[{"name":"spender","type":"address","internalType":"address"},{"name":"value","type":"uint256","internalType":"uint256"}],"outputs":[{"name":"","type":"bool","internalType":"bool"}],"stateMutability":"nonpayable"},{"type":"function","name":"balanceOf","inputs":[{"name":"account","type":"address","internalType":"address"}],"outputs":[{"name":"","type":"uint256","internalType":"uint256"}],"stateMutability":"view"},{"type":"function","name":"buy","inputs":[{"name":"minAmountOut","type":"uint256","internalType":"uint256"},{"name":"recipient","type":"address","internalType":"address"}],"outputs":[],"stateMutability":"payable"},{"type":"function","name":"calculateInitialPurchaseReturn","inputs":[{"name":"_connectorWeight","type":"uint32","internalType":"uint32"},{"name":"_depositAmount","type":"uint256","internalType":"uint256"},{"name":"slope","type":"uint256","internalType":"uint256"}],"outputs":[{"name":"","type":"uint256","internalType":"uint256"}],"stateMutability":"view"},{"type":"function","name":"calculatePurchaseReturn","inputs":[{"name":"_supply","type":"uint256","internalType":"uint256"},{"name":"_connectorBalance","type":"uint256","internalType":"uint256"},{"name":"_connectorWeight","type":"uint32","internalType":"uint32"},{"name":"_depositAmount","type":"uint256","internalType":"uint256"}],"outputs":[{"name":"","type":"uint256","internalType":"uint256"}],"stateMutability":"view"},{"type":"function","name":"calculateSaleReturn","inputs":[{"name":"_supply","type":"uint256","internalType":"uint256"},{"name":"_connectorBalance","type":"uint256","internalType":"uint256"},{"name":"_connectorWeight","type":"uint32","internalType":"uint32"},{"name":"_sellAmount","type":"uint256","internalType":"uint256"}],"outputs":[{"name":"","type":"uint256","internalType":"uint256"}],"stateMutability":"view"},{"type":"function","name":"collectFee","inputs":[],"outputs":[],"stateMutability":"nonpayable"},{"type":"function","name":"decimals","inputs":[],"outputs":[{"name":"","type":"uint8","internalType":"uint8"}],"stateMutability":"view"},{"type":"function","name":"initialize","inputs":[{"name":"name_","type":"string","internalType":"string"},{"name":"symbol_","type":"string","internalType":"string"},{"name":"owner_","type":"address","internalType":"address"},{"name":"creator_","type":"address","internalType":"address"},{"name":"uniswapV2Router_","type":"address","internalType":"address"},{"name":"reserveRatio_","type":"uint32","internalType":"uint32"}],"outputs":[],"stateMutability":"payable"},{"type":"function","name":"list","inputs":[],"outputs":[],"stateMutability":"payable"},{"type":"function","name":"name","inputs":[],"outputs":[{"name":"","type":"string","internalType":"string"}],"stateMutability":"view"},{"type":"function","name":"owner","inputs":[],"outputs":[{"name":"","type":"address","internalType":"address"}],"stateMutability":"view"},{"type":"function","name":"poolBalance","inputs":[],"outputs":[{"name":"","type":"uint256","internalType":"uint256"}],"stateMutability":"view"},{"type":"function","name":"proxiableUUID","inputs":[],"outputs":[{"name":"","type":"bytes32","internalType":"bytes32"}],"stateMutability":"view"},{"type":"function","name":"pump","inputs":[{"name":"amount","type":"uint256","internalType":"uint256"}],"outputs":[],"stateMutability":"nonpayable"},{"type":"function","name":"pumped","inputs":[{"name":"","type":"address","internalType":"address"}],"outputs":[{"name":"","type":"uint256","internalType":"uint256"}],"stateMutability":"view"},{"type":"function","name":"renounceOwnership","inputs":[],"outputs":[],"stateMutability":"nonpayable"},{"type":"function","name":"reserveRatio","inputs":[],"outputs":[{"name":"","type":"uint32","internalType":"uint32"}],"stateMutability":"view"},{"type":"function","name":"sell","inputs":[{"name":"sellAmount","type":"uint256","internalType":"uint256"},{"name":"minAmountOut","type":"uint256","internalType":"uint256"},{"name":"recipient","type":"address","internalType":"address"}],"outputs":[],"stateMutability":"nonpayable"},{"type":"function","name":"symbol","inputs":[],"outputs":[{"name":"","type":"string","internalType":"string"}],"stateMutability":"view"},{"type":"function","name":"totalPumped","inputs":[],"outputs":[{"name":"","type":"uint256","internalType":"uint256"}],"stateMutability":"view"},{"type":"function","name":"totalRaised","inputs":[],"outputs":[{"name":"","type":"uint256","internalType":"uint256"}],"stateMutability":"view"},{"type":"function","name":"totalReserve","inputs":[],"outputs":[{"name":"","type":"uint256","internalType":"uint256"}],"stateMutability":"view"},{"type":"function","name":"totalSupply","inputs":[],"outputs":[{"name":"","type":"uint256","internalType":"uint256"}],"stateMutability":"view"},{"type":"function","name":"transfer","inputs":[{"name":"to","type":"address","internalType":"address"},{"name":"value","type":"uint256","internalType":"uint256"}],"outputs":[{"name":"","type":"bool","internalType":"bool"}],"stateMutability":"nonpayable"},{"type":"function","name":"transferFrom","inputs":[{"name":"from","type":"address","internalType":"address"},{"name":"to","type":"address","internalType":"address"},{"name":"value","type":"uint256","internalType":"uint256"}],"outputs":[{"name":"","type":"bool","internalType":"bool"}],"stateMutability":"nonpayable"},{"type":"function","name":"transferOwnership","inputs":[{"name":"newOwner","type":"address","internalType":"address"}],"outputs":[],"stateMutability":"nonpayable"},{"type":"function","name":"uniswapPair","inputs":[],"outputs":[{"name":"","type":"address","internalType":"contract IUniswapV2Pair"}],"stateMutability":"view"},{"type":"function","name":"uniswapV2Router","inputs":[],"outputs":[{"name":"","type":"address","internalType":"contract IUniswapV2Router02"}],"stateMutability":"view"},{"type":"function","name":"upgradeToAndCall","inputs":[{"name":"newImplementation","type":"address","internalType":"address"},{"name":"data","type":"bytes","internalType":"bytes"}],"outputs":[],"stateMutability":"payable"},{"type":"function","name":"version","inputs":[],"outputs":[{"name":"","type":"string","internalType":"string"}],"stateMutability":"view"},{"type":"event","name":"Approval","inputs":[{"name":"owner","type":"address","indexed":true,"internalType":"address"},{"name":"spender","type":"address","indexed":true,"internalType":"address"},{"name":"value","type":"uint256","indexed":false,"internalType":"uint256"}],"anonymous":false},{"type":"event","name":"BCMinted","inputs":[{"name":"amountMinted","type":"uint256","indexed":false,"internalType":"uint256"},{"name":"totalCost","type":"uint256","indexed":false,"internalType":"uint256"}],"anonymous":false},{"type":"event","name":"BCWithdrawn","inputs":[{"name":"amountWithdrawn","type":"uint256","indexed":false,"internalType":"uint256"},{"name":"reward","type":"uint256","indexed":false,"internalType":"uint256"}],"anonymous":false},{"type":"event","name":"Buy","inputs":[{"name":"recipient","type":"address","indexed":true,"internalType":"address"},{"name":"buyAmount","type":"uint256","indexed":false,"internalType":"uint256"},{"name":"tokensToMint","type":"uint256","indexed":false,"internalType":"uint256"}],"anonymous":false},{"type":"event","name":"Initialized","inputs":[{"name":"version","type":"uint64","indexed":false,"internalType":"uint64"}],"anonymous":false},{"type":"event","name":"List","inputs":[{"name":"tokensToList","type":"uint256","indexed":false,"internalType":"uint256"}],"anonymous":false},{"type":"event","name":"OwnershipTransferred","inputs":[{"name":"previousOwner","type":"address","indexed":true,"internalType":"address"},{"name":"newOwner","type":"address","indexed":true,"internalType":"address"}],"anonymous":false},{"type":"event","name":"Pump","inputs":[{"name":"reserved","type":"uint256","indexed":false,"internalType":"uint256"}],"anonymous":false},{"type":"event","name":"Sell","inputs":[{"name":"recipient","type":"address","indexed":true,"internalType":"address"},{"name":"sellAmount","type":"uint256","indexed":false,"internalType":"uint256"},{"name":"amountOut","type":"uint256","indexed":false,"internalType":"uint256"}],"anonymous":false},{"type":"event","name":"Transfer","inputs":[{"name":"from","type":"address","indexed":true,"internalType":"address"},{"name":"to","type":"address","indexed":true,"internalType":"address"},{"name":"value","type":"uint256","indexed":false,"internalType":"uint256"}],"anonymous":false},{"type":"event","name":"Upgraded","inputs":[{"name":"implementation","type":"address","indexed":true,"internalType":"address"}],"anonymous":false},{"type":"event","name":"UserPump","inputs":[{"name":"pumper","type":"address","indexed":true,"internalType":"address"},{"name":"amount","type":"uint256","indexed":false,"internalType":"uint256"}],"anonymous":false},{"type":"error","name":"AddressEmptyCode","inputs":[{"name":"target","type":"address","internalType":"address"}]},{"type":"error","name":"ERC1967InvalidImplementation","inputs":[{"name":"implementation","type":"address","internalType":"address"}]},{"type":"error","name":"ERC1967NonPayable","inputs":[]},{"type":"error","name":"ERC20InsufficientAllowance","inputs":[{"name":"spender","type":"address","internalType":"address"},{"name":"allowance","type":"uint256","internalType":"uint256"},{"name":"needed","type":"uint256","internalType":"uint256"}]},{"type":"error","name":"ERC20InsufficientBalance","inputs":[{"name":"sender","type":"address","internalType":"address"},{"name":"balance","type":"uint256","internalType":"uint256"},{"name":"needed","type":"uint256","internalType":"uint256"}]},{"type":"error","name":"ERC20InvalidApprover","inputs":[{"name":"approver","type":"address","internalType":"address"}]},{"type":"error","name":"ERC20InvalidReceiver","inputs":[{"name":"receiver","type":"address","internalType":"address"}]},{"type":"error","name":"ERC20InvalidSender","inputs":[{"name":"sender","type":"address","internalType":"address"}]},{"type":"error","name":"ERC20InvalidSpender","inputs":[{"name":"spender","type":"address","internalType":"address"}]},{"type":"error","name":"FailedCall","inputs":[]},{"type":"error","name":"InvalidInitialization","inputs":[]},{"type":"error","name":"NotInitializing","inputs":[]},{"type":"error","name":"OwnableInvalidOwner","inputs":[{"name":"owner","type":"address","internalType":"address"}]},{"type":"error","name":"OwnableUnauthorizedAccount","inputs":[{"name":"account","type":"address","internalType":"address"}]},{"type":"error","name":"PRBMath_MulDiv18_Overflow","inputs":[{"name":"x","type":"uint256","internalType":"uint256"},{"name":"y","type":"uint256","internalType":"uint256"}]},{"type":"error","name":"PRBMath_MulDiv_Overflow","inputs":[{"name":"x","type":"uint256","internalType":"uint256"},{"name":"y","type":"uint256","internalType":"uint256"},{"name":"denominator","type":"uint256","internalType":"uint256"}]},{"type":"error","name":"PRBMath_UD60x18_Exp2_InputTooBig","inputs":[{"name":"x","type":"uint256","internalType":"UD60x18"}]},{"type":"error","name":"PRBMath_UD60x18_Log_InputTooSmall","inputs":[{"name":"x","type":"uint256","internalType":"UD60x18"}]},{"type":"error","name":"UUPSUnauthorizedCallContext","inputs":[]},{"type":"error","name":"UUPSUnsupportedProxiableUUID","inputs":[{"name":"slot","type":"bytes32","internalType":"bytes32"}]}],"bytecode":{"object":"0x60e0604052600360a090815262302e3360e81b60c0525f9061002190826107f8565b5030608052348015610031575f5ffd5b506001641c35fedd1560601b036021556001646c3390ecc9605e1b036022556001640cf801476160611b0360235560016431bdb23e1d605f1b0360245560016502fb1d8fe083605b1b0360255560016505b771955b37605a1b036026556001650af67a93bb5160591b0360275560016515060c256cb360581b036028556001651428a2f98d7360581b036029556001654d515663970960561b03602a55600165944620b0e70f60551b03602b55600166011c592761c66760541b03602c5560016602214d10d014eb60531b03602d55600166020ade36b7dbef60531b03602e5560016603eab73b3bbfe360521b03602f556001660782ee3593f6d760511b036030556001661ccf4b44bb4821604f1b0360315560016606e7f88ad8a77760511b0360325560016669f3d1c921891d604d1b03603355600166cb2ff529eb71e5604c1b03603455600166c2d415c3db974b604c1b0360355560016702eb40f9f620fda7604a1b0360365560016705990681d961a1eb60491b03603755600167055e12902701414760491b0360385560016714962dee9dc9764160471b0360395560016704ef57b9b560fab560491b03603a5560016712ed7b32a58f552b60471b03603b556001679131271922eaa60760441b03603c556001678b380f3558668c4760441b03603d556001680215f77c045fbe885760421b03603e556001600160831b03603f556001670f577eded5773a1160471b036040556001680eb5ec597592befbf5603f1b036041556001681c35fedd14b861eb05603e1b036042556001683619c87664579bc94b603d1b0360435560016867c00a3b07ffc01fd7603c1b03604455600168c6f6c8f8739773a7a5603b1b03604555600168bec763f8209b7a72b1603b1b0360465560016902dbb8caad9b7097b91b60391b03604755600169057b3d49dda84556d6f760381b03604855600169054183095b2c8ececf3160381b036049556001690a14517cc6b9457111ef60371b03604a5560016913545598e5c23276ccf160361b03604b556001692511882c39c3adea96ff60351b03604c55600169471649d87199aa99075760341b03604d557004429a21a029d4c1457cfbffffffffffff604e55700415bc6d6fb7dd71af2cb3ffffffffffff604f557003eab73b3bbfe282243ce1ffffffffffff6050557003c1771ac9fb6b4c18e229ffffffffffff605155700399e96897690418f785257fffffffffff605255700373fc456c53bb779bf0ea9fffffffffff60535570034f9e8e490c48e67e6ab8bfffffffffff60545570032cbfd4a7adc790560b3337ffffffffff60555570030b50570f6e5d2acca94613ffffffffff6056557002eb40f9f620fda6b56c2861ffffffffff6057557002cc8340ecb0d0f520a6af58ffffffffff6058557002af09481380a0a35cf1ba02ffffffffff605955700292c5bdd3b92ec810287b1b3fffffffff605a55700277abdcdab07d5a77ac6d6b9fffffffff605b5570025daf6654b1eaa55fd64df5efffffffff605c55700244c49c648baa98192dce88b7ffffffff605d5570022ce03cd5619a311b2471268bffffffff605e55700215f77c045fbe885654a44a0fffffffff605f556001600160811b036060557001eaefdbdaaee7421fc4d3ede5ffffffff6061557001d6bd8b2eb257df7e8ca57b09bfffffff6062557001c35fedd14b861eb0443f7f133fffffff6063557001b0ce43b322bcde4a56e8ada5afffffff60645570019f0028ec1fff007f5a195a39dfffffff60655570018ded91f0e72ee74f49b15ba527ffffff60665570017d8ec7f04136f4e5615fd41a63ffffff60675570016ddc6556cdb84bdc8d12d22e6fffffff60685570015ecf52776a1155b5bd8395814f7fffff60695570015060c256cb23b3b3cc3754cf40ffffff606a557001428a2f98d728ae223ddab715be3fffff606b5570013545598e5c23276ccf0ede68034fffff606c557001288c4161ce1d6f54b7f61081194fffff606d5570011c592761c666aa641d5a01a40f17ffff606e55700110a688680a7530515f3e6e6cfdcdffff606f557001056f1b5bedf75c6bcb2ce8aed428ffff6070556ffaadceceeff8a0890f3875f008277fff6071556ff05dc6b27edad306388a600f6ba0bfff6072556fe67a5a25da41063de1495d5b18cdbfff6073556fdcff115b14eedde6fc3aa5353f2e4fff6074556fd3e7a3924312399f9aae2e0f868f8fff6075556fcb2ff529eb71e41582cccd5a1ee26fff6076556fc2d415c3db974ab32a51840c0b67edff6077556fbad03e7d883f69ad5b0a186184e06bff6078556fb320d03b2c343d4829abd6075f0cc5ff6079556fabc25204e02828d73c6e80bcdb1a95bf607a556fa4b16f74ee4bb2040a1ec6c15fbbf2df607b556f9deaf736ac1f569deb1b5ae3f36c130f607c556f976bd9952c7aa957f5937d790ef65037607d556f9131271922eaa6064b73a22d0bd4f2bf607e556f8b380f3558668c46c91c49a2f8e967b9607f556f857ddf0117efa215952912839f6473e66080556108b2565b634e487b7160e01b5f52604160045260245ffd5b600181811c9082168061078857607f821691505b6020821081036107a657634e487b7160e01b5f52602260045260245ffd5b50919050565b601f8211156107f357805f5260205f20601f840160051c810160208510156107d15750805b601f840160051c820191505b818110156107f0575f81556001016107dd565b50505b505050565b81516001600160401b0381111561081157610811610760565b6108258161081f8454610774565b846107ac565b6020601f821160018114610857575f83156108405750848201515b5f19600385901b1c1916600184901b1784556107f0565b5f84815260208120601f198516915b828110156108865787850151825560209485019460019092019101610866565b50848210156108a357868401515f19600387901b60f8161c191681555b50505050600190811b01905550565b608051614ba36108d85f395f8181611a1c01528181611a450152611b840152614ba35ff3fe6080604052600436106101e6575f3560e01c806370a082311161010857806396365d441161009d578063c816841b1161006d578063c816841b1461054b578063d04c69831461056a578063d4d5d32a14610589578063dd62ed3e1461059d578063f2fde38b146105bc575f5ffd5b806396365d44146104d2578063a9059cbb146104e7578063ad3cb1cc14610506578063c5c4744c14610536575f5ffd5b80637deb6025116100d85780637deb6025146104445780638d662ee3146104575780638da5cb5b1461048257806395d89b41146104be575f5ffd5b806370a08231146103df578063715018a6146103fe578063745dae421461041257806375b0ec1414610431575f5ffd5b806329a00e7c1161017e5780634c68df671161014e5780634c68df671461038f5780634f1ef286146103a457806352d1902d146103b757806354fd4d50146103cb575f5ffd5b806329a00e7c14610317578063313ce5671461033657806337525b1e1461035157806349f9b0f714610370575f5ffd5b80630f560cd7116101b95780630f560cd7146102975780631694505e146102a157806318160ddd146102d857806323b872dd146102f8575f5ffd5b806306fdde03146101ea578063095ea7b31461021457806309c773b1146102435780630c7d5cd814610266575b5f5ffd5b3480156101f5575f5ffd5b506101fe6105db565b60405161020b9190614432565b60405180910390f35b34801561021f575f5ffd5b5061023361022e366004614458565b61069b565b604051901515815260200161020b565b34801561024e575f5ffd5b5061025860855481565b60405190815260200161020b565b348015610271575f5ffd5b506082546102829063ffffffff1681565b60405163ffffffff909116815260200161020b565b61029f6106b4565b005b3480156102ac575f5ffd5b506086546102c0906001600160a01b031681565b6040516001600160a01b03909116815260200161020b565b3480156102e3575f5ffd5b505f516020614b2e5f395f51905f5254610258565b348015610303575f5ffd5b50610233610312366004614482565b610af4565b348015610322575f5ffd5b506102586103313660046144d8565b610b19565b348015610341575f5ffd5b506040516012815260200161020b565b34801561035c575f5ffd5b5061025861036b366004614512565b610bd6565b34801561037b575f5ffd5b5061025861038a3660046144d8565b610c56565b34801561039a575f5ffd5b5061025860845481565b61029f6103b23660046145cd565b610d23565b3480156103c2575f5ffd5b50610258610d42565b3480156103d6575f5ffd5b506101fe610d5d565b3480156103ea575f5ffd5b506102586103f936600461462d565b610de8565b348015610409575f5ffd5b5061029f610e0e565b34801561041d575f5ffd5b5061029f61042c366004614648565b610e21565b61029f61043f36600461467d565b610f71565b61029f610452366004614727565b6111b8565b348015610462575f5ffd5b5061025861047136600461462d565b60886020525f908152604090205481565b34801561048d575f5ffd5b507f9016d09d72d40fdae2fd8ceac6b6234c7706214fd39c1cd1e609a0528c199300546001600160a01b03166102c0565b3480156104c9575f5ffd5b506101fe611269565b3480156104dd575f5ffd5b5061025860815481565b3480156104f2575f5ffd5b50610233610501366004614458565b6112a7565b348015610511575f5ffd5b506101fe604051806040016040528060058152602001640352e302e360dc1b81525081565b348015610541575f5ffd5b5061025860835481565b348015610556575f5ffd5b506087546102c0906001600160a01b031681565b348015610575575f5ffd5b5061029f610584366004614755565b6112b4565b348015610594575f5ffd5b5061029f61147b565b3480156105a8575f5ffd5b506102586105b736600461478b565b611533565b3480156105c7575f5ffd5b5061029f6105d636600461462d565b61157c565b7f52c63247e1f47db19d5ce0460030c497f067ca4cebf71ba98eeadabe20bace0380546060915f516020614b0e5f395f51905f5291610619906147b7565b80601f0160208091040260200160405190810160405280929190818152602001828054610645906147b7565b80156106905780601f1061066757610100808354040283529160200191610690565b820191905f5260205f20905b81548152906001019060200180831161067357829003601f168201915b505050505091505090565b5f336106a88185856115b6565b60019150505b92915050565b608754600160a01b900460ff166106e65760405162461bcd60e51b81526004016106dd906147ef565b60405180910390fd5b670de0b6b3a764000034146107345760405162461bcd60e51b81526020600482015260146024820152734d75737420706179206c697374696e672066656560601b60448201526064016106dd565b6813e091864c907b000060835410156107a45760405162461bcd60e51b815260206004820152602c60248201527f546f74616c20726169736564206d757374207061737320746865206c6973746960448201526b1b99c81d1a1c995cda1bdb1960a21b60648201526084016106dd565b6086546040805163c45a015560e01b815290515f926001600160a01b03169163c45a01559160048083019260209291908290030181865afa1580156107eb573d5f5f3e3d5ffd5b505050506040513d601f19601f8201168201806040525081019061080f9190614837565b90505f60865f9054906101000a90046001600160a01b03166001600160a01b031663ad5c46486040518163ffffffff1660e01b8152600401602060405180830381865afa158015610862573d5f5f3e3d5ffd5b505050506040513d601f19601f820116820180604052508101906108869190614837565b6040516364e329cb60e11b81523060048201526001600160a01b0380831660248301529192509083169063c9c65396906044016020604051808303815f875af11580156108d5573d5f5f3e3d5ffd5b505050506040513d601f19601f820116820180604052508101906108f99190614837565b608780546001600160a01b0319166001600160a01b03929092169190911790555f6109466109325f516020614b2e5f395f51905f525490565b608354680dea03051aa383000091906115c3565b60875490915061095f906001600160a01b031682611679565b816001600160a01b031663d0e30db0680dea03051aa38300006040518263ffffffff1660e01b81526004015f604051808303818588803b1580156109a1575f5ffd5b505af11580156109b3573d5f5f3e3d5ffd5b505060875460405163a9059cbb60e01b81526001600160a01b039182166004820152680dea03051aa38300006024820152908616935063a9059cbb925060440190506020604051808303815f875af1158015610a11573d5f5f3e3d5ffd5b505050506040513d601f19601f82011682018060405250810190610a359190614852565b610a4157610a41614871565b6087546040516335313c2160e11b81526001600160a01b03858116600483015290911690636a627842906024016020604051808303815f875af1158015610a8a573d5f5f3e3d5ffd5b505050506040513d601f19601f82011682018060405250810190610aae9190614885565b506087805460ff60a01b191690556040518181527fdd11eaf2db1c16b640194c05b02faa4b8bc4abf29c61428e990e72c6c15cff779060200160405180910390a1505050565b5f33610b018582856116ad565b610b0c858585611710565b60019150505b9392505050565b5f5f85118015610b2857505f84115b8015610b3957505f8363ffffffff16115b8015610b4e5750620f424063ffffffff841611155b610b56575f5ffd5b815f03610b6457505f610bce565b620f423f1963ffffffff841601610b8757610b808583866115c3565b9050610bce565b5f8080610b9487866148b0565b9050610ba5818888620f424061176d565b90935091505f60ff8316610bb9858b6148c3565b901c9050610bc789826148da565b9450505050505b949350505050565b5f8281610bf4846ec097ce7bc90715b34b9f10000000005b906118dc565b90505f610c0a620f424063ffffffff8916610bee565b90505f610c2063ffffffff8916620f4240610bee565b90505f610c3782610c3187876118f6565b906118f6565b90505f610c448285611904565b9050805b9a9950505050505050505050565b5f5f85118015610c6557505f84115b8015610c7657505f8363ffffffff16115b8015610c8b5750620f424063ffffffff841611155b8015610c975750848211155b610c9f575f5ffd5b815f03610cad57505f610bce565b848203610cbb575082610bce565b620f423f1963ffffffff841601610cd757610b808483876115c3565b5f8080610ce485896148da565b9050610cf58882620f42408961176d565b90935091505f610d0584896148c3565b905060ff831688901b84610d1982846148da565b610c489190614901565b610d2b611a11565b610d3482611ab5565b610d3e8282611abd565b5050565b5f610d4b611b79565b505f516020614b4e5f395f51905f5290565b5f8054610d69906147b7565b80601f0160208091040260200160405190810160405280929190818152602001828054610d95906147b7565b8015610de05780601f10610db757610100808354040283529160200191610de0565b820191905f5260205f20905b815481529060010190602001808311610dc357829003601f168201915b505050505081565b6001600160a01b03165f9081525f516020614b0e5f395f51905f52602052604090205490565b610e16611bc2565b610e1f5f611c1d565b565b608754600160a01b900460ff16610e4a5760405162461bcd60e51b81526004016106dd906147ef565b335f8181526088602052604081205491610e7a9084908490610e6b90610de8565b610e7591906148da565b611c8d565b9050610e8681836148b0565b335f90815260886020526040902055608554610ea39082906148b0565b60855560405181815233907f38ed2b0a6fac1bede304be559828c18972af2743a8d0bc246990852c1247efdf9060200160405180910390a2608554610f1a6113ec620186a0610f13610f005f516020614b2e5f395f51905f525490565b6b033b2e3c9fd0803ce800000090611c9c565b91906115c3565b11610f6c57610f2b60845430611cbb565b507fd30f7a63ab898434aa3f87d8119ad5761a566c84836ab12f6c2c4dd7a7b01275608454604051610f5f91815260200190565b60405180910390a15f6084555b505050565b7ff0c57e16840df040f15088dc2f81fe391c3923bec73e23a9662efc9c229c6a008054600160401b810460ff16159067ffffffffffffffff165f81158015610fb65750825b90505f8267ffffffffffffffff166001148015610fd25750303b155b905081158015610fe0575080155b15610ffe5760405163f92ee8a960e01b815260040160405180910390fd5b845467ffffffffffffffff19166001178555831561102857845460ff60401b1916600160401b1785555b6706f05b59d3b200003410156110935760405162461bcd60e51b815260206004820152602a60248201527f4e6f7420656e6f756768206d6f6e657920746f2070617920746f6b656e206372604482015269656174696f6e2066656560b01b60648201526084016106dd565b61109d8b8b611db0565b6110a689611dc2565b6110ae611dd3565b6082805463ffffffff191663ffffffff88161790555f6110d66706f05b59d3b20000346148da565b90505f6110ec826740622942c09199608c611ddb565b60408051848152602081018390529192506001600160a01b038c16917f1cbc5ab135991bd2b6a4b034a04aa2aa086dac1371cb9b16b8b5e2ed6b036bed910160405180910390a250506087805460ff60a01b1916600160a01b179055608680546001600160a01b0389166001600160a01b031990911617905583156111ab57845460ff60401b19168555604051600181527fc7f505b2f371ae2175ee4913f4499e1f2633a7b5936321eed1cdaeb6115181d29060200160405180910390a15b5050505050505050505050565b608754600160a01b900460ff166111e15760405162461bcd60e51b81526004016106dd906147ef565b5f6111ec3483611cbb565b9050611222604051806040016040528060128152602001711d1bdad95b9cc81d1bc81b5a5b9d0e88095960721b81525082611e57565b82811015610f6c5760405162461bcd60e51b8152602060048201526014602482015273105b5bdd5b9d081bdd5d081d1bdbc81cdb585b1b60621b60448201526064016106dd565b7f52c63247e1f47db19d5ce0460030c497f067ca4cebf71ba98eeadabe20bace0480546060915f516020614b0e5f395f51905f5291610619906147b7565b5f336106a8818585611710565b608754600160a01b900460ff166112dd5760405162461bcd60e51b81526004016106dd906147ef565b335f90815260886020526040812054906112f78583611c8d565b905061130381836148da565b335f908152608860205260409020556085546113209082906148da565b6085555f61132e3387611e9c565b90505f61133a82611f44565b92505050858110156113855760405162461bcd60e51b8152602060048201526014602482015273105b5bdd5b9d081bdd5d081d1bdbc81cdb585b1b60621b60448201526064016106dd565b8060835461139391906148da565b6083556040515f906001600160a01b0387169083908381818185875af1925050503d805f81146113de576040519150601f19603f3d011682016040523d82523d5f602084013e6113e3565b606091505b505090508061142d5760405162461bcd60e51b81526020600482015260166024820152754661696c656420746f2072656465656d2066756e647360501b60448201526064016106dd565b60408051898152602081018490526001600160a01b038816917fed7a144fad14804d5c249145e3e0e2b63a9eb455b76aee5bc92d711e9bba3e4a910160405180910390a25050505050505050565b611483611bc2565b6083546084545f91339161149790476148da565b6114a191906148da565b6040515f81818185875af1925050503d805f81146114da576040519150601f19603f3d011682016040523d82523d5f602084013e6114df565b606091505b50509050806115305760405162461bcd60e51b815260206004820152601f60248201527f4661696c656420746f2073656e642066656520746f20746865206f776e65720060448201526064016106dd565b50565b6001600160a01b039182165f9081527f52c63247e1f47db19d5ce0460030c497f067ca4cebf71ba98eeadabe20bace016020908152604080832093909416825291909152205490565b611584611bc2565b6001600160a01b0381166115ad57604051631e4fbdf760e01b81525f60048201526024016106dd565b61153081611c1d565b610f6c8383836001611fd9565b5f838302815f1985870982811083820303915050805f036115f7578382816115ed576115ed6148ed565b0492505050610b12565b80841161160e5761160e60038515026011186120bd565b5f848688095f868103871696879004966002600389028118808a02820302808a02820302808a02820302808a02820302808a02820302808a02909103029181900381900460010186841190950394909402919094039290920491909117919091029150509392505050565b6001600160a01b0382166116a25760405163ec442f0560e01b81525f60048201526024016106dd565b610d3e5f83836120ce565b5f6116b88484611533565b90505f19811461170a57818110156116fc57604051637dc7a0d960e11b81526001600160a01b038416600482015260248101829052604481018390526064016106dd565b61170a84848484035f611fd9565b50505050565b6001600160a01b03831661173957604051634b637e8f60e11b81525f60048201526024016106dd565b6001600160a01b0382166117625760405163ec442f0560e01b81525f60048201526024016106dd565b610f6c8383836120ce565b5f5f600160811b86106117b55760405162461bcd60e51b815260206004820152601060248201526f13585e081b9d5b48195e18d95959195960821b60448201526064016106dd565b848610156118055760405162461bcd60e51b815260206004820152601c60248201527f4261736573203c203120617265206e6f7420737570706f727465642e0000000060448201526064016106dd565b5f80866118166001607f1b8a6148c3565b6118209190614901565b905070015bf0a8b1457695355fb8ac404e7a79e381101561184b5761184481612207565b9150611857565b6118548161277f565b91505b5f8563ffffffff168763ffffffff168461187191906148c3565b61187b9190614901565b9050600160831b8110156118a0576118928161286c565b607f945094505050506118d3565b5f6118aa82612e96565b90506118c66118ba82607f614914565b60ff1683901c82612f58565b955093506118d392505050565b94509492505050565b5f610b126118f384670de0b6b3a7640000856135be565b90565b5f610b126118f38484613683565b5f828281830361192d57801561191a575f611924565b670de0b6b3a76400005b925050506106ae565b670de0b6b3a7640000820361194e57670de0b6b3a7640000925050506106ae565b805f0361196757670de0b6b3a7640000925050506106ae565b670de0b6b3a764000081036119805784925050506106ae565b670de0b6b3a76400008211156119b1576119aa6119a561199f87613735565b866118f6565b613863565b9250611a09565b5f6119ce6118f3846ec097ce7bc90715b34b9f1000000000614901565b90505f6119e66119a56119e084613735565b886118f6565b9050611a046118f3826ec097ce7bc90715b34b9f1000000000614901565b945050505b505092915050565b306001600160a01b037f0000000000000000000000000000000000000000000000000000000000000000161480611a9757507f00000000000000000000000000000000000000000000000000000000000000006001600160a01b0316611a8b5f516020614b4e5f395f51905f52546001600160a01b031690565b6001600160a01b031614155b15610e1f5760405163703e46dd60e11b815260040160405180910390fd5b611530611bc2565b816001600160a01b03166352d1902d6040518163ffffffff1660e01b8152600401602060405180830381865afa925050508015611b17575060408051601f3d908101601f19168201909252611b1491810190614885565b60015b611b3f57604051634c9c8ce360e01b81526001600160a01b03831660048201526024016106dd565b5f516020614b4e5f395f51905f528114611b6f57604051632a87526960e21b8152600481018290526024016106dd565b610f6c83836138b7565b306001600160a01b037f00000000000000000000000000000000000000000000000000000000000000001614610e1f5760405163703e46dd60e11b815260040160405180910390fd5b33611bf47f9016d09d72d40fdae2fd8ceac6b6234c7706214fd39c1cd1e609a0528c199300546001600160a01b031690565b6001600160a01b031614610e1f5760405163118cdaa760e01b81523360048201526024016106dd565b7f9016d09d72d40fdae2fd8ceac6b6234c7706214fd39c1cd1e609a0528c19930080546001600160a01b031981166001600160a01b03848116918217845560405192169182907f8be0079c531659141344cd1fd0a4f28419497f9722a3daafe3b4186f6b6457e0905f90a3505050565b5f828218828410028218610b12565b5f818310611cb357611cae82846148da565b610b12565b505f92915050565b5f5f8311611d015760405162461bcd60e51b8152602060048201526013602482015272105b5bdd5b9d081a5b881d1bdbc81cdb585b1b606a1b60448201526064016106dd565b5f611d0b84611f44565b92505050611d46604051806040016040528060158152602001741858dd1d585b08189d5e48185b5bdd5b9d0e880959605a1b81525082611e57565b5f611d51828561390c565b905081608354611d6191906148b0565b60835560408051838152602081018390526001600160a01b038616917f1cbc5ab135991bd2b6a4b034a04aa2aa086dac1371cb9b16b8b5e2ed6b036bed910160405180910390a2949350505050565b611db8613986565b610d3e82826139cf565b611dca613986565b61153081613a1f565b610e1f613986565b6082545f908190611df39063ffffffff168686610bd6565b9050611e346040518060400160405280601a81526020017f696e697469616c20746f6b656e7320746f206d696e743a20256400000000000081525082611e57565b611e3e8382611679565b84608154611e4c91906148b0565b608155949350505050565b610d3e8282604051602401611e6d92919061492d565b60408051601f198184030181529190526020810180516001600160e01b03166309710a9d60e41b179052613a27565b5f81611ea784610de8565b1015611ef55760405162461bcd60e51b815260206004820152601a60248201527f496e73756666696369656e7420746f6b656e20746f2073656c6c00000000000060448201526064016106dd565b5f611f20611f0e5f516020614b2e5f395f51905f525490565b60815460825463ffffffff1686610c56565b9050611f2c8484613a30565b80608154611f3a91906148da565b6081559392505050565b5f8080611f57846101f4620186a06115c3565b9250611f68846064620186a06115c3565b915081611f7584866148da565b611f7f91906148da565b905082608454611f8f91906148b0565b60845560408051808201909152601881527f6166746572206368617267653a2025642c2025642c20256400000000000000006020820152611fd290848484613a64565b9193909250565b5f516020614b0e5f395f51905f526001600160a01b0385166120105760405163e602df0560e01b81525f60048201526024016106dd565b6001600160a01b03841661203957604051634a1406b160e11b81525f60048201526024016106dd565b6001600160a01b038086165f908152600183016020908152604080832093881683529290522083905581156120b657836001600160a01b0316856001600160a01b03167f8c5be1e5ebec7d5bd14f71427d1e84f3dd0314c0f7b2291e5b200ac8c7c3b925856040516120ad91815260200190565b60405180910390a35b5050505050565b634e487b715f52806020526024601cfd5b5f516020614b0e5f395f51905f526001600160a01b0384166121085781816002015f8282546120fd91906148b0565b909155506121789050565b6001600160a01b0384165f908152602082905260409020548281101561215a5760405163391434e360e21b81526001600160a01b038616600482015260248101829052604481018490526064016106dd565b6001600160a01b0385165f9081526020839052604090209083900390555b6001600160a01b0383166121965760028101805483900390556121b4565b6001600160a01b0383165f9081526020829052604090208054830190555b826001600160a01b0316846001600160a01b03167fddf252ad1be2c89b69c2b068fc378daa952ba7f163c4a11628f55a4df523b3ef846040516121f991815260200190565b60405180910390a350505050565b5f808080806fd3094c70f034de4b96ff7d5b6f99fcd8861061225f576122316001607e1b856148b0565b93506fd3094c70f034de4b96ff7d5b6f99fcd86122526001607f1b886148c3565b61225c9190614901565b95505b6fa45af1e1f40c333b3de1db4dd55f29a786106122b2576122846001607d1b856148b0565b93506fa45af1e1f40c333b3de1db4dd55f29a76122a56001607f1b886148c3565b6122af9190614901565b95505b6f910b022db7ae67ce76b441c27035c6a18610612305576122d76001607c1b856148b0565b93506f910b022db7ae67ce76b441c27035c6a16122f86001607f1b886148c3565b6123029190614901565b95505b6f88415abbe9a76bead8d00cf112e4d4a886106123585761232a6001607b1b856148b0565b93506f88415abbe9a76bead8d00cf112e4d4a861234b6001607f1b886148c3565b6123559190614901565b95505b6f84102b00893f64c705e841d5d4064bd386106123ab5761237d6001607a1b856148b0565b93506f84102b00893f64c705e841d5d4064bd361239e6001607f1b886148c3565b6123a89190614901565b95505b6f8204055aaef1c8bd5c3259f4822735a286106123fe576123d0600160791b856148b0565b93506f8204055aaef1c8bd5c3259f4822735a26123f16001607f1b886148c3565b6123fb9190614901565b95505b6f810100ab00222d861931c15e39b44e99861061245157612423600160781b856148b0565b93506f810100ab00222d861931c15e39b44e996124446001607f1b886148c3565b61244e9190614901565b95505b6f808040155aabbbe9451521693554f73386106124a457612476600160771b856148b0565b93506f808040155aabbbe9451521693554f7336124976001607f1b886148c3565b6124a19190614901565b95505b6124b26001607f1b876148da565b92508291506001607f1b6124c683806148c3565b6124d09190614901565b9050600160801b6124e184826148da565b6124eb90846148c3565b6124f59190614901565b6124ff90856148b0565b93506001607f1b61251082846148c3565b61251a9190614901565b9150600160811b61253b846faaaaaaaaaaaaaaaaaaaaaaaaaaaaaaaa6148da565b61254590846148c3565b61254f9190614901565b61255990856148b0565b93506001607f1b61256a82846148c3565b6125749190614901565b9150600360801b612595846f999999999999999999999999999999996148da565b61259f90846148c3565b6125a99190614901565b6125b390856148b0565b93506001607f1b6125c482846148c3565b6125ce9190614901565b9150600160821b6125ef846f924924924924924924924924924924926148da565b6125f990846148c3565b6126039190614901565b61260d90856148b0565b93506001607f1b61261e82846148c3565b6126289190614901565b9150600560801b612649846f8e38e38e38e38e38e38e38e38e38e38e6148da565b61265390846148c3565b61265d9190614901565b61266790856148b0565b93506001607f1b61267882846148c3565b6126829190614901565b9150600360811b6126a3846f8ba2e8ba2e8ba2e8ba2e8ba2e8ba2e8b6148da565b6126ad90846148c3565b6126b79190614901565b6126c190856148b0565b93506001607f1b6126d282846148c3565b6126dc9190614901565b9150600760801b6126fd846f89d89d89d89d89d89d89d89d89d89d896148da565b61270790846148c3565b6127119190614901565b61271b90856148b0565b93506001607f1b61272c82846148c3565b6127369190614901565b9150600160831b612757846f888888888888888888888888888888886148da565b61276190846148c3565b61276b9190614901565b61277590856148b0565b9695505050505050565b5f8082600160801b81106127c2575f6127a461279f6001607f1b84614901565b613aad565b60ff811692831c929091506127be906001607f1b906148c3565b9250505b6001607f1b81111561283757607f5b60ff811615612835576001607f1b6127e983806148c3565b6127f39190614901565b9150600160801b821061282557600191821c916128109082614914565b60ff166001901b8361282291906148b0565b92505b61282e8161494e565b90506127d1565b505b6f05b9de1d10bf4103d647b0955897ba806128626f03f80fe03f80fe03f80fe03f80fe03f8846148c3565b610bce9190614901565b5f80808061287e6001607c1b86614969565b91508190506001607f1b61289282806148c3565b61289c9190614901565b90506128b0816710e1b3be415a00006148c3565b6128ba90846148b0565b92506001607f1b6128cb83836148c3565b6128d59190614901565b90506128e9816705a0913f6b1e00006148c3565b6128f390846148b0565b92506001607f1b61290483836148c3565b61290e9190614901565b905061292281670168244fdac780006148c3565b61292c90846148b0565b92506001607f1b61293d83836148c3565b6129479190614901565b905061295a81664807432bc180006148c3565b61296490846148b0565b92506001607f1b61297583836148c3565b61297f9190614901565b905061299281660c0135dca040006148c3565b61299c90846148b0565b92506001607f1b6129ad83836148c3565b6129b79190614901565b90506129ca816601b707b1cdc0006148c3565b6129d490846148b0565b92506001607f1b6129e583836148c3565b6129ef9190614901565b9050612a01816536e0f639b8006148c3565b612a0b90846148b0565b92506001607f1b612a1c83836148c3565b612a269190614901565b9050612a3881650618fee9f8006148c3565b612a4290846148b0565b92506001607f1b612a5383836148c3565b612a5d9190614901565b9050612a6e81649c197dcc006148c3565b612a7890846148b0565b92506001607f1b612a8983836148c3565b612a939190614901565b9050612aa481640e30dce4006148c3565b612aae90846148b0565b92506001607f1b612abf83836148c3565b612ac99190614901565b9050612ada8164012ebd13006148c3565b612ae490846148b0565b92506001607f1b612af583836148c3565b612aff9190614901565b9050612b0f816317499f006148c3565b612b1990846148b0565b92506001607f1b612b2a83836148c3565b612b349190614901565b9050612b44816301a9d4806148c3565b612b4e90846148b0565b92506001607f1b612b5f83836148c3565b612b699190614901565b9050612b7881621c63806148c3565b612b8290846148b0565b92506001607f1b612b9383836148c3565b612b9d9190614901565b9050612bac816201c6386148c3565b612bb690846148b0565b92506001607f1b612bc783836148c3565b612bd19190614901565b9050612bdf81611ab86148c3565b612be990846148b0565b92506001607f1b612bfa83836148c3565b612c049190614901565b9050612c128161017c6148c3565b612c1c90846148b0565b92506001607f1b612c2d83836148c3565b612c379190614901565b9050612c448160146148c3565b612c4e90846148b0565b92506001607f1b612c5f83836148c3565b612c699190614901565b9050612c768160016148c3565b612c8090846148b0565b92506001607f1b82612c9a6721c3677c82b4000086614901565b612ca491906148b0565b612cae91906148b0565b92506001607c1b851615612cf65770018ebef9eac820ae8682b9793ac6d1e776612ce9847001c3d6a24ed82218787d624d3e5eba95f96148c3565b612cf39190614901565b92505b6001607d1b851615612d3c577001368b2fc6f9609fe7aceb46aa619baed4612d2f8470018ebef9eac820ae8682b9793ac6d1e7786148c3565b612d399190614901565b92505b6001607e1b851615612d81576fbc5ab1b16779be3575bd8f0520a9f21f612d74847001368b2fc6f9609fe7aceb46aa619baed56148c3565b612d7e9190614901565b92505b6001607f1b851615612dc5576f454aaa8efe072e7f6ddbab84b40a55c9612db8846fbc5ab1b16779be3575bd8f0520a9f21e6148c3565b612dc29190614901565b92505b600160801b851615612e09576f0960aadc109e7a3bf4578099615711ea612dfc846f454aaa8efe072e7f6ddbab84b40a55c56148c3565b612e069190614901565b92505b600160811b851615612e4c576e2bf84208204f5977f9a8cf01fdce3d612e3f846f0960aadc109e7a3bf4578099615711d76148c3565b612e499190614901565b92505b600160821b851615612e8d576d03c6ab775dd0b95b4cbee7e65d11612e80846e2bf84208204f5977f9a8cf01fdc3076148c3565b612e8a9190614901565b92505b50909392505050565b5f6020607f5b60ff8116612eab83600161497c565b60ff161015612efd575f6002612ec1838561497c565b612ecb9190614995565b90508460018260ff1660808110612ee457612ee46149b6565b015410612ef357809250612ef7565b8091505b50612e9c565b8360018260ff1660808110612f1457612f146149b6565b015410612f22579392505050565b8360018360ff1660808110612f3957612f396149b6565b015410612f47575092915050565b612f4f614871565b505f9392505050565b5f828160ff8416612f6983806148c3565b901c9150612f87826f03442c4e6074a82f1797f72ac00000006148c3565b612f9190826148b0565b905060ff8416612fa186846148c3565b901c9150612fbf826f0116b96f757c380fb287fd0e400000006148c3565b612fc990826148b0565b905060ff8416612fd986846148c3565b901c9150612ff6826e45ae5bdd5f0e03eca1ff43900000006148c3565b61300090826148b0565b905060ff841661301086846148c3565b901c915061302d826e0defabf91302cd95b9ffda500000006148c3565b61303790826148b0565b905060ff841661304786846148c3565b901c9150613064826e02529ca9832b22439efff9b80000006148c3565b61306e90826148b0565b905060ff841661307e86846148c3565b901c915061309a826d54f1cf12bd04e516b6da880000006148c3565b6130a490826148b0565b905060ff84166130b486846148c3565b901c91506130d0826d0a9e39e257a09ca2d6db510000006148c3565b6130da90826148b0565b905060ff84166130ea86846148c3565b901c9150613106826d012e066e7b839fa050c3090000006148c3565b61311090826148b0565b905060ff841661312086846148c3565b901c915061313b826c1e33d7d926c329a1ad1a8000006148c3565b61314590826148b0565b905060ff841661315586846148c3565b901c9150613170826c02bee513bdb4a6b19b5f8000006148c3565b61317a90826148b0565b905060ff841661318a86846148c3565b901c91506131a4826b3a9316fa79b88eccf2a000006148c3565b6131ae90826148b0565b905060ff84166131be86846148c3565b901c91506131d8826b048177ebe1fa8123752000006148c3565b6131e290826148b0565b905060ff84166131f286846148c3565b901c915061320b826a5263fe90242dcbacf000006148c3565b61321590826148b0565b905060ff841661322586846148c3565b901c915061323e826a057e22099c030d941000006148c3565b61324890826148b0565b905060ff841661325886846148c3565b901c9150613270826957e22099c030d94100006148c3565b61327a90826148b0565b905060ff841661328a86846148c3565b901c91506132a28269052b6b545699763100006148c3565b6132ac90826148b0565b905060ff84166132bc86846148c3565b901c91506132d382684985f67696bf7480006148c3565b6132dd90826148b0565b905060ff84166132ed86846148c3565b901c9150613304826803dea12ea99e4980006148c3565b61330e90826148b0565b905060ff841661331e86846148c3565b901c9150613334826731880f2214b6e0006148c3565b61333e90826148b0565b905060ff841661334e86846148c3565b901c91506133648267025bcff56eb360006148c3565b61336e90826148b0565b905060ff841661337e86846148c3565b901c915061339382661b722e10ab10006148c3565b61339d90826148b0565b905060ff84166133ad86846148c3565b901c91506133c2826601317c700770006148c3565b6133cc90826148b0565b905060ff84166133dc86846148c3565b901c91506133f082650cba84aafa006148c3565b6133fa90826148b0565b905060ff841661340a86846148c3565b901c915061341d826482573a0a006148c3565b61342790826148b0565b905060ff841661343786846148c3565b901c915061344a826405035ad9006148c3565b61345490826148b0565b905060ff841661346486846148c3565b901c915061347682632f881b006148c3565b61348090826148b0565b905060ff841661349086846148c3565b901c91506134a2826301b293406148c3565b6134ac90826148b0565b905060ff84166134bc86846148c3565b901c91506134cd82620efc406148c3565b6134d790826148b0565b905060ff84166134e786846148c3565b901c91506134f782617fe06148c3565b61350190826148b0565b905060ff841661351186846148c3565b901c9150613521826104206148c3565b61352b90826148b0565b905060ff841661353b86846148c3565b901c915061354a8260216148c3565b61355490826148b0565b905060ff841661356486846148c3565b901c91506135738260016148c3565b61357d90826148b0565b9050600160ff85161b856135a16f0688589cc0e9505e2f2fee558000000084614901565b6135ab91906148b0565b6135b591906148b0565b95945050505050565b5f80805f19858709858702925082811083820303915050805f036135eb578382816115ed576115ed6148ed565b83811061361c57604051630c740aef60e31b81526004810187905260248101869052604481018590526064016106dd565b5f8486880960026001871981018816978890046003810283188082028403028082028403028082028403028082028403028082028403029081029092039091025f889003889004909101858311909403939093029303949094049190911702949350505050565b5f80805f19848609848602925082811083820303915050805f036136b45750670de0b6b3a7640000900490506106ae565b670de0b6b3a764000081106136e657604051635173648d60e01b815260048101869052602481018590526044016106dd565b5f670de0b6b3a764000085870962040000818503049310909103600160ee1b02919091177faccb18165bd6fe31ae1cf318dc5b51eee0e1ba569b88cd74c1773b91fac106690291505092915050565b5f81670de0b6b3a76400008110156137635760405163036d32ef60e41b8152600481018490526024016106dd565b5f6137ee670de0b6b3a7640000830460016fffffffffffffffffffffffffffffffff821160071b91821c67ffffffffffffffff811160061b90811c63ffffffff811160051b90811c61ffff811160041b90811c60ff8111600390811b91821c600f811160021b90811c918211871b91821c969096119490961792909217171791909117919091171790565b9050670de0b6b3a7640000810282821c670de0b6b3a763ffff1981016138145781612775565b671bc16d674ec800006706f05b59d3b200005b801561385757670de0b6b3a764000083800204925081831061384f579283019260019290921c915b60011c613827565b50919695505050505050565b5f81680a688906bd8affffff8111156138925760405163b3b6ba1f60e01b8152600481018490526024016106dd565b5f6138a9670de0b6b3a7640000604084901b614901565b9050610bce6118f382613b19565b6138c082614279565b6040516001600160a01b038316907fbc7cd75a20ee27fd9adebab32041f755214dbc6bffa90cc0225b39da2e5c2d3b905f90a280511561390457610f6c82826142dc565b610d3e614345565b5f5f6139386139265f516020614b2e5f395f51905f525490565b60815460825463ffffffff1687610b19565b905061396e604051806040016040528060128152602001711d1bdad95b9cc81d1bc81b5a5b9d0e88095960721b81525082611e57565b6139788382611679565b83608154611f3a91906148b0565b7ff0c57e16840df040f15088dc2f81fe391c3923bec73e23a9662efc9c229c6a0054600160401b900460ff16610e1f57604051631afcd79f60e31b815260040160405180910390fd5b6139d7613986565b5f516020614b0e5f395f51905f527f52c63247e1f47db19d5ce0460030c497f067ca4cebf71ba98eeadabe20bace03613a108482614a0e565b506004810161170a8382614a0e565b611584613986565b61153081614364565b6001600160a01b038216613a5957604051634b637e8f60e11b81525f60048201526024016106dd565b610d3e825f836120ce565b61170a84848484604051602401613a7e9493929190614ac9565b60408051601f198184030181529190526020810180516001600160e01b03166304772b3360e11b179052613a27565b5f8082610100811015613ae0575b6001811115613adb57600190811c90613ad4908361497c565b9150613abb565b613b12565b60805b60ff811615611a0957600160ff82161b8210613b07579182179160ff81169190911c905b60011c607f16613ae3565b5092915050565b600160bf1b67ff00000000000000821615613c2657678000000000000000821615613b4d5768016a09e667f3bcc9090260401c5b674000000000000000821615613b6c576801306fe0a31b7152df0260401c5b672000000000000000821615613b8b576801172b83c7d517adce0260401c5b671000000000000000821615613baa5768010b5586cf9890f62a0260401c5b670800000000000000821615613bc9576801059b0d31585743ae0260401c5b670400000000000000821615613be857680102c9a3e778060ee70260401c5b670200000000000000821615613c075768010163da9fb33356d80260401c5b670100000000000000821615613c2657680100b1afa5abcbed610260401c5b66ff000000000000821615613d25576680000000000000821615613c535768010058c86da1c09ea20260401c5b6640000000000000821615613c71576801002c605e2e8cec500260401c5b6620000000000000821615613c8f57680100162f3904051fa10260401c5b6610000000000000821615613cad576801000b175effdc76ba0260401c5b6608000000000000821615613ccb57680100058ba01fb9f96d0260401c5b6604000000000000821615613ce95768010002c5cc37da94920260401c5b6602000000000000821615613d07576801000162e525ee05470260401c5b6601000000000000821615613d255768010000b17255775c040260401c5b65ff0000000000821615613e1b5765800000000000821615613d50576801000058b91b5bc9ae0260401c5b65400000000000821615613d6d57680100002c5c89d5ec6d0260401c5b65200000000000821615613d8a5768010000162e43f4f8310260401c5b65100000000000821615613da757680100000b1721bcfc9a0260401c5b65080000000000821615613dc45768010000058b90cf1e6e0260401c5b65040000000000821615613de1576801000002c5c863b73f0260401c5b65020000000000821615613dfe57680100000162e430e5a20260401c5b65010000000000821615613e1b576801000000b1721835510260401c5b64ff00000000821615613f0857648000000000821615613e4457680100000058b90c0b490260401c5b644000000000821615613e605768010000002c5c8601cc0260401c5b642000000000821615613e7c576801000000162e42fff00260401c5b641000000000821615613e985768010000000b17217fbb0260401c5b640800000000821615613eb4576801000000058b90bfce0260401c5b640400000000821615613ed057680100000002c5c85fe30260401c5b640200000000821615613eec5768010000000162e42ff10260401c5b640100000000821615613f0857680100000000b17217f80260401c5b63ff000000821615613fec576380000000821615613f2f5768010000000058b90bfc0260401c5b6340000000821615613f4a576801000000002c5c85fe0260401c5b6320000000821615613f6557680100000000162e42ff0260401c5b6310000000821615613f80576801000000000b17217f0260401c5b6308000000821615613f9b57680100000000058b90c00260401c5b6304000000821615613fb65768010000000002c5c8600260401c5b6302000000821615613fd1576801000000000162e4300260401c5b6301000000821615613fec5768010000000000b172180260401c5b62ff00008216156140c75762800000821615614011576801000000000058b90c0260401c5b6240000082161561402b57680100000000002c5c860260401c5b622000008216156140455768010000000000162e430260401c5b6210000082161561405f57680100000000000b17210260401c5b620800008216156140795768010000000000058b910260401c5b62040000821615614093576801000000000002c5c80260401c5b620200008216156140ad57680100000000000162e40260401c5b620100008216156140c7576801000000000000b1720260401c5b61ff00821615614199576180008216156140ea57680100000000000058b90260401c5b6140008216156141035768010000000000002c5d0260401c5b61200082161561411c576801000000000000162e0260401c5b6110008216156141355768010000000000000b170260401c5b61080082161561414e576801000000000000058c0260401c5b61040082161561416757680100000000000002c60260401c5b61020082161561418057680100000000000001630260401c5b61010082161561419957680100000000000000b10260401c5b60ff8216156142625760808216156141ba57680100000000000000590260401c5b60408216156141d2576801000000000000002c0260401c5b60208216156141ea57680100000000000000160260401c5b6010821615614202576801000000000000000b0260401c5b600882161561421a57680100000000000000060260401c5b600482161561423257680100000000000000030260401c5b600282161561424a57680100000000000000010260401c5b600182161561426257680100000000000000010260401c5b670de0b6b3a76400000260409190911c60bf031c90565b806001600160a01b03163b5f036142ae57604051634c9c8ce360e01b81526001600160a01b03821660048201526024016106dd565b5f516020614b4e5f395f51905f5280546001600160a01b0319166001600160a01b0392909216919091179055565b60605f5f846001600160a01b0316846040516142f89190614af7565b5f60405180830381855af49150503d805f8114614330576040519150601f19603f3d011682016040523d82523d5f602084013e614335565b606091505b50915091506135b5858383614384565b3415610e1f5760405163b398979f60e01b815260040160405180910390fd5b80516a636f6e736f6c652e6c6f67602083015f808483855afa5050505050565b60608261439457611cae826143db565b81511580156143ab57506001600160a01b0384163b155b156143d457604051639996b31560e01b81526001600160a01b03851660048201526024016106dd565b5080610b12565b8051156143eb5780518082602001fd5b60405163d6bda27560e01b815260040160405180910390fd5b5f81518084528060208401602086015e5f602082860101526020601f19601f83011685010191505092915050565b602081525f610b126020830184614404565b6001600160a01b0381168114611530575f5ffd5b5f5f60408385031215614469575f5ffd5b823561447481614444565b946020939093013593505050565b5f5f5f60608486031215614494575f5ffd5b833561449f81614444565b925060208401356144af81614444565b929592945050506040919091013590565b803563ffffffff811681146144d3575f5ffd5b919050565b5f5f5f5f608085870312156144eb575f5ffd5b8435935060208501359250614502604086016144c0565b9396929550929360600135925050565b5f5f5f60608486031215614524575f5ffd5b61452d846144c0565b95602085013595506040909401359392505050565b634e487b7160e01b5f52604160045260245ffd5b5f5f67ffffffffffffffff84111561457057614570614542565b50604051601f19601f85018116603f0116810181811067ffffffffffffffff8211171561459f5761459f614542565b6040528381529050808284018510156145b6575f5ffd5b838360208301375f60208583010152509392505050565b5f5f604083850312156145de575f5ffd5b82356145e981614444565b9150602083013567ffffffffffffffff811115614604575f5ffd5b8301601f81018513614614575f5ffd5b61462385823560208401614556565b9150509250929050565b5f6020828403121561463d575f5ffd5b8135610b1281614444565b5f60208284031215614658575f5ffd5b5035919050565b5f82601f83011261466e575f5ffd5b610b1283833560208501614556565b5f5f5f5f5f5f60c08789031215614692575f5ffd5b863567ffffffffffffffff8111156146a8575f5ffd5b6146b489828a0161465f565b965050602087013567ffffffffffffffff8111156146d0575f5ffd5b6146dc89828a0161465f565b95505060408701356146ed81614444565b935060608701356146fd81614444565b9250608087013561470d81614444565b915061471b60a088016144c0565b90509295509295509295565b5f5f60408385031215614738575f5ffd5b82359150602083013561474a81614444565b809150509250929050565b5f5f5f60608486031215614767575f5ffd5b8335925060208401359150604084013561478081614444565b809150509250925092565b5f5f6040838503121561479c575f5ffd5b82356147a781614444565b9150602083013561474a81614444565b600181811c908216806147cb57607f821691505b6020821081036147e957634e487b7160e01b5f52602260045260245ffd5b50919050565b60208082526028908201527f5468697320616374696f6e206973206f6e20616c6c6f776564207768656e206c60408201526761756e6368696e6760c01b606082015260800190565b5f60208284031215614847575f5ffd5b8151610b1281614444565b5f60208284031215614862575f5ffd5b81518015158114610b12575f5ffd5b634e487b7160e01b5f52600160045260245ffd5b5f60208284031215614895575f5ffd5b5051919050565b634e487b7160e01b5f52601160045260245ffd5b808201808211156106ae576106ae61489c565b80820281158282048414176106ae576106ae61489c565b818103818111156106ae576106ae61489c565b634e487b7160e01b5f52601260045260245ffd5b5f8261490f5761490f6148ed565b500490565b60ff82811682821603908111156106ae576106ae61489c565b604081525f61493f6040830185614404565b90508260208301529392505050565b5f60ff8216806149605761496061489c565b5f190192915050565b5f82614977576149776148ed565b500690565b60ff81811683821601908111156106ae576106ae61489c565b5f60ff8316806149a7576149a76148ed565b8060ff84160491505092915050565b634e487b7160e01b5f52603260045260245ffd5b601f821115610f6c57805f5260205f20601f840160051c810160208510156149ef5750805b601f840160051c820191505b818110156120b6575f81556001016149fb565b815167ffffffffffffffff811115614a2857614a28614542565b614a3c81614a3684546147b7565b846149ca565b6020601f821160018114614a6e575f8315614a575750848201515b5f19600385901b1c1916600184901b1784556120b6565b5f84815260208120601f198516915b82811015614a9d5787850151825560209485019460019092019101614a7d565b5084821015614aba57868401515f19600387901b60f8161c191681555b50505050600190811b01905550565b608081525f614adb6080830187614404565b6020830195909552506040810192909252606090910152919050565b5f82518060208501845e5f92019182525091905056fe52c63247e1f47db19d5ce0460030c497f067ca4cebf71ba98eeadabe20bace0052c63247e1f47db19d5ce0460030c497f067ca4cebf71ba98eeadabe20bace02360894a13ba1a3210667c828492db98dca3e2076cc3735a920a3ca505d382bbca264697066735822122098e8c05544749eeb2788a49ab7992871f96f36945a2875002964583c8971519264736f6c634300081b0033","linkReferences":{}},"methodIdentifiers":{"UPGRADE_INTERFACE_VERSION()":"ad3cb1cc","allowance(address,address)":"dd62ed3e","approve(address,uint256)":"095ea7b3","balanceOf(address)":"70a08231","buy(uint256,address)":"7deb6025","calculateInitialPurchaseReturn(uint32,uint256,uint256)":"37525b1e","calculatePurchaseReturn(uint256,uint256,uint32,uint256)":"29a00e7c","calculateSaleReturn(uint256,uint256,uint32,uint256)":"49f9b0f7","collectFee()":"d4d5d32a","decimals()":"313ce567","initialize(string,string,address,address,address,uint32)":"75b0ec14","list()":"0f560cd7","name()":"06fdde03","owner()":"8da5cb5b","poolBalance()":"96365d44","proxiableUUID()":"52d1902d","pump(uint256)":"745dae42","pumped(address)":"8d662ee3","renounceOwnership()":"715018a6","reserveRatio()":"0c7d5cd8","sell(uint256,uint256,address)":"d04c6983","symbol()":"95d89b41","totalPumped()":"09c773b1","totalRaised()":"c5c4744c","totalReserve()":"4c68df67","totalSupply()":"18160ddd","transfer(address,uint256)":"a9059cbb","transferFrom(address,address,uint256)":"23b872dd","transferOwnership(address)":"f2fde38b","uniswapPair()":"c816841b","uniswapV2Router()":"1694505e","upgradeToAndCall(address,bytes)":"4f1ef286","version()":"54fd4d50"},"id":73}