{"abi":[{"type":"function","name":"UPGRADE_INTERFACE_VERSION","inputs":[],"outputs":[{"name":"","type":"string","internalType":"string"}],"stateMutability":"view"},{"type":"function","name":"allowance","inputs":[{"name":"owner","type":"address","internalType":"address"},{"name":"spender","type":"address","internalType":"address"}],"outputs":[{"name":"","type":"uint256","internalType":"uint256"}],"stateMutability":"view"},{"type":"function","name":"approve","inputs":[{"name":"spender","type":"address","internalType":"address"},{"name":"value","type":"uint256","internalType":"uint256"}],"outputs":[{"name":"","type":"bool","internalType":"bool"}],"stateMutability":"nonpayable"},{"type":"function","name":"balanceOf","inputs":[{"name":"account","type":"address","internalType":"address"}],"outputs":[{"name":"","type":"uint256","internalType":"uint256"}],"stateMutability":"view"},{"type":"function","name":"buy","inputs":[{"name":"minAmountOut","type":"uint256","internalType":"uint256"},{"name":"recipient","type":"address","internalType":"address"}],"outputs":[],"stateMutability":"payable"},{"type":"function","name":"calculatePurchaseReturn","inputs":[{"name":"_supply","type":"uint256","internalType":"uint256"},{"name":"_connectorBalance","type":"uint256","internalType":"uint256"},{"name":"_connectorWeight","type":"uint32","internalType":"uint32"},{"name":"_depositAmount","type":"uint256","internalType":"uint256"}],"outputs":[{"name":"","type":"uint256","internalType":"uint256"}],"stateMutability":"view"},{"type":"function","name":"calculateSaleReturn","inputs":[{"name":"_supply","type":"uint256","internalType":"uint256"},{"name":"_connectorBalance","type":"uint256","internalType":"uint256"},{"name":"_connectorWeight","type":"uint32","internalType":"uint32"},{"name":"_sellAmount","type":"uint256","internalType":"uint256"}],"outputs":[{"name":"","type":"uint256","internalType":"uint256"}],"stateMutability":"view"},{"type":"function","name":"collectFee","inputs":[],"outputs":[],"stateMutability":"nonpayable"},{"type":"function","name":"decimals","inputs":[],"outputs":[{"name":"","type":"uint8","internalType":"uint8"}],"stateMutability":"view"},{"type":"function","name":"initialize","inputs":[{"name":"name_","type":"string","internalType":"string"},{"name":"symbol_","type":"string","internalType":"string"},{"name":"owner_","type":"address","internalType":"address"},{"name":"uniswapV2Router_","type":"address","internalType":"address"},{"name":"reserveRatio_","type":"uint32","internalType":"uint32"}],"outputs":[],"stateMutability":"nonpayable"},{"type":"function","name":"list","inputs":[],"outputs":[],"stateMutability":"payable"},{"type":"function","name":"name","inputs":[],"outputs":[{"name":"","type":"string","internalType":"string"}],"stateMutability":"view"},{"type":"function","name":"owner","inputs":[],"outputs":[{"name":"","type":"address","internalType":"address"}],"stateMutability":"view"},{"type":"function","name":"poolBalance","inputs":[],"outputs":[{"name":"","type":"uint256","internalType":"uint256"}],"stateMutability":"view"},{"type":"function","name":"proxiableUUID","inputs":[],"outputs":[{"name":"","type":"bytes32","internalType":"bytes32"}],"stateMutability":"view"},{"type":"function","name":"pump","inputs":[{"name":"amount","type":"uint256","internalType":"uint256"}],"outputs":[],"stateMutability":"nonpayable"},{"type":"function","name":"pumped","inputs":[{"name":"","type":"address","internalType":"address"}],"outputs":[{"name":"","type":"uint256","internalType":"uint256"}],"stateMutability":"view"},{"type":"function","name":"renounceOwnership","inputs":[],"outputs":[],"stateMutability":"nonpayable"},{"type":"function","name":"reserveRatio","inputs":[],"outputs":[{"name":"","type":"uint32","internalType":"uint32"}],"stateMutability":"view"},{"type":"function","name":"sell","inputs":[{"name":"sellAmount","type":"uint256","internalType":"uint256"},{"name":"minAmountOut","type":"uint256","internalType":"uint256"},{"name":"recipient","type":"address","internalType":"address"}],"outputs":[],"stateMutability":"nonpayable"},{"type":"function","name":"symbol","inputs":[],"outputs":[{"name":"","type":"string","internalType":"string"}],"stateMutability":"view"},{"type":"function","name":"totalPumped","inputs":[],"outputs":[{"name":"","type":"uint256","internalType":"uint256"}],"stateMutability":"view"},{"type":"function","name":"totalRaised","inputs":[],"outputs":[{"name":"","type":"uint256","internalType":"uint256"}],"stateMutability":"view"},{"type":"function","name":"totalReserve","inputs":[],"outputs":[{"name":"","type":"uint256","internalType":"uint256"}],"stateMutability":"view"},{"type":"function","name":"totalSupply","inputs":[],"outputs":[{"name":"","type":"uint256","internalType":"uint256"}],"stateMutability":"view"},{"type":"function","name":"transfer","inputs":[{"name":"to","type":"address","internalType":"address"},{"name":"value","type":"uint256","internalType":"uint256"}],"outputs":[{"name":"","type":"bool","internalType":"bool"}],"stateMutability":"nonpayable"},{"type":"function","name":"transferFrom","inputs":[{"name":"from","type":"address","internalType":"address"},{"name":"to","type":"address","internalType":"address"},{"name":"value","type":"uint256","internalType":"uint256"}],"outputs":[{"name":"","type":"bool","internalType":"bool"}],"stateMutability":"nonpayable"},{"type":"function","name":"transferOwnership","inputs":[{"name":"newOwner","type":"address","internalType":"address"}],"outputs":[],"stateMutability":"nonpayable"},{"type":"function","name":"uniswapPair","inputs":[],"outputs":[{"name":"","type":"address","internalType":"contract IUniswapV2Pair"}],"stateMutability":"view"},{"type":"function","name":"uniswapV2Router","inputs":[],"outputs":[{"name":"","type":"address","internalType":"contract IUniswapV2Router02"}],"stateMutability":"view"},{"type":"function","name":"upgradeToAndCall","inputs":[{"name":"newImplementation","type":"address","internalType":"address"},{"name":"data","type":"bytes","internalType":"bytes"}],"outputs":[],"stateMutability":"payable"},{"type":"function","name":"version","inputs":[],"outputs":[{"name":"","type":"string","internalType":"string"}],"stateMutability":"view"},{"type":"event","name":"Approval","inputs":[{"name":"owner","type":"address","indexed":true,"internalType":"address"},{"name":"spender","type":"address","indexed":true,"internalType":"address"},{"name":"value","type":"uint256","indexed":false,"internalType":"uint256"}],"anonymous":false},{"type":"event","name":"BCMinted","inputs":[{"name":"amountMinted","type":"uint256","indexed":false,"internalType":"uint256"},{"name":"totalCost","type":"uint256","indexed":false,"internalType":"uint256"}],"anonymous":false},{"type":"event","name":"BCWithdrawn","inputs":[{"name":"amountWithdrawn","type":"uint256","indexed":false,"internalType":"uint256"},{"name":"reward","type":"uint256","indexed":false,"internalType":"uint256"}],"anonymous":false},{"type":"event","name":"Buy","inputs":[{"name":"recipient","type":"address","indexed":true,"internalType":"address"},{"name":"buyAmount","type":"uint256","indexed":false,"internalType":"uint256"},{"name":"tokensToMint","type":"uint256","indexed":false,"internalType":"uint256"}],"anonymous":false},{"type":"event","name":"Initialized","inputs":[{"name":"version","type":"uint64","indexed":false,"internalType":"uint64"}],"anonymous":false},{"type":"event","name":"List","inputs":[{"name":"tokensToList","type":"uint256","indexed":false,"internalType":"uint256"}],"anonymous":false},{"type":"event","name":"OwnershipTransferred","inputs":[{"name":"previousOwner","type":"address","indexed":true,"internalType":"address"},{"name":"newOwner","type":"address","indexed":true,"internalType":"address"}],"anonymous":false},{"type":"event","name":"Pump","inputs":[{"name":"reserved","type":"uint256","indexed":false,"internalType":"uint256"}],"anonymous":false},{"type":"event","name":"Sell","inputs":[{"name":"recipient","type":"address","indexed":true,"internalType":"address"},{"name":"sellAmount","type":"uint256","indexed":false,"internalType":"uint256"},{"name":"amountOut","type":"uint256","indexed":false,"internalType":"uint256"}],"anonymous":false},{"type":"event","name":"Transfer","inputs":[{"name":"from","type":"address","indexed":true,"internalType":"address"},{"name":"to","type":"address","indexed":true,"internalType":"address"},{"name":"value","type":"uint256","indexed":false,"internalType":"uint256"}],"anonymous":false},{"type":"event","name":"Upgraded","inputs":[{"name":"implementation","type":"address","indexed":true,"internalType":"address"}],"anonymous":false},{"type":"event","name":"UserPump","inputs":[{"name":"pumper","type":"address","indexed":true,"internalType":"address"},{"name":"amount","type":"uint256","indexed":false,"internalType":"uint256"}],"anonymous":false},{"type":"error","name":"AddressEmptyCode","inputs":[{"name":"target","type":"address","internalType":"address"}]},{"type":"error","name":"ERC1967InvalidImplementation","inputs":[{"name":"implementation","type":"address","internalType":"address"}]},{"type":"error","name":"ERC1967NonPayable","inputs":[]},{"type":"error","name":"ERC20InsufficientAllowance","inputs":[{"name":"spender","type":"address","internalType":"address"},{"name":"allowance","type":"uint256","internalType":"uint256"},{"name":"needed","type":"uint256","internalType":"uint256"}]},{"type":"error","name":"ERC20InsufficientBalance","inputs":[{"name":"sender","type":"address","internalType":"address"},{"name":"balance","type":"uint256","internalType":"uint256"},{"name":"needed","type":"uint256","internalType":"uint256"}]},{"type":"error","name":"ERC20InvalidApprover","inputs":[{"name":"approver","type":"address","internalType":"address"}]},{"type":"error","name":"ERC20InvalidReceiver","inputs":[{"name":"receiver","type":"address","internalType":"address"}]},{"type":"error","name":"ERC20InvalidSender","inputs":[{"name":"sender","type":"address","internalType":"address"}]},{"type":"error","name":"ERC20InvalidSpender","inputs":[{"name":"spender","type":"address","internalType":"address"}]},{"type":"error","name":"FailedCall","inputs":[]},{"type":"error","name":"InvalidInitialization","inputs":[]},{"type":"error","name":"NotInitializing","inputs":[]},{"type":"error","name":"OwnableInvalidOwner","inputs":[{"name":"owner","type":"address","internalType":"address"}]},{"type":"error","name":"OwnableUnauthorizedAccount","inputs":[{"name":"account","type":"address","internalType":"address"}]},{"type":"error","name":"UUPSUnauthorizedCallContext","inputs":[]},{"type":"error","name":"UUPSUnsupportedProxiableUUID","inputs":[{"name":"slot","type":"bytes32","internalType":"bytes32"}]}],"bytecode":{"object":"0x3060805260e0604052600360a090815262302e3360e81b60c0525f9061002590826107f8565b50348015610031575f5ffd5b506001641c35fedd1560601b036021556001646c3390ecc9605e1b036022556001640cf801476160611b0360235560016431bdb23e1d605f1b0360245560016502fb1d8fe083605b1b0360255560016505b771955b37605a1b036026556001650af67a93bb5160591b0360275560016515060c256cb360581b036028556001651428a2f98d7360581b036029556001654d515663970960561b03602a55600165944620b0e70f60551b03602b55600166011c592761c66760541b03602c5560016602214d10d014eb60531b03602d55600166020ade36b7dbef60531b03602e5560016603eab73b3bbfe360521b03602f556001660782ee3593f6d760511b036030556001661ccf4b44bb4821604f1b0360315560016606e7f88ad8a77760511b0360325560016669f3d1c921891d604d1b03603355600166cb2ff529eb71e5604c1b03603455600166c2d415c3db974b604c1b0360355560016702eb40f9f620fda7604a1b0360365560016705990681d961a1eb60491b03603755600167055e12902701414760491b0360385560016714962dee9dc9764160471b0360395560016704ef57b9b560fab560491b03603a5560016712ed7b32a58f552b60471b03603b556001679131271922eaa60760441b03603c556001678b380f3558668c4760441b03603d556001680215f77c045fbe885760421b03603e556001600160831b03603f556001670f577eded5773a1160471b036040556001680eb5ec597592befbf5603f1b036041556001681c35fedd14b861eb05603e1b036042556001683619c87664579bc94b603d1b0360435560016867c00a3b07ffc01fd7603c1b03604455600168c6f6c8f8739773a7a5603b1b03604555600168bec763f8209b7a72b1603b1b0360465560016902dbb8caad9b7097b91b60391b03604755600169057b3d49dda84556d6f760381b03604855600169054183095b2c8ececf3160381b036049556001690a14517cc6b9457111ef60371b03604a5560016913545598e5c23276ccf160361b03604b556001692511882c39c3adea96ff60351b03604c55600169471649d87199aa99075760341b03604d557004429a21a029d4c1457cfbffffffffffff604e55700415bc6d6fb7dd71af2cb3ffffffffffff604f557003eab73b3bbfe282243ce1ffffffffffff6050557003c1771ac9fb6b4c18e229ffffffffffff605155700399e96897690418f785257fffffffffff605255700373fc456c53bb779bf0ea9fffffffffff60535570034f9e8e490c48e67e6ab8bfffffffffff60545570032cbfd4a7adc790560b3337ffffffffff60555570030b50570f6e5d2acca94613ffffffffff6056557002eb40f9f620fda6b56c2861ffffffffff6057557002cc8340ecb0d0f520a6af58ffffffffff6058557002af09481380a0a35cf1ba02ffffffffff605955700292c5bdd3b92ec810287b1b3fffffffff605a55700277abdcdab07d5a77ac6d6b9fffffffff605b5570025daf6654b1eaa55fd64df5efffffffff605c55700244c49c648baa98192dce88b7ffffffff605d5570022ce03cd5619a311b2471268bffffffff605e55700215f77c045fbe885654a44a0fffffffff605f556001600160811b036060557001eaefdbdaaee7421fc4d3ede5ffffffff6061557001d6bd8b2eb257df7e8ca57b09bfffffff6062557001c35fedd14b861eb0443f7f133fffffff6063557001b0ce43b322bcde4a56e8ada5afffffff60645570019f0028ec1fff007f5a195a39dfffffff60655570018ded91f0e72ee74f49b15ba527ffffff60665570017d8ec7f04136f4e5615fd41a63ffffff60675570016ddc6556cdb84bdc8d12d22e6fffffff60685570015ecf52776a1155b5bd8395814f7fffff60695570015060c256cb23b3b3cc3754cf40ffffff606a557001428a2f98d728ae223ddab715be3fffff606b5570013545598e5c23276ccf0ede68034fffff606c557001288c4161ce1d6f54b7f61081194fffff606d5570011c592761c666aa641d5a01a40f17ffff606e55700110a688680a7530515f3e6e6cfdcdffff606f557001056f1b5bedf75c6bcb2ce8aed428ffff6070556ffaadceceeff8a0890f3875f008277fff6071556ff05dc6b27edad306388a600f6ba0bfff6072556fe67a5a25da41063de1495d5b18cdbfff6073556fdcff115b14eedde6fc3aa5353f2e4fff6074556fd3e7a3924312399f9aae2e0f868f8fff6075556fcb2ff529eb71e41582cccd5a1ee26fff6076556fc2d415c3db974ab32a51840c0b67edff6077556fbad03e7d883f69ad5b0a186184e06bff6078556fb320d03b2c343d4829abd6075f0cc5ff6079556fabc25204e02828d73c6e80bcdb1a95bf607a556fa4b16f74ee4bb2040a1ec6c15fbbf2df607b556f9deaf736ac1f569deb1b5ae3f36c130f607c556f976bd9952c7aa957f5937d790ef65037607d556f9131271922eaa6064b73a22d0bd4f2bf607e556f8b380f3558668c46c91c49a2f8e967b9607f556f857ddf0117efa215952912839f6473e66080556108b2565b634e487b7160e01b5f52604160045260245ffd5b600181811c9082168061078857607f821691505b6020821081036107a657634e487b7160e01b5f52602260045260245ffd5b50919050565b601f8211156107f357805f5260205f20601f840160051c810160208510156107d15750805b601f840160051c820191505b818110156107f0575f81556001016107dd565b50505b505050565b81516001600160401b0381111561081157610811610760565b6108258161081f8454610774565b846107ac565b6020601f821160018114610857575f83156108405750848201515b5f19600385901b1c1916600184901b1784556107f0565b5f84815260208120601f198516915b828110156108865787850151825560209485019460019092019101610866565b50848210156108a357868401515f19600387901b60f8161c191681555b50505050600190811b01905550565b608051613b786108d85f395f818161171a0152818161174301526118820152613b785ff3fe6080604052600436106101db575f3560e01c806370a08231116100fd578063a9059cbb11610092578063d04c698311610062578063d04c698314610554578063d4d5d32a14610573578063dd62ed3e14610587578063f2fde38b146105a6575f5ffd5b8063a9059cbb146104d1578063ad3cb1cc146104f0578063c5c4744c14610520578063c816841b14610535575f5ffd5b80638d662ee3116100cd5780638d662ee3146104415780638da5cb5b1461046c57806395d89b41146104a857806396365d44146104bc575f5ffd5b806370a08231146103dc578063715018a6146103fb578063745dae421461040f5780637deb60251461042e575f5ffd5b806329a00e7c116101735780634c68df67116101435780634c68df671461038c5780634f1ef286146103a157806352d1902d146103b457806354fd4d50146103c8575f5ffd5b806329a00e7c14610314578063313ce5671461033357806338df61fd1461034e57806349f9b0f71461036d575f5ffd5b80630f560cd7116101ae5780630f560cd71461028c5780631694505e1461029657806318160ddd146102d557806323b872dd146102f5575f5ffd5b806306fdde03146101df578063095ea7b31461020957806309c773b1146102385780630c7d5cd81461025b575b5f5ffd5b3480156101ea575f5ffd5b506101f36105c5565b6040516102009190613474565b60405180910390f35b348015610214575f5ffd5b506102286102233660046134bd565b610685565b6040519015158152602001610200565b348015610243575f5ffd5b5061024d60865481565b604051908152602001610200565b348015610266575f5ffd5b506082546102779063ffffffff1681565b60405163ffffffff9091168152602001610200565b61029461069e565b005b3480156102a1575f5ffd5b506082546102bd9064010000000090046001600160a01b031681565b6040516001600160a01b039091168152602001610200565b3480156102e0575f5ffd5b505f516020613b035f395f51905f525461024d565b348015610300575f5ffd5b5061022861030f3660046134e7565b610adc565b34801561031f575f5ffd5b5061024d61032e36600461353d565b610b01565b34801561033e575f5ffd5b5060405160128152602001610200565b348015610359575f5ffd5b50610294610368366004613620565b610bbe565b348015610378575f5ffd5b5061024d61038736600461353d565b610d1b565b348015610397575f5ffd5b5061024d60855481565b6102946103af3660046136b9565b610df6565b3480156103bf575f5ffd5b5061024d610e15565b3480156103d3575f5ffd5b506101f3610e30565b3480156103e7575f5ffd5b5061024d6103f6366004613719565b610ebb565b348015610406575f5ffd5b50610294610ee1565b34801561041a575f5ffd5b50610294610429366004613734565b610ef4565b61029461043c36600461374b565b611035565b34801561044c575f5ffd5b5061024d61045b366004613719565b60886020525f908152604090205481565b348015610477575f5ffd5b507f9016d09d72d40fdae2fd8ceac6b6234c7706214fd39c1cd1e609a0528c199300546001600160a01b03166102bd565b3480156104b3575f5ffd5b506101f36110ab565b3480156104c7575f5ffd5b5061024d60815481565b3480156104dc575f5ffd5b506102286104eb3660046134bd565b6110e9565b3480156104fb575f5ffd5b506101f3604051806040016040528060058152602001640352e302e360dc1b81525081565b34801561052b575f5ffd5b5061024d60845481565b348015610540575f5ffd5b506083546102bd906001600160a01b031681565b34801561055f575f5ffd5b5061029461056e366004613779565b6110f6565b34801561057e575f5ffd5b506102946112b6565b348015610592575f5ffd5b5061024d6105a13660046137af565b61136e565b3480156105b1575f5ffd5b506102946105c0366004613719565b6113b7565b7f52c63247e1f47db19d5ce0460030c497f067ca4cebf71ba98eeadabe20bace0380546060915f516020613ae35f395f51905f5291610603906137db565b80601f016020809104026020016040519081016040528092919081815260200182805461062f906137db565b801561067a5780601f106106515761010080835404028352916020019161067a565b820191905f5260205f20905b81548152906001019060200180831161065d57829003601f168201915b505050505091505090565b5f336106928185856113f1565b60019150505b92915050565b60875460ff166106c95760405162461bcd60e51b81526004016106c090613813565b60405180910390fd5b67016345785d8a000034146107175760405162461bcd60e51b81526020600482015260146024820152734d75737420706179206c697374696e672066656560601b60448201526064016106c0565b67d02ab486cedc000060845410156107865760405162461bcd60e51b815260206004820152602c60248201527f546f74616c20726169736564206d757374207061737320746865206c6973746960448201526b1b99c81d1a1c995cda1bdb1960a21b60648201526084016106c0565b5f608260049054906101000a90046001600160a01b03166001600160a01b031663c45a01556040518163ffffffff1660e01b8152600401602060405180830381865afa1580156107d8573d5f5f3e3d5ffd5b505050506040513d601f19601f820116820180604052508101906107fc919061385b565b90505f608260049054906101000a90046001600160a01b03166001600160a01b031663ad5c46486040518163ffffffff1660e01b8152600401602060405180830381865afa158015610850573d5f5f3e3d5ffd5b505050506040513d601f19601f82011682018060405250810190610874919061385b565b6040516364e329cb60e11b81523060048201526001600160a01b0380831660248301529192509083169063c9c65396906044016020604051808303815f875af11580156108c3573d5f5f3e3d5ffd5b505050506040513d601f19601f820116820180604052508101906108e7919061385b565b608380546001600160a01b0319166001600160a01b03929092169190911790555f6109336109205f516020613b035f395f51905f525490565b608454676124fee993bc000091906113fe565b60835490915061094c906001600160a01b0316826114b4565b816001600160a01b031663d0e30db0676124fee993bc00006040518263ffffffff1660e01b81526004015f604051808303818588803b15801561098d575f5ffd5b505af115801561099f573d5f5f3e3d5ffd5b505060835460405163a9059cbb60e01b81526001600160a01b039182166004820152676124fee993bc00006024820152908616935063a9059cbb925060440190506020604051808303815f875af11580156109fc573d5f5f3e3d5ffd5b505050506040513d601f19601f82011682018060405250810190610a209190613876565b610a2c57610a2c613895565b6083546040516335313c2160e11b81526001600160a01b03858116600483015290911690636a627842906024016020604051808303815f875af1158015610a75573d5f5f3e3d5ffd5b505050506040513d601f19601f82011682018060405250810190610a9991906138a9565b506087805460ff191690556040518181527fdd11eaf2db1c16b640194c05b02faa4b8bc4abf29c61428e990e72c6c15cff779060200160405180910390a1505050565b5f33610ae98582856114e8565b610af485858561154b565b60019150505b9392505050565b5f5f85118015610b1057505f84115b8015610b2157505f8363ffffffff16115b8015610b365750620f424063ffffffff841611155b610b3e575f5ffd5b815f03610b4c57505f610bb6565b620f423f1963ffffffff841601610b6f57610b688583866113fe565b9050610bb6565b5f8080610b7c87866138d4565b9050610b8d818888620f42406115a8565b90935091505f60ff8316610ba1858b6138e7565b901c9050610baf89826138fe565b9450505050505b949350505050565b7ff0c57e16840df040f15088dc2f81fe391c3923bec73e23a9662efc9c229c6a008054600160401b810460ff16159067ffffffffffffffff165f81158015610c035750825b90505f8267ffffffffffffffff166001148015610c1f5750303b155b905081158015610c2d575080155b15610c4b5760405163f92ee8a960e01b815260040160405180910390fd5b845467ffffffffffffffff191660011785558315610c7557845460ff60401b1916600160401b1785555b610c7f8a8a6116e4565b610c88886116f6565b610c90611707565b608280546087805460ff191660011790556001600160a01b038916640100000000026001600160c01b031990911663ffffffff8916171790558315610d0f57845460ff60401b19168555604051600181527fc7f505b2f371ae2175ee4913f4499e1f2633a7b5936321eed1cdaeb6115181d29060200160405180910390a15b50505050505050505050565b5f5f85118015610d2a57505f84115b8015610d3b57505f8363ffffffff16115b8015610d505750620f424063ffffffff841611155b8015610d5c5750848211155b610d64575f5ffd5b815f03610d7257505f610bb6565b848203610d80575082610bb6565b620f423f1963ffffffff841601610d9c57610b688483876113fe565b5f8080610da985896138fe565b9050610dba8882620f4240896115a8565b90935091505f610dca84896138e7565b905060ff831688901b84610dde82846138fe565b610de89190613925565b9a9950505050505050505050565b610dfe61170f565b610e07826117b3565b610e1182826117bb565b5050565b5f610e1e611877565b505f516020613b235f395f51905f5290565b5f8054610e3c906137db565b80601f0160208091040260200160405190810160405280929190818152602001828054610e68906137db565b8015610eb35780601f10610e8a57610100808354040283529160200191610eb3565b820191905f5260205f20905b815481529060010190602001808311610e9657829003601f168201915b505050505081565b6001600160a01b03165f9081525f516020613ae35f395f51905f52602052604090205490565b610ee96118c0565b610ef25f61191b565b565b60875460ff16610f165760405162461bcd60e51b81526004016106c090613813565b335f8181526088602052604081205491610f469084908490610f3790610ebb565b610f4191906138fe565b61198b565b9050610f5281836138d4565b335f90815260886020526040902055608654610f6f9082906138d4565b60865560405181815233907f38ed2b0a6fac1bede304be559828c18972af2743a8d0bc246990852c1247efdf9060200160405180910390a2608654610fde6113ec620186a0610fd7610fcc5f516020613b035f395f51905f525490565b633b9aca009061199a565b91906113fe565b1161103057610fef608554306119b9565b507fd30f7a63ab898434aa3f87d8119ad5761a566c84836ab12f6c2c4dd7a7b0127560855460405161102391815260200190565b60405180910390a15f6085555b505050565b60875460ff166110575760405162461bcd60e51b81526004016106c090613813565b5f61106234836119b9565b9050828110156110305760405162461bcd60e51b8152602060048201526014602482015273105b5bdd5b9d081bdd5d081d1bdbc81cdb585b1b60621b60448201526064016106c0565b7f52c63247e1f47db19d5ce0460030c497f067ca4cebf71ba98eeadabe20bace0480546060915f516020613ae35f395f51905f5291610603906137db565b5f3361069281858561154b565b60875460ff166111185760405162461bcd60e51b81526004016106c090613813565b335f9081526088602052604081205490611132858361198b565b905061113e81836138fe565b335f9081526088602052604090205560865461115b9082906138fe565b6086555f6111693387611a77565b90505f61117582611ae6565b92505050858110156111c05760405162461bcd60e51b8152602060048201526014602482015273105b5bdd5b9d081bdd5d081d1bdbc81cdb585b1b60621b60448201526064016106c0565b806084546111ce91906138fe565b6084556040515f906001600160a01b0387169083908381818185875af1925050503d805f8114611219576040519150601f19603f3d011682016040523d82523d5f602084013e61121e565b606091505b50509050806112685760405162461bcd60e51b81526020600482015260166024820152754661696c656420746f2072656465656d2066756e647360501b60448201526064016106c0565b60408051898152602081018490526001600160a01b038816917fed7a144fad14804d5c249145e3e0e2b63a9eb455b76aee5bc92d711e9bba3e4a910160405180910390a25050505050505050565b6112be6118c0565b6084546085545f9133916112d290476138fe565b6112dc91906138fe565b6040515f81818185875af1925050503d805f8114611315576040519150601f19603f3d011682016040523d82523d5f602084013e61131a565b606091505b505090508061136b5760405162461bcd60e51b815260206004820152601f60248201527f4661696c656420746f2073656e642066656520746f20746865206f776e65720060448201526064016106c0565b50565b6001600160a01b039182165f9081527f52c63247e1f47db19d5ce0460030c497f067ca4cebf71ba98eeadabe20bace016020908152604080832093909416825291909152205490565b6113bf6118c0565b6001600160a01b0381166113e857604051631e4fbdf760e01b81525f60048201526024016106c0565b61136b8161191b565b6110308383836001611b3b565b5f838302815f1985870982811083820303915050805f036114325783828161142857611428613911565b0492505050610afa565b808411611449576114496003851502601118611c1f565b5f848688095f868103871696879004966002600389028118808a02820302808a02820302808a02820302808a02820302808a02820302808a02909103029181900381900460010186841190950394909402919094039290920491909117919091029150509392505050565b6001600160a01b0382166114dd5760405163ec442f0560e01b81525f60048201526024016106c0565b610e115f8383611c30565b5f6114f3848461136e565b90505f198114611545578181101561153757604051637dc7a0d960e11b81526001600160a01b038416600482015260248101829052604481018390526064016106c0565b61154584848484035f611b3b565b50505050565b6001600160a01b03831661157457604051634b637e8f60e11b81525f60048201526024016106c0565b6001600160a01b03821661159d5760405163ec442f0560e01b81525f60048201526024016106c0565b611030838383611c30565b5f5f600160811b86106115bd576115bd613895565b8486101561160d5760405162461bcd60e51b815260206004820152601c60248201527f4261736573203c203120617265206e6f7420737570706f727465642e0000000060448201526064016106c0565b5f808661161e6001607f1b8a6138e7565b6116289190613925565b905070015bf0a8b1457695355fb8ac404e7a79e38110156116535761164c81611d69565b915061165f565b61165c816122e1565b91505b5f8563ffffffff168763ffffffff168461167991906138e7565b6116839190613925565b9050600160831b8110156116a85761169a816123ce565b607f945094505050506116db565b5f6116b2826129f8565b90506116ce6116c282607f613938565b60ff1683901c82612aba565b955093506116db92505050565b94509492505050565b6116ec613120565b610e118282613169565b6116fe613120565b61136b816131b9565b610ef2613120565b306001600160a01b037f000000000000000000000000000000000000000000000000000000000000000016148061179557507f00000000000000000000000000000000000000000000000000000000000000006001600160a01b03166117895f516020613b235f395f51905f52546001600160a01b031690565b6001600160a01b031614155b15610ef25760405163703e46dd60e11b815260040160405180910390fd5b61136b6118c0565b816001600160a01b03166352d1902d6040518163ffffffff1660e01b8152600401602060405180830381865afa925050508015611815575060408051601f3d908101601f19168201909252611812918101906138a9565b60015b61183d57604051634c9c8ce360e01b81526001600160a01b03831660048201526024016106c0565b5f516020613b235f395f51905f52811461186d57604051632a87526960e21b8152600481018290526024016106c0565b61103083836131c1565b306001600160a01b037f00000000000000000000000000000000000000000000000000000000000000001614610ef25760405163703e46dd60e11b815260040160405180910390fd5b336118f27f9016d09d72d40fdae2fd8ceac6b6234c7706214fd39c1cd1e609a0528c199300546001600160a01b031690565b6001600160a01b031614610ef25760405163118cdaa760e01b81523360048201526024016106c0565b7f9016d09d72d40fdae2fd8ceac6b6234c7706214fd39c1cd1e609a0528c19930080546001600160a01b031981166001600160a01b03848116918217845560405192169182907f8be0079c531659141344cd1fd0a4f28419497f9722a3daafe3b4186f6b6457e0905f90a3505050565b5f828218828410028218610afa565b5f8183106119b1576119ac82846138fe565b610afa565b505f92915050565b5f5f83116119ff5760405162461bcd60e51b8152602060048201526013602482015272105b5bdd5b9d081a5b881d1bdbc81cdb585b1b606a1b60448201526064016106c0565b5f611a0984611ae6565b925050505f611a188285613216565b905081608454611a2891906138d4565b60845560408051838152602081018390526001600160a01b038616917f1cbc5ab135991bd2b6a4b034a04aa2aa086dac1371cb9b16b8b5e2ed6b036bed910160405180910390a2949350505050565b5f5f82118015611a8f575081611a8c84610ebb565b10155b611a97575f5ffd5b5f611ac2611ab05f516020613b035f395f51905f525490565b60815460825463ffffffff1686610d1b565b9050611ace8484613267565b80608154611adc91906138fe565b6081559392505050565b5f8080611af9846101f4620186a06113fe565b9250611b0a846064620186a06113fe565b915081611b1784866138fe565b611b2191906138fe565b905082608554611b3191906138d4565b6085559193909250565b5f516020613ae35f395f51905f526001600160a01b038516611b725760405163e602df0560e01b81525f60048201526024016106c0565b6001600160a01b038416611b9b57604051634a1406b160e11b81525f60048201526024016106c0565b6001600160a01b038086165f90815260018301602090815260408083209388168352929052208390558115611c1857836001600160a01b0316856001600160a01b03167f8c5be1e5ebec7d5bd14f71427d1e84f3dd0314c0f7b2291e5b200ac8c7c3b92585604051611c0f91815260200190565b60405180910390a35b5050505050565b634e487b715f52806020526024601cfd5b5f516020613ae35f395f51905f526001600160a01b038416611c6a5781816002015f828254611c5f91906138d4565b90915550611cda9050565b6001600160a01b0384165f9081526020829052604090205482811015611cbc5760405163391434e360e21b81526001600160a01b038616600482015260248101829052604481018490526064016106c0565b6001600160a01b0385165f9081526020839052604090209083900390555b6001600160a01b038316611cf8576002810180548390039055611d16565b6001600160a01b0383165f9081526020829052604090208054830190555b826001600160a01b0316846001600160a01b03167fddf252ad1be2c89b69c2b068fc378daa952ba7f163c4a11628f55a4df523b3ef84604051611d5b91815260200190565b60405180910390a350505050565b5f808080806fd3094c70f034de4b96ff7d5b6f99fcd88610611dc157611d936001607e1b856138d4565b93506fd3094c70f034de4b96ff7d5b6f99fcd8611db46001607f1b886138e7565b611dbe9190613925565b95505b6fa45af1e1f40c333b3de1db4dd55f29a78610611e1457611de66001607d1b856138d4565b93506fa45af1e1f40c333b3de1db4dd55f29a7611e076001607f1b886138e7565b611e119190613925565b95505b6f910b022db7ae67ce76b441c27035c6a18610611e6757611e396001607c1b856138d4565b93506f910b022db7ae67ce76b441c27035c6a1611e5a6001607f1b886138e7565b611e649190613925565b95505b6f88415abbe9a76bead8d00cf112e4d4a88610611eba57611e8c6001607b1b856138d4565b93506f88415abbe9a76bead8d00cf112e4d4a8611ead6001607f1b886138e7565b611eb79190613925565b95505b6f84102b00893f64c705e841d5d4064bd38610611f0d57611edf6001607a1b856138d4565b93506f84102b00893f64c705e841d5d4064bd3611f006001607f1b886138e7565b611f0a9190613925565b95505b6f8204055aaef1c8bd5c3259f4822735a28610611f6057611f32600160791b856138d4565b93506f8204055aaef1c8bd5c3259f4822735a2611f536001607f1b886138e7565b611f5d9190613925565b95505b6f810100ab00222d861931c15e39b44e998610611fb357611f85600160781b856138d4565b93506f810100ab00222d861931c15e39b44e99611fa66001607f1b886138e7565b611fb09190613925565b95505b6f808040155aabbbe9451521693554f733861061200657611fd8600160771b856138d4565b93506f808040155aabbbe9451521693554f733611ff96001607f1b886138e7565b6120039190613925565b95505b6120146001607f1b876138fe565b92508291506001607f1b61202883806138e7565b6120329190613925565b9050600160801b61204384826138fe565b61204d90846138e7565b6120579190613925565b61206190856138d4565b93506001607f1b61207282846138e7565b61207c9190613925565b9150600160811b61209d846faaaaaaaaaaaaaaaaaaaaaaaaaaaaaaaa6138fe565b6120a790846138e7565b6120b19190613925565b6120bb90856138d4565b93506001607f1b6120cc82846138e7565b6120d69190613925565b9150600360801b6120f7846f999999999999999999999999999999996138fe565b61210190846138e7565b61210b9190613925565b61211590856138d4565b93506001607f1b61212682846138e7565b6121309190613925565b9150600160821b612151846f924924924924924924924924924924926138fe565b61215b90846138e7565b6121659190613925565b61216f90856138d4565b93506001607f1b61218082846138e7565b61218a9190613925565b9150600560801b6121ab846f8e38e38e38e38e38e38e38e38e38e38e6138fe565b6121b590846138e7565b6121bf9190613925565b6121c990856138d4565b93506001607f1b6121da82846138e7565b6121e49190613925565b9150600360811b612205846f8ba2e8ba2e8ba2e8ba2e8ba2e8ba2e8b6138fe565b61220f90846138e7565b6122199190613925565b61222390856138d4565b93506001607f1b61223482846138e7565b61223e9190613925565b9150600760801b61225f846f89d89d89d89d89d89d89d89d89d89d896138fe565b61226990846138e7565b6122739190613925565b61227d90856138d4565b93506001607f1b61228e82846138e7565b6122989190613925565b9150600160831b6122b9846f888888888888888888888888888888886138fe565b6122c390846138e7565b6122cd9190613925565b6122d790856138d4565b9695505050505050565b5f8082600160801b8110612324575f6123066123016001607f1b84613925565b61329b565b60ff811692831c92909150612320906001607f1b906138e7565b9250505b6001607f1b81111561239957607f5b60ff811615612397576001607f1b61234b83806138e7565b6123559190613925565b9150600160801b821061238757600191821c916123729082613938565b60ff166001901b8361238491906138d4565b92505b61239081613951565b9050612333565b505b6f05b9de1d10bf4103d647b0955897ba806123c46f03f80fe03f80fe03f80fe03f80fe03f8846138e7565b610bb69190613925565b5f8080806123e06001607c1b8661396c565b91508190506001607f1b6123f482806138e7565b6123fe9190613925565b9050612412816710e1b3be415a00006138e7565b61241c90846138d4565b92506001607f1b61242d83836138e7565b6124379190613925565b905061244b816705a0913f6b1e00006138e7565b61245590846138d4565b92506001607f1b61246683836138e7565b6124709190613925565b905061248481670168244fdac780006138e7565b61248e90846138d4565b92506001607f1b61249f83836138e7565b6124a99190613925565b90506124bc81664807432bc180006138e7565b6124c690846138d4565b92506001607f1b6124d783836138e7565b6124e19190613925565b90506124f481660c0135dca040006138e7565b6124fe90846138d4565b92506001607f1b61250f83836138e7565b6125199190613925565b905061252c816601b707b1cdc0006138e7565b61253690846138d4565b92506001607f1b61254783836138e7565b6125519190613925565b9050612563816536e0f639b8006138e7565b61256d90846138d4565b92506001607f1b61257e83836138e7565b6125889190613925565b905061259a81650618fee9f8006138e7565b6125a490846138d4565b92506001607f1b6125b583836138e7565b6125bf9190613925565b90506125d081649c197dcc006138e7565b6125da90846138d4565b92506001607f1b6125eb83836138e7565b6125f59190613925565b905061260681640e30dce4006138e7565b61261090846138d4565b92506001607f1b61262183836138e7565b61262b9190613925565b905061263c8164012ebd13006138e7565b61264690846138d4565b92506001607f1b61265783836138e7565b6126619190613925565b9050612671816317499f006138e7565b61267b90846138d4565b92506001607f1b61268c83836138e7565b6126969190613925565b90506126a6816301a9d4806138e7565b6126b090846138d4565b92506001607f1b6126c183836138e7565b6126cb9190613925565b90506126da81621c63806138e7565b6126e490846138d4565b92506001607f1b6126f583836138e7565b6126ff9190613925565b905061270e816201c6386138e7565b61271890846138d4565b92506001607f1b61272983836138e7565b6127339190613925565b905061274181611ab86138e7565b61274b90846138d4565b92506001607f1b61275c83836138e7565b6127669190613925565b90506127748161017c6138e7565b61277e90846138d4565b92506001607f1b61278f83836138e7565b6127999190613925565b90506127a68160146138e7565b6127b090846138d4565b92506001607f1b6127c183836138e7565b6127cb9190613925565b90506127d88160016138e7565b6127e290846138d4565b92506001607f1b826127fc6721c3677c82b4000086613925565b61280691906138d4565b61281091906138d4565b92506001607c1b8516156128585770018ebef9eac820ae8682b9793ac6d1e77661284b847001c3d6a24ed82218787d624d3e5eba95f96138e7565b6128559190613925565b92505b6001607d1b85161561289e577001368b2fc6f9609fe7aceb46aa619baed46128918470018ebef9eac820ae8682b9793ac6d1e7786138e7565b61289b9190613925565b92505b6001607e1b8516156128e3576fbc5ab1b16779be3575bd8f0520a9f21f6128d6847001368b2fc6f9609fe7aceb46aa619baed56138e7565b6128e09190613925565b92505b6001607f1b851615612927576f454aaa8efe072e7f6ddbab84b40a55c961291a846fbc5ab1b16779be3575bd8f0520a9f21e6138e7565b6129249190613925565b92505b600160801b85161561296b576f0960aadc109e7a3bf4578099615711ea61295e846f454aaa8efe072e7f6ddbab84b40a55c56138e7565b6129689190613925565b92505b600160811b8516156129ae576e2bf84208204f5977f9a8cf01fdce3d6129a1846f0960aadc109e7a3bf4578099615711d76138e7565b6129ab9190613925565b92505b600160821b8516156129ef576d03c6ab775dd0b95b4cbee7e65d116129e2846e2bf84208204f5977f9a8cf01fdc3076138e7565b6129ec9190613925565b92505b50909392505050565b5f6020607f5b60ff8116612a0d83600161397f565b60ff161015612a5f575f6002612a23838561397f565b612a2d9190613998565b90508460018260ff1660808110612a4657612a466139b9565b015410612a5557809250612a59565b8091505b506129fe565b8360018260ff1660808110612a7657612a766139b9565b015410612a84579392505050565b8360018360ff1660808110612a9b57612a9b6139b9565b015410612aa9575092915050565b612ab1613895565b505f9392505050565b5f828160ff8416612acb83806138e7565b901c9150612ae9826f03442c4e6074a82f1797f72ac00000006138e7565b612af390826138d4565b905060ff8416612b0386846138e7565b901c9150612b21826f0116b96f757c380fb287fd0e400000006138e7565b612b2b90826138d4565b905060ff8416612b3b86846138e7565b901c9150612b58826e45ae5bdd5f0e03eca1ff43900000006138e7565b612b6290826138d4565b905060ff8416612b7286846138e7565b901c9150612b8f826e0defabf91302cd95b9ffda500000006138e7565b612b9990826138d4565b905060ff8416612ba986846138e7565b901c9150612bc6826e02529ca9832b22439efff9b80000006138e7565b612bd090826138d4565b905060ff8416612be086846138e7565b901c9150612bfc826d54f1cf12bd04e516b6da880000006138e7565b612c0690826138d4565b905060ff8416612c1686846138e7565b901c9150612c32826d0a9e39e257a09ca2d6db510000006138e7565b612c3c90826138d4565b905060ff8416612c4c86846138e7565b901c9150612c68826d012e066e7b839fa050c3090000006138e7565b612c7290826138d4565b905060ff8416612c8286846138e7565b901c9150612c9d826c1e33d7d926c329a1ad1a8000006138e7565b612ca790826138d4565b905060ff8416612cb786846138e7565b901c9150612cd2826c02bee513bdb4a6b19b5f8000006138e7565b612cdc90826138d4565b905060ff8416612cec86846138e7565b901c9150612d06826b3a9316fa79b88eccf2a000006138e7565b612d1090826138d4565b905060ff8416612d2086846138e7565b901c9150612d3a826b048177ebe1fa8123752000006138e7565b612d4490826138d4565b905060ff8416612d5486846138e7565b901c9150612d6d826a5263fe90242dcbacf000006138e7565b612d7790826138d4565b905060ff8416612d8786846138e7565b901c9150612da0826a057e22099c030d941000006138e7565b612daa90826138d4565b905060ff8416612dba86846138e7565b901c9150612dd2826957e22099c030d94100006138e7565b612ddc90826138d4565b905060ff8416612dec86846138e7565b901c9150612e048269052b6b545699763100006138e7565b612e0e90826138d4565b905060ff8416612e1e86846138e7565b901c9150612e3582684985f67696bf7480006138e7565b612e3f90826138d4565b905060ff8416612e4f86846138e7565b901c9150612e66826803dea12ea99e4980006138e7565b612e7090826138d4565b905060ff8416612e8086846138e7565b901c9150612e96826731880f2214b6e0006138e7565b612ea090826138d4565b905060ff8416612eb086846138e7565b901c9150612ec68267025bcff56eb360006138e7565b612ed090826138d4565b905060ff8416612ee086846138e7565b901c9150612ef582661b722e10ab10006138e7565b612eff90826138d4565b905060ff8416612f0f86846138e7565b901c9150612f24826601317c700770006138e7565b612f2e90826138d4565b905060ff8416612f3e86846138e7565b901c9150612f5282650cba84aafa006138e7565b612f5c90826138d4565b905060ff8416612f6c86846138e7565b901c9150612f7f826482573a0a006138e7565b612f8990826138d4565b905060ff8416612f9986846138e7565b901c9150612fac826405035ad9006138e7565b612fb690826138d4565b905060ff8416612fc686846138e7565b901c9150612fd882632f881b006138e7565b612fe290826138d4565b905060ff8416612ff286846138e7565b901c9150613004826301b293406138e7565b61300e90826138d4565b905060ff841661301e86846138e7565b901c915061302f82620efc406138e7565b61303990826138d4565b905060ff841661304986846138e7565b901c915061305982617fe06138e7565b61306390826138d4565b905060ff841661307386846138e7565b901c9150613083826104206138e7565b61308d90826138d4565b905060ff841661309d86846138e7565b901c91506130ac8260216138e7565b6130b690826138d4565b905060ff84166130c686846138e7565b901c91506130d58260016138e7565b6130df90826138d4565b9050600160ff85161b856131036f0688589cc0e9505e2f2fee558000000084613925565b61310d91906138d4565b61311791906138d4565b95945050505050565b7ff0c57e16840df040f15088dc2f81fe391c3923bec73e23a9662efc9c229c6a0054600160401b900460ff16610ef257604051631afcd79f60e31b815260040160405180910390fd5b613171613120565b5f516020613ae35f395f51905f527f52c63247e1f47db19d5ce0460030c497f067ca4cebf71ba98eeadabe20bace036131aa8482613a11565b50600481016115458382613a11565b6113bf613120565b6131ca82613309565b6040516001600160a01b038316907fbc7cd75a20ee27fd9adebab32041f755214dbc6bffa90cc0225b39da2e5c2d3b905f90a280511561320e57611030828261336c565b610e116133d5565b5f5f8311613222575f5ffd5b5f61324d61323b5f516020613b035f395f51905f525490565b60815460825463ffffffff1687610b01565b905061325983826114b4565b83608154611adc91906138d4565b6001600160a01b03821661329057604051634b637e8f60e11b81525f60048201526024016106c0565b610e11825f83611c30565b5f80826101008110156132ce575b60018111156132c957600190811c906132c2908361397f565b91506132a9565b613302565b60805b60ff81161561330057600160ff82161b82106132f5579182179160ff81169190911c905b60011c607f166132d1565b505b5092915050565b806001600160a01b03163b5f0361333e57604051634c9c8ce360e01b81526001600160a01b03821660048201526024016106c0565b5f516020613b235f395f51905f5280546001600160a01b0319166001600160a01b0392909216919091179055565b60605f5f846001600160a01b0316846040516133889190613acc565b5f60405180830381855af49150503d805f81146133c0576040519150601f19603f3d011682016040523d82523d5f602084013e6133c5565b606091505b50915091506131178583836133f4565b3415610ef25760405163b398979f60e01b815260040160405180910390fd5b606082613404576119ac8261344b565b815115801561341b57506001600160a01b0384163b155b1561344457604051639996b31560e01b81526001600160a01b03851660048201526024016106c0565b5080610afa565b80511561345b5780518082602001fd5b60405163d6bda27560e01b815260040160405180910390fd5b602081525f82518060208401528060208501604085015e5f604082850101526040601f19601f83011684010191505092915050565b6001600160a01b038116811461136b575f5ffd5b5f5f604083850312156134ce575f5ffd5b82356134d9816134a9565b946020939093013593505050565b5f5f5f606084860312156134f9575f5ffd5b8335613504816134a9565b92506020840135613514816134a9565b929592945050506040919091013590565b803563ffffffff81168114613538575f5ffd5b919050565b5f5f5f5f60808587031215613550575f5ffd5b843593506020850135925061356760408601613525565b9396929550929360600135925050565b634e487b7160e01b5f52604160045260245ffd5b5f5f67ffffffffffffffff8411156135a5576135a5613577565b50604051601f19601f85018116603f0116810181811067ffffffffffffffff821117156135d4576135d4613577565b6040528381529050808284018510156135eb575f5ffd5b838360208301375f60208583010152509392505050565b5f82601f830112613611575f5ffd5b610afa8383356020850161358b565b5f5f5f5f5f60a08688031215613634575f5ffd5b853567ffffffffffffffff81111561364a575f5ffd5b61365688828901613602565b955050602086013567ffffffffffffffff811115613672575f5ffd5b61367e88828901613602565b945050604086013561368f816134a9565b9250606086013561369f816134a9565b91506136ad60808701613525565b90509295509295909350565b5f5f604083850312156136ca575f5ffd5b82356136d5816134a9565b9150602083013567ffffffffffffffff8111156136f0575f5ffd5b8301601f81018513613700575f5ffd5b61370f8582356020840161358b565b9150509250929050565b5f60208284031215613729575f5ffd5b8135610afa816134a9565b5f60208284031215613744575f5ffd5b5035919050565b5f5f6040838503121561375c575f5ffd5b82359150602083013561376e816134a9565b809150509250929050565b5f5f5f6060848603121561378b575f5ffd5b833592506020840135915060408401356137a4816134a9565b809150509250925092565b5f5f604083850312156137c0575f5ffd5b82356137cb816134a9565b9150602083013561376e816134a9565b600181811c908216806137ef57607f821691505b60208210810361380d57634e487b7160e01b5f52602260045260245ffd5b50919050565b60208082526028908201527f5468697320616374696f6e206973206f6e20616c6c6f776564207768656e206c60408201526761756e6368696e6760c01b606082015260800190565b5f6020828403121561386b575f5ffd5b8151610afa816134a9565b5f60208284031215613886575f5ffd5b81518015158114610afa575f5ffd5b634e487b7160e01b5f52600160045260245ffd5b5f602082840312156138b9575f5ffd5b5051919050565b634e487b7160e01b5f52601160045260245ffd5b80820180821115610698576106986138c0565b8082028115828204841417610698576106986138c0565b81810381811115610698576106986138c0565b634e487b7160e01b5f52601260045260245ffd5b5f8261393357613933613911565b500490565b60ff8281168282160390811115610698576106986138c0565b5f60ff821680613963576139636138c0565b5f190192915050565b5f8261397a5761397a613911565b500690565b60ff8181168382160190811115610698576106986138c0565b5f60ff8316806139aa576139aa613911565b8060ff84160491505092915050565b634e487b7160e01b5f52603260045260245ffd5b601f82111561103057805f5260205f20601f840160051c810160208510156139f25750805b601f840160051c820191505b81811015611c18575f81556001016139fe565b815167ffffffffffffffff811115613a2b57613a2b613577565b613a3f81613a3984546137db565b846139cd565b6020601f821160018114613a71575f8315613a5a5750848201515b5f19600385901b1c1916600184901b178455611c18565b5f84815260208120601f198516915b82811015613aa05787850151825560209485019460019092019101613a80565b5084821015613abd57868401515f19600387901b60f8161c191681555b50505050600190811b01905550565b5f82518060208501845e5f92019182525091905056fe52c63247e1f47db19d5ce0460030c497f067ca4cebf71ba98eeadabe20bace0052c63247e1f47db19d5ce0460030c497f067ca4cebf71ba98eeadabe20bace02360894a13ba1a3210667c828492db98dca3e2076cc3735a920a3ca505d382bbca2646970667358221220283d2b1cbe98e78370b85554ecb3308d5ecf11f65839d0f0ca1b9b103843898d64736f6c634300081b0033","linkReferences":{}},"methodIdentifiers":{"UPGRADE_INTERFACE_VERSION()":"ad3cb1cc","allowance(address,address)":"dd62ed3e","approve(address,uint256)":"095ea7b3","balanceOf(address)":"70a08231","buy(uint256,address)":"7deb6025","calculatePurchaseReturn(uint256,uint256,uint32,uint256)":"29a00e7c","calculateSaleReturn(uint256,uint256,uint32,uint256)":"49f9b0f7","collectFee()":"d4d5d32a","decimals()":"313ce567","initialize(string,string,address,address,uint32)":"38df61fd","list()":"0f560cd7","name()":"06fdde03","owner()":"8da5cb5b","poolBalance()":"96365d44","proxiableUUID()":"52d1902d","pump(uint256)":"745dae42","pumped(address)":"8d662ee3","renounceOwnership()":"715018a6","reserveRatio()":"0c7d5cd8","sell(uint256,uint256,address)":"d04c6983","symbol()":"95d89b41","totalPumped()":"09c773b1","totalRaised()":"c5c4744c","totalReserve()":"4c68df67","totalSupply()":"18160ddd","transfer(address,uint256)":"a9059cbb","transferFrom(address,address,uint256)":"23b872dd","transferOwnership(address)":"f2fde38b","uniswapPair()":"c816841b","uniswapV2Router()":"1694505e","upgradeToAndCall(address,bytes)":"4f1ef286","version()":"54fd4d50"},"id":50}