{"abi":[{"type":"constructor","inputs":[{"name":"uniswapV2Router_","type":"address","internalType":"address"}],"stateMutability":"nonpayable"},{"type":"receive","stateMutability":"payable"},{"type":"function","name":"collectFee","inputs":[],"outputs":[],"stateMutability":"nonpayable"},{"type":"function","name":"createPumpToken","inputs":[{"name":"name","type":"string","internalType":"string"},{"name":"symbol","type":"string","internalType":"string"},{"name":"reserveRatio","type":"uint32","internalType":"uint32"}],"outputs":[],"stateMutability":"nonpayable"},{"type":"function","name":"deployedTokens","inputs":[{"name":"","type":"uint256","internalType":"uint256"}],"outputs":[{"name":"","type":"address","internalType":"contract PumpToken"}],"stateMutability":"view"},{"type":"function","name":"owner","inputs":[],"outputs":[{"name":"","type":"address","internalType":"address"}],"stateMutability":"view"},{"type":"function","name":"renounceOwnership","inputs":[],"outputs":[],"stateMutability":"nonpayable"},{"type":"function","name":"transferOwnership","inputs":[{"name":"newOwner","type":"address","internalType":"address"}],"outputs":[],"stateMutability":"nonpayable"},{"type":"function","name":"uniswapV2Router","inputs":[],"outputs":[{"name":"","type":"address","internalType":"address"}],"stateMutability":"view"},{"type":"event","name":"OwnershipTransferred","inputs":[{"name":"previousOwner","type":"address","indexed":true,"internalType":"address"},{"name":"newOwner","type":"address","indexed":true,"internalType":"address"}],"anonymous":false},{"type":"event","name":"PumpTokenCreated","inputs":[{"name":"tokenAddress","type":"address","indexed":false,"internalType":"address"},{"name":"owner","type":"address","indexed":true,"internalType":"address"}],"anonymous":false},{"type":"error","name":"OwnableInvalidOwner","inputs":[{"name":"owner","type":"address","internalType":"address"}]},{"type":"error","name":"OwnableUnauthorizedAccount","inputs":[{"name":"account","type":"address","internalType":"address"}]}],"bytecode":{"object":"0x608060405234801561001057600080fd5b5060405161475d38038061475d83398101604081905261002f916100d4565b338061005557604051631e4fbdf760e01b81526000600482015260240160405180910390fd5b61005e81610084565b50600280546001600160a01b0319166001600160a01b0392909216919091179055610104565b600080546001600160a01b038381166001600160a01b0319831681178455604051919092169283917f8be0079c531659141344cd1fd0a4f28419497f9722a3daafe3b4186f6b6457e09190a35050565b6000602082840312156100e657600080fd5b81516001600160a01b03811681146100fd57600080fd5b9392505050565b61464a806101136000396000f3fe6080604052600436106200007d5760003560e01c80639743372a11620000545780639743372a1462000102578063d4d5d32a1462000127578063ec81aadb146200013f578063f2fde38b146200016457600080fd5b80631694505e146200008a578063715018a614620000c85780638da5cb5b14620000e257600080fd5b366200008557005b600080fd5b3480156200009757600080fd5b50600254620000ac906001600160a01b031681565b6040516001600160a01b03909116815260200160405180910390f35b348015620000d557600080fd5b50620000e062000189565b005b348015620000ef57600080fd5b506000546001600160a01b0316620000ac565b3480156200010f57600080fd5b50620000e0620001213660046200058a565b620001a1565b3480156200013457600080fd5b50620000e0620002d2565b3480156200014c57600080fd5b50620000ac6200015e36600462000613565b620003e3565b3480156200017157600080fd5b50620000e0620001833660046200062d565b6200040e565b6200019362000452565b6200019f600062000481565b565b620001ab62000452565b6000604051620001bb90620004d1565b604051809103906000f080158015620001d8573d6000803e3d6000fd5b506002546040516338df61fd60e01b81529192506001600160a01b03808416926338df61fd92620002169289928992309216908990600401620006a7565b600060405180830381600087803b1580156200023157600080fd5b505af115801562000246573d6000803e3d6000fd5b50506001805480820182556000919091527fb10e2d527612073b26eecdfd717e6a320cf44b4afac2b0732d9fcbe2b7fa0cf60180546001600160a01b0319166001600160a01b0385169081179091556040519081523392507f5d762f4157f2f30e37945811068247db4c57111102d0f44d2e9d16a792d7496f915060200160405180910390a250505050565b620002dc62000452565b4780620003285760405162461bcd60e51b8152602060048201526015602482015274139bc818985b185b98d9481d1bc818dbdb1b1958dd605a1b60448201526064015b60405180910390fd5b600080546040516001600160a01b039091169083908381818185875af1925050503d806000811462000377576040519150601f19603f3d011682016040523d82523d6000602084013e6200037c565b606091505b5050905080620003df5760405162461bcd60e51b815260206004820152602760248201527f4661696c656420746f207472616e73666572207468652066656520746f207468604482015266329037bbb732b960c91b60648201526084016200031f565b5050565b60018181548110620003f457600080fd5b6000918252602090912001546001600160a01b0316905081565b6200041862000452565b6001600160a01b0381166200044457604051631e4fbdf760e01b8152600060048201526024016200031f565b6200044f8162000481565b50565b6000546001600160a01b031633146200019f5760405163118cdaa760e01b81523360048201526024016200031f565b600080546001600160a01b038381166001600160a01b0319831681178455604051919092169283917f8be0079c531659141344cd1fd0a4f28419497f9722a3daafe3b4186f6b6457e09190a35050565b613f14806200070183390190565b634e487b7160e01b600052604160045260246000fd5b600082601f8301126200050757600080fd5b813567ffffffffffffffff80821115620005255762000525620004df565b604051601f8301601f19908116603f01168101908282118183101715620005505762000550620004df565b816040528381528660208588010111156200056a57600080fd5b836020870160208301376000602085830101528094505050505092915050565b600080600060608486031215620005a057600080fd5b833567ffffffffffffffff80821115620005b957600080fd5b620005c787838801620004f5565b94506020860135915080821115620005de57600080fd5b50620005ed86828701620004f5565b925050604084013563ffffffff811681146200060857600080fd5b809150509250925092565b6000602082840312156200062657600080fd5b5035919050565b6000602082840312156200064057600080fd5b81356001600160a01b03811681146200065857600080fd5b9392505050565b6000815180845260005b81811015620006875760208185018101518683018201520162000669565b506000602082860101526020601f19601f83011685010191505092915050565b60a081526000620006bc60a08301886200065f565b8281036020840152620006d081886200065f565b6001600160a01b0396871660408501529490951660608301525063ffffffff91909116608090910152939250505056fe60c06040526003608090815262302e3360e81b60a05260009062000024908262000807565b503480156200003257600080fd5b506001641c35fedd1560601b036021556001646c3390ecc9605e1b036022556001640cf801476160611b0360235560016431bdb23e1d605f1b0360245560016502fb1d8fe083605b1b0360255560016505b771955b37605a1b036026556001650af67a93bb5160591b0360275560016515060c256cb360581b036028556001651428a2f98d7360581b036029556001654d515663970960561b03602a55600165944620b0e70f60551b03602b55600166011c592761c66760541b03602c5560016602214d10d014eb60531b03602d55600166020ade36b7dbef60531b03602e5560016603eab73b3bbfe360521b03602f556001660782ee3593f6d760511b036030556001661ccf4b44bb4821604f1b0360315560016606e7f88ad8a77760511b0360325560016669f3d1c921891d604d1b03603355600166cb2ff529eb71e5604c1b03603455600166c2d415c3db974b604c1b0360355560016702eb40f9f620fda7604a1b0360365560016705990681d961a1eb60491b03603755600167055e12902701414760491b0360385560016714962dee9dc9764160471b0360395560016704ef57b9b560fab560491b03603a5560016712ed7b32a58f552b60471b03603b556001679131271922eaa60760441b03603c556001678b380f3558668c4760441b03603d556001680215f77c045fbe885760421b03603e556001600160831b03603f556001670f577eded5773a1160471b036040556001680eb5ec597592befbf5603f1b036041556001681c35fedd14b861eb05603e1b036042556001683619c87664579bc94b603d1b0360435560016867c00a3b07ffc01fd7603c1b03604455600168c6f6c8f8739773a7a5603b1b03604555600168bec763f8209b7a72b1603b1b0360465560016902dbb8caad9b7097b91b60391b03604755600169057b3d49dda84556d6f760381b03604855600169054183095b2c8ececf3160381b036049556001690a14517cc6b9457111ef60371b03604a5560016913545598e5c23276ccf160361b03604b556001692511882c39c3adea96ff60351b03604c55600169471649d87199aa99075760341b03604d557004429a21a029d4c1457cfbffffffffffff604e55700415bc6d6fb7dd71af2cb3ffffffffffff604f557003eab73b3bbfe282243ce1ffffffffffff6050557003c1771ac9fb6b4c18e229ffffffffffff605155700399e96897690418f785257fffffffffff605255700373fc456c53bb779bf0ea9fffffffffff60535570034f9e8e490c48e67e6ab8bfffffffffff60545570032cbfd4a7adc790560b3337ffffffffff60555570030b50570f6e5d2acca94613ffffffffff6056557002eb40f9f620fda6b56c2861ffffffffff6057557002cc8340ecb0d0f520a6af58ffffffffff6058557002af09481380a0a35cf1ba02ffffffffff605955700292c5bdd3b92ec810287b1b3fffffffff605a55700277abdcdab07d5a77ac6d6b9fffffffff605b5570025daf6654b1eaa55fd64df5efffffffff605c55700244c49c648baa98192dce88b7ffffffff605d5570022ce03cd5619a311b2471268bffffffff605e55700215f77c045fbe885654a44a0fffffffff605f556001600160811b036060557001eaefdbdaaee7421fc4d3ede5ffffffff6061557001d6bd8b2eb257df7e8ca57b09bfffffff6062557001c35fedd14b861eb0443f7f133fffffff6063557001b0ce43b322bcde4a56e8ada5afffffff60645570019f0028ec1fff007f5a195a39dfffffff60655570018ded91f0e72ee74f49b15ba527ffffff60665570017d8ec7f04136f4e5615fd41a63ffffff60675570016ddc6556cdb84bdc8d12d22e6fffffff60685570015ecf52776a1155b5bd8395814f7fffff60695570015060c256cb23b3b3cc3754cf40ffffff606a557001428a2f98d728ae223ddab715be3fffff606b5570013545598e5c23276ccf0ede68034fffff606c557001288c4161ce1d6f54b7f61081194fffff606d5570011c592761c666aa641d5a01a40f17ffff606e55700110a688680a7530515f3e6e6cfdcdffff606f557001056f1b5bedf75c6bcb2ce8aed428ffff6070556ffaadceceeff8a0890f3875f008277fff6071556ff05dc6b27edad306388a600f6ba0bfff6072556fe67a5a25da41063de1495d5b18cdbfff6073556fdcff115b14eedde6fc3aa5353f2e4fff6074556fd3e7a3924312399f9aae2e0f868f8fff6075556fcb2ff529eb71e41582cccd5a1ee26fff6076556fc2d415c3db974ab32a51840c0b67edff6077556fbad03e7d883f69ad5b0a186184e06bff6078556fb320d03b2c343d4829abd6075f0cc5ff6079556fabc25204e02828d73c6e80bcdb1a95bf607a556fa4b16f74ee4bb2040a1ec6c15fbbf2df607b556f9deaf736ac1f569deb1b5ae3f36c130f607c556f976bd9952c7aa957f5937d790ef65037607d556f9131271922eaa6064b73a22d0bd4f2bf607e556f8b380f3558668c46c91c49a2f8e967b9607f556f857ddf0117efa215952912839f6473e6608055620008d3565b634e487b7160e01b600052604160045260246000fd5b600181811c908216806200078d57607f821691505b602082108103620007ae57634e487b7160e01b600052602260045260246000fd5b50919050565b601f8211156200080257600081815260208120601f850160051c81016020861015620007dd5750805b601f850160051c820191505b81811015620007fe57828155600101620007e9565b5050505b505050565b81516001600160401b0381111562000823576200082362000762565b6200083b8162000834845462000778565b84620007b4565b602080601f8311600181146200087357600084156200085a5750858301515b600019600386901b1c1916600185901b178555620007fe565b600085815260208120601f198616915b82811015620008a45788860151825594840194600190910190840162000883565b5085821015620008c35787850151600019600388901b60f8161c191681555b5050505050600190811b01905550565b61363180620008e36000396000f3fe60806040526004361061019c5760003560e01c806354fd4d50116100ec578063a9059cbb1161008a578063c816841b11610064578063c816841b14610486578063d04c6983146104a6578063d4d5d32a146104c6578063dd62ed3e146104db57600080fd5b8063a9059cbb14610430578063c45a015514610450578063c5c4744c1461047057600080fd5b80637deb6025116100c65780637deb6025146103c55780638d662ee3146103d857806395d89b411461040557806396365d441461041a57600080fd5b806354fd4d501461037057806370a0823114610385578063745dae42146103a557600080fd5b806318160ddd11610159578063313ce56711610133578063313ce567146102fe57806338df61fd1461031a57806349f9b0f71461033a5780634c68df671461035a57600080fd5b806318160ddd1461029c57806323b872dd146102be57806329a00e7c146102de57600080fd5b806306fdde03146101a1578063095ea7b3146101cc57806309c773b1146101fc5780630c7d5cd8146102205780630f560cd7146102525780631694505e1461025c575b600080fd5b3480156101ad57600080fd5b506101b66104fb565b6040516101c39190612f75565b60405180910390f35b3480156101d857600080fd5b506101ec6101e7366004612fd8565b6105be565b60405190151581526020016101c3565b34801561020857600080fd5b5061021260865481565b6040519081526020016101c3565b34801561022c57600080fd5b5060825461023d9063ffffffff1681565b60405163ffffffff90911681526020016101c3565b61025a6105d8565b005b34801561026857600080fd5b506082546102849064010000000090046001600160a01b031681565b6040516001600160a01b0390911681526020016101c3565b3480156102a857600080fd5b506000805160206135dc83398151915254610212565b3480156102ca57600080fd5b506101ec6102d9366004613004565b610a35565b3480156102ea57600080fd5b506102126102f936600461305e565b610a5b565b34801561030a57600080fd5b50604051601281526020016101c3565b34801561032657600080fd5b5061025a61033536600461313e565b610b20565b34801561034657600080fd5b5061021261035536600461305e565b610c82565b34801561036657600080fd5b5061021260855481565b34801561037c57600080fd5b506101b6610d65565b34801561039157600080fd5b506102126103a03660046131d8565b610df3565b3480156103b157600080fd5b5061025a6103c03660046131f5565b610e1b565b61025a6103d336600461320e565b610f67565b3480156103e457600080fd5b506102126103f33660046131d8565b60886020526000908152604090205481565b34801561041157600080fd5b506101b6610fe5565b34801561042657600080fd5b5061021260815481565b34801561043c57600080fd5b506101ec61044b366004612fd8565b611024565b34801561045c57600080fd5b50608754610284906001600160a01b031681565b34801561047c57600080fd5b5061021260845481565b34801561049257600080fd5b50608354610284906001600160a01b031681565b3480156104b257600080fd5b5061025a6104c136600461323e565b611032565b3480156104d257600080fd5b5061025a611200565b3480156104e757600080fd5b506102126104f6366004613277565b6112ca565b7f52c63247e1f47db19d5ce0460030c497f067ca4cebf71ba98eeadabe20bace0380546060916000805160206135bc8339815191529161053a906132a5565b80601f0160208091040260200160405190810160405280929190818152602001828054610566906132a5565b80156105b35780601f10610588576101008083540402835291602001916105b3565b820191906000526020600020905b81548152906001019060200180831161059657829003601f168201915b505050505091505090565b6000336105cc818585611314565b60019150505b92915050565b608754600160a01b900460ff1661060a5760405162461bcd60e51b8152600401610601906132df565b60405180910390fd5b67016345785d8a000034146106585760405162461bcd60e51b81526020600482015260146024820152734d75737420706179206c697374696e672066656560601b6044820152606401610601565b67d02ab486cedc000060845410156106c75760405162461bcd60e51b815260206004820152602c60248201527f546f74616c20726169736564206d757374207061737320746865206c6973746960448201526b1b99c81d1a1c995cda1bdb1960a21b6064820152608401610601565b6000608260049054906101000a90046001600160a01b03166001600160a01b031663c45a01556040518163ffffffff1660e01b8152600401602060405180830381865afa15801561071c573d6000803e3d6000fd5b505050506040513d601f19601f820116820180604052508101906107409190613327565b90506000608260049054906101000a90046001600160a01b03166001600160a01b031663ad5c46486040518163ffffffff1660e01b8152600401602060405180830381865afa158015610797573d6000803e3d6000fd5b505050506040513d601f19601f820116820180604052508101906107bb9190613327565b6040516364e329cb60e11b81523060048201526001600160a01b0380831660248301529192509083169063c9c65396906044016020604051808303816000875af115801561080d573d6000803e3d6000fd5b505050506040513d601f19601f820116820180604052508101906108319190613327565b608380546001600160a01b0319166001600160a01b0392909216919091179055600061087f61086c6000805160206135dc8339815191525490565b608454676124fee993bc00009190611321565b608354909150610898906001600160a01b0316826113dc565b816001600160a01b031663d0e30db0676124fee993bc00006040518263ffffffff1660e01b81526004016000604051808303818588803b1580156108db57600080fd5b505af11580156108ef573d6000803e3d6000fd5b505060835460405163a9059cbb60e01b81526001600160a01b039182166004820152676124fee993bc00006024820152908616935063a9059cbb925060440190506020604051808303816000875af115801561094f573d6000803e3d6000fd5b505050506040513d601f19601f820116820180604052508101906109739190613344565b61097f5761097f613366565b6083546040516335313c2160e11b81526001600160a01b03858116600483015290911690636a627842906024016020604051808303816000875af11580156109cb573d6000803e3d6000fd5b505050506040513d601f19601f820116820180604052508101906109ef919061337c565b506087805460ff60a01b191690556040518181527fdd11eaf2db1c16b640194c05b02faa4b8bc4abf29c61428e990e72c6c15cff779060200160405180910390a1505050565b600033610a43858285611416565b610a4e85858561147c565b60019150505b9392505050565b60008085118015610a6c5750600084115b8015610a7e575060008363ffffffff16115b8015610a935750620f424063ffffffff841611155b610a9c57600080fd5b81600003610aac57506000610b18565b620f423f1963ffffffff841601610acf57610ac8858386611321565b9050610b18565b60008080610add87866133ab565b9050610aee818888620f42406114db565b9093509150600060ff8316610b03858b6133be565b901c9050610b1189826133d5565b9450505050505b949350505050565b7ff0c57e16840df040f15088dc2f81fe391c3923bec73e23a9662efc9c229c6a008054600160401b810460ff16159067ffffffffffffffff16600081158015610b665750825b905060008267ffffffffffffffff166001148015610b835750303b155b905081158015610b91575080155b15610baf5760405163f92ee8a960e01b815260040160405180910390fd5b845467ffffffffffffffff191660011785558315610bd957845460ff60401b1916600160401b1785555b610be38a8a61161b565b60878054608280546001600160a81b03199092166001600160a01b03808d1691909117600160a01b17909355918916640100000000026001600160c01b031990911663ffffffff8916171790558315610c7657845460ff60401b19168555604051600181527fc7f505b2f371ae2175ee4913f4499e1f2633a7b5936321eed1cdaeb6115181d29060200160405180910390a15b50505050505050505050565b60008085118015610c935750600084115b8015610ca5575060008363ffffffff16115b8015610cba5750620f424063ffffffff841611155b8015610cc65750848211155b610ccf57600080fd5b81600003610cdf57506000610b18565b848203610ced575082610b18565b620f423f1963ffffffff841601610d0957610ac8848387611321565b60008080610d1785896133d5565b9050610d288882620f4240896114db565b90935091506000610d3984896133be565b905060ff831688901b84610d4d82846133d5565b610d5791906133fe565b9a9950505050505050505050565b60008054610d72906132a5565b80601f0160208091040260200160405190810160405280929190818152602001828054610d9e906132a5565b8015610deb5780601f10610dc057610100808354040283529160200191610deb565b820191906000526020600020905b815481529060010190602001808311610dce57829003601f168201915b505050505081565b6001600160a01b031660009081526000805160206135bc833981519152602052604090205490565b608754600160a01b900460ff16610e445760405162461bcd60e51b8152600401610601906132df565b3360008181526088602052604081205491610e759084908490610e6690610df3565b610e7091906133d5565b61162d565b9050610e8181836133ab565b33600090815260886020526040902055608654610e9f9082906133ab565b60865560405181815233907f38ed2b0a6fac1bede304be559828c18972af2743a8d0bc246990852c1247efdf9060200160405180910390a2608654610f0f6113ec620186a0610f08610efd6000805160206135dc8339815191525490565b633b9aca009061163d565b9190611321565b11610f6257610f206085543061165e565b507fd30f7a63ab898434aa3f87d8119ad5761a566c84836ab12f6c2c4dd7a7b01275608554604051610f5491815260200190565b60405180910390a160006085555b505050565b608754600160a01b900460ff16610f905760405162461bcd60e51b8152600401610601906132df565b6000610f9c348361165e565b905082811015610f625760405162461bcd60e51b8152602060048201526014602482015273105b5bdd5b9d081bdd5d081d1bdbc81cdb585b1b60621b6044820152606401610601565b7f52c63247e1f47db19d5ce0460030c497f067ca4cebf71ba98eeadabe20bace0480546060916000805160206135bc8339815191529161053a906132a5565b6000336105cc81858561147c565b608754600160a01b900460ff1661105b5760405162461bcd60e51b8152600401610601906132df565b3360009081526088602052604081205490611076858361162d565b905061108281836133d5565b336000908152608860205260409020556086546110a09082906133d5565b60865560006110af338761171f565b905060006110bc82611792565b92505050858110156111075760405162461bcd60e51b8152602060048201526014602482015273105b5bdd5b9d081bdd5d081d1bdbc81cdb585b1b60621b6044820152606401610601565b8060845461111591906133d5565b6084556040516000906001600160a01b0387169083908381818185875af1925050503d8060008114611163576040519150601f19603f3d011682016040523d82523d6000602084013e611168565b606091505b50509050806111b25760405162461bcd60e51b81526020600482015260166024820152754661696c656420746f2072656465656d2066756e647360501b6044820152606401610601565b60408051898152602081018490526001600160a01b038816917fed7a144fad14804d5c249145e3e0e2b63a9eb455b76aee5bc92d711e9bba3e4a910160405180910390a25050505050505050565b6087546084546085546000926001600160a01b0316919061122190476133d5565b61122b91906133d5565b604051600081818185875af1925050503d8060008114611267576040519150601f19603f3d011682016040523d82523d6000602084013e61126c565b606091505b50509050806112c75760405162461bcd60e51b815260206004820152602160248201527f4661696c656420746f2073656e642066656520746f2074686520666163746f726044820152607960f81b6064820152608401610601565b50565b6001600160a01b0391821660009081527f52c63247e1f47db19d5ce0460030c497f067ca4cebf71ba98eeadabe20bace016020908152604080832093909416825291909152205490565b610f6283838360016117e8565b60008383028160001985870982811083820303915050806000036113585783828161134e5761134e6133e8565b0492505050610a54565b80841161136f5761136f60038515026011186118d0565b6000848688096000868103871696879004966002600389028118808a02820302808a02820302808a02820302808a02820302808a02820302808a02909103029181900381900460010186841190950394909402919094039290920491909117919091029150509392505050565b6001600160a01b0382166114065760405163ec442f0560e01b815260006004820152602401610601565b611412600083836118e2565b5050565b600061142284846112ca565b90506000198114611476578181101561146757604051637dc7a0d960e11b81526001600160a01b03841660048201526024810182905260448101839052606401610601565b611476848484840360006117e8565b50505050565b6001600160a01b0383166114a657604051634b637e8f60e11b815260006004820152602401610601565b6001600160a01b0382166114d05760405163ec442f0560e01b815260006004820152602401610601565b610f628383836118e2565b600080600160811b86106114f1576114f1613366565b848610156115415760405162461bcd60e51b815260206004820152601c60248201527f4261736573203c203120617265206e6f7420737570706f727465642e000000006044820152606401610601565b600080866115536001607f1b8a6133be565b61155d91906133fe565b905070015bf0a8b1457695355fb8ac404e7a79e38110156115885761158181611a20565b9150611594565b61159181611f99565b91505b60008563ffffffff168763ffffffff16846115af91906133be565b6115b991906133fe565b9050600160831b8110156115de576115d081612088565b607f94509450505050611612565b60006115e9826126b3565b90506116056115f982607f613412565b60ff1683901c82612778565b9550935061161292505050565b94509492505050565b611623612ddf565b6114128282612e2a565b6000828218828410028218610a54565b60008183106116555761165082846133d5565b610a54565b50600092915050565b60008083116116a55760405162461bcd60e51b8152602060048201526013602482015272105b5bdd5b9d081a5b881d1bdbc81cdb585b1b606a1b6044820152606401610601565b60006116b084611792565b9250505060006116c08285612e7b565b9050816084546116d091906133ab565b60845560408051838152602081018390526001600160a01b038616917f1cbc5ab135991bd2b6a4b034a04aa2aa086dac1371cb9b16b8b5e2ed6b036bed910160405180910390a2949350505050565b6000808211801561173857508161173584610df3565b10155b61174157600080fd5b600061176e61175c6000805160206135dc8339815191525490565b60815460825463ffffffff1686610c82565b905061177a8484612ed0565b8060815461178891906133d5565b6081559392505050565b600080806117a6846101f4620186a0611321565b92506117b7846064620186a0611321565b9150816117c484866133d5565b6117ce91906133d5565b9050826085546117de91906133ab565b6085559193909250565b6000805160206135bc8339815191526001600160a01b0385166118215760405163e602df0560e01b815260006004820152602401610601565b6001600160a01b03841661184b57604051634a1406b160e11b815260006004820152602401610601565b6001600160a01b038086166000908152600183016020908152604080832093881683529290522083905581156118c957836001600160a01b0316856001600160a01b03167f8c5be1e5ebec7d5bd14f71427d1e84f3dd0314c0f7b2291e5b200ac8c7c3b925856040516118c091815260200190565b60405180910390a35b5050505050565b634e487b71600052806020526024601cfd5b6000805160206135bc8339815191526001600160a01b03841661191e578181600201600082825461191391906133ab565b909155506119909050565b6001600160a01b038416600090815260208290526040902054828110156119715760405163391434e360e21b81526001600160a01b03861660048201526024810182905260448101849052606401610601565b6001600160a01b03851660009081526020839052604090209083900390555b6001600160a01b0383166119ae5760028101805483900390556119cd565b6001600160a01b03831660009081526020829052604090208054830190555b826001600160a01b0316846001600160a01b03167fddf252ad1be2c89b69c2b068fc378daa952ba7f163c4a11628f55a4df523b3ef84604051611a1291815260200190565b60405180910390a350505050565b6000808080806fd3094c70f034de4b96ff7d5b6f99fcd88610611a7957611a4b6001607e1b856133ab565b93506fd3094c70f034de4b96ff7d5b6f99fcd8611a6c6001607f1b886133be565b611a7691906133fe565b95505b6fa45af1e1f40c333b3de1db4dd55f29a78610611acc57611a9e6001607d1b856133ab565b93506fa45af1e1f40c333b3de1db4dd55f29a7611abf6001607f1b886133be565b611ac991906133fe565b95505b6f910b022db7ae67ce76b441c27035c6a18610611b1f57611af16001607c1b856133ab565b93506f910b022db7ae67ce76b441c27035c6a1611b126001607f1b886133be565b611b1c91906133fe565b95505b6f88415abbe9a76bead8d00cf112e4d4a88610611b7257611b446001607b1b856133ab565b93506f88415abbe9a76bead8d00cf112e4d4a8611b656001607f1b886133be565b611b6f91906133fe565b95505b6f84102b00893f64c705e841d5d4064bd38610611bc557611b976001607a1b856133ab565b93506f84102b00893f64c705e841d5d4064bd3611bb86001607f1b886133be565b611bc291906133fe565b95505b6f8204055aaef1c8bd5c3259f4822735a28610611c1857611bea600160791b856133ab565b93506f8204055aaef1c8bd5c3259f4822735a2611c0b6001607f1b886133be565b611c1591906133fe565b95505b6f810100ab00222d861931c15e39b44e998610611c6b57611c3d600160781b856133ab565b93506f810100ab00222d861931c15e39b44e99611c5e6001607f1b886133be565b611c6891906133fe565b95505b6f808040155aabbbe9451521693554f7338610611cbe57611c90600160771b856133ab565b93506f808040155aabbbe9451521693554f733611cb16001607f1b886133be565b611cbb91906133fe565b95505b611ccc6001607f1b876133d5565b92508291506001607f1b611ce083806133be565b611cea91906133fe565b9050600160801b611cfb84826133d5565b611d0590846133be565b611d0f91906133fe565b611d1990856133ab565b93506001607f1b611d2a82846133be565b611d3491906133fe565b9150600160811b611d55846faaaaaaaaaaaaaaaaaaaaaaaaaaaaaaaa6133d5565b611d5f90846133be565b611d6991906133fe565b611d7390856133ab565b93506001607f1b611d8482846133be565b611d8e91906133fe565b9150600360801b611daf846f999999999999999999999999999999996133d5565b611db990846133be565b611dc391906133fe565b611dcd90856133ab565b93506001607f1b611dde82846133be565b611de891906133fe565b9150600160821b611e09846f924924924924924924924924924924926133d5565b611e1390846133be565b611e1d91906133fe565b611e2790856133ab565b93506001607f1b611e3882846133be565b611e4291906133fe565b9150600560801b611e63846f8e38e38e38e38e38e38e38e38e38e38e6133d5565b611e6d90846133be565b611e7791906133fe565b611e8190856133ab565b93506001607f1b611e9282846133be565b611e9c91906133fe565b9150600360811b611ebd846f8ba2e8ba2e8ba2e8ba2e8ba2e8ba2e8b6133d5565b611ec790846133be565b611ed191906133fe565b611edb90856133ab565b93506001607f1b611eec82846133be565b611ef691906133fe565b9150600760801b611f17846f89d89d89d89d89d89d89d89d89d89d896133d5565b611f2190846133be565b611f2b91906133fe565b611f3590856133ab565b93506001607f1b611f4682846133be565b611f5091906133fe565b9150600160831b611f71846f888888888888888888888888888888886133d5565b611f7b90846133be565b611f8591906133fe565b611f8f90856133ab565b9695505050505050565b60008082600160801b8110611fde576000611fc0611fbb6001607f1b846133fe565b612f06565b60ff811692831c92909150611fda906001607f1b906133be565b9250505b6001607f1b81111561205357607f5b60ff811615612051576001607f1b61200583806133be565b61200f91906133fe565b9150600160801b821061204157600191821c9161202c9082613412565b60ff166001901b8361203e91906133ab565b92505b61204a8161342b565b9050611fed565b505b6f05b9de1d10bf4103d647b0955897ba8061207e6f03f80fe03f80fe03f80fe03f80fe03f8846133be565b610b1891906133fe565b600080808061209b6001607c1b86613448565b91508190506001607f1b6120af82806133be565b6120b991906133fe565b90506120cd816710e1b3be415a00006133be565b6120d790846133ab565b92506001607f1b6120e883836133be565b6120f291906133fe565b9050612106816705a0913f6b1e00006133be565b61211090846133ab565b92506001607f1b61212183836133be565b61212b91906133fe565b905061213f81670168244fdac780006133be565b61214990846133ab565b92506001607f1b61215a83836133be565b61216491906133fe565b905061217781664807432bc180006133be565b61218190846133ab565b92506001607f1b61219283836133be565b61219c91906133fe565b90506121af81660c0135dca040006133be565b6121b990846133ab565b92506001607f1b6121ca83836133be565b6121d491906133fe565b90506121e7816601b707b1cdc0006133be565b6121f190846133ab565b92506001607f1b61220283836133be565b61220c91906133fe565b905061221e816536e0f639b8006133be565b61222890846133ab565b92506001607f1b61223983836133be565b61224391906133fe565b905061225581650618fee9f8006133be565b61225f90846133ab565b92506001607f1b61227083836133be565b61227a91906133fe565b905061228b81649c197dcc006133be565b61229590846133ab565b92506001607f1b6122a683836133be565b6122b091906133fe565b90506122c181640e30dce4006133be565b6122cb90846133ab565b92506001607f1b6122dc83836133be565b6122e691906133fe565b90506122f78164012ebd13006133be565b61230190846133ab565b92506001607f1b61231283836133be565b61231c91906133fe565b905061232c816317499f006133be565b61233690846133ab565b92506001607f1b61234783836133be565b61235191906133fe565b9050612361816301a9d4806133be565b61236b90846133ab565b92506001607f1b61237c83836133be565b61238691906133fe565b905061239581621c63806133be565b61239f90846133ab565b92506001607f1b6123b083836133be565b6123ba91906133fe565b90506123c9816201c6386133be565b6123d390846133ab565b92506001607f1b6123e483836133be565b6123ee91906133fe565b90506123fc81611ab86133be565b61240690846133ab565b92506001607f1b61241783836133be565b61242191906133fe565b905061242f8161017c6133be565b61243990846133ab565b92506001607f1b61244a83836133be565b61245491906133fe565b90506124618160146133be565b61246b90846133ab565b92506001607f1b61247c83836133be565b61248691906133fe565b90506124938160016133be565b61249d90846133ab565b92506001607f1b826124b76721c3677c82b40000866133fe565b6124c191906133ab565b6124cb91906133ab565b92506001607c1b8516156125135770018ebef9eac820ae8682b9793ac6d1e776612506847001c3d6a24ed82218787d624d3e5eba95f96133be565b61251091906133fe565b92505b6001607d1b851615612559577001368b2fc6f9609fe7aceb46aa619baed461254c8470018ebef9eac820ae8682b9793ac6d1e7786133be565b61255691906133fe565b92505b6001607e1b85161561259e576fbc5ab1b16779be3575bd8f0520a9f21f612591847001368b2fc6f9609fe7aceb46aa619baed56133be565b61259b91906133fe565b92505b6001607f1b8516156125e2576f454aaa8efe072e7f6ddbab84b40a55c96125d5846fbc5ab1b16779be3575bd8f0520a9f21e6133be565b6125df91906133fe565b92505b600160801b851615612626576f0960aadc109e7a3bf4578099615711ea612619846f454aaa8efe072e7f6ddbab84b40a55c56133be565b61262391906133fe565b92505b600160811b851615612669576e2bf84208204f5977f9a8cf01fdce3d61265c846f0960aadc109e7a3bf4578099615711d76133be565b61266691906133fe565b92505b600160821b8516156126aa576d03c6ab775dd0b95b4cbee7e65d1161269d846e2bf84208204f5977f9a8cf01fdc3076133be565b6126a791906133fe565b92505b50909392505050565b60006020607f5b60ff81166126c983600161345c565b60ff16101561271c57600060026126e0838561345c565b6126ea9190613475565b90508460018260ff166080811061270357612703613497565b01541061271257809250612716565b8091505b506126ba565b8360018260ff166080811061273357612733613497565b015410612741579392505050565b8360018360ff166080811061275857612758613497565b015410612766575092915050565b61276e613366565b5060009392505050565b6000828160ff841661278a83806133be565b901c91506127a8826f03442c4e6074a82f1797f72ac00000006133be565b6127b290826133ab565b905060ff84166127c286846133be565b901c91506127e0826f0116b96f757c380fb287fd0e400000006133be565b6127ea90826133ab565b905060ff84166127fa86846133be565b901c9150612817826e45ae5bdd5f0e03eca1ff43900000006133be565b61282190826133ab565b905060ff841661283186846133be565b901c915061284e826e0defabf91302cd95b9ffda500000006133be565b61285890826133ab565b905060ff841661286886846133be565b901c9150612885826e02529ca9832b22439efff9b80000006133be565b61288f90826133ab565b905060ff841661289f86846133be565b901c91506128bb826d54f1cf12bd04e516b6da880000006133be565b6128c590826133ab565b905060ff84166128d586846133be565b901c91506128f1826d0a9e39e257a09ca2d6db510000006133be565b6128fb90826133ab565b905060ff841661290b86846133be565b901c9150612927826d012e066e7b839fa050c3090000006133be565b61293190826133ab565b905060ff841661294186846133be565b901c915061295c826c1e33d7d926c329a1ad1a8000006133be565b61296690826133ab565b905060ff841661297686846133be565b901c9150612991826c02bee513bdb4a6b19b5f8000006133be565b61299b90826133ab565b905060ff84166129ab86846133be565b901c91506129c5826b3a9316fa79b88eccf2a000006133be565b6129cf90826133ab565b905060ff84166129df86846133be565b901c91506129f9826b048177ebe1fa8123752000006133be565b612a0390826133ab565b905060ff8416612a1386846133be565b901c9150612a2c826a5263fe90242dcbacf000006133be565b612a3690826133ab565b905060ff8416612a4686846133be565b901c9150612a5f826a057e22099c030d941000006133be565b612a6990826133ab565b905060ff8416612a7986846133be565b901c9150612a91826957e22099c030d94100006133be565b612a9b90826133ab565b905060ff8416612aab86846133be565b901c9150612ac38269052b6b545699763100006133be565b612acd90826133ab565b905060ff8416612add86846133be565b901c9150612af482684985f67696bf7480006133be565b612afe90826133ab565b905060ff8416612b0e86846133be565b901c9150612b25826803dea12ea99e4980006133be565b612b2f90826133ab565b905060ff8416612b3f86846133be565b901c9150612b55826731880f2214b6e0006133be565b612b5f90826133ab565b905060ff8416612b6f86846133be565b901c9150612b858267025bcff56eb360006133be565b612b8f90826133ab565b905060ff8416612b9f86846133be565b901c9150612bb482661b722e10ab10006133be565b612bbe90826133ab565b905060ff8416612bce86846133be565b901c9150612be3826601317c700770006133be565b612bed90826133ab565b905060ff8416612bfd86846133be565b901c9150612c1182650cba84aafa006133be565b612c1b90826133ab565b905060ff8416612c2b86846133be565b901c9150612c3e826482573a0a006133be565b612c4890826133ab565b905060ff8416612c5886846133be565b901c9150612c6b826405035ad9006133be565b612c7590826133ab565b905060ff8416612c8586846133be565b901c9150612c9782632f881b006133be565b612ca190826133ab565b905060ff8416612cb186846133be565b901c9150612cc3826301b293406133be565b612ccd90826133ab565b905060ff8416612cdd86846133be565b901c9150612cee82620efc406133be565b612cf890826133ab565b905060ff8416612d0886846133be565b901c9150612d1882617fe06133be565b612d2290826133ab565b905060ff8416612d3286846133be565b901c9150612d42826104206133be565b612d4c90826133ab565b905060ff8416612d5c86846133be565b901c9150612d6b8260216133be565b612d7590826133ab565b905060ff8416612d8586846133be565b901c9150612d948260016133be565b612d9e90826133ab565b9050600160ff85161b85612dc26f0688589cc0e9505e2f2fee5580000000846133fe565b612dcc91906133ab565b612dd691906133ab565b95945050505050565b7ff0c57e16840df040f15088dc2f81fe391c3923bec73e23a9662efc9c229c6a0054600160401b900460ff16612e2857604051631afcd79f60e31b815260040160405180910390fd5b565b612e32612ddf565b6000805160206135bc8339815191527f52c63247e1f47db19d5ce0460030c497f067ca4cebf71ba98eeadabe20bace03612e6c84826134fb565b506004810161147683826134fb565b6000808311612e8957600080fd5b6000612eb6612ea46000805160206135dc8339815191525490565b60815460825463ffffffff1687610a5b565b9050612ec283826113dc565b8360815461178891906133ab565b6001600160a01b038216612efa57604051634b637e8f60e11b815260006004820152602401610601565b611412826000836118e2565b60008082610100811015612f3a575b6001811115612f3557600190811c90612f2e908361345c565b9150612f15565b612f6e565b60805b60ff811615612f6c57600160ff82161b8210612f61579182179160ff81169190911c905b60011c607f16612f3d565b505b5092915050565b600060208083528351808285015260005b81811015612fa257858101830151858201604001528201612f86565b506000604082860101526040601f19601f8301168501019250505092915050565b6001600160a01b03811681146112c757600080fd5b60008060408385031215612feb57600080fd5b8235612ff681612fc3565b946020939093013593505050565b60008060006060848603121561301957600080fd5b833561302481612fc3565b9250602084013561303481612fc3565b929592945050506040919091013590565b803563ffffffff8116811461305957600080fd5b919050565b6000806000806080858703121561307457600080fd5b843593506020850135925061308b60408601613045565b9396929550929360600135925050565b634e487b7160e01b600052604160045260246000fd5b600082601f8301126130c257600080fd5b813567ffffffffffffffff808211156130dd576130dd61309b565b604051601f8301601f19908116603f011681019082821181831017156131055761310561309b565b8160405283815286602085880101111561311e57600080fd5b836020870160208301376000602085830101528094505050505092915050565b600080600080600060a0868803121561315657600080fd5b853567ffffffffffffffff8082111561316e57600080fd5b61317a89838a016130b1565b9650602088013591508082111561319057600080fd5b5061319d888289016130b1565b94505060408601356131ae81612fc3565b925060608601356131be81612fc3565b91506131cc60808701613045565b90509295509295909350565b6000602082840312156131ea57600080fd5b8135610a5481612fc3565b60006020828403121561320757600080fd5b5035919050565b6000806040838503121561322157600080fd5b82359150602083013561323381612fc3565b809150509250929050565b60008060006060848603121561325357600080fd5b8335925060208401359150604084013561326c81612fc3565b809150509250925092565b6000806040838503121561328a57600080fd5b823561329581612fc3565b9150602083013561323381612fc3565b600181811c908216806132b957607f821691505b6020821081036132d957634e487b7160e01b600052602260045260246000fd5b50919050565b60208082526028908201527f5468697320616374696f6e206973206f6e20616c6c6f776564207768656e206c60408201526761756e6368696e6760c01b606082015260800190565b60006020828403121561333957600080fd5b8151610a5481612fc3565b60006020828403121561335657600080fd5b81518015158114610a5457600080fd5b634e487b7160e01b600052600160045260246000fd5b60006020828403121561338e57600080fd5b5051919050565b634e487b7160e01b600052601160045260246000fd5b808201808211156105d2576105d2613395565b80820281158282048414176105d2576105d2613395565b818103818111156105d2576105d2613395565b634e487b7160e01b600052601260045260246000fd5b60008261340d5761340d6133e8565b500490565b60ff82811682821603908111156105d2576105d2613395565b600060ff82168061343e5761343e613395565b6000190192915050565b600082613457576134576133e8565b500690565b60ff81811683821601908111156105d2576105d2613395565b600060ff831680613488576134886133e8565b8060ff84160491505092915050565b634e487b7160e01b600052603260045260246000fd5b601f821115610f6257600081815260208120601f850160051c810160208610156134d45750805b601f850160051c820191505b818110156134f3578281556001016134e0565b505050505050565b815167ffffffffffffffff8111156135155761351561309b565b6135298161352384546132a5565b846134ad565b602080601f83116001811461355e57600084156135465750858301515b600019600386901b1c1916600185901b1785556134f3565b600085815260208120601f198616915b8281101561358d5788860151825594840194600190910190840161356e565b50858210156135ab5787850151600019600388901b60f8161c191681555b5050505050600190811b0190555056fe52c63247e1f47db19d5ce0460030c497f067ca4cebf71ba98eeadabe20bace0052c63247e1f47db19d5ce0460030c497f067ca4cebf71ba98eeadabe20bace02a2646970667358221220af22f9f98e0f34c085e15e41aa417f39a723ea0a84ca1424c24d061a592ed13d64736f6c63430008140033a2646970667358221220c82b9437dab03e2731eab8d41591e305c7cc80a5a7678ad4de94c9734c69d12264736f6c63430008140033","linkReferences":{}},"methodIdentifiers":{"collectFee()":"d4d5d32a","createPumpToken(string,string,uint32)":"9743372a","deployedTokens(uint256)":"ec81aadb","owner()":"8da5cb5b","renounceOwnership()":"715018a6","transferOwnership(address)":"f2fde38b","uniswapV2Router()":"1694505e"},"id":15}