{"abi":[{"type":"constructor","inputs":[{"name":"uniswapV2Router_","type":"address","internalType":"address"},{"name":"pumpImplementation_","type":"address","internalType":"address"}],"stateMutability":"nonpayable"},{"type":"function","name":"createPumpToken","inputs":[{"name":"name","type":"string","internalType":"string"},{"name":"symbol","type":"string","internalType":"string"},{"name":"reserveRatio","type":"uint32","internalType":"uint32"}],"outputs":[],"stateMutability":"nonpayable"},{"type":"function","name":"deployedTokens","inputs":[{"name":"","type":"uint256","internalType":"uint256"}],"outputs":[{"name":"","type":"address","internalType":"contract ERC1967Proxy"}],"stateMutability":"view"},{"type":"function","name":"isDeployedToken","inputs":[{"name":"tokenProxy","type":"address","internalType":"address"}],"outputs":[{"name":"","type":"bool","internalType":"bool"}],"stateMutability":"view"},{"type":"function","name":"owner","inputs":[],"outputs":[{"name":"","type":"address","internalType":"address"}],"stateMutability":"view"},{"type":"function","name":"pumpImplementation","inputs":[],"outputs":[{"name":"","type":"address","internalType":"address"}],"stateMutability":"view"},{"type":"function","name":"renounceOwnership","inputs":[],"outputs":[],"stateMutability":"nonpayable"},{"type":"function","name":"transferOwnership","inputs":[{"name":"newOwner","type":"address","internalType":"address"}],"outputs":[],"stateMutability":"nonpayable"},{"type":"function","name":"uniswapV2Router","inputs":[],"outputs":[{"name":"","type":"address","internalType":"address"}],"stateMutability":"view"},{"type":"function","name":"updatePumpImplementation","inputs":[{"name":"newImplementation","type":"address","internalType":"address"}],"outputs":[],"stateMutability":"nonpayable"},{"type":"event","name":"OwnershipTransferred","inputs":[{"name":"previousOwner","type":"address","indexed":true,"internalType":"address"},{"name":"newOwner","type":"address","indexed":true,"internalType":"address"}],"anonymous":false},{"type":"event","name":"PumpImplementationUpdated","inputs":[{"name":"newImplementation","type":"address","indexed":false,"internalType":"address"}],"anonymous":false},{"type":"event","name":"PumpTokenCreated","inputs":[{"name":"tokenAddress","type":"address","indexed":false,"internalType":"address"},{"name":"owner","type":"address","indexed":true,"internalType":"address"}],"anonymous":false},{"type":"error","name":"OwnableInvalidOwner","inputs":[{"name":"owner","type":"address","internalType":"address"}]},{"type":"error","name":"OwnableUnauthorizedAccount","inputs":[{"name":"account","type":"address","internalType":"address"}]}],"bytecode":{"object":"0x608060405234801561000f575f5ffd5b50604051610be1380380610be183398101604081905261002e916100f8565b338061005357604051631e4fbdf760e01b81525f600482015260240160405180910390fd5b61005c8161008e565b50600280546001600160a01b039384166001600160a01b03199182161790915560038054929093169116179055610129565b5f80546001600160a01b038381166001600160a01b0319831681178455604051919092169283917f8be0079c531659141344cd1fd0a4f28419497f9722a3daafe3b4186f6b6457e09190a35050565b80516001600160a01b03811681146100f3575f5ffd5b919050565b5f5f60408385031215610109575f5ffd5b610112836100dd565b9150610120602084016100dd565b90509250929050565b610aab806101365f395ff3fe608060405234801561000f575f5ffd5b5060043610610090575f3560e01c8063715018a611610063578063715018a61461010f5780638da5cb5b146101175780639743372a14610127578063ec81aadb1461013a578063f2fde38b1461014d575f5ffd5b80631694505e146100945780634c1c7ddf146100c45780636456928b146100e75780636bdf00b9146100fc575b5f5ffd5b6002546100a7906001600160a01b031681565b6040516001600160a01b0390911681526020015b60405180910390f35b6100d76100d2366004610481565b610160565b60405190151581526020016100bb565b6100fa6100f5366004610481565b6101bc565b005b6003546100a7906001600160a01b031681565b6100fa610265565b5f546001600160a01b03166100a7565b6100fa61013536600461054d565b610278565b6100a76101483660046105cd565b610394565b6100fa61015b366004610481565b6103bc565b5f805b6001548110156101b457826001600160a01b03166001828154811061018a5761018a6105e4565b5f918252602090912001546001600160a01b0316036101ac5750600192915050565b600101610163565b505f92915050565b6101c46103f9565b6001600160a01b0381166102115760405162461bcd60e51b815260206004820152600f60248201526e496e76616c6964206164647265737360881b60448201526064015b60405180910390fd5b600380546001600160a01b0319166001600160a01b0383169081179091556040519081527fef443a4e5303ed875f46ac3af635b84080e62f02b6173708765586401381f18c9060200160405180910390a150565b61026d6103f9565b6102765f610425565b565b6003546002546040515f926001600160a01b03908116926338df61fd926102ad92899289923092909116908990602401610626565b6040516020818303038152906040529060e01b6020820180516001600160e01b0383818316178352505050506040516102e590610474565b6102f092919061067a565b604051809103905ff080158015610309573d5f5f3e3d5ffd5b506001805480820182555f919091527fb10e2d527612073b26eecdfd717e6a320cf44b4afac2b0732d9fcbe2b7fa0cf60180546001600160a01b0319166001600160a01b03831690811790915560405190815290915033907f5d762f4157f2f30e37945811068247db4c57111102d0f44d2e9d16a792d7496f9060200160405180910390a250505050565b600181815481106103a3575f80fd5b5f918252602090912001546001600160a01b0316905081565b6103c46103f9565b6001600160a01b0381166103ed57604051631e4fbdf760e01b81525f6004820152602401610208565b6103f681610425565b50565b5f546001600160a01b031633146102765760405163118cdaa760e01b8152336004820152602401610208565b5f80546001600160a01b038381166001600160a01b0319831681178455604051919092169283917f8be0079c531659141344cd1fd0a4f28419497f9722a3daafe3b4186f6b6457e09190a35050565b6103d0806106a683390190565b5f60208284031215610491575f5ffd5b81356001600160a01b03811681146104a7575f5ffd5b9392505050565b634e487b7160e01b5f52604160045260245ffd5b5f82601f8301126104d1575f5ffd5b813567ffffffffffffffff8111156104eb576104eb6104ae565b604051601f8201601f19908116603f0116810167ffffffffffffffff8111828210171561051a5761051a6104ae565b604052818152838201602001851015610531575f5ffd5b816020850160208301375f918101602001919091529392505050565b5f5f5f6060848603121561055f575f5ffd5b833567ffffffffffffffff811115610575575f5ffd5b610581868287016104c2565b935050602084013567ffffffffffffffff81111561059d575f5ffd5b6105a9868287016104c2565b925050604084013563ffffffff811681146105c2575f5ffd5b809150509250925092565b5f602082840312156105dd575f5ffd5b5035919050565b634e487b7160e01b5f52603260045260245ffd5b5f81518084528060208401602086015e5f602082860101526020601f19601f83011685010191505092915050565b60a081525f61063860a08301886105f8565b828103602084015261064a81886105f8565b6001600160a01b0396871660408501529490951660608301525063ffffffff919091166080909101529392505050565b6001600160a01b03831681526040602082018190525f9061069d908301846105f8565b94935050505056fe60806040526040516103d03803806103d08339810160408190526100229161023c565b61002c8282610033565b5050610321565b61003c82610091565b6040516001600160a01b038316907fbc7cd75a20ee27fd9adebab32041f755214dbc6bffa90cc0225b39da2e5c2d3b905f90a280511561008557610080828261010c565b505050565b61008d61017f565b5050565b806001600160a01b03163b5f036100cb57604051634c9c8ce360e01b81526001600160a01b03821660048201526024015b60405180910390fd5b7f360894a13ba1a3210667c828492db98dca3e2076cc3735a920a3ca505d382bbc80546001600160a01b0319166001600160a01b0392909216919091179055565b60605f5f846001600160a01b031684604051610128919061030b565b5f60405180830381855af49150503d805f8114610160576040519150601f19603f3d011682016040523d82523d5f602084013e610165565b606091505b5090925090506101768583836101a0565b95945050505050565b341561019e5760405163b398979f60e01b815260040160405180910390fd5b565b6060826101b5576101b0826101ff565b6101f8565b81511580156101cc57506001600160a01b0384163b155b156101f557604051639996b31560e01b81526001600160a01b03851660048201526024016100c2565b50805b9392505050565b80511561020f5780518082602001fd5b60405163d6bda27560e01b815260040160405180910390fd5b634e487b7160e01b5f52604160045260245ffd5b5f5f6040838503121561024d575f5ffd5b82516001600160a01b0381168114610263575f5ffd5b60208401519092506001600160401b0381111561027e575f5ffd5b8301601f8101851361028e575f5ffd5b80516001600160401b038111156102a7576102a7610228565b604051601f8201601f19908116603f011681016001600160401b03811182821017156102d5576102d5610228565b6040528181528282016020018710156102ec575f5ffd5b8160208401602083015e5f602083830101528093505050509250929050565b5f82518060208501845e5f920191825250919050565b60a38061032d5f395ff3fe6080604052600a600c565b005b60186014601a565b6050565b565b5f604b7f360894a13ba1a3210667c828492db98dca3e2076cc3735a920a3ca505d382bbc546001600160a01b031690565b905090565b365f5f375f5f365f845af43d5f5f3e8080156069573d5ff35b3d5ffdfea26469706673582212205259876e043d15d023115ef7b0ffced3edfcc7509615f465f142b3f08291d94164736f6c634300081b0033a264697066735822122025fc0a66636503b3304ac3083fdb847590573c9bb99953460924997eac1ae33064736f6c634300081b0033","linkReferences":{}},"methodIdentifiers":{"createPumpToken(string,string,uint32)":"9743372a","deployedTokens(uint256)":"ec81aadb","isDeployedToken(address)":"4c1c7ddf","owner()":"8da5cb5b","pumpImplementation()":"6bdf00b9","renounceOwnership()":"715018a6","transferOwnership(address)":"f2fde38b","uniswapV2Router()":"1694505e","updatePumpImplementation(address)":"6456928b"},"id":49}