{"abi":[{"type":"constructor","inputs":[],"stateMutability":"nonpayable"},{"type":"receive","stateMutability":"payable"},{"type":"function","name":"collectFee","inputs":[],"outputs":[],"stateMutability":"nonpayable"},{"type":"function","name":"createPumpToken","inputs":[{"name":"name","type":"string","internalType":"string"},{"name":"symbol","type":"string","internalType":"string"},{"name":"reserveRatio","type":"uint32","internalType":"uint32"}],"outputs":[],"stateMutability":"nonpayable"},{"type":"function","name":"deployedTokens","inputs":[{"name":"","type":"uint256","internalType":"uint256"}],"outputs":[{"name":"","type":"address","internalType":"contract PumpToken"}],"stateMutability":"view"},{"type":"function","name":"owner","inputs":[],"outputs":[{"name":"","type":"address","internalType":"address"}],"stateMutability":"view"},{"type":"function","name":"renounceOwnership","inputs":[],"outputs":[],"stateMutability":"nonpayable"},{"type":"function","name":"transferOwnership","inputs":[{"name":"newOwner","type":"address","internalType":"address"}],"outputs":[],"stateMutability":"nonpayable"},{"type":"event","name":"OwnershipTransferred","inputs":[{"name":"previousOwner","type":"address","indexed":true,"internalType":"address"},{"name":"newOwner","type":"address","indexed":true,"internalType":"address"}],"anonymous":false},{"type":"event","name":"PumpTokenCreated","inputs":[{"name":"tokenAddress","type":"address","indexed":false,"internalType":"address"},{"name":"owner","type":"address","indexed":true,"internalType":"address"}],"anonymous":false},{"type":"error","name":"OwnableInvalidOwner","inputs":[{"name":"owner","type":"address","internalType":"address"}]},{"type":"error","name":"OwnableUnauthorizedAccount","inputs":[{"name":"account","type":"address","internalType":"address"}]}],"bytecode":{"object":"0x608060405234801561001057600080fd5b50338061003757604051631e4fbdf760e01b81526000600482015260240160405180910390fd5b61004081610046565b50610096565b600080546001600160a01b038381166001600160a01b0319831681178455604051919092169283917f8be0079c531659141344cd1fd0a4f28419497f9722a3daafe3b4186f6b6457e09190a35050565b614333806100a56000396000f3fe608060405260043610620000605760003560e01c8063715018a6146200006d5780638da5cb5b14620000875780639743372a14620000be578063d4d5d32a14620000e3578063ec81aadb14620000fb578063f2fde38b146200012057600080fd5b366200006857005b600080fd5b3480156200007a57600080fd5b506200008562000145565b005b3480156200009457600080fd5b506000546001600160a01b03165b6040516001600160a01b03909116815260200160405180910390f35b348015620000cb57600080fd5b5062000085620000dd36600462000540565b6200015d565b348015620000f057600080fd5b506200008562000288565b3480156200010857600080fd5b50620000a26200011a366004620005c9565b62000399565b3480156200012d57600080fd5b50620000856200013f366004620005e3565b620003c4565b6200014f62000408565b6200015b600062000437565b565b6200016762000408565b6000604051620001779062000487565b604051809103906000f08015801562000194573d6000803e3d6000fd5b506040516388b2cde160e01b81529091506001600160a01b038216906388b2cde190620001cc9087908790309088906004016200065d565b600060405180830381600087803b158015620001e757600080fd5b505af1158015620001fc573d6000803e3d6000fd5b50506001805480820182556000919091527fb10e2d527612073b26eecdfd717e6a320cf44b4afac2b0732d9fcbe2b7fa0cf60180546001600160a01b0319166001600160a01b0385169081179091556040519081523392507f5d762f4157f2f30e37945811068247db4c57111102d0f44d2e9d16a792d7496f915060200160405180910390a250505050565b6200029262000408565b4780620002de5760405162461bcd60e51b8152602060048201526015602482015274139bc818985b185b98d9481d1bc818dbdb1b1958dd605a1b60448201526064015b60405180910390fd5b600080546040516001600160a01b039091169083908381818185875af1925050503d80600081146200032d576040519150601f19603f3d011682016040523d82523d6000602084013e62000332565b606091505b5050905080620003955760405162461bcd60e51b815260206004820152602760248201527f4661696c656420746f207472616e73666572207468652066656520746f207468604482015266329037bbb732b960c91b6064820152608401620002d5565b5050565b60018181548110620003aa57600080fd5b6000918252602090912001546001600160a01b0316905081565b620003ce62000408565b6001600160a01b038116620003fa57604051631e4fbdf760e01b815260006004820152602401620002d5565b620004058162000437565b50565b6000546001600160a01b031633146200015b5760405163118cdaa760e01b8152336004820152602401620002d5565b600080546001600160a01b038381166001600160a01b0319831681178455604051919092169283917f8be0079c531659141344cd1fd0a4f28419497f9722a3daafe3b4186f6b6457e09190a35050565b613c4f80620006af83390190565b634e487b7160e01b600052604160045260246000fd5b600082601f830112620004bd57600080fd5b813567ffffffffffffffff80821115620004db57620004db62000495565b604051601f8301601f19908116603f0116810190828211818310171562000506576200050662000495565b816040528381528660208588010111156200052057600080fd5b836020870160208301376000602085830101528094505050505092915050565b6000806000606084860312156200055657600080fd5b833567ffffffffffffffff808211156200056f57600080fd5b6200057d87838801620004ab565b945060208601359150808211156200059457600080fd5b50620005a386828701620004ab565b925050604084013563ffffffff81168114620005be57600080fd5b809150509250925092565b600060208284031215620005dc57600080fd5b5035919050565b600060208284031215620005f657600080fd5b81356001600160a01b03811681146200060e57600080fd5b9392505050565b6000815180845260005b818110156200063d576020818501810151868301820152016200061f565b506000602082860101526020601f19601f83011685010191505092915050565b60808152600062000672608083018762000615565b828103602084015262000686818762000615565b6001600160a01b03959095166040840152505063ffffffff919091166060909101529291505056fe60c06040526003608090815262302e3360e81b60a05260009062000024908262000807565b503480156200003257600080fd5b506001641c35fedd1560601b036021556001646c3390ecc9605e1b036022556001640cf801476160611b0360235560016431bdb23e1d605f1b0360245560016502fb1d8fe083605b1b0360255560016505b771955b37605a1b036026556001650af67a93bb5160591b0360275560016515060c256cb360581b036028556001651428a2f98d7360581b036029556001654d515663970960561b03602a55600165944620b0e70f60551b03602b55600166011c592761c66760541b03602c5560016602214d10d014eb60531b03602d55600166020ade36b7dbef60531b03602e5560016603eab73b3bbfe360521b03602f556001660782ee3593f6d760511b036030556001661ccf4b44bb4821604f1b0360315560016606e7f88ad8a77760511b0360325560016669f3d1c921891d604d1b03603355600166cb2ff529eb71e5604c1b03603455600166c2d415c3db974b604c1b0360355560016702eb40f9f620fda7604a1b0360365560016705990681d961a1eb60491b03603755600167055e12902701414760491b0360385560016714962dee9dc9764160471b0360395560016704ef57b9b560fab560491b03603a5560016712ed7b32a58f552b60471b03603b556001679131271922eaa60760441b03603c556001678b380f3558668c4760441b03603d556001680215f77c045fbe885760421b03603e556001600160831b03603f556001670f577eded5773a1160471b036040556001680eb5ec597592befbf5603f1b036041556001681c35fedd14b861eb05603e1b036042556001683619c87664579bc94b603d1b0360435560016867c00a3b07ffc01fd7603c1b03604455600168c6f6c8f8739773a7a5603b1b03604555600168bec763f8209b7a72b1603b1b0360465560016902dbb8caad9b7097b91b60391b03604755600169057b3d49dda84556d6f760381b03604855600169054183095b2c8ececf3160381b036049556001690a14517cc6b9457111ef60371b03604a5560016913545598e5c23276ccf160361b03604b556001692511882c39c3adea96ff60351b03604c55600169471649d87199aa99075760341b03604d557004429a21a029d4c1457cfbffffffffffff604e55700415bc6d6fb7dd71af2cb3ffffffffffff604f557003eab73b3bbfe282243ce1ffffffffffff6050557003c1771ac9fb6b4c18e229ffffffffffff605155700399e96897690418f785257fffffffffff605255700373fc456c53bb779bf0ea9fffffffffff60535570034f9e8e490c48e67e6ab8bfffffffffff60545570032cbfd4a7adc790560b3337ffffffffff60555570030b50570f6e5d2acca94613ffffffffff6056557002eb40f9f620fda6b56c2861ffffffffff6057557002cc8340ecb0d0f520a6af58ffffffffff6058557002af09481380a0a35cf1ba02ffffffffff605955700292c5bdd3b92ec810287b1b3fffffffff605a55700277abdcdab07d5a77ac6d6b9fffffffff605b5570025daf6654b1eaa55fd64df5efffffffff605c55700244c49c648baa98192dce88b7ffffffff605d5570022ce03cd5619a311b2471268bffffffff605e55700215f77c045fbe885654a44a0fffffffff605f556001600160811b036060557001eaefdbdaaee7421fc4d3ede5ffffffff6061557001d6bd8b2eb257df7e8ca57b09bfffffff6062557001c35fedd14b861eb0443f7f133fffffff6063557001b0ce43b322bcde4a56e8ada5afffffff60645570019f0028ec1fff007f5a195a39dfffffff60655570018ded91f0e72ee74f49b15ba527ffffff60665570017d8ec7f04136f4e5615fd41a63ffffff60675570016ddc6556cdb84bdc8d12d22e6fffffff60685570015ecf52776a1155b5bd8395814f7fffff60695570015060c256cb23b3b3cc3754cf40ffffff606a557001428a2f98d728ae223ddab715be3fffff606b5570013545598e5c23276ccf0ede68034fffff606c557001288c4161ce1d6f54b7f61081194fffff606d5570011c592761c666aa641d5a01a40f17ffff606e55700110a688680a7530515f3e6e6cfdcdffff606f557001056f1b5bedf75c6bcb2ce8aed428ffff6070556ffaadceceeff8a0890f3875f008277fff6071556ff05dc6b27edad306388a600f6ba0bfff6072556fe67a5a25da41063de1495d5b18cdbfff6073556fdcff115b14eedde6fc3aa5353f2e4fff6074556fd3e7a3924312399f9aae2e0f868f8fff6075556fcb2ff529eb71e41582cccd5a1ee26fff6076556fc2d415c3db974ab32a51840c0b67edff6077556fbad03e7d883f69ad5b0a186184e06bff6078556fb320d03b2c343d4829abd6075f0cc5ff6079556fabc25204e02828d73c6e80bcdb1a95bf607a556fa4b16f74ee4bb2040a1ec6c15fbbf2df607b556f9deaf736ac1f569deb1b5ae3f36c130f607c556f976bd9952c7aa957f5937d790ef65037607d556f9131271922eaa6064b73a22d0bd4f2bf607e556f8b380f3558668c46c91c49a2f8e967b9607f556f857ddf0117efa215952912839f6473e6608055620008d3565b634e487b7160e01b600052604160045260246000fd5b600181811c908216806200078d57607f821691505b602082108103620007ae57634e487b7160e01b600052602260045260246000fd5b50919050565b601f8211156200080257600081815260208120601f850160051c81016020861015620007dd5750805b601f850160051c820191505b81811015620007fe57828155600101620007e9565b5050505b505050565b81516001600160401b0381111562000823576200082362000762565b6200083b8162000834845462000778565b84620007b4565b602080601f8311600181146200087357600084156200085a5750858301515b600019600386901b1c1916600185901b178555620007fe565b600085815260208120601f198616915b82811015620008a45788860151825594840194600190910190840162000883565b5085821015620008c35787850151600019600388901b60f8161c191681555b5050505050600190811b01905550565b61336c80620008e36000396000f3fe60806040526004361061019c5760003560e01c806354fd4d50116100ec578063a9059cbb1161008a578063c816841b11610064578063c816841b14610493578063d4d5d32a146104b3578063dd62ed3e146104c8578063f088d547146104e857600080fd5b8063a9059cbb1461043d578063c45a01551461045d578063c5c4744c1461047d57600080fd5b806388b2cde1116100c657806388b2cde1146103c55780638d662ee3146103e557806395d89b411461041257806396365d441461042757600080fd5b806354fd4d501461037057806370a0823114610385578063745dae42146103a557600080fd5b806318160ddd11610159578063313ce56711610133578063313ce567146102fe5780634189a68e1461031a57806349f9b0f71461033a5780634c68df671461035a57600080fd5b806318160ddd1461029c57806323b872dd146102be57806329a00e7c146102de57600080fd5b806306fdde03146101a1578063095ea7b3146101cc57806309c773b1146101fc5780630c7d5cd8146102205780630f560cd7146102525780631694505e1461025c575b600080fd5b3480156101ad57600080fd5b506101b66104fb565b6040516101c39190612d44565b60405180910390f35b3480156101d857600080fd5b506101ec6101e7366004612da7565b6105be565b60405190151581526020016101c3565b34801561020857600080fd5b5061021260865481565b6040519081526020016101c3565b34801561022c57600080fd5b5060825461023d9063ffffffff1681565b60405163ffffffff90911681526020016101c3565b61025a6105d8565b005b34801561026857600080fd5b506082546102849064010000000090046001600160a01b031681565b6040516001600160a01b0390911681526020016101c3565b3480156102a857600080fd5b5060008051602061331783398151915254610212565b3480156102ca57600080fd5b506101ec6102d9366004612dd3565b610987565b3480156102ea57600080fd5b506102126102f9366004612e2d565b6109ad565b34801561030a57600080fd5b50604051601281526020016101c3565b34801561032657600080fd5b5061025a610335366004612e6a565b610a72565b34801561034657600080fd5b50610212610355366004612e2d565b610ba9565b34801561036657600080fd5b5061021260855481565b34801561037c57600080fd5b506101b6610c8c565b34801561039157600080fd5b506102126103a0366004612e9a565b610d1a565b3480156103b157600080fd5b5061025a6103c0366004612eb7565b610d42565b3480156103d157600080fd5b5061025a6103e0366004612f73565b610e7a565b3480156103f157600080fd5b50610212610400366004612e9a565b60886020526000908152604090205481565b34801561041e57600080fd5b506101b6610fe6565b34801561043357600080fd5b5061021260815481565b34801561044957600080fd5b506101ec610458366004612da7565b611025565b34801561046957600080fd5b50608754610284906001600160a01b031681565b34801561048957600080fd5b5061021260845481565b34801561049f57600080fd5b50608354610284906001600160a01b031681565b3480156104bf57600080fd5b5061025a611033565b3480156104d457600080fd5b506102126104e3366004612ffa565b6110b0565b61025a6104f6366004612e9a565b6110fa565b7f52c63247e1f47db19d5ce0460030c497f067ca4cebf71ba98eeadabe20bace0380546060916000805160206132f78339815191529161053a90613028565b80601f016020809104026020016040519081016040528092919081815260200182805461056690613028565b80156105b35780601f10610588576101008083540402835291602001916105b3565b820191906000526020600020905b81548152906001019060200180831161059657829003601f168201915b505050505091505090565b6000336105cc81858561111a565b60019150505b92915050565b608754600160a01b900460ff166105ee57600080fd5b67016345785d8a0000341461060257600080fd5b67d02ab486cedc0000608454101561061957600080fd5b6000608260049054906101000a90046001600160a01b03166001600160a01b031663c45a01556040518163ffffffff1660e01b8152600401602060405180830381865afa15801561066e573d6000803e3d6000fd5b505050506040513d601f19601f820116820180604052508101906106929190613062565b90506000608260049054906101000a90046001600160a01b03166001600160a01b031663ad5c46486040518163ffffffff1660e01b8152600401602060405180830381865afa1580156106e9573d6000803e3d6000fd5b505050506040513d601f19601f8201168201806040525081019061070d9190613062565b6040516364e329cb60e11b81523060048201526001600160a01b0380831660248301529192509083169063c9c65396906044016020604051808303816000875af115801561075f573d6000803e3d6000fd5b505050506040513d601f19601f820116820180604052508101906107839190613062565b608380546001600160a01b0319166001600160a01b039290921691909117905560006107d16107be6000805160206133178339815191525490565b608454676124fee993bc00009190611127565b6083549091506107ea906001600160a01b0316826111e2565b816001600160a01b031663d0e30db0676124fee993bc00006040518263ffffffff1660e01b81526004016000604051808303818588803b15801561082d57600080fd5b505af1158015610841573d6000803e3d6000fd5b505060835460405163a9059cbb60e01b81526001600160a01b039182166004820152676124fee993bc00006024820152908616935063a9059cbb925060440190506020604051808303816000875af11580156108a1573d6000803e3d6000fd5b505050506040513d601f19601f820116820180604052508101906108c5919061307f565b6108d1576108d16130a1565b6083546040516335313c2160e11b81526001600160a01b03858116600483015290911690636a627842906024016020604051808303816000875af115801561091d573d6000803e3d6000fd5b505050506040513d601f19601f8201168201806040525081019061094191906130b7565b506087805460ff60a01b191690556040518181527fdd11eaf2db1c16b640194c05b02faa4b8bc4abf29c61428e990e72c6c15cff779060200160405180910390a1505050565b600033610995858285611221565b6109a0858585611287565b60019150505b9392505050565b600080851180156109be5750600084115b80156109d0575060008363ffffffff16115b80156109e55750620f424063ffffffff841611155b6109ee57600080fd5b816000036109fe57506000610a6a565b620f423f1963ffffffff841601610a2157610a1a858386611127565b9050610a6a565b60008080610a2f87866130e6565b9050610a40818888620f42406112e6565b9093509150600060ff8316610a55858b6130f9565b901c9050610a638982613110565b9450505050505b949350505050565b608754600160a01b900460ff16610a8857600080fd5b3360009081526088602052604081205490610aa38483611426565b9050610aaf8183613110565b33600090815260886020526040902055608654610acd908290613110565b6086556000610adc3386611436565b90506000610ae9826114a9565b9250505080608454610afb9190613110565b6084556040516000906001600160a01b0387169083908381818185875af1925050503d8060008114610b49576040519150601f19603f3d011682016040523d82523d6000602084013e610b4e565b606091505b5050905080610b5c57600080fd5b60408051888152602081018490526001600160a01b038816917fed7a144fad14804d5c249145e3e0e2b63a9eb455b76aee5bc92d711e9bba3e4a910160405180910390a250505050505050565b60008085118015610bba5750600084115b8015610bcc575060008363ffffffff16115b8015610be15750620f424063ffffffff841611155b8015610bed5750848211155b610bf657600080fd5b81600003610c0657506000610a6a565b848203610c14575082610a6a565b620f423f1963ffffffff841601610c3057610a1a848387611127565b60008080610c3e8589613110565b9050610c4f8882620f4240896112e6565b90935091506000610c6084896130f9565b905060ff831688901b84610c748284613110565b610c7e9190613139565b9a9950505050505050505050565b60008054610c9990613028565b80601f0160208091040260200160405190810160405280929190818152602001828054610cc590613028565b8015610d125780601f10610ce757610100808354040283529160200191610d12565b820191906000526020600020905b815481529060010190602001808311610cf557829003601f168201915b505050505081565b6001600160a01b031660009081526000805160206132f7833981519152602052604090205490565b608754600160a01b900460ff16610d5857600080fd5b3360008181526088602052604081205491610d899084908490610d7a90610d1a565b610d849190613110565b611426565b9050610d9581836130e6565b33600090815260886020526040902055608654610db39082906130e6565b60865560405181815233907f38ed2b0a6fac1bede304be559828c18972af2743a8d0bc246990852c1247efdf9060200160405180910390a2608654610e236113ec620186a0610e1c610e116000805160206133178339815191525490565b633b9aca00906114ff565b9190611127565b11610e7557610e3460855430611520565b7fd30f7a63ab898434aa3f87d8119ad5761a566c84836ab12f6c2c4dd7a7b01275608554604051610e6791815260200190565b60405180910390a160006085555b505050565b7ff0c57e16840df040f15088dc2f81fe391c3923bec73e23a9662efc9c229c6a008054600160401b810460ff16159067ffffffffffffffff16600081158015610ec05750825b905060008267ffffffffffffffff166001148015610edd5750303b155b905081158015610eeb575080155b15610f095760405163f92ee8a960e01b815260040160405180910390fd5b845467ffffffffffffffff191660011785558315610f3357845460ff60401b1916600160401b1785555b610f3d89896115a5565b60878054608280546001600160a81b03199092166001600160a01b038b1617600160a01b1790925577c7bfc828c49a14bea1e6c56fde2545b19f1cc31e000000006001600160c01b031990911663ffffffff8916171790558315610fdb57845460ff60401b19168555604051600181527fc7f505b2f371ae2175ee4913f4499e1f2633a7b5936321eed1cdaeb6115181d29060200160405180910390a15b505050505050505050565b7f52c63247e1f47db19d5ce0460030c497f067ca4cebf71ba98eeadabe20bace0480546060916000805160206132f78339815191529161053a90613028565b6000336105cc818585611287565b6087546084546085546000926001600160a01b031691906110549047613110565b61105e9190613110565b604051600081818185875af1925050503d806000811461109a576040519150601f19603f3d011682016040523d82523d6000602084013e61109f565b606091505b50509050806110ad57600080fd5b50565b6001600160a01b0391821660009081527f52c63247e1f47db19d5ce0460030c497f067ca4cebf71ba98eeadabe20bace016020908152604080832093909416825291909152205490565b608754600160a01b900460ff1661111057600080fd5b6110ad3482611520565b610e7583838360016115b7565b600083830281600019858709828110838203039150508060000361115e5783828161115457611154613123565b04925050506109a6565b80841161117557611175600385150260111861169f565b6000848688096000868103871696879004966002600389028118808a02820302808a02820302808a02820302808a02820302808a02820302808a02909103029181900381900460010186841190950394909402919094039290920491909117919091029150509392505050565b6001600160a01b0382166112115760405163ec442f0560e01b8152600060048201526024015b60405180910390fd5b61121d600083836116b1565b5050565b600061122d84846110b0565b90506000198114611281578181101561127257604051637dc7a0d960e11b81526001600160a01b03841660048201526024810182905260448101839052606401611208565b611281848484840360006115b7565b50505050565b6001600160a01b0383166112b157604051634b637e8f60e11b815260006004820152602401611208565b6001600160a01b0382166112db5760405163ec442f0560e01b815260006004820152602401611208565b610e758383836116b1565b600080600160811b86106112fc576112fc6130a1565b8486101561134c5760405162461bcd60e51b815260206004820152601c60248201527f4261736573203c203120617265206e6f7420737570706f727465642e000000006044820152606401611208565b6000808661135e6001607f1b8a6130f9565b6113689190613139565b905070015bf0a8b1457695355fb8ac404e7a79e38110156113935761138c816117ef565b915061139f565b61139c81611d68565b91505b60008563ffffffff168763ffffffff16846113ba91906130f9565b6113c49190613139565b9050600160831b8110156113e9576113db81611e57565b607f9450945050505061141d565b60006113f482612482565b905061141061140482607f61314d565b60ff1683901c82612547565b9550935061141d92505050565b94509492505050565b60008282188284100282186109a6565b6000808211801561144f57508161144c84610d1a565b10155b61145857600080fd5b60006114856114736000805160206133178339815191525490565b60815460825463ffffffff1686610ba9565b90506114918484612bae565b8060815461149f9190613110565b6081559392505050565b600080806114bd846101f4620186a0611127565b92506114ce846064620186a0611127565b9150816114db8486613110565b6114e59190613110565b9050826085546114f591906130e6565b6085559193909250565b6000818310611517576115128284613110565b6109a6565b50600092915050565b6000821161152d57600080fd5b6000611538836114a9565b9250505060006115488284612be4565b90508160845461155891906130e6565b60845560408051838152602081018390526001600160a01b038516917f1cbc5ab135991bd2b6a4b034a04aa2aa086dac1371cb9b16b8b5e2ed6b036bed910160405180910390a250505050565b6115ad612c39565b61121d8282612c84565b6000805160206132f78339815191526001600160a01b0385166115f05760405163e602df0560e01b815260006004820152602401611208565b6001600160a01b03841661161a57604051634a1406b160e11b815260006004820152602401611208565b6001600160a01b0380861660009081526001830160209081526040808320938816835292905220839055811561169857836001600160a01b0316856001600160a01b03167f8c5be1e5ebec7d5bd14f71427d1e84f3dd0314c0f7b2291e5b200ac8c7c3b9258560405161168f91815260200190565b60405180910390a35b5050505050565b634e487b71600052806020526024601cfd5b6000805160206132f78339815191526001600160a01b0384166116ed57818160020160008282546116e291906130e6565b9091555061175f9050565b6001600160a01b038416600090815260208290526040902054828110156117405760405163391434e360e21b81526001600160a01b03861660048201526024810182905260448101849052606401611208565b6001600160a01b03851660009081526020839052604090209083900390555b6001600160a01b03831661177d57600281018054839003905561179c565b6001600160a01b03831660009081526020829052604090208054830190555b826001600160a01b0316846001600160a01b03167fddf252ad1be2c89b69c2b068fc378daa952ba7f163c4a11628f55a4df523b3ef846040516117e191815260200190565b60405180910390a350505050565b6000808080806fd3094c70f034de4b96ff7d5b6f99fcd886106118485761181a6001607e1b856130e6565b93506fd3094c70f034de4b96ff7d5b6f99fcd861183b6001607f1b886130f9565b6118459190613139565b95505b6fa45af1e1f40c333b3de1db4dd55f29a7861061189b5761186d6001607d1b856130e6565b93506fa45af1e1f40c333b3de1db4dd55f29a761188e6001607f1b886130f9565b6118989190613139565b95505b6f910b022db7ae67ce76b441c27035c6a186106118ee576118c06001607c1b856130e6565b93506f910b022db7ae67ce76b441c27035c6a16118e16001607f1b886130f9565b6118eb9190613139565b95505b6f88415abbe9a76bead8d00cf112e4d4a88610611941576119136001607b1b856130e6565b93506f88415abbe9a76bead8d00cf112e4d4a86119346001607f1b886130f9565b61193e9190613139565b95505b6f84102b00893f64c705e841d5d4064bd38610611994576119666001607a1b856130e6565b93506f84102b00893f64c705e841d5d4064bd36119876001607f1b886130f9565b6119919190613139565b95505b6f8204055aaef1c8bd5c3259f4822735a286106119e7576119b9600160791b856130e6565b93506f8204055aaef1c8bd5c3259f4822735a26119da6001607f1b886130f9565b6119e49190613139565b95505b6f810100ab00222d861931c15e39b44e998610611a3a57611a0c600160781b856130e6565b93506f810100ab00222d861931c15e39b44e99611a2d6001607f1b886130f9565b611a379190613139565b95505b6f808040155aabbbe9451521693554f7338610611a8d57611a5f600160771b856130e6565b93506f808040155aabbbe9451521693554f733611a806001607f1b886130f9565b611a8a9190613139565b95505b611a9b6001607f1b87613110565b92508291506001607f1b611aaf83806130f9565b611ab99190613139565b9050600160801b611aca8482613110565b611ad490846130f9565b611ade9190613139565b611ae890856130e6565b93506001607f1b611af982846130f9565b611b039190613139565b9150600160811b611b24846faaaaaaaaaaaaaaaaaaaaaaaaaaaaaaaa613110565b611b2e90846130f9565b611b389190613139565b611b4290856130e6565b93506001607f1b611b5382846130f9565b611b5d9190613139565b9150600360801b611b7e846f99999999999999999999999999999999613110565b611b8890846130f9565b611b929190613139565b611b9c90856130e6565b93506001607f1b611bad82846130f9565b611bb79190613139565b9150600160821b611bd8846f92492492492492492492492492492492613110565b611be290846130f9565b611bec9190613139565b611bf690856130e6565b93506001607f1b611c0782846130f9565b611c119190613139565b9150600560801b611c32846f8e38e38e38e38e38e38e38e38e38e38e613110565b611c3c90846130f9565b611c469190613139565b611c5090856130e6565b93506001607f1b611c6182846130f9565b611c6b9190613139565b9150600360811b611c8c846f8ba2e8ba2e8ba2e8ba2e8ba2e8ba2e8b613110565b611c9690846130f9565b611ca09190613139565b611caa90856130e6565b93506001607f1b611cbb82846130f9565b611cc59190613139565b9150600760801b611ce6846f89d89d89d89d89d89d89d89d89d89d89613110565b611cf090846130f9565b611cfa9190613139565b611d0490856130e6565b93506001607f1b611d1582846130f9565b611d1f9190613139565b9150600160831b611d40846f88888888888888888888888888888888613110565b611d4a90846130f9565b611d549190613139565b611d5e90856130e6565b9695505050505050565b60008082600160801b8110611dad576000611d8f611d8a6001607f1b84613139565b612cd5565b60ff811692831c92909150611da9906001607f1b906130f9565b9250505b6001607f1b811115611e2257607f5b60ff811615611e20576001607f1b611dd483806130f9565b611dde9190613139565b9150600160801b8210611e1057600191821c91611dfb908261314d565b60ff166001901b83611e0d91906130e6565b92505b611e1981613166565b9050611dbc565b505b6f05b9de1d10bf4103d647b0955897ba80611e4d6f03f80fe03f80fe03f80fe03f80fe03f8846130f9565b610a6a9190613139565b6000808080611e6a6001607c1b86613183565b91508190506001607f1b611e7e82806130f9565b611e889190613139565b9050611e9c816710e1b3be415a00006130f9565b611ea690846130e6565b92506001607f1b611eb783836130f9565b611ec19190613139565b9050611ed5816705a0913f6b1e00006130f9565b611edf90846130e6565b92506001607f1b611ef083836130f9565b611efa9190613139565b9050611f0e81670168244fdac780006130f9565b611f1890846130e6565b92506001607f1b611f2983836130f9565b611f339190613139565b9050611f4681664807432bc180006130f9565b611f5090846130e6565b92506001607f1b611f6183836130f9565b611f6b9190613139565b9050611f7e81660c0135dca040006130f9565b611f8890846130e6565b92506001607f1b611f9983836130f9565b611fa39190613139565b9050611fb6816601b707b1cdc0006130f9565b611fc090846130e6565b92506001607f1b611fd183836130f9565b611fdb9190613139565b9050611fed816536e0f639b8006130f9565b611ff790846130e6565b92506001607f1b61200883836130f9565b6120129190613139565b905061202481650618fee9f8006130f9565b61202e90846130e6565b92506001607f1b61203f83836130f9565b6120499190613139565b905061205a81649c197dcc006130f9565b61206490846130e6565b92506001607f1b61207583836130f9565b61207f9190613139565b905061209081640e30dce4006130f9565b61209a90846130e6565b92506001607f1b6120ab83836130f9565b6120b59190613139565b90506120c68164012ebd13006130f9565b6120d090846130e6565b92506001607f1b6120e183836130f9565b6120eb9190613139565b90506120fb816317499f006130f9565b61210590846130e6565b92506001607f1b61211683836130f9565b6121209190613139565b9050612130816301a9d4806130f9565b61213a90846130e6565b92506001607f1b61214b83836130f9565b6121559190613139565b905061216481621c63806130f9565b61216e90846130e6565b92506001607f1b61217f83836130f9565b6121899190613139565b9050612198816201c6386130f9565b6121a290846130e6565b92506001607f1b6121b383836130f9565b6121bd9190613139565b90506121cb81611ab86130f9565b6121d590846130e6565b92506001607f1b6121e683836130f9565b6121f09190613139565b90506121fe8161017c6130f9565b61220890846130e6565b92506001607f1b61221983836130f9565b6122239190613139565b90506122308160146130f9565b61223a90846130e6565b92506001607f1b61224b83836130f9565b6122559190613139565b90506122628160016130f9565b61226c90846130e6565b92506001607f1b826122866721c3677c82b4000086613139565b61229091906130e6565b61229a91906130e6565b92506001607c1b8516156122e25770018ebef9eac820ae8682b9793ac6d1e7766122d5847001c3d6a24ed82218787d624d3e5eba95f96130f9565b6122df9190613139565b92505b6001607d1b851615612328577001368b2fc6f9609fe7aceb46aa619baed461231b8470018ebef9eac820ae8682b9793ac6d1e7786130f9565b6123259190613139565b92505b6001607e1b85161561236d576fbc5ab1b16779be3575bd8f0520a9f21f612360847001368b2fc6f9609fe7aceb46aa619baed56130f9565b61236a9190613139565b92505b6001607f1b8516156123b1576f454aaa8efe072e7f6ddbab84b40a55c96123a4846fbc5ab1b16779be3575bd8f0520a9f21e6130f9565b6123ae9190613139565b92505b600160801b8516156123f5576f0960aadc109e7a3bf4578099615711ea6123e8846f454aaa8efe072e7f6ddbab84b40a55c56130f9565b6123f29190613139565b92505b600160811b851615612438576e2bf84208204f5977f9a8cf01fdce3d61242b846f0960aadc109e7a3bf4578099615711d76130f9565b6124359190613139565b92505b600160821b851615612479576d03c6ab775dd0b95b4cbee7e65d1161246c846e2bf84208204f5977f9a8cf01fdc3076130f9565b6124769190613139565b92505b50909392505050565b60006020607f5b60ff8116612498836001613197565b60ff1610156124eb57600060026124af8385613197565b6124b991906131b0565b90508460018260ff16608081106124d2576124d26131d2565b0154106124e1578092506124e5565b8091505b50612489565b8360018260ff1660808110612502576125026131d2565b015410612510579392505050565b8360018360ff1660808110612527576125276131d2565b015410612535575092915050565b61253d6130a1565b5060009392505050565b6000828160ff841661255983806130f9565b901c9150612577826f03442c4e6074a82f1797f72ac00000006130f9565b61258190826130e6565b905060ff841661259186846130f9565b901c91506125af826f0116b96f757c380fb287fd0e400000006130f9565b6125b990826130e6565b905060ff84166125c986846130f9565b901c91506125e6826e45ae5bdd5f0e03eca1ff43900000006130f9565b6125f090826130e6565b905060ff841661260086846130f9565b901c915061261d826e0defabf91302cd95b9ffda500000006130f9565b61262790826130e6565b905060ff841661263786846130f9565b901c9150612654826e02529ca9832b22439efff9b80000006130f9565b61265e90826130e6565b905060ff841661266e86846130f9565b901c915061268a826d54f1cf12bd04e516b6da880000006130f9565b61269490826130e6565b905060ff84166126a486846130f9565b901c91506126c0826d0a9e39e257a09ca2d6db510000006130f9565b6126ca90826130e6565b905060ff84166126da86846130f9565b901c91506126f6826d012e066e7b839fa050c3090000006130f9565b61270090826130e6565b905060ff841661271086846130f9565b901c915061272b826c1e33d7d926c329a1ad1a8000006130f9565b61273590826130e6565b905060ff841661274586846130f9565b901c9150612760826c02bee513bdb4a6b19b5f8000006130f9565b61276a90826130e6565b905060ff841661277a86846130f9565b901c9150612794826b3a9316fa79b88eccf2a000006130f9565b61279e90826130e6565b905060ff84166127ae86846130f9565b901c91506127c8826b048177ebe1fa8123752000006130f9565b6127d290826130e6565b905060ff84166127e286846130f9565b901c91506127fb826a5263fe90242dcbacf000006130f9565b61280590826130e6565b905060ff841661281586846130f9565b901c915061282e826a057e22099c030d941000006130f9565b61283890826130e6565b905060ff841661284886846130f9565b901c9150612860826957e22099c030d94100006130f9565b61286a90826130e6565b905060ff841661287a86846130f9565b901c91506128928269052b6b545699763100006130f9565b61289c90826130e6565b905060ff84166128ac86846130f9565b901c91506128c382684985f67696bf7480006130f9565b6128cd90826130e6565b905060ff84166128dd86846130f9565b901c91506128f4826803dea12ea99e4980006130f9565b6128fe90826130e6565b905060ff841661290e86846130f9565b901c9150612924826731880f2214b6e0006130f9565b61292e90826130e6565b905060ff841661293e86846130f9565b901c91506129548267025bcff56eb360006130f9565b61295e90826130e6565b905060ff841661296e86846130f9565b901c915061298382661b722e10ab10006130f9565b61298d90826130e6565b905060ff841661299d86846130f9565b901c91506129b2826601317c700770006130f9565b6129bc90826130e6565b905060ff84166129cc86846130f9565b901c91506129e082650cba84aafa006130f9565b6129ea90826130e6565b905060ff84166129fa86846130f9565b901c9150612a0d826482573a0a006130f9565b612a1790826130e6565b905060ff8416612a2786846130f9565b901c9150612a3a826405035ad9006130f9565b612a4490826130e6565b905060ff8416612a5486846130f9565b901c9150612a6682632f881b006130f9565b612a7090826130e6565b905060ff8416612a8086846130f9565b901c9150612a92826301b293406130f9565b612a9c90826130e6565b905060ff8416612aac86846130f9565b901c9150612abd82620efc406130f9565b612ac790826130e6565b905060ff8416612ad786846130f9565b901c9150612ae782617fe06130f9565b612af190826130e6565b905060ff8416612b0186846130f9565b901c9150612b11826104206130f9565b612b1b90826130e6565b905060ff8416612b2b86846130f9565b901c9150612b3a8260216130f9565b612b4490826130e6565b905060ff8416612b5486846130f9565b901c9150612b638260016130f9565b612b6d90826130e6565b9050600160ff85161b85612b916f0688589cc0e9505e2f2fee558000000084613139565b612b9b91906130e6565b612ba591906130e6565b95945050505050565b6001600160a01b038216612bd857604051634b637e8f60e11b815260006004820152602401611208565b61121d826000836116b1565b6000808311612bf257600080fd5b6000612c1f612c0d6000805160206133178339815191525490565b60815460825463ffffffff16876109ad565b9050612c2b83826111e2565b8360815461149f91906130e6565b7ff0c57e16840df040f15088dc2f81fe391c3923bec73e23a9662efc9c229c6a0054600160401b900460ff16612c8257604051631afcd79f60e31b815260040160405180910390fd5b565b612c8c612c39565b6000805160206132f78339815191527f52c63247e1f47db19d5ce0460030c497f067ca4cebf71ba98eeadabe20bace03612cc68482613236565b50600481016112818382613236565b60008082610100811015612d09575b6001811115612d0457600190811c90612cfd9083613197565b9150612ce4565b612d3d565b60805b60ff811615612d3b57600160ff82161b8210612d30579182179160ff81169190911c905b60011c607f16612d0c565b505b5092915050565b600060208083528351808285015260005b81811015612d7157858101830151858201604001528201612d55565b506000604082860101526040601f19601f8301168501019250505092915050565b6001600160a01b03811681146110ad57600080fd5b60008060408385031215612dba57600080fd5b8235612dc581612d92565b946020939093013593505050565b600080600060608486031215612de857600080fd5b8335612df381612d92565b92506020840135612e0381612d92565b929592945050506040919091013590565b803563ffffffff81168114612e2857600080fd5b919050565b60008060008060808587031215612e4357600080fd5b8435935060208501359250612e5a60408601612e14565b9396929550929360600135925050565b60008060408385031215612e7d57600080fd5b823591506020830135612e8f81612d92565b809150509250929050565b600060208284031215612eac57600080fd5b81356109a681612d92565b600060208284031215612ec957600080fd5b5035919050565b634e487b7160e01b600052604160045260246000fd5b600082601f830112612ef757600080fd5b813567ffffffffffffffff80821115612f1257612f12612ed0565b604051601f8301601f19908116603f01168101908282118183101715612f3a57612f3a612ed0565b81604052838152866020858801011115612f5357600080fd5b836020870160208301376000602085830101528094505050505092915050565b60008060008060808587031215612f8957600080fd5b843567ffffffffffffffff80821115612fa157600080fd5b612fad88838901612ee6565b95506020870135915080821115612fc357600080fd5b50612fd087828801612ee6565b9350506040850135612fe181612d92565b9150612fef60608601612e14565b905092959194509250565b6000806040838503121561300d57600080fd5b823561301881612d92565b91506020830135612e8f81612d92565b600181811c9082168061303c57607f821691505b60208210810361305c57634e487b7160e01b600052602260045260246000fd5b50919050565b60006020828403121561307457600080fd5b81516109a681612d92565b60006020828403121561309157600080fd5b815180151581146109a657600080fd5b634e487b7160e01b600052600160045260246000fd5b6000602082840312156130c957600080fd5b5051919050565b634e487b7160e01b600052601160045260246000fd5b808201808211156105d2576105d26130d0565b80820281158282048414176105d2576105d26130d0565b818103818111156105d2576105d26130d0565b634e487b7160e01b600052601260045260246000fd5b60008261314857613148613123565b500490565b60ff82811682821603908111156105d2576105d26130d0565b600060ff821680613179576131796130d0565b6000190192915050565b60008261319257613192613123565b500690565b60ff81811683821601908111156105d2576105d26130d0565b600060ff8316806131c3576131c3613123565b8060ff84160491505092915050565b634e487b7160e01b600052603260045260246000fd5b601f821115610e7557600081815260208120601f850160051c8101602086101561320f5750805b601f850160051c820191505b8181101561322e5782815560010161321b565b505050505050565b815167ffffffffffffffff81111561325057613250612ed0565b6132648161325e8454613028565b846131e8565b602080601f83116001811461329957600084156132815750858301515b600019600386901b1c1916600185901b17855561322e565b600085815260208120601f198616915b828110156132c8578886015182559484019460019091019084016132a9565b50858210156132e65787850151600019600388901b60f8161c191681555b5050505050600190811b0190555056fe52c63247e1f47db19d5ce0460030c497f067ca4cebf71ba98eeadabe20bace0052c63247e1f47db19d5ce0460030c497f067ca4cebf71ba98eeadabe20bace02a264697066735822122098585b44837d2f43a2a66b48547ca138136e4c2ef5898a25b46ecdc37f166b0d64736f6c63430008140033a2646970667358221220ea21bb8d24ae7420e5243d3d3cf37a11bd78de09e14af6aba9b564ad37acd01a64736f6c63430008140033","linkReferences":{}},"methodIdentifiers":{"collectFee()":"d4d5d32a","createPumpToken(string,string,uint32)":"9743372a","deployedTokens(uint256)":"ec81aadb","owner()":"8da5cb5b","renounceOwnership()":"715018a6","transferOwnership(address)":"f2fde38b"},"id":15}