{"abi":[{"type":"constructor","inputs":[{"name":"uniswapV2Router_","type":"address","internalType":"address"},{"name":"pumpImplementation_","type":"address","internalType":"address"}],"stateMutability":"nonpayable"},{"type":"function","name":"createPumpToken","inputs":[{"name":"name","type":"string","internalType":"string"},{"name":"symbol","type":"string","internalType":"string"},{"name":"reserveRatio","type":"uint32","internalType":"uint32"}],"outputs":[],"stateMutability":"payable"},{"type":"function","name":"deployedTokens","inputs":[{"name":"","type":"uint256","internalType":"uint256"}],"outputs":[{"name":"","type":"address","internalType":"contract ERC1967Proxy"}],"stateMutability":"view"},{"type":"function","name":"isDeployedToken","inputs":[{"name":"tokenProxy","type":"address","internalType":"address"}],"outputs":[{"name":"","type":"bool","internalType":"bool"}],"stateMutability":"view"},{"type":"function","name":"owner","inputs":[],"outputs":[{"name":"","type":"address","internalType":"address"}],"stateMutability":"view"},{"type":"function","name":"pumpImplementation","inputs":[],"outputs":[{"name":"","type":"address","internalType":"address"}],"stateMutability":"view"},{"type":"function","name":"renounceOwnership","inputs":[],"outputs":[],"stateMutability":"nonpayable"},{"type":"function","name":"transferOwnership","inputs":[{"name":"newOwner","type":"address","internalType":"address"}],"outputs":[],"stateMutability":"nonpayable"},{"type":"function","name":"uniswapV2Router","inputs":[],"outputs":[{"name":"","type":"address","internalType":"address"}],"stateMutability":"view"},{"type":"function","name":"updatePumpImplementation","inputs":[{"name":"newImplementation","type":"address","internalType":"address"}],"outputs":[],"stateMutability":"nonpayable"},{"type":"event","name":"OwnershipTransferred","inputs":[{"name":"previousOwner","type":"address","indexed":true,"internalType":"address"},{"name":"newOwner","type":"address","indexed":true,"internalType":"address"}],"anonymous":false},{"type":"event","name":"PumpImplementationUpdated","inputs":[{"name":"newImplementation","type":"address","indexed":false,"internalType":"address"}],"anonymous":false},{"type":"event","name":"PumpTokenCreated","inputs":[{"name":"tokenAddress","type":"address","indexed":false,"internalType":"address"},{"name":"owner","type":"address","indexed":true,"internalType":"address"}],"anonymous":false},{"type":"error","name":"OwnableInvalidOwner","inputs":[{"name":"owner","type":"address","internalType":"address"}]},{"type":"error","name":"OwnableUnauthorizedAccount","inputs":[{"name":"account","type":"address","internalType":"address"}]}],"bytecode":{"object":"0x608060405234801561000f575f5ffd5b50604051610d22380380610d2283398101604081905261002e916100f8565b338061005357604051631e4fbdf760e01b81525f600482015260240160405180910390fd5b61005c8161008e565b50600280546001600160a01b039384166001600160a01b03199182161790915560038054929093169116179055610129565b5f80546001600160a01b038381166001600160a01b0319831681178455604051919092169283917f8be0079c531659141344cd1fd0a4f28419497f9722a3daafe3b4186f6b6457e09190a35050565b80516001600160a01b03811681146100f3575f5ffd5b919050565b5f5f60408385031215610109575f5ffd5b610112836100dd565b9150610120602084016100dd565b90509250929050565b610bec806101365f395ff3fe608060405260043610610084575f3560e01c8063715018a611610057578063715018a6146101335780638da5cb5b146101475780639743372a14610163578063ec81aadb14610176578063f2fde38b14610195575f5ffd5b80631694505e146100885780634c1c7ddf146100c45780636456928b146100f35780636bdf00b914610114575b5f5ffd5b348015610093575f5ffd5b506002546100a7906001600160a01b031681565b6040516001600160a01b0390911681526020015b60405180910390f35b3480156100cf575f5ffd5b506100e36100de36600461058f565b6101b4565b60405190151581526020016100bb565b3480156100fe575f5ffd5b5061011261010d36600461058f565b610210565b005b34801561011f575f5ffd5b506003546100a7906001600160a01b031681565b34801561013e575f5ffd5b506101126102b9565b348015610152575f5ffd5b505f546001600160a01b03166100a7565b61011261017136600461065b565b6102cc565b348015610181575f5ffd5b506100a76101903660046106db565b610435565b3480156101a0575f5ffd5b506101126101af36600461058f565b61045d565b5f805b60015481101561020857826001600160a01b0316600182815481106101de576101de6106f2565b5f918252602090912001546001600160a01b0316036102005750600192915050565b6001016101b7565b505f92915050565b61021861049a565b6001600160a01b0381166102655760405162461bcd60e51b815260206004820152600f60248201526e496e76616c6964206164647265737360881b60448201526064015b60405180910390fd5b600380546001600160a01b0319166001600160a01b0383169081179091556040519081527fef443a4e5303ed875f46ac3af635b84080e62f02b6173708765586401381f18c9060200160405180910390a150565b6102c161049a565b6102ca5f6104c6565b565b6003545f9034906001600160a01b03166375b0ec1486866102f45f546001600160a01b031690565b6002546040516103199493929133916001600160a01b03909116908b90602401610734565b6040516020818303038152906040529060e01b6020820180516001600160e01b03838183161783525050505060405161035190610582565b61035c929190610792565b6040518091039082f0905080158015610377573d5f5f3e3d5ffd5b506001805480820182555f919091527fb10e2d527612073b26eecdfd717e6a320cf44b4afac2b0732d9fcbe2b7fa0cf60180546001600160a01b0319166001600160a01b03831690811790915560405190815290915033907f5d762f4157f2f30e37945811068247db4c57111102d0f44d2e9d16a792d7496f9060200160405180910390a261042f60405180604001604052806011815260200170746f6b656e20637265617465643a20257360781b81525082610515565b50505050565b60018181548110610444575f80fd5b5f918252602090912001546001600160a01b0316905081565b61046561049a565b6001600160a01b03811661048e57604051631e4fbdf760e01b81525f600482015260240161025c565b610497816104c6565b50565b5f546001600160a01b031633146102ca5760405163118cdaa760e01b815233600482015260240161025c565b5f80546001600160a01b038381166001600160a01b0319831681178455604051919092169283917f8be0079c531659141344cd1fd0a4f28419497f9722a3daafe3b4186f6b6457e09190a35050565b61055a828260405160240161052b9291906107bd565b60408051601f198184030181529190526020810180516001600160e01b031663319af33360e01b17905261055e565b5050565b6104978180516a636f6e736f6c652e6c6f67602083015f808483855afa5050505050565b6103d0806107e783390190565b5f6020828403121561059f575f5ffd5b81356001600160a01b03811681146105b5575f5ffd5b9392505050565b634e487b7160e01b5f52604160045260245ffd5b5f82601f8301126105df575f5ffd5b813567ffffffffffffffff8111156105f9576105f96105bc565b604051601f8201601f19908116603f0116810167ffffffffffffffff81118282101715610628576106286105bc565b60405281815283820160200185101561063f575f5ffd5b816020850160208301375f918101602001919091529392505050565b5f5f5f6060848603121561066d575f5ffd5b833567ffffffffffffffff811115610683575f5ffd5b61068f868287016105d0565b935050602084013567ffffffffffffffff8111156106ab575f5ffd5b6106b7868287016105d0565b925050604084013563ffffffff811681146106d0575f5ffd5b809150509250925092565b5f602082840312156106eb575f5ffd5b5035919050565b634e487b7160e01b5f52603260045260245ffd5b5f81518084528060208401602086015e5f602082860101526020601f19601f83011685010191505092915050565b60c081525f61074660c0830189610706565b82810360208401526107588189610706565b6001600160a01b0397881660408501529587166060840152505091909316608082015263ffffffff90921660a09092019190915292915050565b6001600160a01b03831681526040602082018190525f906107b590830184610706565b949350505050565b604081525f6107cf6040830185610706565b905060018060a01b0383166020830152939250505056fe60806040526040516103d03803806103d08339810160408190526100229161023c565b61002c8282610033565b5050610321565b61003c82610091565b6040516001600160a01b038316907fbc7cd75a20ee27fd9adebab32041f755214dbc6bffa90cc0225b39da2e5c2d3b905f90a280511561008557610080828261010c565b505050565b61008d61017f565b5050565b806001600160a01b03163b5f036100cb57604051634c9c8ce360e01b81526001600160a01b03821660048201526024015b60405180910390fd5b7f360894a13ba1a3210667c828492db98dca3e2076cc3735a920a3ca505d382bbc80546001600160a01b0319166001600160a01b0392909216919091179055565b60605f5f846001600160a01b031684604051610128919061030b565b5f60405180830381855af49150503d805f8114610160576040519150601f19603f3d011682016040523d82523d5f602084013e610165565b606091505b5090925090506101768583836101a0565b95945050505050565b341561019e5760405163b398979f60e01b815260040160405180910390fd5b565b6060826101b5576101b0826101ff565b6101f8565b81511580156101cc57506001600160a01b0384163b155b156101f557604051639996b31560e01b81526001600160a01b03851660048201526024016100c2565b50805b9392505050565b80511561020f5780518082602001fd5b60405163d6bda27560e01b815260040160405180910390fd5b634e487b7160e01b5f52604160045260245ffd5b5f5f6040838503121561024d575f5ffd5b82516001600160a01b0381168114610263575f5ffd5b60208401519092506001600160401b0381111561027e575f5ffd5b8301601f8101851361028e575f5ffd5b80516001600160401b038111156102a7576102a7610228565b604051601f8201601f19908116603f011681016001600160401b03811182821017156102d5576102d5610228565b6040528181528282016020018710156102ec575f5ffd5b8160208401602083015e5f602083830101528093505050509250929050565b5f82518060208501845e5f920191825250919050565b60a38061032d5f395ff3fe6080604052600a600c565b005b60186014601a565b6050565b565b5f604b7f360894a13ba1a3210667c828492db98dca3e2076cc3735a920a3ca505d382bbc546001600160a01b031690565b905090565b365f5f375f5f365f845af43d5f5f3e8080156069573d5ff35b3d5ffdfea26469706673582212205259876e043d15d023115ef7b0ffced3edfcc7509615f465f142b3f08291d94164736f6c634300081b0033a2646970667358221220280aaa7ff313298bb11024b006a18916e6e3ef06ab539da7d54f23b813ba2af164736f6c634300081b0033","linkReferences":{}},"methodIdentifiers":{"createPumpToken(string,string,uint32)":"9743372a","deployedTokens(uint256)":"ec81aadb","isDeployedToken(address)":"4c1c7ddf","owner()":"8da5cb5b","pumpImplementation()":"6bdf00b9","renounceOwnership()":"715018a6","transferOwnership(address)":"f2fde38b","uniswapV2Router()":"1694505e","updatePumpImplementation(address)":"6456928b"},"id":49}